:10000000F82FFF1B0B2883137F1883170008840A1F
:100010000319FF0A080000308A000408840A8207D6
:100020000034003401340134023402340334043423
:1000300004340534063406340734073408340934EC
:100040000934203401342434053405342034013497
:06005000243405340534E0
:100AB4007708C3252B302C2E05110830F2000030A6
:100AC400762D8611FF301726F2008615080063255F
:100AD400F3003039031D003401346325F300F31AA5
:100AE4000034731A0134FF34F300861120381726BA
:100AF400720817268615080064008001840A04061B
:100B04000319003404067F2D83160614851005117D
:100B14008611061286168312861508004126003AAD
:100B2400031D0800CC308D264E308D2600308D26D6
:100B340000308D267F308D2E7030F2000730762500
:100B44000A30F200003076252C30F400F40BA82D86
:100B5400AB2D0800831603138614061518111812FA
:100B6400981698178312181698170C308316990044
:100B740008007708C3252A302C267708C32530308F
:100B84002C2EF2000030031D8030F3000530F400F9
:100B94000800831203138511831685110000812632
:100BA400D32DD42DD52D83120313050CF000F00C96
:100BB400700C013908000130850007309F0083164E
:100BC400850181150114811401158312851586256B
:100BD40090250530F8006430C626AC2D831203132B
:100BE40005119E25831203138611E13017268615FD
:100BF4007708F200F3012B08F400A0302C26051529
:100C040008008611E230172686157030F20007308E
:100C1400762505110B30F2000030762505152C30B1
:100C2400F400F40B132E162E0800F000F101F01F4F
:100C34001D2E85141E2E85100310F00D06160608B1
:100C44000139F00406120830F10A7102031C192E4E
:100C540070080800F50086111726F601740876025C
:100C640003183F2E7308FF00720884000120172622
:100C7400F20A0319F30AF60A302E861508008726AD
:100C8400A630F000F00B442E000081262130F00045
:100C9400F00B4A2E83120313050CF000F00C700CB9
:100CA4000139F1008D30F000F00B562E7108080068
:100CB400F401F501701C642E7208F4070318F50A98
:100CC4007308F5070310F20DF30D0310F10CF00C8B
:100CD40070087104031D5C2E7508F1007408F0009F
:100CE4000800F10087267103031D7A2E792E8126D0
:100CF4002230F000F00B7C2E7F2E81260800831218
:100D040003138515831685150800831203138511B3
:100D1400831685110800F300F5017308F200750AC3
:100D2400952E0310F20CFF3E031D932E7208F4005F
:100D34000130F405740873260830F50A7502031CA3
:100D44008F2E2230F200F20BA52EA82E0800F201FD
:100D5400F301CB25003A0319BA2E0130F100730ACE
:100D6400B52E0310F10DFF3E031DB32E7108F204DE
:100D74002730F100F10BBC2EBF2E0830F30A7302AA
:100D8400031CAB2E72080800F900831203138615A6
:100D940005117808AB001630F700BB251130F700B9
:100DA4005A257908F200053076251130F2017625AE
:100DB4007808F200123076251330F20176251430CB
:100DC400F20176251530F20176251630F2017625EA
:100DD4002630F200063076250830F2000030762501
:100DE4000330F200013076250330F200023076251C
:100DF400FF30F200043076251C30F2017625032EF4
:100E0400770884002B30831380004126003A031DA9
:100E14000034CC308D2644308D260430FA00CF3097
:100E2400F9000130F800F80B152FF90B152FFA0B08
:100E3400152F1C2F4126CC308D26BE308D268312D3
:100E44000313B6013608203E8400A92683138000CC
:100E5400023083120313B60A3602031C242F21081E
:100E6400B8002008B700B81F402FB709B809B70A5F
:100E74000319B80A770884002D3080003708B500BC
:100E84000F30B5053508013E84000B20B500370E40
:100E94000F39B700380EF039B704380E0F39B800DF
:100EA4003708F0000A30F101F200F3015A26710804
:100EB400B8007008B70035083707B70038080318BA
:100EC400380AB8007608840037088000840A380895
:100ED40080000134DD25FF308312AD00AE00AF0089
:100EE400B001B1016400831203132908B0002A0879
:100EF400B1003230F6003430F7000227003A03190B
:100F04008B2F831203133408AD003208AE0033086C
:100F1400902FFF3083120313AD00AE00AF006400C6
:100F24002D30F700F0256925003A031D952F6F2514
:100F3400FD007D08031DAC2F05100B30FC00623052
:100F4400FB00FB0BA32FFC0BA32F00008312031346
:100F54000514E12F7D03031DE12F05100330FC0070
:100F64009730FB00FB0BB42FFC0BB42FB92F83126B
:100F740003130514C330FC00CD30FB00FB0BC02F62
:100F8400FC0BC02F8312031305100330FC009730B1
:100F9400FB00FB0BCB2FFC0BCB2FD02F83120313A7
:100FA40005141A30FC00F830FB00FB0BD72FFC0BA8
:100FB400D72F000083120313A90A0319AA0A5E2576
:100FC4000514831686018312860108308316850072
:100FD4000130831285006300073083120313AC0AC7
:100FE4002C02031CED2FAC018625742FFD01831305
:0C0FF4002030840035307E2583016C2FF6
:08400000FF3FFF3FFF3FFF3FC0
:02400E00343F3D
:00000001FF
