:10000000F92FFF1B0B2883137F1883170008840A1E
:100010000319FF0A080000308A000408840A8207D6
:100020000034003401340134023402340334043423
:1000300004340534063406340734073408340934EC
:100040000934203401342434053405342034013497
:06005000243405340534E0
:100A620077089D252B30062E05110830F200003044
:100A7200472D4F25F3003039031D003401344F2533
:100A8200F300F31A0034731A0134FF34F3008611B1
:100A92002038F1257208F125861508008312031308
:100AA2008611FF30F125F2008615080064008001EE
:100AB200840A0406031900340406582D831603130E
:100AC20006148510051186110612861683128615E4
:100AD20008001B26003A031D0800CC3067264E3062
:100AE200672600306726003067267F30672E703019
:100AF200F200073047250A30F200003047252C303B
:100B0200F400F40B822D852D08008316031386143E
:100B12000615181118129816981783121816981796
:100B22000C3083169900080077089D252A30062686
:100B320077089D253030062EF2000030031D8030EC
:100B4200F3000530F40008008312031385118316A5
:100B5200851100005B26AD2DAE2DAF2D8312031340
:100B6200050CF000F00C700C013908000130850012
:100B720007309F0083168501811501148114011528
:100B8200831285155F256A250530F8007B30BF2664
:100B9200862D831203130511782583120313861100
:100BA200E130F12586157708F200F3012B08F400F5
:100BB200A0300626051508008611E230F1258615BB
:100BC2007030F2000730472505110B30F20000307B
:100BD200472505152C30F400F40BED2DF02D0800FF
:100BE200F000F101F01FF72D8514F82D8510031088
:100BF200F00D061606080139F00406120830F10A53
:100C02007102031CF32D70080800F5008611F1250E
:100C1200F601740876020318192E7308FF00720891
:100C220084000120F125F20A0319F30AF60A0A2EBA
:100C3200861508006126A630F000F00B1E2E00007B
:100C42005B262130F000F00B242E83120313050CD7
:100C5200F000F00C700C0139F1008D30F000F00B57
:100C6200302E71080800F401F501701C3E2E720846
:100C7200F4070318F50A7308F5070310F20DF30DD4
:100C82000310F10CF00C70087104031D362E750868
:100C9200F1007408F0000800F10061267103031DE1
:100CA200542E532E5B262230F000F00B562E592E76
:100CB2005B26080083120313851583168515080029
:100CC200831203138511831685110800F300F501C1
:100CD2007308F200750A6F2E0310F20CFF3E031D1B
:100CE2006D2E7208F4000130F40574084D260830A8
:100CF200F50A7502031C692E2230F200F20B7F2ED8
:100D0200822E0800F201F301A525003A0319942E60
:100D12000130F100730A8F2E0310F10DFF3E031D07
:100D22008D2E7108F2042730F100F10B962E992EC8
:100D32000830F30A7302031C852E72080800FB01B7
:100D42007808F700CA253A25003A031DA42E40254B
:100D5200AD002D08031901342D03031DB92E823075
:100D6200FA00DD30F900F90BB42EFA0BB42EB92ECD
:100D72000330FB0A7B0203180034A12EF900831210
:100D82000313861505117808AB001630F700952578
:100D92001130F70031257908F2000530472511306E
:100DA200F20147257808F200123047251330F2018C
:100DB20047251430F20147251530F2014725163038
:100DC200F20147252630F200063047250830F200AE
:100DD200003047250330F200013047250330F2008E
:100DE20002304725FF30F200043047251C30F20163
:100DF2004725DD2D770884002B30831380001B26C6
:100E0200003A031D0034CC30672644306726043094
:100E1200FA00CF30F9000130F800F80B0E2FF90B71
:100E22000E2FFA0B0E2F152F1B26CC306726BE3045
:100E3200672683120313B7013708203E84008326F6
:100E420083138000023083120313B70A3702031C94
:100E52001D2F2108B9002008B800B91F392FB80981
:100E6200B909B80A0319B90A770884002D3080003D
:100E72003808B6000F30B6053608013E84000B2054
:100E8200B600380E0F39B800390EF039B804390EF1
:100E92000F39B9003808F0000A30F101F200F3010D
:100EA20034267108B9007008B80036083807B8004F
:100EB20039080318390AB900760884003808800016
:100EC200840A390880000134B725FF308312AE004E
:100ED200AF00B000B101B20164008312031329080C
:100EE200B1002A08B2003330F6003530F700FB2695
:100EF200003A0319842F831203133508AE00330816
:100F0200AF003408892FFF3083120313AE00AF0005
:100F1200B00064005F250530F8007B30BF26073043
:100F2200FD007D30FC00FC0B942FFD0B942F2E3026
:100F3200F800A026003A831203130319AE2F0510FE
:100F42000B30FD006230FC00FC0BA52FFD0BA52F22
:100F52000000831203130514E32F2D03031DE32F57
:100F620005100330FD009730FC00FC0BB62FFD0B83
:100F7200B62FBB2F831203130514C330FD00CD30EF
:100F8200FC00FC0BC22FFD0BC22F831203130510B2
:100F92000330FD009730FC00FC0BCD2FFD0BCD2F55
:100FA200D22F8312031305141A30FD00F830FC000F
:100FB200FC0BD92FFD0BD92F000083120313A90AB2
:100FC2000319AA0A352505148316860183128601A0
:100FD200083083168500013083128500AC0163005E
:100FE2000A3083120313AC0A2C0203186D2FF02F60
:0E0FF200831320308400363057258301652F8D
:08400000FF3FFF3FFF3FFF3FC0
:02400E00343F3D
:00000001FF
