:1000000048EF02F03FEF07F004EF08F08C90030098
:10001000A1AAD0B61200FBD70CEF08F018EF00F041
:10003000F26AFC6A09EC03F00400DCEC05F02DEC3C
:1000400002F01BEC03F05EEC04F0F6D7080E2C6E09
:1000500025500DE1080E245C0AE224C02CF0325039
:1000600002E1010E03D0320402E1020E326E2CC016
:1000700009F42C50245E000E255A240E116E040E35
:10008000126E30A21ED00DD014C0F6FF1DD8CDECDC
:1000900007F0070EF76403D00800F55001D018D818
:1000A0001DD82C50F1E1120014C0F6FF0DD8CDEC94
:1000B00007F0070EF76403D00800F55001D008D808
:1000C0000DD82C50F1E1120015C0F7FFF86A1200AC
:1000D000F6CFE1FFF7CFE2FFE7501200DF6E114AE3
:1000E000122A144A152A2C0612000138E832030B92
:1000F00016E01200010E336E040E406E040C010E69
:10010000336E440E146E2CD030D8496E49C014F0B2
:1001100027D02BD8D96EDA6A03C0DFFF1200025055
:1001200002E1FAEF00F0010A02E191EF07F0020AA2
:1001300002E191EF07F0060ADDE0030A02E1BAEFFF
:1001400000F0010AD8B412000F0AD9E0010A02E156
:10015000D0EF01F0030AD8E0010ADBE0070A120041
:10016000156A3092010E246E010C010E336E05509B
:10017000430F1200800E01182EE01200010E336EA4
:10018000A40E32D8120E08D003502CE1010E336EAB
:10019000380E2AD8256A290E246E24D0010E336E1B
:1001A0000350010F456E45C0F6FF080EF76E0900BB
:1001B000F5CF14F0156E14C0F6FF15C0F7FFF86AFE
:1001C000070EF76403D00800F55002D068EC00F089
:1001D000246E256A07D00450010AD0E0030AD4E057
:1001E000010ADCE030821200146E1450D8A4080E0C
:1001F000156E1200246B256B21D0010E336E30B0CA
:10020000248323D0010E336E20D0D8EC07F0F3CF37
:1002100045F0F4CF46F0D2EC07F0476E040EF42020
:10022000486E45504724116E46504820126ECDEC62
:1002300007F0DFA40AD0010E246F07D001501F0B76
:10024000DCE0010ADFE0030AE0E03304D8A4120096
:10025000240E146E040E156E3092020E246E020CE3
:10026000400E466401D0466E486A0DD04550482481
:10027000D96EDA6A6C0E4824E16EE26A040EE2225C
:10028000DFCFE7FF482A4650485CF0E346C011F450
:10029000400E0401101710BD03D0476A472A01D051
:1002A000476A473A47464746040110514718BF0B73
:1002B0004718106F1087108F12002A6A0CBF1200A7
:1002C00046500D5D02E20DC446F02A6A0BD02C0E9A
:1002D0002A24D96EDA6A040EDA2245502A2437EC31
:1002E00006F02A2A46502A5CF2E3400E0D6F0C17E6
:1002F0000CBD03D0476A472A01D0476A473A4746B0
:10030000474604010C514718BF0B47180C6F0C8768
:100310000C8F12000F0EC16E938881A803D0070EB8
:10032000C16E02D018EC00F0060ED7EC05F00D0EF1
:10033000F5180FE10900600EF5180BE1F66A100ED2
:10034000F76E0900F52803E10900F52802E000EF47
:1003500008F018EC00F000EF00F0456E080E0A6E91
:100360001C0E0B6E040E0C6E455006E1140E0B6E47
:10037000040E0C6E206A02D0040E206E216E0BD883
:1003800009C0DEFF0AC0DEFF0BC0DEFF0CC0DEFFCF
:1003900002D8DF8E120020C0D9FF21C0DAFF120080
:1003A000010E336E16D82B6A2B50430FD96EDA6AC2
:1003B000DF6A2B2A2B50F8E003C044F04450E5ECF0
:1003C00002F0035003E1050E406E050C060E406E70
:1003D000060C716A726A736A746A756A766A776AF9
:1003E0001200030E406E6B6A686A7B0E696E6E6A5D
:1003F000E9EC01F0160E706E6D8C03D06896FDEC82
:1004000007F068B6FBD76D9C6D98040E096E000E60
:10041000ADEC01F0010E316E306A446A000EE5EF7A
:1004200002F0040E401807E103C06EFF6E50050E87
:10043000D8B4030E406E3404D8A4120026EC00F0A9
:10044000020E321803E1E3EC06F0040C0401480E3E
:1004500008BD080E086F088F12002606D8A02706D0
:1004600026502710D8A412004E0E276E266A060EBC
:10047000406002D08C80060C8CB003D0456A452ABF
:1004800001D0456A8C504518FE0B45188C6E120041
:1004900001EE00F0400EEE6AE806FDE100EE60F0CD
:1004A000820EEE6AE806FDE100EE01F0440EEE6A0F
:1004B000E806FDE1000EF86E00018AEF01F0366AF1
:1004C00010D0A2513624A96EA651E1083624D96E67
:1004D000DA6ADF50A86E040EA66EB50E8DEC02F03F
:1004E000362A0001A651365CECE312000401086BC9
:1004F000326A00AF02D0006B316A04AF03D0046BE4
:10050000010E316E346A336A246A256A6D9875EC7F
:1005100000F002EC00F099EF06F0456EF29E1BEC45
:1005200003F0B50E451804E0030ED36E0300FED7AA
:10053000550EA76EAA0EA76EA682A6B2FED7A694E7
:1005400012002A6A1E0E716E400E04010D6F2C0EF1
:100550000E6F040E0F6F080E0C6F0C8F6C0E126F67
:10056000040E136F400E106F400C2F0402E1EDECEF
:1005700002F06D6A150E6F6E696A6D86F1EC01F01E
:10058000010E406E2F6A120069CF2DF0040E696EC5
:1005900068986D82A19AA08A06EC00F0A09A2D506E
:1005A0006912120005D0FDEC07F04506D8A04606FA
:1005B00045504610F8E1120015EC03F06D92699475
:1005C00001D0689468A41200FCD7456E4504D8A4F5
:1005D0001200A1EC02F0FCEF02F06D926D6A466829
:1005E0004568D2EC02F0406A12002F0401E11200CB
:1005F0006DA6B5EC02F012003F6AD2EC05F03E6A3F
:10060000010E3D6E010CEDEC02F0FF0000F000F079
:100610001200FCEC02F08C9095900FEF03F06DB699
:10062000EDEC02F02F6AF5EF02F0030E466E456A1C
:08063000D2EF02F012001200EB
:1008000000B6046134034D006900630072006F009C
:1008100063006800690070002000540065006300F8
:1008200068006E006F006C006F00670079002000A8
:1008300049006E0063002E000902290001010080BA
:100840003209040000020300000009211101000127
:10085000221D000705810340000107050103400038
:10086000012603480049004400200055005300427F
:1008700000200042006F006F0074006C006F006188
:10088000006400650072000600FF0901A101190162
:100890002940150026FF007508954081001901299F
:1008A000409100C01201000200000008D8043C0082
:0B08B000010101020001040309040023
:1008BC00060E4018D8B46DB212003F5001E04DD175
:1008CC0004010CBF1200A10E456E400E466E5DEC8D
:1008DC0001F0010E3F6E3C6A3C50600FD96EDA6A33
:1008EC00DF6A3C2A3F0E3C64F7D73F0C040110BF73
:1008FC001200020E0001606F3A0E616F010E626F02
:10090C00636F646B100E656F666B676B686B700E54
:10091C00696F6A6B6B6B030E6C6F6D6B6E6B300E6D
:10092C006F6F706B0E0E716F726B736B746B040E5A
:10093C00756F766B776B200E786F796B080E7A6F0C
:10094C007B6B7C6B7D6B7E69020E7E6F7F6B806B2D
:10095C00F00E816F826B836B010E846F856B866BDF
:10096C008769A50E996F600E456E400E466E30EC91
:10097C0001F03F6A1200010E3D6EA251FAE13D6A90
:10098C00F8D7296A400E286EFDEC07F0F86A28C0EB
:10099C004CF029C04DF0D8904D324C32D8904D329D
:1009AC004C324C50F76E2840E842C00BF66E940E59
:1009BC00A66EB50E8DEC02F0DCEC05F0284A292A67
:1009CC00020E295CE1E33C6A3CC0A9FFA868040E56
:1009DC00A66EDCEC05F0B50E8DEC02F03C3EF4D7C7
:1009EC00200EF86EF76AF66A940EA66EB50E8DECB4
:1009FC0002F0BFD7300EA41905E13D50BAE1E1EC8D
:100A0C0007F0B7D7F00EA41903E15FEC02F0B1D7F1
:100A1C000D280EE10E280CE10F280AE1102808E140
:100A2C00A2C00DF0A3C00EF0A4C00FF0A5C010F032
:100A3C000D50A2199EE10E50A3199BE10F50A41961
:100A4C0098E11050A51995E13C6A15D0A651E10822
:100A5C003C24D96EDA6A000E3E2492EC06F03E2A53
:100A6C000D2A000E0E220F221022200E3E1802E13B
:100A7C003CEC06F03C2A0001A6513C5C01E379D722
:100A8C00E5D73CEC06F088D874D7070E606FA2C08F
:100A9C0061F0A3C062F0A4C063F0A5C064F0A6C06E
:100AAC0065F0A2C01DF0A3C01EF0A4C01FF03C6AEC
:100ABC001BD0F00EA41909E1A2513C24A96EA66A20
:100ACC00A68064D8A8CFDFFF0ED01DC0F6FF1EC0D5
:100ADC00F7FF1FC0F8FF5AD80800F5CFDFFF1D2A1B
:100AEC00000E1E221F223C2AA6513C5CE2E30401AC
:100AFC0010BF120038D7ECEC06F03BD70C0E606F31
:100B0C00010E626F020E616F160E4BD8F5CF63F0BB
:100B1C000A00F5CF64F0060E656F100E666F676BFA
:100B2C00686B600E6A6F0D0E696F400E6B6F000E76
:100B3C006C6B6D6B6E6B6F69706971697269736BDD
:100B4C0074697569766B7769786979697A697B6993
:100B5C007C69CDD703EC03F00CD70001A151020A3C
:100B6C0001E1C4D6010A01E106D7070A01E109D760
:100B7C00010A01E13FD7030A84E0010A86E00F0A6B
:100B8C00E9E0010AB8E0050AB9E0F3D6A651A008DD
:100B9C003C24D96EDA6A12000D680E680F68106872
:100BAC001200F66E100EF76E0900100CF5EC02F048
:100BBC00405001E1120068B4DCEC02F06DB212009E
:100BCC0068B0F1EC01F068B8C4EC02F0030E4060C0
:100BDC0001D0030C356A68A612006C506CCF4AF039
:100BEC007C0E4A162AE16CB203D0226A040E02D0A3
:100BFC00040E226E236E689622C0D9FF23C0DAFF42
:100C0C00DF30E8320F0B0D0A20E12E6A23D8DECF3D
:100C1C004AF0DDCF4BF04AC0D9FF4BC0DAFF2E5063
:100C2C00010F1FD817D8DE2A000EDD222E2A070E40
:100C3C002E64ECD776EC02F008D0040E6C1804E1AC
:100C4C00689611EC02F001D06896352A030E3564D3
:100C5C00C2D7030C20EE02F02250D9262350DA2200
:100C6C001200E16EE26ADFCFE7FF12003E500D5C2E
:100C7C00466E000E0E58476E000E0F58486E000E52
:100C8C001058496E4650176E47C018F048C019F0FE
:100C9C00F86A18C0F7FF17C0F6FF396AF6501F0B39
:100CAC00386EE00EF6163A6A385011E13E500CE000
:100CBC00000E3924D96EDA6A010EDA22DF50F56E95
:100CCC000D00392A3E0606D0F5680D0003D0F568F4
:100CDC000D0038063A2A1F0E3A64E6D70A00A40E15
:100CEC00A66EB50E8DEC02F03A6A12D0000E466E6E
:100CFC00010E476E39504626000E47223A504624C4
:100D0C00D96E000E4720DA6E000E3A2405D83A2A26
:100D1C003E503A5CEBE31200E16EE26A010EE22215
:100D2C00DFCFE7FF120033500FE147D8096E3104D3
:100D3C0005E1010EADEC01F0316A1200000EADECD4
:100D4C0001F0010E316E010C01AE1BD0010E346EA0
:100D5C002450075C2550085804E207C024F008C052
:100D6C0025F026EC00F0480E096E010EADEC01F0FA
:100D7C00000EADEC01F0240E04010A6F040E0B6F93
:100D8C0021D0020E346E040E096E0750081002E1D9
:100D9C00480E096E310405E1010EADEC01F0316A2B
:100DAC0005D0000EADEC01F0010E316E07500810AD
:100DBC00D8A412000401096B05D0040E0401086FBD
:100DCC00088F040C480E086F088F480C1A6A100E16
:100DDC001B6E1C6A3B6A1AC0F6FF1BC0F7FF1CC0D7
:100DEC00F8FF40D80800F5CFDFFF1A2A000E1B22AF
:100DFC001C223B2A3F0E3B64EED70D0E0101066F01
:100E0C00600E076FF86A100EF76EF66A940EA66EF7
:100E1C00B50E8DEC02F03F0E1A6E100E1B6E1C6A96
:100E2C003F0E3B6E1CC0F8FF1BC0F7FF1AC0F6FF4D
:100E3C0019D8DF50F56E0C003BC046F01F0E46165D
:100E4C0007E1FDEC07F0A40EA66EB50E8DEC02F0DA
:100E5C001A06000E1B5A1C5A0A003B5001E11200E4
:100E6C003B06E0D7000E3B24D96EDA6A010EDA227B
:100E7C00120001501F0BE80601E01200055001E0C2
:100E8C001200060E021816E01CD0020E336E4A0E2B
:100E9C00F4EC00F0256A090E0BD0020E336E4404FC
:100EAC0003E1870EF4EC00F044040AE1256A1D0E00
:100EBC00246E06D00450210AE8E0030AEEE0010A91
:100ECC0030820138E832030BE80615E01200020EFE
:100EDC00336E420E146EB0EF00F0020E336E04C08F
:100EEC0042F0020C020E336E410EF4D7020E336E3A
:100EFC0003C041F0020C0250010AD8B41200030ADC
:100F0C00E6E0010AEFE00A0AD8B41200030AE5E0B1
:100F1C00010AECE0120003040BE101501F0B08E185
:100F2C00010E336E030E021802E1308001D03090B6
:100F3C000350D8A4120001501F0B020AD8A41200AF
:100F4C0005500F0BD8B412002DD8F3CF45F0F4CFC9
:100F5C0046F022D8476E040EF420486E45504724C4
:100F6C00116E46504820126E030E021805E10FD880
:100F7C00040EDF6E0CD81CD005AE04D008D8400E81
:100F8C00DF6E400C04D8080EDF6E01D811D011C0F2
:100F9C00D9FF12C0DAFF120005500F0B080D040E1A
:100FAC00F3241200010E336E05AE000E040D120078
:100FBC00000EDB8E000C300EF86EA351F76EA2C043
:100FCC00F7FF376A0FD0A651E1083724D96EDA6AD9
:100FDC00DF50F56E0C00C40EA66EB50E8DEC02F053
:100FEC000900372A0001A651375CEDE3120004001A
:100FFC001200120004EF08F000000D600001E4EF95
:02100C003FF0B3
:107FC800936A8A6A816A8A807A0E026EC10E016E8D
:107FD800820EE82EFED7012EFCD7022EFAD78A9001
:107FE8007A0E026EC10E016E820EE82EFED7012EA9
:087FF800FCD7022EFAD7E7D7EF
:020000040020DA
:08000000FFFFFFFFFFFFFFFF00
:020000040030CA
:0E000000210E3F1EFF8181FF0FC00FE00F4059
:00000001FF
