:040000003BEF00F0E2
:100008004882FACF04F0FBCF05F0D9CF06F0DACF5B
:1000180007F0F3CF08F0F4CF09F0F6CF0AF0F7CFE6
:100028000BF0F8CF0CF0F5CF0DF0F2AC0AD0A0B67B
:10003800A1A602D034EC05F09DB69EA602D032EC03
:1000480005F00DC0F5FF0CC0F8FF0BC0F7FF0AC0A4
:10005800F6FF09C0F4FF08C0F3FF07C0DAFF06C0C7
:10006800D9FF05C0FBFF04C0FAFF489211003AEF20
:0200780004F092
:10060000006C0A0E0A040A1E09F007FA09F00938FC
:100610000A300A0020EE1EF0090EDE6AE806FDE24E
:1006200020EE14F0090EDE6AE806FDE2EBEC04F0C1
:100630001E6A200E1F6E550E206E98D8030E9FD88E
:1006400001D80AD00500FA6EDE50FD6EDE50FE6E57
:10065000F850FF6EFA50120000091EE020EE36F04E
:1006600001D80AD00500FA6EDE50FD6EDE50FE6E37
:10067000F850FF6EFA5012000009F0E120EE34F05D
:1006800001D80AD00500FA6EDE50FD6EDE50FE6E17
:10069000F850FF6EFA50120069D8020E70D801D8D7
:1006A0000AD00500FA6EDE50FD6EDE50FE6EF85088
:1006B000FF6EFA50120000091EE020EE36F001D85D
:1006C0000AD00500FA6EDE50FD6EDE50FE6EF85068
:1006D000FF6EFA5012000009F0E120EE34F001D86C
:1006E0000AD00500FA6EDE50FD6EDE50FE6EF85048
:1006F000FF6EFA501200000E0F6E400E0E6E140EBA
:10070000106E000E126E010E116E20EE2EF001D84A
:100710000AD00500FA6EDE50FD6EDE50FE6EF85017
:10072000FF6EFA5012000009D8B43BEF00F020EE43
:1007300036F001D80AD00500FA6EDE50FD6EDE50AC
:10074000FE6EF850FF6EFA5012000009F0E120EE44
:1007500034F002D83BEF00F00500FA6EDE50FD6E7B
:10076000DE50FE6EF850FF6EFA501200000E0F6E53
:10077000400E0E6E1E0E106E000E126E000C116EEC
:1007800020EE2CF012009E96C7A803D0CAEC04F00D
:1007900018D02AEC05F0000908E024EC05F0000967
:1007A00004E0050E476E010E0BD027EC05F00009A2
:1007B00008E024EC05F0000904E0050E476E020E87
:1007C000466E35EC04F0036E03C0F6FF060EF76EBE
:1007D00001D80CD00500FA6E0900F550FD6E090035
:1007E000F550FE6EF850FF6EFA501200476E120080
:1007F000040E016E2DEC05F0000919E04350441081
:100800000AE04250D96EDA6A38EC05F0DF6E422A0F
:100810004306D8A044064350441003E0C59AC58857
:1008200007D0C592C58AC588070E016E01D0C5865E
:1008300001501200060E476E030E466EA19615D8A3
:10084000036E03C0F6FF060EF76E01D80CD005004C
:10085000FA6E0900F550FD6E0900F550FE6EF85075
:10086000FF6EFA501200476E12004750020DF3500F
:10087000010F1200C20EF66E090EF76E000EF86E32
:1008800000EE28F010EE14F00900F5CFEEFFE55071
:10089000E150FAE100EE3CF00C0EEE6AE806FDE1F4
:1008A00048904892000EF86E00010AEF03F0136AB8
:1008B00030EC05F0000915E1010E3C6E0EC03DF074
:1008C0000FC03EF0456A10C03FF011C040F012C0AA
:1008D00041F0426A436A446A466A10EC05F0010E30
:1008E000136E13501200136A30EC05F0000915E185
:1008F000010E3C6E0EC03DF00FC03EF0456A10C0C8
:1009000042F011C043F012C044F03F6A406A416AAD
:10091000466A14EC05F0010E136E1350120040509D
:1009200041100CE04006D8A041063F50D96EDA6A6B
:10093000DF5020EC05F03F2A030E08D0455004E0BC
:10094000456AC582010E02D01CEC05F0026E025011
:100950001200D09EF292F18C000E0E6A0F6A3CECEF
:1009600005F0F090F18A000E0E6A0F6A3BEC05F07C
:10097000F092F1880E6A0F6A000C896A8A6A180E72
:100980008B6E9268936894681F0E7F6E7C687D6A98
:10099000F28612003C6A000E3E6A3D683F6A426A77
:1009A000476A9E96A196C69EC69C1200800EC76E90
:1009B000080EC66EC56A270EC86E9D86A086C68ABA
:1009C0001200AC090000AE08E60800000000E609CD
:1009D000600A000000000CEC05F0BDEC04F0D6EC61
:1009E00004F0A9EF04F046C00EF0466A0E50120063
:1009F00018EC05F0016E015012001CEC05F0016EC0
:100A0000015012003D503D2420EC05F0030CD8802D
:100A10003D3420EC05F0040C700ED36E9B6A12007E
:100A2000C580020E476E020CC580010E476E010C98
:100A3000C69AC68A3C6A000CC584CAEC04F0000C55
:100A4000016E01C0C9FF1200C5BC010C000CC7BA81
:100A5000010C000CC7AA010C000CC7B0010C000C63
:100A60003C501200C3EF03F01AEF04F03C6A080C8C
:0A0A7000C95012001200120012001B
:020000040030CA
:0E000000FF081F1EFF8B85FF0FC00FE00F4093
:00000001FF
