:0410000007EF08F0FE
:0A1008005B8263ED17F024EF18F08F
:101CF800040E596E040CF28EF28C1200959E8C9E86
:021D08001200C7
:101D0B001D7F0001022B05AEEC0EF0C5821200AE5A
:101D1B00EC0EF0C5801200AEEC0EF0C584120085FF
:101D2B006B846B506A1200066EAEEC0EF006C0C9E7
:101D3B00FF1200170E34EC0FF0096E0950010B1255
:101D4B0000F294D76A160ED66E010E00018C6F014D
:101D5B000CC7B4FED7C5CF05F01F0E0516F9E11F52
:101D6B000C8B94FF0EBEEC10F0076E8B8407501299
:101D7B00009586959894929494959A958C8B841251
:101D8B000005C0F1F006C0F2F00001F36BF46B122A
:101D9B0000056A0550D0EC12F0052A1F0E0564F9F8
:101DAB00D71F0CA6B2FED705C0A9FFA69EA69CA660
:101DBB0080A8501200C70ED56EF28AD76A160ED6BF
:071DCB006E00018D6B120098
:101DD3001F1D1F1E1F1E1F1F1E1F1E1F0100000091
:101DE300F401010001E32B950EE365950CE36B0110
:101DF3000EE26FCD90010C066E06C005F00F0E05C6
:101E03001606380F0B0A0DF35005241200B6EC0E1C
:101E1300F00A6E0ABC010C9FEC0EF00009D8B40165
:101E23000C000C086E8B9408502009BEEC10F007D0
:101E330050BEEC10F08B8412000DC007F00EC008EA
:101E4300F00FC009F0050E0A6E2B0E8CEF11F00394
:101E53000E9312280EC66EC76A770EC86EC584C568
:101E6300A41200FDD7076E8B940750BEEC10F00050
:101E73000EBEEC10F0086E8B84085012000BC007E6
:101E8300F081C008F0610ED3EC10F0400E076E072E
:101E93000E13EF0FF0E8EC0FF0E70E0001C66FC66C
:101EA3000E086E800EE5EC13F025EF17F0839C957A
:101EB3009C040EE82EFED7838C958C180EE82EFE1C
:101EC300D783BC010C000CCD90150ECF6EA00ECEA7
:101ED3006E9D80B192B180A082F00EB36E600EB29F
:101EE3006E600C086E8C90096A085091EC0FF00735
:101EF3005091EC0FF0092A030E0964F6D78C800386
:101F03000CC282C2B2FED7C450066E056AC3500526
:101F130024F56F000E0620F66F0000000012000586
:101F23006E066A05AE02D08C8401D08C948C82003C
:101F3300008C92D8900536062A070E0664F2D7075E
:101F43000C07D82A0E8CEC11F003D8300E8CEF114D
:101F5300F00DC007F00EC008F00FC009F0050E0A1F
:101F63006E050C056E839C959C050405E1080EE83F
:101F73002EFED7838C958CFC0E00D0E82EFDD783E4
:101F83008C958C1200066EA6B2FED706C0A9FF057B
:101F9300C0A8FFA69EA69CA684F29E550EA76EAA75
:101FA3000EA76EA682F28EAA0C066EAEEC0EF0C5DC
:101FB30086AEEC0EF0C9CF07F0AEEC0EF006500281
:101FC300E1C58A01D0C59AC58807501200FE0E00EC
:101FD30001A3EC1DF00DEC10F0040E0C6E0C0E0BB7
:101FE3006E340EE82EFED70B2EFCD70C2EFAD7122A
:101FF300000A6E080E0B6E0C6AD8900A340C340C6F
:102003006ED8900A3609500C5C02E309500C5E0B43
:102013002EF3D70C5012008DEC0EF0085099EC0EF5
:10202300F00A6A07D007500A245FEC17F099EC0E08
:10203300F00A2A09500A5CF6E391EF0EF00F6E0ADC
:102043000E096E0F50FAEC0FF00D6E0F0E0D160AFF
:102053000E056E0F5072EC11F00E6E0E38F00B0D74
:102063001012005050FEE0000E00018425D9EC113F
:10207300F0DF50056E842B950E846501D0846B9D33
:102083009A50069D8A055012000A6E05C008F00199
:102093000E096E082A02D0D8900936082EFCD70AFA
:1020A300500624D96E000E0720DA6E0950DF121293
:1020B30000F70EF2EC19F012C02BF013C02CF01441
:1020C300C02DF015C02EF02BC027F02CC028F02D0A
:1020D300C029F02EC02AF01200FA0EF2EC19F01209
:1020E300C02BF013C02CF014C02DF015C02EF02B14
:1020F300C027F02CC028F02DC029F02EC02AF012E2
:102103000005C007F006C008F002D0074A082A07F6
:10211300C0D9FF08C0DAFFDF50F8E10550075C05BE
:102123006E06500858066E120017EC12F00009D81C
:10213300A41200CC0EDEEC11F04E0EDEEC11F0001A
:102143000EDEEC11F0000EDEEC11F07F0EDEEF116F
:10215300F0948C948EAC98AC8AAB88AB8EAC84B87C
:1021630086040EB06EE10EAF6E876B100E866F8520
:102173006B846B506A9D8A1200056E066A05AE0277
:10218300D08C8801D08C98D89005368C8A010E8328
:10219300A6000E05128C9A062A070E0664EFD705D1
:1021A300501200096E8B940950BEEC10F00A6A09B4
:1021B300D007500A24D96EDA6A000EBEEC10F0DFA5
:1021C3006E0A2A08500A5CF4E38B8412000B6E0536
:1021D300C008F0010E096E082A02D0D8900936080B
:1021E3002EFCD7091C0A6E0B500624D96E000E076D
:1021F30020DA6E0A50DF1612000001F65103E13AAD
:102203000EF55D05E3030E076E0A0E73EF0FF0F68E
:102213005108E1330EF55DD8B01200076A0A0E7358
:10222300EC0FF012000E0E0001C66FC76B0AD80D3B
:10223300EC10F00F0E0001C66F080EC76F02D80D29
:10224300EF10F0C60E076ED00E086E020E096E0276
:102253000C166E16C0C6F03CEC1AF0020E41EC1AD6
:10226300F025EC17F00001C651C7C014F0156A142D
:10227300C015F0146A1410126E1550136E12008CF0
:1022830080010E076E0C0E73EC0FF0076A090E73D4
:10229300EC0FF0070E076E0B0E73EC0FF0020E0738
:1022A3006E0A0E73EC0FF0076A0F0E73EF0FF08BCD
:1022B30094E20EBEEC10F08B84700E076E070E13C3
:1022C300EC0FF08B920B0E076E000E13EC0FF08BDE
:1022D30082E70E00D000D0E82EFCD700D000001219
:1022E30000066E086A055014E0010E076E03D0D88D
:1022F300900536072A05AEFBD7D890083605500659
:102303005C03E30550065E0880D8900532072EF47F
:10231300D7085012000B6E8B940B50BEEC10F00CD0
:102323006A0FD007C0F6FF08C0F7FF09C0F8FF081F
:1023330000F550BEEC10F0072A000E082209220C0B
:102343002A0A500C5CEEE38B841200056E000186B2
:1023530051FDE09DB805D09EA8FED705C0ADFF1284
:10236300009D98780E8725D96EDA6A010EDA220568
:10237300C0DFFF872B0F0E876501D0876B8607129F
:1023830000ABA202D0AB98AB88000E000185250FED
:10239300D8AECFDFFF852B950E856501D0856B50B9
:1023A3002A5004016E950E0164950C506A1200D9EF
:1023B3006EDA6A030EDA221200086E0A6A0AC0068F
:1023C300F008C007F0062A02D0D8900732062EFC88
:1023D300D70750096E010E09160950B3EC0FF00A26
:1023E3002A070E0A64EBD7FC0E00D0E82EFDD712A5
:1023F30000F29E11D0950E076E34EC12F0186A109D
:102403000E176E940EE82EFED7172EFCD700D018A9
:102413002A450E1864F4D715C005F016C006F0FD62
:10242300EC18F00009E7E1F28E1200839C959C08FA
:102433000E056ECA0EE82EFED7052EFCD7838C95AB
:102443008CF00E00D0E82EFDD7000E83BC010E06E3
:102453006E070E056E9A0EE82EFED7052EFCD700EA
:10246300D0065012000A6A8C90096A0950F80D07C9
:1024730050F3240A24D96EDA6A180ED926DF5008DD
:102483006E0A2891EC0FF0085091EC0FF0092A0323
:102493000E0964EBD78C800A2A070E0A64E4D70777
:1024A3000C0E500F1017E0010E106E04D0D8900ED2
:1024B300360F36102A0FAEFAD70E500C5C0F500DA4
:1024C3005804E30E500C5E0F500D5AD8900F320E85
:1024D30032102EF2D70CC00CF00DC00DF01200120A
:1024E3006E0001C66B115020EC10F0F3EC14F00DEC
:1024F300EC10F0010E0001C66F105020EC10F0F349
:10250300EC14F00DEC10F0020E0001C66F12502017
:10251300EC10F03F0BF3EC14F00DEF10F0076A082A
:102523006A58EC0FF000090CE008C005F0010E0634
:102533006E052A02D0D8900636052EFCD706500722
:1025430012CD0E00D000D0E82EFCD700D000D00072
:1025530000082A070E0864E4D7075012000C6A1F0C
:102563000E0D6E0E6A0C501AD80C2A0D5017D80D8A
:1025730006950E076E34EC12F00F6A100E0B6E9474
:102583000EE82EFED70B2EFCD700D00F2A1D0E0F00
:1025930064F4D70E2A0F0E0E64E5D70F0C950FD9EE
:1025A3006EDA6ADF6A1200096A0A6A075008101BAA
:1025B300E0010E0B6E04D0D890073608360B2A08BC
:1025C300AEFAD7D89009360A360750055C0850068C
:1025D3005805E30750055E0850065A0980D890084D
:1025E3003207320B2EEED709C005F00AC006F012EF
:1025F300000D6A0E6A0F6A106A05A008D009500D13
:10260300260A500E220B500F220C501022D890098C
:10261300360A360B360C36D89008320732063205A6
:10262300320550061007100810E7E10DC005F00E43
:10263300C006F00FC007F010C008F0120081BC0202
:10264300D0010E0BD081BE02D0020E07D081B6029C
:10265300D0030E03D081B803D0040E056E01D0055C
:102663006A05500FE0290E00018261290C822B2894
:102673000E8219D8A4120005C059F0826B010E8393
:102683006F010C0001826B12009C0E346ED70EE8B2
:102693002EFED7342EFCD7000067EC20F0CEEC0ED4
:1026A300F0F29E7A0E056E5C0EF1EC20F0EDEC205C
:1026B300F068EC18F0400E056E260E08D8010E09DE
:1026C3006E68EC18F0F28EA4EC1CF0FDD7066E08D1
:1026D3006A076A0A6A1200F1C005F0F2C006F0F355
:1026E300C007F0F4C008F06D0E096E4E0E0A6EC6F8
:1026F3000E0B6E410E0C6EFAEC12F005C0F1F006F3
:10270300C0F2F007C0F3F008C0F4F0390E0001F195
:1027130027300EF223000EF323F423F351116E7FBF
:102723000EF415126E12008B6A180E946E8A6ADF0D
:102733000E936EF19E6D968C6A956A896A010E926C
:102743006E966A846A8D6A070EB46EC30EC216C192
:1027530050F00B0E09C16ECF0EC116C050F80B0618
:1027630009C06EC050C70B1009C06EC08EC280F284
:1027730098F096F088F092838C12000001C66BC625
:102783000E086ED00E20D825EC17F01450F8EC1577
:10279300F0FDEC0EF0DF6E010EEEEC15F025EC17FC
:1027A300F01350F8EC15F0FDEC0EF0DF6E020EEEB8
:1027B300EC15F025EC17F01250F8EC15F03F0BFD7B
:1027C300EC0EF0DF6E1200096E010E0A6E0B6E0145
:1027D3000C640E0E6E0D6A1F0E0F6E0F50940FD900
:1027E3006EDA6A0F5054EC15F00F060F50F6E10045
:1027F30001956B950E076E34EC12F00C6A09D0103C
:102803000E0B6E940EE82EFED70B2EFCD700D00CC9
:102813002A0E500C5CF4E30A0E0E6401D00E5E0D1A
:102823002A1F0E0D64D8D71F0C640E0E6E0D6A0F8F
:102833006A0F50960FD96EDA6A0F5054EC15F00FE9
:102843002A1F0E0F64F5D70001B46B950E076E3483
:10285300EC12F00C6A09D0100E0B6E940EE82EFEEB
:10286300D70B2EFCD700D00C2A0E500C5CF4E30AD5
:102873000E0E6401D00E5E0D2A1F0E0D64D8D71FF5
:102883000C0C6E0E6A25D00F6A0F50960FD96EDAB4
:102893006A0F5054EC15F00F2A1E0E0F64F5D70E75
:1028A30050B50FD96EDA6ADF500001B46F950E0789
:1028B3006E34EC12F00D6A100E0B6E940EE82EFEC1
:1028C300D70B2EFCD700D00D2A310E0D64F4D70E92
:1028D3002A0E500C5CD8E212000E6A27D8DF502073
:1028E300E00C6A23D80E50950FE16EE26AE7500BB5
:1028F3006ED8900B34DF6E950E076E34EC12F00D2C
:102903006A100E0B6E940EE82EFED70B2EFCD7002A
:10291300D00D2A040E0D64F4D70C2A070E0C64E1C3
:10292300D70E2A1F0E0E64D9D71F0C0E50950FD940
:102933006EDA6A120023D01D0E536E7F0E546E00A2
:102943000E556E1200EB0E536E7E0E546E000E5536
:102953006E1200B90E536E7E0E546E000E556E123B
:1029630000870E536E7E0E546E000E556E12005588
:102973000E536E7E0E546E000E556E12004E5001B5
:102983000ADAE0030ADFE0010AE4E0070AE9E0010A
:102993000AEEE01200136E030E0001C66F135020FF
:1029A300EC10F01FD80DEC10F0040E0001C66F10F0
:1029B3005020EC10F016D80DEC10F0050E0001C6F7
:1029C3006F115020EC10F03F0B0CD80DEC10F006FB
:1029D3000E0001C66F125020EC10F03F0B02D80D11
:1029E300EF10F00001C76FC60E076ED00E086E021F
:1029F3000E096E020C09500A100B100C1023E00193
:102A03000E0D6E06D0D89009360A360B360C360DED
:102A13002A0CAEF8D70950055C0A5006580B50072C
:102A2300580C50085808E30950055E0A50065A0B23
:102A330050075A0C50085AD8900C320B320A3209FC
:102A4300320D2EE8D705C005F006C006F007C00713
:102A5300F008C008F01200100E0E6E0F0E0F6E0C71
:102A63006AC30E0E2425D80E501DD80E2AC30E0F8E
:102A7300241FD80F5017D80F06950E076E34EC128B
:102A8300F00D6A100E0B6E940EE82EFED70B2EFC83
:102A9300D700D00D2A1D0E0D64F4D70C2A0F0E0C8F
:102AA30064DFD70F0C950FE16EE26ADFCFE7FF1209
:102AB30000D96EDA6A010EDA2212000ED06DEC1321
:102AC300F011C013F012C014F0166A050E156E92C1
:102AD300EC15F013500001896F000189518819EE3C
:102AE300E089C088F08951020DF3CF19F0F4CF1AB1
:102AF300F0430E1924F66E790E1A20F76EF86A0069
:102B03000EF8220900F5CF62F00A00F5CF63F00555
:102B130000FA6E6251FD6E6351FE6EFF6AFA501247
:102B230000186A14AE06D0136C141ED8B0142A0110
:102B33000E186E16AE04D0156C161ED8B0162A15D4
:102B430050161017E0010E176E04D0D890153616E4
:102B530036172A16AEFAD71550135C1650145804BC
:102B6300E31550135E1650145AD8901632153217C7
:102B73002EF2D7185004E0136C141ED8B0142A1385
:102B8300C013F014C014F01200060E26D825EC175B
:102B9300F015502CD8FDEC0EF0DF6E050E1DD82578
:102BA300EC17F0145023D81F0BFDEC0EF0DF6E046E
:102BB3000E13D825EC17F0135019D83F0BFDEC0E6C
:102BC300F0DF6E030E09D825EC17F012500FD8076B
:102BD3000BFDEC0EF0DF6E12000001C66FC60E088F
:102BE3006ED00E096E010E0A6E0B6E010CD96EDAF1
:102BF3006A0001C651120000019051D8B41200932B
:102C03002B080E93191BE1936B19D0360EA46FA5F5
:102C13006F360C240E24D0240EA46FA56F240C242D
:102C23000EA46FA56B1200A46BA56B1200120EF815
:102C3300D7120EA46FA56F120C120E11D09351E58B
:102C4300E0010AE7E0030AE7E0010AE9E0070AEB2B
:102C5300E0010AECE0030AECE0010AEEE01200A452
:102C63006F360EA56F360C196A1A6A1B6A1C6A1531
:102C73005016101710181029E0010E1D6E06D0D83B
:102C83009015361636173618361D2A18AEF8D7D8CB
:102C93009019361A361B361C361550115C16501215
:102CA30058175013581850145809E31550115E164D
:102CB30050125A1750135A1850145A1980D8901892
:102CC300321732163215321D2EE2D719C011F01AFF
:102CD300C012F01BC013F01CC014F01200D0C0913E
:102CE300F0D20E126ED10E136ED00E146EBFEC1313
:102CF300F0D30E126ED40E136ED50E146ED60E15BF
:102D03006EC6EC15F000019151D01901E05A82030F
:102D13000ED01902E1010EF76F415007E0D00E25E6
:102D23006EE10E266EFDEC29F001D0E16B060E007C
:102D330001D265060C180ED261180CD151D8A41219
:102D430000D051D8A41200F751D8B41200010E9448
:102D53006F010C0A6A08AE06D0076C081ED8B008CB
:102D63002A010E0A6E06AE06D0056C061ED8B00602
:102D73002A010E0A1A0B6A0C6A075008101BE0019D
:102D83000E096E04D0D89007360836092A08AEFA21
:102D9300D7D8900B360C360750055C0850065805FB
:102DA300E30750055E0850065A0B80D89008320797
:102DB30032092EEED70A5004E00B6C0C1ED8B00C6F
:102DC3002A0BC005F00CC006F01200000183510A63
:102DD300E0802B1E0E806103D0800E8C1A03D080FE
:102DE3006B836B8C9E4F50D8B412009451D8B4129D
:102DF30000F76B7E510BE17F2B140E7F6103D080B4
:102E03000E8C1A04D07F6B010E7E6F8C9E7E0502A2
:102E1300E1604B612B2D0E605D010E615904E3608F
:102E23006B616B020E7E6F020E7E19D8A412007FB7
:102E33002B140E7F6103D0800E8C1A800C7F6B7E67
:102E43006B946B8C9E12008DEC0EF00B5009E00915
:102E53005099EC0EF0085031D899EC0EF089EC0E35
:102E6300F00950010999EC0EF0116A1DD0FF0E0A0A
:102E7300240C6E0D6AFF0E0D2211500E6E0F6A0C9C
:102E8300500E5C0F50800A106E0D50800A105805CA
:102E9300E20FD8010ED6EC0FF004D00AD8000ED6FC
:102EA300EC0FF0DF6E112A0A50115CE0E391EF0E94
:102EB300F008501124D96EDA6A1200D96EDA6ADF8B
:102EC3005012000600D9CF03F0DACF04F0F2BAF2C1
:102ED300A403D0A6EC0EF02ED0F0B8F0A20FD0F0E1
:102EE30092010EF1A8000EFF0A026E023AF150029F
:102EF30018EF0B0218F16EFDEC15F01CD09DB09E7F
:102F0300A008D09E90150ECF6EA00ECE6EF3EC0EE1
:102F1300F011D0A0B2A1A208D0A192F00EB36E60BE
:102F23000EB26EE7EC16F006D0F2BC9DAA03D09E5B
:102F3300BAC2EC11F004C0DAFF03C0D9FF5B9211EF
:102F430000156A4D0EF66E790EF76E000EF86E20C0
:102F5300EE0CF0070E2FD8FEE2176A166A17500C14
:102F63000F1524D96EDA6ADF500B6E1650950FD900
:102F73006EDA6A0B50DF16152A070E156401D01599
:102F83006A162A1F0E1664EAD7950E076E34EC12E2
:102F9300F0146A100E0B6E940EE82EFED70B2EFC67
:102FA300D700D0142A630E1464F4D7172A070E1718
:102FB30064D4D7070C0900F5CFDEFFE80612000B37
:102FC3006A3CD00B500DEC1DF00550DE1835E106C0
:102FD30050DE1832E1F29E0B50076E086AFF0E8D29
:102FE30025096E0A6AFF0E0A220750091803E10831
:102FF300500A181FE08D51076E086AD890073608EB
:1030030036D89007360836D89007360836F80E07B4
:1030130024D96E000E0820DA6E0B50080D000EF353
:1030230024E16E010EF420E26E070EDBCFE3FFE82E
:1030330006FCE28D07F28E12000B2A00018D510B64
:103043005CC0E31200D30EF66E1D0EF76E000EF891
:103053006E00EEE5F010EE13F00900F5CFEEFFE59C
:1030630050E150FAE10B0EF66E1D0EF76E000EF8EE
:103073006E00EE53F010EE07F00900F5CFEEFFE51A
:1030830050E150FAE103EE00F0960EEE6AE806FD19
:10309300E102EE00F0FA0EEE6AE806FDE101EE0051
:1030A300F0E30EEE6AE806FDE100EE60F0850EEE59
:1030B3006AE806FDE15A6A00EE35F01E0EEE6AE894
:1030C30006FDE15B905B92000146EF13F0055006AD
:1030D3001001E112000D6A1AD00D500DEC1DF00520
:1030E30050DE1813E10650DE1810E1F29E0D500574
:1030F300EC1DF030D80D501DEC1DF027D80D5015E8
:10310300EC1DF0DE6ADD6AF28E12000D2A00018DDD
:10311300510D5CE2E30F0E8D610F0CF29E8D510D8C
:10312300EC1DF005C0DEFF06C0DDFF8D5105EC1D73
:10313300F011D88D511DEC1DF008D88D5115EC1DE3
:10314300F0DE6ADD6A8D2BF28E120009C0DEFF0A03
:10315300C0DDFF120007C0DEFF08C0DDFF12002242
:103163006E010E216E246A236A2450176E186A11A9
:1031730050050DF3CF19F0F4CF1AF0195012241B98
:103183006E1A5013201C6E000E14201D6E17501B58
:10319300241E6E18501C201F6E000E1D20206E1E54
:1031A300C0F6FF1FC0F7FF20C0F8FF0800F550214D
:1031B300140BE023C005F015C006F016C007F0227B
:1031C30050242446EC10F00AD023C005F015C006A5
:1031D300F016C007F022502424E8EC10F0D8902118
:1031E30036232A070E2364C0D7010E216E242A0436
:1031F3000E2464B9D7040C146A1450960FD96EDAEE
:103203006A145054EC15F0142A1E0E1464F5D704F6
:103213000E00018A650DD038D807E18A2B1F0E8A6C
:1032230065010C8B6B8A6B000CB46B8A6B8B2B0167
:103233000C8A51076E086A28D8050DF3CF09F0F4FC
:10324300CF0AF0550E0B6E790E0C6E000E0D6E0943
:10325300500B240E6E0A500C200F6E000E0D201022
:103263006E07500E24116E08500F20126E000E10C0
:1032730020136E11C0F6FF12C0F7FF13C0F8FF084A
:1032830000F5CFB4F08A2B010C8B510524D96E00C5
:103293000E0620DA6EDF5012001D6E010E1C6E1F2B
:1032A3006A1E6A1F500F6E106A0C50080DF3CF117F
:1032B300F0F4CF12F0D20E136E780E146E000E15CA
:1032C3006E11501324166E12501420176E000E1533
:1032D30020186E0F501624196E105017201A6E0006
:1032E3000E18201B6E19C0F6FF1AC0F7FF1BC0F89B
:1032F300FF0800F5501C140BE01EC005F00DC006BE
:10330300F00EC007F01D501F2446EC10F00AD01E2B
:10331300C005F00DC006F00EC007F01D501F24E8D5
:10332300EC10F0D8901C361E2A070E1E64BAD70183
:103333000E1C6E1F2A060E1F64B3D7060C116E8B6C
:10334300848B9210C081F0690E0D6E7F0E0E6E009D
:103353000E0F6EA2EC0FF0640E0D6E7F0E0E6E005C
:103363000E0F6E1EEC0FF011C007F0050E13EC0FDD
:10337300F0076A110E13EC0FF010C007F0120E13D2
:10338300EC0FF0076A130E13EC0FF0076A140E1319
:10339300EC0FF0076A150E13EC0FF0076A160E1305
:1033A300EC0FF0260E076E060E13EC0FF0080E0757
:1033B3006E000E13EC0FF0030E076E010E13EC0FED
:1033C300F0030E076E020E13EC0FF04F0E076E04A0
:1033D3000E13EC0FF0076A1C0E13EC0FF059EF11EC
:1033E300F0266E26C0C6F046D8030E49D825EC1742
:1033F300F0C7C016F0176A186A196A18C019F017CF
:10340300C018F016C017F0166AC6C01AF01B6A1C63
:103413006A1D6A1BC01DF01AC01CF01B6A1A6A16CB
:10342300501A241E6E17501B201F6E18501C20208C
:103433006E19501D20216E0001C8511E24226E00FA
:103443000E1F20236E000E2020246E000E21202547
:103453006E050E05D0D8902532243223322232E86D
:103463002EF9D722C012F023C013F024C014F02584
:10347300C015F01200C60E086EEC0E096EEC0C0AB5
:103483006E010E0B6E010C226E246A256A2550957F
:103493000F2224D96EDA6A24500708156E255016B8
:1034A3006E176A1150050DF3CF18F0F4CF19F01809
:1034B3005012241A6E195013201B6E000E14201C78
:1034C3006E16501A241D6E17501B201E6E000E1C04
:1034D300201F6E1DC0F6FF1EC0F7FF1FC0F8FF08B8
:1034E30000F5CF20F0152A02D0D8902032152EFCFB
:1034F300D72550950F2224E16EE26AE750216ED85A
:103503009021342010DF6E252A040E2564BFD723B3
:103513006A100E156E940EE82EFED7152EFCD700FA
:10352300D0232A220E2364F4D7950E076E34EC12AF
:10353300F0242A070E2464A9D7070C216E19500E14
:1035430008056E000ED8A0E82A0008066E086A0C6B
:103553000E076EABEC16F00550236E23501A5C2455
:103563006E23500C0DF3501924FE0F226E010E082A
:103573006E900E076E24C005F0066AABEC16F024BD
:103583005021C01BF01C6A1B26000E1C222440E89D
:10359300423F0B1B26000E1C2205501B241D6E06EA
:1035A300501C201E6E086A0C0E076E22501F0DF36E
:1035B300CF05F0F4CF06F0ABEC16F005501D241F39
:1035C3006E06501E20206E640E056E245072EC11A0
:1035D300F01F5E000E205A580E1F24136E1B0E2080
:1035E30020146E166A070E156E92EC15F013501226
:1035F30000276AC30E27245AEC15F0DF6A272A2016
:103603000E2764F7D7040E0C6EC30E0D6E010E0E5B
:103613006E030E4EEC19F047D840D8D5EC12F0EEFD
:10362300EC37F052EC12F02CD80B0EB1EC18F0087A
:103633006A640E33D8D5EC12F0EEEC37F052EC128C
:10364300F01FD8110EB1EC18F0086A0A0E26D8D56F
:10365300EC12F0EEEC37F052EC12F012D8170EB178
:10366300EC18F02E0E116E550E126E790E136E00BD
:103673000E146EC30E156E010E166E1D0EB1EF18ED
:10368300F00C50116E53C012F054C013F055C01417
:10369300F0C30E156E010E166E1200076E25C005DF
:1036A300F026C006F01200030E086EE80C1E6E2012
:1036B3006A216A2150950F1E24D96EDA6A205007B9
:1036C300080E6E21500F6E106A0D50030DF3CF11CB
:1036D300F0F4CF12F0120E136E790E146E000E1565
:1036E3006E11501324166E12501420176E000E150F
:1036F30020186E0F501624196E105017201A6E00E2
:103703000E18201B6E19C0F6FF1AC0F7FF1BC0F876
:10371300FF0800F5CF1CF00E2A02D0D8901C320E01
:103723002EFCD72150950F1E24E16EE26AE7501D4F
:103733006ED8901D341C10DF6E212A020E2164B94D
:10374300D71F6A100E0E6E940EE82EFED70E2EFCB7
:10375300D700D01F2A220E1F64F4D7950E076E34AC
:10376300EC12F0202A070E2064A3D7070C880E2A38
:10377300EC11F012C07CF013C07DF08A0E2AEC111C
:10378300F012C07AF013C07BF08C0E2AEC11F01209
:10379300C078F013C079F08E0E2AEC11F012C0DF5E
:1037A300F013C0E0F0900E2AEC11F012C076F01383
:1037B300C077F0920E2AEC11F012C074F013C075AA
:1037C300F0940E2AEC11F012C072F013C073F0964D
:1037D3000E2AEC11F012C070F013C071F0980E2A8B
:1037E300EC11F012C06EF013C06FF09A0E2AEC11B8
:1037F300F012C06CF013C06DF09C0E2AEC11F012A5
:10380300C06AF013C06BF09E0E2AEC11F012C06870
:10381300F013C069F0F50EC66FCC0E0FD80AD80DA1
:10382300EC10F0F40E0001C66FB70E07D802D80DE6
:10383300EF10F0086E020E096E020CC76FC60E077A
:103843006EEC0C330EF66E790EF76E000EF86E20EA
:10385300EE11F00F0EDCEC17F0FDE20C50D96EDA2E
:103863006A2B0EDF6E66D017EC12F00009D8A41293
:1038730000CC0EDEEC11F0440EDEEC11F00E50D94C
:103883006EDA6ADF6A0D50D96EDA6A020EDF6ECD28
:1038930080020C17EC12F0CC0EDEEC11F0BE0EDE43
:1038A300EC11F0226A880E2224D96EDA6A010EDA4C
:1038B3002290EC12F0DF6E222A010E2264F3D7016C
:1038C3000189510F6E8851236E0FC024F024AE0975
:1038D300D0236C241ED8B0242A0C50D96EDA6A2D5A
:1038E3000EDF6E23500F0B216E2150110FD96EDAAC
:1038F3006ADF50216E233A243A0F0E23162450F028
:103903000B23120F0E241623500A0DF3CF23F0F4CA
:10391300CF24F021502326000E24220B50D96EDA37
:103923006A23C0DEFF24C0DDFF0D50D96EDA6ADFE3
:103933006A12000D50D96EDA6ADF5095E0010AA9C8
:10394300E0030A120000018C5117E08C6B326A11FC
:10395300D0325059D8DE50DE1006E1325064D8011F
:103963000EDE6EDD6A05D032504ED8DE06000EDD67
:103973005A322A8D51325CECE3336A40D0335053D0
:10398300D8DE04DE103AE1335046D8DECF30F0DD26
:10399300CF31F0335050D8DE50DE1009E133503BC5
:1039A300D8DECF05F0DDCF06F0E1EC17F01BD03306
:1039B300503AD8DE6ADD6A335026D8DE50DE101264
:1039C300E1335039D8DECF2CF0DDCF2DF0FF0E2CB4
:1039D300242E6EFF0E2D202F6E335015D82EC0DEF1
:1039E300FF2FC0DDFF01D809D00500FA6E3050FD6E
:1039F3006E3150FE6EFF6AFA501200332A00018DB9
:103A030051335CBCE31200080D020EF324D96E019E
:103A13000EF420DA6E1200080D000EF324D96E01A5
:103A23000EF420DA6E1200080D060EF324D96E018F
:103A33000EF420DA6E1200080D040EF324D96E0181
:103A43000EF420DA6E1200F50E7CD80DEC10F002A5
:103A53000E216ED40E206E850EE82EFED7202EFC8E
:103A6300D7212EFAD70000C60EECEC24F025EC1774
:103A7300F00001C751C6C020F0216A20C021F02008
:103A83006A2010226E2150236E22C005F023C00647
:103A9300F0076A086AD40E096E300E5BEC3CF0FA4C
:103AA300EC12F005C026F006C027F007C028F00886
:103AB300C029F028C026F029C027F0286A296AA85F
:103AC3000E2626FD0E2722FF0E2822292226C011AC
:103AD300F027C012F028C013F029C014F0F9EC2429
:103AE300F035EC16F01150246E26C005F027C00601
:103AF300F028C007F029C008F0F3EC24F0FCEC1424
:103B0300F00550256E050E2524E4EC24F0ABEC16ED
:103B1300F005500A0DF3CF25F02450640DF3CF20A8
:103B2300F0F4CF21F025502024056E000E2120064D
:103B33006EFFEC24F0ABEC16F005C01EF006C01FC0
:103B4300F01200C66FC60E076E800E086E010E09D6
:103B53006E010C3AD081D8E1EC17F0800E056E3D72
:103B63000E066E72EC2FF068EC18F0BCEC2BF068CC
:103B7300EC18F07DEC21F0CEEC0EF030D06DD8E1F6
:103B8300EC17F0C8EC26F068EC18F00EEC22F0E12C
:103B9300EC17F0EFD74F2A010E4F6401D04F6ABCE8
:103BA300EC2BF068EC18F053D8C4EC0FF017D04F9F
:103BB300064F2802E1010E4F6EBCEC2BF068EC18A7
:103BC300F046D8C4EC0FF00AD05950010AC3E00301
:103BD3000AE1E0010AECE0070AD1E0010A5AA63142
:103BE300D0970EF66E7F0EF76E000EF86E07EC316F
:103BF300F0000EB1EC18F0980EF66E7F0EF76E0023
:103C03000EF86E07EC31F0060EB1EC18F0990EF6D3
:103C13006E7F0EF76E000EF86E07EC31F00C0EB1EE
:103C2300EC18F00A0E096E4F50FAEC0FF04BEC3221
:103C3300F0120EB1EC18F0116AB2EC2BF0180EB1C1
:103C4300EC18F0950E076E34EC12F05A861200054C
:103C53000E596E4FC005F0040C560E056E3B0E0652
:103C63006E120041D086D8E1EC17F0780E056E464F
:103C73000E066E72EC2FF068EC18F0BCEC2BF068BB
:103C8300EC18F07DEC21F0CEEC0EF037D072D8E1D9
:103C9300EC17F00EEC22F0E1EC17F0C8EC26F0681C
:103CA300EC18F0EFD74E2A050E4E6402D0010E4EEB
:103CB3006EBCEC2BF068EC18F0050E596E57D8C4A7
:103CC300EC0FF09CEC14F019D04E064E5002E105B7
:103CD3000E4E6EBCEC2BF068EC18F0050E596E46D8
:103CE300D8C4EC0FF0EED75950010ABCE0030ADA4E
:103CF300E0010AEAE0070ACAE0010A5AA631D0A79E
:103D03000EF66E7F0EF76E000EF86E07EC31F000C4
:103D13000EB1EC18F0A80EF66E7F0EF76E000EF8DB
:103D23006E07EC31F0060EB1EC18F0A90EF66E7FBB
:103D33000EF76E000EF86E07EC31F00C0EB1EC18B6
:103D4300F00A0E096E4E50FAEC0FF04BEC32F01203
:103D53000EB1EC18F0116AB2EC2BF0180EB1EC189E
:103D6300F0950E076E34EC12F05A8612004EC00521
:103D7300F0000C660E056E3C0E066E120032D08605
:103D8300D8E1EC17F09A0E056E3E0E066E72EC2F1C
:103D9300F068EC18F0BCEC2BF068EC18F07DEC212B
:103DA300F0CEEC0EF028D072D8E1EC17F0C8EC2678
:103DB300F068EC18F00EEC22F0E1EC17F0EFD75BB3
:103DC300D8BCEC2BF068EC18F05CD8C4EC0FF01303
:103DD300D052D8BCEC2BF068EC18F053D8C4EC0FDD
:103DE300F00AD05950010ACBE0030AE9E0010AF0D6
:103DF300E0070AD9E0010A5AA638D0BB0EF66E7F57
:103E03000EF76E000EF86E07EC31F0000EB1EC18F1
:103E1300F0BC0EF66E7F0EF76E000EF86E07EC31F7
:103E2300F0060EB1EC18F0BD0EF66E7F0EF76E00C5
:103E33000EF86E07EC31F00C0EB1EC18F04450089C
:103E4300E02B0E116EB2EC2BF0120EB1EC18F00752
:103E5300D02D0E116EB2EC2BF0120EB1EC18F01146
:103E63006AB2EC2BF0180EB1EC18F0950E076E3415
:103E7300EC12F05A8612004450010ED8A4000E44EE
:103E83006E1200050E596E44C005F0050C800E0538
:103E93006E3D0E066E120032D086D8E1EC17F0B4F8
:103EA3000E056E3F0E066E72EC2FF068EC18F0BC38
:103EB300EC2BF068EC18F07DEC21F0CEEC0EF02842
:103EC300D072D8E1EC17F0C8EC26F068EC18F00ECD
:103ED300EC22F0E1EC17F0EFD75BD8BCEC2BF068E9
:103EE300EC18F05CD8C4EC0FF013D052D8BCEC2B18
:103EF300F068EC18F053D8C4EC0FF00AD059500115
:103F03000ACBE0030AE9E0010AF0E0070AD9E0017D
:103F13000A5AA638D0BF0EF66E7F0EF76E000EF863
:103F23006E07EC31F0000EB1EC18F0C00EF66E7FA8
:103F33000EF76E000EF86E07EC31F0060EB1EC18BA
:103F4300F0C10EF66E7F0EF76E000EF86E07EC31C1
:103F5300F00C0EB1EC18F0435008E02B0E116EB2CA
:103F6300EC2BF0120EB1EC18F007D02D0E116EB23F
:103F7300EC2BF0120EB1EC18F0116AB2EC2BF01826
:103F83000EB1EC18F0950E076E34EC12F05A86124F
:103F9300004350010ED8A4000E436E1200050E59C3
:103FA3006E43C005F0060C9A0E056E3E0E066E12A9
:103FB3000032D086D8E1EC17F0300E056E440E06C1
:103FC3006E72EC2FF068EC18F0BCEC2BF068EC1878
:103FD300F07DEC21F0CEEC0EF028D072D8E1EC1796
:103FE300F0C8EC26F068EC18F00EEC22F0E1EC17C8
:103FF300F0EFD75BD8BCEC2BF068EC18F05CD8C4BE
:10400300EC0FF013D052D8BCEC2BF068EC18F05343
:10401300D8C4EC0FF00AD05950010ACBE0030AE9E7
:10402300E0010AF0E0070AD9E0010A5AA638D0B73E
:104033000EF66E7F0EF76E000EF86E07EC31F00091
:104043000EB1EC18F0B80EF66E7F0EF76E000EF898
:104053006E07EC31F0060EB1EC18F0B90EF66E7F78
:104063000EF76E000EF86E07EC31F00C0EB1EC1883
:10407300F0425008E02B0E116EB2EC2BF0120EB191
:10408300EC18F007D02D0E116EB2EC2BF0120EB11E
:10409300EC18F0116AB2EC2BF0180EB1EC18F09595
:1040A3000E076E34EC12F05A8612004250010ED8FD
:1040B300A4000E426E1200050E596E42C005F007B1
:1040C3000CB40E056E3F0E066E120095EC13F0292C
:1040D300EC0FF041EC11F065EC0FF07FEC0EF014F7
:1040E300EC11F096EC10F0E0EC0EF0AAEC10F0B846
:1040F300EC1BF04CEC0FF0066A056AD7EC0EF04EA1
:104103006E066A010E056ED7EC0EF0566E5604036A
:10411300E10001906B02D017EC38F0066A020E053D
:104123006ED7EC0EF0466E8FEC27F0D7EC0EF04511
:104133006E61EC24F073EC0FF09CEC14F082EC0E47
:10414300F0BEEC0EF081EC2FF0A0EC19F0FC0E05A4
:104153006E680E066E086A280E076E3DD868EC1866
:10416300F0E00E056E2C0E3BD836D868EC18F0063E
:104173006A040E056ED7EC0EF04F6E066A050E0547
:104183006ED7EC0EF0446E066A060E056ED7EC0E83
:10419300F0436E066A070E056ED7EC0EF0426E060C
:1041A3006A080E056ED7EC0EF0416E066A090E051D
:1041B3006ED7EC0EF0576E066A0A0E056ED7EC0E3C
:1041C300F0406E405002E08D8001D08D90066A036E
:1041D3000E056EC6EF0EF00A6A140E096E140C0675
:1041E3006E086A640E076E640C3CD089D8E1EC1744
:1041F300F0080E056E5F0E066E72EC2FF068EC1879
:10420300F0BCEC2BF068EC18F076D835D078D8E118
:10421300EC17F00EEC22F0E1EC17F0C8EC26F06896
:10422300EC18F069D8CEEC0EF026D03B2A630E3B97
:104233006401D03B6ABCEC2BF068EC18F014EC3151
:10424300F0CCEC14F018D03B063B2802E1630E3BA4
:104253006EBCEC2BF068EC18F014EC31F0CCEC14E1
:10426300F00AD05950010AC1E0030ADFE0010AEB6A
:10427300E0070ACCE0010A5AA638D09B0EF66E7FFF
:104283000EF76E000EF86E07EC31F0000EB1EC186D
:10429300F09C0EF66E7F0EF76E000EF86E07EC3193
:1042A300F0060EB1EC18F09D0EF66E7F0EF76E0061
:1042B3000EF86E07EC31F00C0EB1EC18F00A0E0993
:1042C3006E056E3B5072EC11F0FAEC0FF04BEC32D2
:1042D300F0120EB1EC18F00A0E096E3B50FAEC0F17
:1042E300F04BEC32F0180EB1EC18F0950E076E346B
:1042F300EC12F05A861200050E596E5A96050CEC14
:104303000E056E410E066E12007FD00001DB51DCFC
:1043130011DD11DE1132E0DBC028F0DCC029F0280A
:10432300C025F029C026F0FAEC1AF02DEC15F02088
:104333000E2A6E2A50D0EC12F02A2A300E2A64F983
:10434300D728C00CF029C00DF042EC34F052EC1227
:10435300F00C504BEC32F0200EB1EC18F03D0E2770
:104363006EE10E266E400EE82EFED7262EFCD727D2
:104373002EFAD7080E42EC14F01DD0CEEC0EF0044A
:104383000E3DEC34F0030E4EEC19F0450E116E2E7B
:10439300EC34F00B0E45EC1AF0520E116E2EEC3489
:1043A300F0110E45EC1AF0520E116E2EEC34F0178C
:1043B3000E45EC1AF046EC34F09DEC25F035EC3468
:1043C300F068EF18F0050E596E40500CE05FEC15E5
:1043D300F023D8E1EC17F025D8E1EC17F0060E0531
:1043E3006E4A0E0DD05FEC15F093EC27F015D8E173
:1043F300EC17F017D8E1EC17F07A0E056E5C0E0699
:104403006E72EC2FF068EF18F05950040ADBE001EC
:104413000A01E17BD7030A1200F80E056E1C0E0693
:104423006E12000C0E056E430E066E120032D08B18
:10443300D8E1EC17F0540E056E450E066E72EC2FA4
:10444300F068EC18F0BCEC2BF068EC18F07DEC2174
:10445300F0CEEC0EF028D077D8E1EC17F0C8EC26BC
:10446300F068EC18F00EEC22F0E1EC17F0EFD760F7
:10447300D8BCEC2BF068EC18F061D8C4EC0FF01347
:10448300D057D8BCEC2BF068EC18F058D8C4EC0F1C
:10449300F00AD05950010ACBE0030AE9E0010AF01F
:1044A300E0070AD9E0010A5AA63DD0920EF66E7FC4
:1044B3000EF76E000EF86E07EC31F0000EB1EC183B
:1044C300F0930EF66E7F0EF76E000EF86E07EC316A
:1044D300F0060EB1EC18F0940EF66E7F0EF76E0038
:1044E3000EF86E07EC31F00C0EB1EC18F0950EF6E9
:1044F3006E7F0EF76E000EF86E07EC31F0120EB100
:10450300EC18F0415008E02B0E116EB2EC2BF018B2
:104513000EB1EC18F007D02D0E116EB2EC2BF01883
:104523000EB1EC18F0950E076E34EC12F05A8612A9
:10453300004150010ED8A4000E416E1200050E5921
:104543006E41C005F0080C300E056E440E066E1267
:10455300003BD08BD8E1EC17F0820E056E4C0E06B3
:104563006E72EC2FF068EC18F0BCEC2BF068EC18D2
:10457300F07DEC21F0CEEC0EF031D077D8E1EC17E2
:10458300F0C8EC26F068EC18F00EEC22F0E1EC1722
:10459300F0EFD7572A030E571802E1010E576EBCEE
:1045A300EC2BF068EC18F05CD8C4EC0FF017D05784
:1045B30006575002E1020E576EBCEC2BF068EC1864
:1045C300F04FD8C4EC0FF00AD05950010AC2E003EF
:1045D3000AE0E0010AECE0070AD0E0010A5AA63A31
:1045E300D0880EF66E7F0EF76E000EF86E07EC3174
:1045F300F0000EB1EC18F0890EF66E7F0EF76E0028
:104603000EF86E07EC31F0060EB1EC18F08A0EF6D8
:104613006E7F0EF76E000EF86E07EC31F00C0EB1E4
:10462300EC18F08B0EF66E7F0EF76E000EF86E0729
:10463300EC31F0120EB1EC18F057C011F053C01268
:10464300F054C013F055C014F0950E156E166A1889
:104653000EB1EC18F0950E076E34EC12F05A861278
:1046630000050E596E57C005F0090C540E056E4532
:104673000E066E120046D08DD8E1EC17F0C40E057D
:104683006E4D0E066E72EC2FF068EC18F0BCEC2B3E
:10469300F068EC18F07DEC21F0CEEC0EF03CD07914
:1046A300D8E1EC17F00EEC22F0E1EC17F0C8EC26A1
:1046B300F068EC18F07DEC21F0CEEC0EF05604031C
:1046C300E10001906B28D017EC38F025D0562A0270
:1046D3000E566402D0010E566EBCEC2BF068EC183B
:1046E300F053D8C4EC0FF017D05606565002E1022F
:1046F3000E566EBCEC2BF068EC18F046D8C4EC0FE9
:10470300F00AD05950010AB7E0030AE0E0010AECCD
:10471300E0070AC5E0010A5AA631D0A30EF66E7F60
:104723000EF76E000EF86E07EC31F0000EB1EC18C8
:10473300F0A40EF66E7F0EF76E000EF86E07EC31E6
:10474300F0060EB1EC18F0A50EF66E7F0EF76E00B4
:104753000EF86E07EC31F00C0EB1EC18F00A0E09EE
:104763006E5650FAEC0FF04BEC32F0120EB1EC181F
:10477300F0116AB2EC2BF0180EB1EC18F0950E079D
:104783006E34EC12F05A861200050E596E56C005AF
:10479300F0010C780E056E460E066E12003DD092A7
:1047A300D8E1EC17F082D872EC2FF068EC18F0BC6B
:1047B300EC2BF068EC18F07DEC21F0CEEC0EF0362B
:1047C300D081D8E1EC17F00EEC22F0E1EC17F0C841
:1047D300EC26F068EC18F0EFD7452A080E45640183
:1047E300D0456ABCEC2BF068EC18F064D8C4EC0F2D
:1047F300F066D873EC0FF01AD04506452802E1089D
:104803000E456EBCEC2BF068EC18F054D8C4EC0FDA
:10481300F056D873EC0FF00AD05950010AC0E003E8
:104823000ADBE0010AE9E0070ACBE0010A5AA62203
:10483300D035D807EC31F0000EB1EC18F021D807D1
:10484300EC31F0060EB1EC18F022D807EC31F00C85
:104853000EB1EC18F00A0E096E4550FAEC0FF04B4E
:10486300EC32F0120EB1EC18F0116AB2EC2BF01826
:104873000EB1EC18F0950E076E34EC12F05A861256
:1048830000B40EF66E7F0EF76E000EF86E1200B5D2
:104893000EF66E7F0EF76E000EF86E1200B30EF674
:1048A3006E7F0EF76E000EF86E1200560E056E3B0D
:1048B3000E066E1200050E596E45C005F0030C4539
:1048C300C007F00A0CA00E056E470E066E1200F329
:1048D3000E0001A3EC1DF00DEC10F0020E216ED4BE
:1048E3000E206E850EE82EFED7202EFCD7212EFA41
:1048F300D70000C60E6FD825EC17F00001C751C6CC
:10490300C020F0216A20C021F0206A2010226E21ED
:1049130050236E22C005F023C006F0076A086AA47C
:104923000E096E440E5BEC3CF0FAEC12F005C02667
:10493300F006C027F007C028F008C029F028C026D9
:10494300F029C027F0286A296AB30E2626ED0E2720
:1049530022FF0E2822292226C011F027C012F02898
:10496300C013F029C014F043D835EC16F0115024CD
:104973006E26C005F027C006F028C007F029C0083E
:10498300F030D8FCEC14F00550256E050E25241AE2
:10499300D8ABEC16F005500A0DF3CF25F024506484
:1049A3000DF3CF20F0F4CF21F025502024056E0025
:1049B3000E2120066E22D8ABEC16F005C01EF006C1
:1049C300C01FF01200056E066A000E0622086A0A6E
:1049D3000E076E0A0C086E800E096E030E0A6E0B2C
:1049E3006A030C640E096E0A6A0B6A0C6A640C642F
:1049F3000E156E166A176A186A640C086A0A0E079F
:104A03006E0A0C8BD0E80E3C5C030E3D583AE2056F
:104A13000E3DEC34F0010E4EEC19F0086A640E857D
:104A2300D8D5EC12F0EEEC37F052EC12F00C502625
:104A3300EC34F0090E45EC1AF0086A0A0E76D8D564
:104A4300EC12F0EEEC37F052EC12F00C5026EC3492
:104A5300F00F0E45EC1AF02E0E116E2EEC34F015FD
:104A63000E45EC1AF03CC00CF03DC00DF042EC34A6
:104A7300F052EC12F00C5026EC34F0180E45EC1A00
:104A8300F033D0050E3DEC34F0020E4EEC19F05528
:104A9300EC1BF04BD8D5EC12F0EEEC37F052EC12E5
:104AA300F00C5026EC34F00B0E45EC1AF0086A6457
:104AB3000E3CD8D5EC12F0EEEC37F052EC12F00CC1
:104AC3005026EC34F0110E45EC1AF0086A0A0E2D4C
:104AD300D8D5EC12F0EEEC37F052EC12F00C502675
:104AE300EC34F0170E45EC1AF046EC34F024D835CC
:104AF300EC34F068EF18F0050E596E5FEC15F09387
:104B0300EC27F00EEC22F0E1EC17F048EC38F0E182
:104B1300EC17F0C8EC26F068EF18F05950040AEBD4
:104B2300E0010A01E16FD7030A1200076E3CC005DA
:104B3300F03DC006F01200010E086E900C146A09D5
:104B4300C005F00AC006F082EC10F00550FD0F120C
:104B53006E136A7DD080D8030E85D8C00EDF646FD4
:104B6300D07AD8040E7FD8DF500D6E145009240E6E
:104B73006E000E0A200F6E030E0E24D96E000E0F68
:104B830020DA6EDF50106E0D50156E10C016F084D3
:104B93000E151805E1D00E161802E1DA0E0FD086B5
:104BA3000E151805E1D00E161802E1D40E07D087B2
:104BB3000E151807E1D00E161804E1D80E155ECFB6
:104BC3000E08D0940E151807E1D10E161804E1DA79
:104BD3000E11D0165A28D0960E151805E1D10E16CF
:104BE3001802E1E30E07D0970E151807E1D10E1650
:104BF3001804E1D80E155ED00EECD7C00E155CD0AC
:104C03000E165803E2300E15260DD0800E155CD11A
:104C13000E165809E3900E155CD10E165804E27077
:104C23000E15262F0E1622960E1324D96EDA6A025B
:104C33000EDA2215C0DFFF020E1426120607D00B70
:104C4300D8030E10D8960E132413D8142A132A133C
:104C530050125C80E21200145009240B6E000E0AFD
:104C6300200C6E12000B24D96E000E0C20DA6E128B
:104C730000E16EE26A020EE222DFCFE7FF120037A5
:104C8300D09AD8E1EC17F082D868EC18F00EEC2239
:104C9300F0E1EC17F07DEC21F0CEEC0EF032D08B8E
:104CA300D8E1EC17F073D868EC18F00EEC22F0E1C1
:104CB300EC17F07DEC21F0CEEC0EF0560403E1008E
:104CC30001906B1FD017EC38F01CD06AD8BCEC2BCA
:104CD300F068EC18F06BD8C4EC0FF013D061D8BCBB
:104CE300EC2BF068EC18F062D8C4EC0FF00AD05942
:104CF30050010AC6E0030AE9E0010AF0E0070ACF1F
:104D0300E0010A5AA63DD08D0EF66E7F0EF76E00B7
:104D13000EF86E07EC31F0000EB1EC18F08E0EF6C3
:104D23006E7F0EF76E000EF86E07EC31F0060EB1D3
:104D3300EC18F08F0EF66E7F0EF76E000EF86E070E
:104D4300EC31F00C0EB1EC18F0900EF66E7F0EF70E
:104D53006E000EF86E07EC31F0120EB1EC18F04055
:104D63005008E02B0E116EB2EC2BF0180EB1EC18BC
:104D7300F007D02D0E116EB2EC2BF0180EB1EC181B
:104D8300F0950E076E34EC12F05A8612007A0E0577
:104D93006E5C0E066E086A076A0A6A140E096E14C0
:104DA3000C4050010ED8A4000E406E1200050E599F
:104DB3006E40C005F00A0C820E056E4C0E066E1294
:104DC3000046D0465012E09FD8E1EC17F057EC2490
:104DD300F072EC2FF068EC18F0BCEC2BF068EC18D8
:104DE300F07DEC21F0CEEC0EF03CD08DD8E1EC1749
:104DF300F0A00E056E470E066E72EC2FF068EC18ED
:104E0300F08CD8D7EC0EF0456E61EC24F073EC0F08
:104E1300F0E3D779D8E1EC17F00EEC22F0E1EC17D0
:104E2300F0C8EC26F068EC18F0DBD767D8BCEC2BA5
:104E3300F068EC18F06DD8C4EC0FF013D05ED8BC5A
:104E4300EC2BF068EC18F064D8C4EC0FF00AD059DE
:104E530050010AB7E0030AE9E0010AF0E0070AD9C2
:104E6300E0010A5AA644D050EC24F007EC31F000DC
:104E73000EB1EC18F042EC24F007EC31F0060EB161
:104E8300EC18F049EC24F007EC31F00C0EB1EC18FF
:104E9300F0465017E0C60EF66E7F0EF76E000EF862
:104EA3006E07EC31F0120EB1EC18F0C70EF66E7F00
:104EB3000EF76E000EF86E07EC31F0180EB1EC1819
:104EC300F016D0ED0EF66E7F0EF76E000EF86E073D
:104ED300EC31F0120EB1EC18F0EE0EF66E7F0EF719
:104EE3006E000EF86E07EC31F0180EB1EC18F09569
:104EF3000E076E34EC12F05A8612004650010ED89B
:104F0300A4000E466E1200C40E056E4D0E066E1200
:104F130000050E596E46C005F0020C066A030E0525
:104F23006E030CCEEC0EF0B7D00A0EA3EC32F07287
:104F3300EC11F0FAEC0FF000090DE00A0EA3EC32CD
:104F4300F072EC11F0FAEC0FF026EC34F0000E45A1
:104F5300EC1AF006D0116A2EEC34F0000E45EC1A70
:104F6300F0B5EC32F0FAEC0FF026EC34F0060E4517
:104F7300EC1AF09DEC32F072EC11F0FAEC0FF02623
:104F8300EC34F00D0E45EC1AF08DD8FAEC0FF02648
:104F9300EC34F0130E45EC1AF070EC16F00A0E091F
:104FA3006E056ED05172EC11F0FAEC0FF02C6E2CF2
:104FB300280D6E190E58EC1BF00A0E096E0001D075
:104FC30051FAEC0FF02C6E2C280D6E1D0E58EC1BB5
:104FD300F00001906B12000A0EA3EC32F072EC1198
:104FE300F0FAEC0FF000090DE00A0EA3EC32F072B8
:104FF300EC11F0FAEC0FF026EC34F0010E45EC1A4C
:10500300F006D0116A2EEC34F0010E45EC1AF0B51F
:10501300EC32F0FAEC0FF026EC34F0070E45EC1A04
:10502300F03A0E116E2EEC34F00D0E45EC1AF070C2
:10503300EC16F00A0E096E056ED15172EC11F0FAFE
:10504300EC0FF026EC34F0130E45EC1AF02BD8FAE3
:10505300EC0FF026EC34F0190E45EC1AF0010E00BB
:1050630001906F936BBDEC32F072EC11F0FAEC0F20
:10507300F04D6EB5EC32F0FAEC0FF04C6E9DEC3265
:10508300F072EC11F0FAEC0FF04B6E0CD8FAEC0F57
:10509300F00001926F12005650010A01E145D70357
:1050A3000A9AE012000A0E096E0001D15112007132
:1050B300D0C4D8E1EC17F01C0E056E5A0E066E72C2
:1050C300EC2FF068EC18F0BCEC2BF068EC18F0BA9D
:1050D300D86AD0B3D8E1EC17F00EEC22F0E1EC176C
:1050E300F0C8EC26F068EC18F07DEC21F0CEEC0E65
:1050F300F05AD0392A9DD81FE096D83950DE5C1873
:10510300E3020E3A181CE13950256E266A8CD8DF6B
:1051130050276EFF0E2724286E296AFF0E292225A9
:1051230050285C2950800A2A6E2650800A2A580784
:10513300E2010E396E04D077D83950DE5CF9E3BC56
:10514300EC2BF068EC18F014EC31F0CCEC14F02BF1
:10515300D039066ED813E0395006E1020E3A18032F
:10516300E062D8DF5009D0020E3A180AE13950083C
:10517300E15AD8DF50256E2504396E02D03950F03C
:10518300E0BCEC2BF068EC18F014EC31F0CCEC1430
:10519300F00AD05950010A8CE0030AABE0010AD8A7
:1051A300E0070A97E0010A5AA638D0AF0EF66E7FE1
:1051B3000EF76E000EF86E07EC31F0000EB1EC182E
:1051C300F0B00EF66E7F0EF76E000EF86E07EC3140
:1051D300F0060EB1EC18F0B10EF66E7F0EF76E000E
:1051E3000EF86E07EC31F00C0EB1EC18F00A0E0954
:1051F3006E056E395072EC11F0FAEC0FF04BEC3295
:10520300F0120EB1EC18F00A0E096E3950FAEC0FD9
:10521300F04BEC32F0180EB1EC18F0950E076E342B
:10522300EC12F05A8612003A50E40FD96EDA6A1281
:10523300003BC025F0030E2516030CB20E056E507D
:105243000E066E1200050E596E5A86050C5AB802E8
:10525300D05A886CD05A986AD0C5D8E1EC17F0D6EA
:105263000E056E550E68EC13F0320E096E68EC18DD
:10527300F0BCEC2BF068EC18F0560413E1AED872D6
:10528300EC11F0FAEC0FF04BEC32F00D0EB1EC1820
:10529300F0AED8FAEC0FF04BEC32F0130EB1EC1881
:1052A300F014D09DEC32F072EC11F0FAEC0FF04BED
:1052B300EC32F0130EB1EC18F054EC28F0FAEC0FCA
:1052C300F04BEC32F0190EB1EC18F07DEC21F03814
:1052D300D089D8E1EC17F00EEC22F0E1EC17F0C81E
:1052E300EC26F068EC18F0050E596ECEEC0EF028A3
:1052F300D0362A3B0E366401D0366ABCEC2BF068FC
:10530300EC18F0C7EC2BF071EC12F0050E596E1887
:10531300D03606362802E13B0E366EBCEC2BF06825
:10532300EC18F0C7EC2BF071EC12F0EFD7595001E9
:105333000A93E0030ADDE0010AEBE0070AC9E00192
:105343000A5AA645D05AA828D0560413E146D87263
:10535300EC11F0FAEC0FF04BEC32F00D0EB1EC184F
:10536300F046D8FAEC0FF04BEC32F0130EB1EC1818
:10537300F02ED033D872EC11F0FAEC0FF04BEC3284
:10538300F0130EB1EC18F033D8FAEC0FF04BEC320B
:10539300F0190EB1EC18F01BD056040DE1116AB2EE
:1053A300EC2BF00D0EB1EC18F0116AB2EC2BF013EC
:1053B3000EB1EC18F00CD0116AB2EC2BF0130EB155
:1053C300EC18F0116AB2EC2BF0190EB1EC18F09551
:1053D3000E076E34EC12F05A8612000A0E096E059F
:1053E3006E36501200500E056E520E066E12000AF3
:1053F3000E096E36501200030E196EDBD81A6E1F9B
:105403000E9FEC1AF0276E27501F082A6E0A0E19FA
:105413006ED0D81A6E1F0E9FEC1AF0276E27501FFE
:10542300082B6EA2D8030EDF6404D09ED8090EDFCA
:105433006434D09AD8030EDE1804E19CD8DE502AD7
:105443005C2CE392D8030EDE1808E194D82A50DED0
:105453001804E19BD8030EDF6020D086D80A0EDE45
:105463001804E188D82B50DE5C18E37ED80A0EDEE0
:105473001808E180D82B50DE1804E187D8010EDF2D
:10548300640CD072D80A0EDE180EE174D82B50DEED
:10549300180AE17BD8170EDE1806E12650D96EDA1A
:1054A3006A010EDF6E04D02650D96EDA6ADF6A26EF
:1054B30050D96EDA6ADF50D8B4120067D8170EDEFF
:1054C3001848E163D8DF6A7CD8DF2A7AD8080EDE71
:1054D3001803E176D8010EDF6E6CD8276E030E2712
:1054E3001620E042D858D808E03FD8020EDE18163E
:1054F300E141D81C0EDE1812E137D80C0EDE180875
:10550300E12550D96E3DD836D8010EDF6E2DD85E19
:10551300D031D8010EDF6E28D8DF2A050C2BD8DF57
:105523002A040C22D838D812E11FD80C0EDE180832
:10553300E12550D96E25D81ED8010EDF6E15D84649
:10554300D019D8010EDF6E10D8DF2A050C13D8DF6F
:105553002A040C1BD82550E16EE26A020EE126E70D
:1055630050276E2728DF6E12002550D96EDA6A05A0
:105573000ED926050C2550D96EDA6A040ED92604F5
:105583000CDA6A060ED926DF2A060C2550D96EDA04
:105593006A020ED926020CDF50276E2750E40FD97A
:1055A3006EDA6A2550E16EE26A040EE126DE50E609
:1055B3001812002550D96EDA6A060ED926DF50126A
:1055C300002550D96EDA6A030ED926030C010EDFCB
:1055D3006E010C5AB802D05A8856D05A9854D0ED5E
:1055E300D8E1EC17F0EC0E056E410E066E72EC2F4F
:1055F300F068EC18F0BFD868EC18F0050E596ECEC1
:10560300EC0EF05A964AD0D9D8E1EC17F00EEC2202
:10561300F0E1EC17F0C8EC26F068EC18F0050E5931
:105623006ECEEC0EF03AD0372A170E376401D0371E
:105633006AA1D868EC18F0BCD80AE0375004E1AF8F
:10564300D871EC12F02AD0AFD871EC12F026D09DAD
:10565300D871EC12F022D03706372802E1170E3743
:105663006E89D868EC18F0A4D80AE0375004E197A3
:10567300D871EC12F012D097D871EC12F00ED085DD
:10568300D871EC12F00AD05950010AA9E0030ACBF1
:10569300E0010AE1E0070AB7E0010A5AA65BD05A23
:1056A300A842D0560420E176D872EC11F0FAEC0F40
:1056B300F000090BE06FD872EC11F0FAEC0FF04B2D
:1056C300EC32F0000EB1EC18F005D0116A49D800A5
:1056D3000EB1EC18F077D8FAEC0FF04BEC32F00681
:1056E3000EB1EC18F037D056D872EC11F0FAEC0F7B
:1056F300F000090BE04FD872EC11F0FAEC0FF04B0D
:10570300EC32F0010EB1EC18F005D0116A29D80182
:105713000EB1EC18F057D8FAEC0FF04BEC32F0075F
:105723000EB1EC18F017D056040BE1116A19D8002A
:105733000EB1EC18F0116A14D8060EB1EC18F00A89
:10574300D0116A0ED8010EB1EC18F0116A09D8070E
:105753000EB1EC18F0950E076E34EC12F05A861267
:1057630000550E126E790E136E000E146E950E1503
:105773006E166A1200F80E056E1C0E066E070E08F2
:105783006ED00E076E0A6A096AD00C36C010F0118B
:105793006A375012000A0E096E056E375012003632
:1057A300C010F0116A170C36C010F0116A370412DA
:1057B30000050E596E0001E1511200D60E056E551B
:1057C3000E066E12000A0E096E375012000FD1CE6C
:1057D300EC0EF0570403E05150521065E113D94227
:1057E300EC34F052EC12F00C50136E51C005F05231
:1057F300C006F075EC34F0D5EC12F005C015F006D8
:10580300C016F0050E136402D0154A162A00D97586
:10581300EC34F0D5EC12F00550061019E1010E3D01
:10582300EC34F0030E4EEC19F015C011F053C01216
:10583300F054C013F055C014F00D0E45EC1AF0B03F
:105843000E116E2EEC34F0130E45EC1AF0ABD001B2
:105853000E3DEC34F0030E4EEC19F0086A0A0E0705
:105863006ED6D8D5EC12F0EEEC37F052EC12F00C09
:105873005026EC34F00B0E45EC1AF015C00CF01664
:10588300C00DF042EC34F052EC12F00C5026EC3424
:10589300F0110E45EC1AF0B00E116E2EEC34F01729
:1058A3000E45EC1AF07FD0200E146E1450D0EC127B
:1058B300F0142A300E1464F9D7086A640E02EC3827
:1058C300F0D5EC12F0EEEC37F052EC12F067EC345A
:1058D300F002EC38F0D5EC12F0EEEC37F052EC12AB
:1058E300F079EC34F08FD842EC34F052EC12F057EC
:1058F300EC34F037E0010E3DEC34F0020E4EEC19BF
:10590300F063EC34F026EC34F00B0E45EC1AF0396E
:10591300EC34F026EC34F0110E45EC1AF093C1117F
:10592300F02EEC34F0170E45EC1AF068D826EC3460
:10593300F01A0E45EC1AF095C111F0B2EC2BF020E1
:105943000EB1EC18F03D0E126EE10E116E400EE832
:105953002EFED7112EFCD7122EFAD7080E42EC14C6
:10596300F021D0010E3DEC34F0020E4EEC19F0396B
:10597300EC34F026EC34F00B0E45EC1AF093C11125
:10598300F02EEC34F0110E45EC1AF038D826EC3436
:10599300F0140E45EC1AF095C111F02EEC34F01A08
:1059A3000E45EC1AF046EC34F06DEC34F035EC3483
:1059B300F068EF18F0050E596E5FEC15F00EEC224F
:1059C300F0E1EC17F03EEC38F0E1EC17F04350084F
:1059D300E08C0E056E650E066E72EC2FF068EF1804
:1059E300F0C8EC26F068EC18F093EF27F059500458
:1059F3000AE1E0010A01E1EBD6030A120001019476
:105A030051D00F120051C00CF052C00DF01200150E
:105A1300C005F016C006F012003FD028D9E1EC17FC
:105A2300F0660E056E3C0E066E72EC2FF068EC18F5
:105A3300F0BCEC2BF068EC18F024EC29F037D0160E
:105A4300D9E1EC17F00EEC22F0E1EC17F0C8EC26EC
:105A5300F068EC18F07DEC21F0CEEC0EF027D03896
:105A63002A070E386402D0010E386EBCEC2BF068A6
:105A7300EC18F014EC31F0CCEC14F018D0380638F4
:105A83005002E1070E386EBCEC2BF068EC18F014F2
:105A9300EC31F0CCEC14F00AD05950010ABEE0030B
:105AA3000ADEE0010AEBE0070ACAE0010A5AA6CAC5
:105AB300D09F0EF66E7F0EF76E000EF86E07EC3178
:105AC300F0000EB1EC18F0A00EF66E7F0EF76E002C
:105AD3000EF86E07EC31F0060EB1EC18F0A10EF6DD
:105AE3006E7F0EF76E000EF86E07EC31F00C0EB100
:105AF300EC18F097D0D20EF66E7F0EF76E000EF80C
:105B03006E07EC31F0120EB1EC18F0D30EF66E7F87
:105B13000EF76E000EF86E07EC31F0180EB1EC18AC
:105B2300F091D0F00EF66E7F0EF76E000EF86E0752
:105B3300EC31F0120EB1EC18F0F10EF66E7F0EF7A9
:105B43006E000EF86E07EC31F0180EB1EC18F07A17
:105B5300D086D807EC31F0120EB1EC18F079D807E3
:105B6300EC31F0180EB1EC18F06DD0F90EF66E7F33
:105B73000EF76E000EF86E07EC31F0120EB1EC1852
:105B8300F0FA0EF66E7F0EF76E000EF86E07EC312C
:105B9300F0180EB1EC18F056D0F60EF66E7F0EF735
:105BA3006E000EF86E07EC31F0120EB1EC18F0F740
:105BB3000EF66E7F0EF76E000EF86E07EC31F018DE
:105BC3000EB1EC18F03FD0C30EF66E7F0EF76E00E9
:105BD3000EF86E07EC31F0120EB1EC18F0C40EF6AD
:105BE3006E7F0EF76E000EF86E07EC31F0180EB1F3
:105BF300EC18F028D0CF0EF66E7F0EF76E000EF87D
:105C03006E07EC31F0120EB1EC18F0D00EF66E7F89
:105C13000EF76E000EF86E07EC31F0180EB1EC18AB
:105C2300F011D03850010AE6E0030A01E163D7011D
:105C33000A01E177D7070A8CE0010A97E0030AAC6F
:105C4300E0010AC1E0950E076E34EC12F05A861299
:105C530000E20EF66E7F0EF76E000EF86E1200E194
:105C63000EF66E7F0EF76E000EF86E12001C0E0518
:105C73006E5A0E066E1200276A286A296A2A6ACAB1
:105C8300D0565023EC31F0020E561803E117EC38CE
:105C9300F002D00001906B050ED0650DD0070ED039
:105CA300610AD0510E0B6EE40E0C6EE20E0D6EE324
:105CB3000E0E6E23EC1CF00E0E0001D06505D01005
:105CC3000ED06102D0030E596E270ED065B1D029D4
:105CD3000ED061AED0425004E0D1B102D0020E9199
:105CE300D0030E8FD007D9E1EC17F0500E056E529A
:105CF3000E68EC13F0320E096E68EC18F0BCEC2B56
:105D0300F068EC18F020EED0F010EE35F0060EDB64
:105D1300CFE3FFE806FCE2050E596E5A96020E56D3
:105D23001801E086D00001E2D8B2EC2BF00D0EB1E1
:105D3300EC18F07ED00001906B25EC1DF01EC03CEA
:105D4300F01FC03DF069EC24F01EC064F01FC06575
:105D5300F0DB0E2F6ED70E306E51EC38F0020E567C
:105D63001807E1170E116EB2EC2BF00D0EB1EC1803
:105D7300F05FEC15F042500DE0BDD8E1EC17F00CEC
:105D83000E056E430E066EACD868EC18F07DEC2160
:105D9300F04FD0B0D8E1EC17F0060E056E4A0E06B0
:105DA3006E9FD868EC18F0F2D744501BE0000190C6
:105DB3006B020E561807E1170E116EB2EC2BF00DA5
:105DC3000EB1EC18F05FEC15F095D8E1EC17F0D0BC
:105DD3000E056E570E066E84D868EC18F07DEC2124
:105DE300F00FD043500DE00001906B020E5618EAFD
:105DF300E1170E116EB2EC2BF00D0EB1EC18F0E2C0
:105E0300D7050E596E15D0050E596E0EEC22F0E132
:105E1300EC17F00ED05950010A01E164D7030A8A46
:105E2300E0010AC2E0070AEFE0010A01E129D70312
:105E33000A5AA604D0950E076E34EC12F0465009A8
:105E4300E00001D0A15AA205D05A9282EC0FF0FED5
:105E5300EC10F05A8608EC0FF0000913E0270E0B44
:105E63006E40EC0FF059EC11F02950256E28503E8E
:105E73006E25C03FF027C058F00001666B676B5A70
:105E83009403D00001664B672BE90E665D030E6732
:105E93005906E35A8459EC11F032D8A0EC19F000FA
:105EA300018F51D4191BE1050E096ED151FAEC0F84
:105EB300F00009D8A41200230E0001D019D8B45A57
:105EC300A0120014D8B2EC2BF00D0EB1EC18F0397F
:105ED300EC38F0FAEC11F0010E906F010C5A9012AD
:105EE30000086A076A0A6A140E096E140C906B178D
:105EF3000E116E170C7A0E056E5C0E066E12000400
:105F03000E106E780C3DD098D9E1EC17F0B20E0567
:105F13006E500E066E72EC2FF068EC18F0BCEC2B92
:105F2300F068EC18F024EC29F035D086D9E1EC17B1
:105F3300F00EEC22F0E1EC17F0C8EC26F068EC1858
:105F4300F07DEC21F0CEEC0EF025D03A2A0C0E3A7F
:105F53006402D0010E3A6EBCEC2BF068EC18F062D0
:105F6300D9CCEC14F017D03A063A5002E10C0E3AB1
:105F73006EBCEC2BF068EC18F055D9CCEC14F00A9D
:105F8300D05950010AC0E0030AE0E0010AECE0073F
:105F93000ACCE0010A5AA633D1AB0EF66E7F0EF798
:105FA3006E000EF86E32D9000EB1EC18F0AC0EF69E
:105FB3006E7F0EF76E000EF86E28D9060EB1EC1840
:105FC300F0AD0EF66E7F0EF76E000EF86E1ED90C56
:105FD3000EB1EC18F0F4D0FC0EF66E7F0EF76E00E7
:105FE3000EF86E13D9120EB1EC18F0FD0EF66E7F9B
:105FF3000EF76E000EF86E09D9180EB1EC18F0FF0B
:10600300D0F30EF66E7F0EF76E000EF86EFED8120A
:106013000EB1EC18F0F40EF66E7F0EF76E000EF86C
:106023006EF4D8180EB1EC18F0EAD0D80EF66E7FE5
:106033000EF76E000EF86EE9D8120EB1EC18F0D917
:106043000EF66E7F0EF76E000EF86EDFD8180EB1E7
:10605300EC18F0D5D0CC0EF66E7F0EF76E000EF86E
:106063006ED4D8120EB1EC18F0CD0EF66E7F0EF78B
:106073006E000EF86ECAD8180EB1EC18F0C0D0E45A
:106083000EF66E7F0EF76E000EF86EBFD8120EB1CD
:10609300EC18F0E50EF66E7F0EF76E000EF86EB597
:1060A300D8180EB1EC18F0ABD0E70EF66E7F0EF7F2
:1060B3006E000EF86EAAD8120EB1EC18F0E80EF6C8
:1060C3006E7F0EF76E000EF86EA0D8180EB1EC18A6
:1060D300F096D0D50EF66E7F0EF76E000EF86E9525
:1060E300D8120EB1EC18F0D60EF66E7F0EF76E00D6
:1060F3000EF86E8BD8180EB1EC18F081D031EC2E5F
:10610300F084D8120EB1EC18F02AEC2EF07ED818D9
:106113000EB1EC18F074D0DB0EF66E7F0EF76E0046
:106123000EF86E73D8120EB1EC18F0DC0EF66E7F1B
:106133000EF76E000EF86E69D8180EB1EC18F05F0A
:10614300D0C90EF66E7F0EF76E000EF86E5ED81293
:106153000EB1EC18F0CA0EF66E7F0EF76E000EF855
:106163006E54D8180EB1EC18F04AD0EA0EF66E7FD2
:106173000EF76E000EF86E49D8120EB1EC18F0EB64
:106183000EF66E7F0EF76E000EF86E3FD8180EB146
:10619300EC18F035D0DE0EF66E7F0EF76E000EF8BB
:1061A3006E34D8120EB1EC18F0DF0EF66E7F0EF7D8
:1061B3006E000EF86E2AD8180EB1EC18F020D03A03
:1061C30050010A01E108D7030A01E11AD7010A01C4
:1061D300E12CD7070A01E13ED7010A01E150D703B9
:1061E3000A01E162D7010A01E174D70F0A87E001CE
:1061F3000A92E0030AA5E0010AB8E0070ACBE0959A
:106203000E076E34EC12F05A8612000800F5CF1117
:10621300F0550E126E790E136E000E146E950E1558
:106223006E166A1200050E596E39C010F03AC0118D
:10623300F03BC012F038501200080E056E5F0E06D8
:106243006E1200336E1ED10001906B346A0A0E7910
:10625300D972EC11F0FAEC0FF000090BE03450881E
:10626300D970D972EC11F0FAEC0FF01ED9950F75B5
:10627300D903D03450D0EC12F069D9D251FAEC0FD3
:10628300F013D99B0F6AD93450266E276A54D972FA
:10629300EC11F0FAEC0FF008D9A20F5FD957D9D15E
:1062A30051FAEC0FF001D9A80F58D9342A040E344F
:1062B30064CDD7346A34505CD9096E056E0001D0C1
:1062C3005172EC11F0FAEC0FF0030D0DD9AE0F453E
:1062D300D93DD9D051FAEC0FF0030D05D9B20F3DDA
:1062E300D9342A020E3464E6D700019A6B800EA0DB
:1062F3006FA16FA76BAD6BB16B1200010E00019024
:106303006F3AD972EC11F0FAEC0FF04A6E2CD9FA0D
:10631300EC0FF0496E10D972EC11F0FAEC0FF04863
:106323006E54EC28F0FAEC0FF0476E4A504D180A01
:10633300E149504C1807E148504B1804E14750001D
:106343000192196FE047500001921909E019D9FA37
:10635300EC0FF026EC34F0190E45EC1AF007D010D0
:10636300D9FAEC0FF096D8190EB1EC18F048504B4F
:10637300180BE0E1D872EC11F0FAEC0FF026EC34D4
:10638300F0130E45EC1AF009D0D6D872EC11F0FADE
:10639300EC0FF07FD8130EB1EC18F049504C1809EC
:1063A300E0E2D8FAEC0FF026EC34F0070E45EC1AD5
:1063B300F007D0D9D8FAEC0FF06CD8070EB1EC186F
:1063C300F00A0EBFD872EC11F0FAEC0FF000091AC4
:1063D300E04A504D180CE00A0EB4D872EC11F0FAF2
:1063E300EC0FF026EC34F0010E45EC1AF011D00A54
:1063F3000EA8D872EC11F0FAEC0FF04BD8010EB1E5
:10640300EC18F006D0116A2EEC34F0010E45EC1AAC
:10641300F04AC04DF049C04CF048C04BF047C09221
:10642300F01200A9D872EC11F0FAEC0FF000090B8E
:10643300E00A0E87D872EC11F0FAEC0FF02AD801BB
:106443000EB1EC18F006D0116AB2EC2BF0010EB1CC
:10645300EC18F089D8FAEC0FF01CD8070EB1EC1841
:10646300F06AD872EC11F0FAEC0FF013D8130EB1F6
:10647300EC18F054EC28F0FAEC0FF00BD8190EB12D
:10648300EF18F03350010A01E1DED6030A01E135CA
:10649300D71200116E53C012F054C013F055C0143C
:1064A300F0950E156E166A1200050DF3CF28F0F461
:1064B300CF29F0285053242A6E295054202B6E00E4
:1064C3000E55202C6E26502A242D6E27502B202E5D
:1064D3006E000E2C202F6E2DC0F6FF2EC0F7FF2F5F
:1064E300C0F8FF34501200F3CF28F0F4CF29F003A3
:1064F3000E2826000E2922120E2A6E790E2B6E000C
:106503000E2C6E28502A242D6E29502B202E6E001F
:106513000E2C202F6E26502D24306E27502E203126
:106523006E000E2F20326E30C0F6FF31C0F7FF32FF
:10653300C0F8FF345012000A0E096E056E0001D137
:10654300511200096E056E0001D25112003450261B
:106553006E276A0A0E096E00010A0CD96EDA6A0800
:1065630000F5CFDFFF12000A0E096E0001D25112AF
:1065730000266E276A0A0C0A0E096E056ED25112A6
:10658300000A0E096ED151120057D1CEEC0EF05A0B
:10659300A418D0020E70D9000E4EEC19F0450E115E
:1065A3006E5BD9090E45EC1AF0720E116E55D90FB8
:1065B3000E45EC1AF0720E116E4FD9150E45EC1AFA
:1065C300F024D13E2803E13F2801E108D157040319
:1065D300E03E503F1075E15FD953D952EC12F00CF5
:1065E30050286E3EC005F03FC006F07DD9D5EC12B1
:1065F300F005C02AF006C02BF0050E286402D02A4D
:106603004A2B2A6CD970D9D5EC12F0055006102EFE
:10661300E1020E31D9030E4EEC19F02A502B10165D
:10662300E058C011F019D90D0E45EC1AF039D928EC
:10663300D952EC12F00C5008D9130E45EC1AF0B0F5
:106643000E116E0AD9190E45EC1AF0DFD029D918AC
:10665300D952EC12F00C50F8D80D0E45EC1AF0B0EC
:106663000E116EFAD8130E45EC1AF0CFD0020E03BA
:10667300D9000E4EEC19F058C011F0EED8090E45B2
:10668300EC1AF0086A0A0E076E29D9D5EC12F0EE5F
:10669300EC37F052EC12F00C50D7D80F0E45EC1A31
:1066A300F0FFD8EED852EC12F00C50CED8150E45B0
:1066B300EC1AF0B00E116ED0D81B0E45EC1AF0A5F3
:1066C300D0200E296E2950D0EC12F0292A300E2941
:1066D30064F9D7086A640E08EC38F0D5EC12F0EED2
:1066E300EC37F052EC12F0F1D808EC38F0D5EC129C
:1066F300F0EEEC37F052EC12F0FAD8CDD8C1D85204
:10670300EC12F0D3D839E0020EB6D8030E4EEC19D2
:10671300F058C011F0A1D80B0E45EC1AF0D2D89462
:10672300D8110E45EC1AF0A3D88FD8170E45EC1AE2
:10673300F093C111F091D81D0E45EC1AF0010194AC
:1067430051D00F4BEC32F0200EB1EC18F095C11183
:10675300F0B2EC2BF0260EB1EC18F03D0E276EE1F3
:106763000E266E400EE82EFED7262EFCD7272EFAD5
:10677300D70A0E42EC14F049D0020E7DD8010E4E1A
:10678300EC19F058C011F068D80B0E45EC1AF06FF5
:10679300D85BD8110E45EC1AF093C111F05DD817F0
:1067A3000E45EC1AF000EC2DF04FD81A0E45EC1AFA
:1067B300F095C111F0B2EC2BF0200EB1EC18F03DC6
:1067C3000E276EE10E266E400EE82EFED7262EFC17
:1067D300D7272EFAD7080E42EC14F017D0020E4B2F
:1067E300D8000E4EEC19F02D0E116E36D8090E4559
:1067F300EC1AF02D0E116E30D80F0E45EC1AF02D59
:106803000E116E2AD8150E45EC1AF03ED864D82B1B
:10681300D868EF18F0050E596E5FEC15F093EC276E
:10682300F00EEC22F0E1EC17F043EC38F0E1EC175A
:10683300F0C8EC26F068EF18F05950040AEBE001B9
:106843000A01E1A3D6030A1200116E53C012F054D9
:10685300C013F055C014F01200550E126E790E13CA
:106863006E000E146E1200076E0A6A096A120001A6
:10687300019251D00F12000C6E950E0D6E0E6A121E
:10688300000F6A0A0E0E6E0A0C060E596EF80E05FC
:106893006E1C0E066E12003EC00CF03FC00DF012CF
:1068A300002AC00CF02BC00DF012000C50300F0169
:1068B30001946F2E0E936FB00E956F966B300E9101
:1068C30019120001019151D00F12000C50300F0129
:1068D30001916F086A0A0C020E086E8A0C2AC00521
:1068E300F02BC006F01200086A0A0E076E0A0C0CA1
:1068F30050300F0101926F120050500DE033EC1035
:10690300F0116E000E8E25D96EDA6A020EDA2211AC
:10691300C0DFFF8E2B1200240E0201001901E127B4
:10692300D353D39FDB376E91DB366E95DB356E0029
:1069330001E1510CE0375005E173DB170E71EC12E6
:10694300F009D06EDB370471EC12F004D069DB3749
:106953005071EC12F04F0EA7EC11F04B0EA7EC1197
:10696300F033D342DB1104121005E03EDB020E11BB
:1069730018121018E10251D00F566E56C005F001DF
:106983000EC4EC0FF0CEEC0EF0560403E1000190C0
:106993006B01D04BDB936B4F0EA7EC11F04B0EA7A3
:1069A300EC11F012D3450EA7EC11F0520EA7EC1127
:1069B300F00BD3010E31DBC4EC0FF09CEC14F0228E
:1069C300D0020E2ADBC4EC0FF0F8D7030E25DBC48C
:1069D300EC0FF0F3D7040E20DBC4EC0FF0EED70579
:1069E3000E1BDBC4EC0FF0E9D7FFDA12500BE111F9
:1069F30050010ADFE0030AE4E0010AE7E0070AEADC
:106A0300E0010AEDE0D00E02010225F5DA12BE051F
:106A1300D0125007E1060E115C04E2E6DA115012BF
:106A23001007E1450EA7EC11F0520EA7EC11F0CCC4
:106A3300D24F0EA7EC11F04B0EA7EC11F0C5D20507
:106A4300DB106E09DB116E08510A0DF3500925F0B6
:106A53000F126E07DBCCEC14F04F0EA7EC11F04BCA
:106A63000EA7EC11F0B1D2C0DA1150121004E0BC41
:106A7300DA110412100CE10251D00F466E0351D00B
:106A83000F456E46C005F0020EC4EC0FF007D0456B
:106A93000EA7EC11F0520EA7EC11F096D246500956
:106AA300E145C005F0030EC4EC0FF061EC24F07374
:106AB300EC0FF04F0EA7EC11F04B0EA7EC11F08486
:106AC300D293DA1150121004E08FDA110412100974
:106AD300E10251D00F4F6E4FC005F0040EC4EC0F0E
:106AE300F007D0450EA7EC11F0520EA7EC11F06C95
:106AF300D24F0EA7EC11F04B0EA7EC11F065D27438
:106B0300DA1150121004E070DA110412101DE1D0F2
:106B13000E032571DA1150121006E0D00E03256B17
:106B2300DA1104121011E10251D00F446E0351D057
:106B33000F436E44C005F0050EC4EC0FF043C005CF
:106B4300F0060EC4EC0FF007D0450EA7EC11F0527F
:106B53000EA7EC11F039D24F0EA7EC11F04B0EA794
:106B6300EC11F032D241DA1150121004E03DDA1187
:106B730004121009E10251D00F426E42C005F00722
:106B83000EC4EC0FF007D0450EA7EC11F0520EA780
:106B9300EC11F01AD24F0EA7EC11F04B0EA7EC112B
:106BA300F013D222DA1150121004E01EDA1104128B
:106BB3001009E10251D00F416E41C005F0080EC427
:106BC300EC0FF007D0450EA7EC11F0520EA7EC1115
:106BD300F0FBD14F0EA7EC11F04B0EA7EC11F0F424
:106BE300D103DA1104121005E0FFD9020E111812B5
:106BF3001009E10251D00F576E57C005F0090EC4BA
:106C0300EC0FF007D0450EA7EC11F0520EA7EC11D4
:106C1300F0DBD14F0EA7EC11F04B0EA7EC11F0D423
:106C2300D1E3D91104121004E0DFD9115012100975
:106C3300E10251D00F406E40C005F00A0EC4EC0FC4
:106C4300F007D0450EA7EC11F0520EA7EC11F0BCE3
:106C5300D14F0EA7EC11F04B0EA7EC11F0B5D14FAD
:106C63000EA7EC11F04B0EA7EC11F03D0E126EE1E6
:106C73000E116E400EE82EFED7112EFCD7122EFAFF
:106C8300D73D0E126EE10E116E400EE82EFED711A7
:106C93002EFCD7122EFAD73D0E126EE10E116E4066
:106CA3000EE82EFED7112EFCD7122EFAD73D0E1268
:106CB3006EE10E116E400EE82EFED7112EFCD71298
:106CC3002EFAD7FF0081D1740E021902E1030E04DC
:106CD300D0700E021903E1020E596E07D0450EA7BC
:106CE300EC11F0520EA7EC11F06FD14F0EA7EC117F
:106CF300F04B0EA7EC11F068D1610E02191FE113DE
:106D03006A0BD0030E1324D96EDA6A020EDA2296C6
:106D13000E13243AEC26F0132A000E056E020E061B
:106D23006E82EC10F0FD0E0524116EFF0E0620128C
:106D33006E1350115C000E125816E3E3D7750E0262
:106D43001907E1000E096E020E0A6EA0EC25F00B86
:106D5300D06F0E021908E15A904F0EA7EC11F04BB9
:106D63000EA7EC11F031D14F0EA7EC11F04B0EA78B
:106D7300EC11F0D4C08FF05A800001906B7DD9E103
:106D8300EC17F07FD9E1EC17F013EC22F0E1EC17EC
:106D9300F07DD9E1EC17F06BD9FAEC11F0C8EC26D1
:106DA300F068EC18F042D910D1086A640E48D9D5BE
:106DB300EC12F012D952EC12F00C50300FA7EC1178
:106DC300F0086A0A0E3CD9D5EC12F006D952EC123F
:106DD300F00C50300FA7EC11F0F5C00CF0F6C00D1D
:106DE300F042EC34F052EC12F00C50300FA7EC11DF
:106DF300F05F0EA7EC11F0B4D0136A0B0E1364010D
:106E0300D010D01350116E126A4F0E1124F66E7FFC
:106E13000E1220F76EF86A000E3ED9A7EC11F0139C
:106E23002AECD7136A080E136401D09AD0135011B9
:106E33006E126A5B0E1124F66E7F0E1220F76EF847
:106E43006A000E29D9A7EC11F0132AECD75850A7E2
:106E5300EC11F0086A640EDAD8D5EC12F0BDD85202
:106E6300EC12F00C50300FA7EC11F0086A0A0ECEAA
:106E7300D8D5EC12F0B1D852EC12F00C50300FA769
:106E8300EC11F04DEC34F042EC34F052EC12F00C17
:106E930050300FA7EC11F05F0EA7EC11F0086A64F5
:106EA3000EAFD8D5EC12F098D852EC12F00C50304B
:106EB3000FA7EC11F0086A0A0EA3D8D5EC12F08CD8
:106EC300D852EC12F00C50300FA7EC11F004EC2D5B
:106ED300F042EC34F052EC12F00C50300FA7EC11EE
:106EE300F05F0EA7EC11F03CD0086A640EA2D8D56F
:106EF300EC12F072D852EC12F00C50300FA7EC11D8
:106F0300F0086A0A0E96D8D5EC12F066D852EC1245
:106F1300F00C50300FA7EC11F064C00CF065C00DFD
:106F2300F042EC34F052EC12F00C50300FA7EC119D
:106F3300F05F0EA7EC11F014D0450EA7EC11F05240
:106F43000EA7EC11F00DD00251610A01E12DD70516
:106F53000ACBE0100A01E17AD7020A01E14DD7EC2E
:106F6300D74F0EA7EC11F04B0EA7EC11F02DD0016B
:106F730051530A01E1C1D6320A01E1C1D5030A0125
:106F8300E172D5010A01E1EDD4070A01E158D50107
:106F93000A01E1E8D5030A01E127D5170A01E193C4
:106FA300D6030AD1E0010A01E18BD5070A01E1B951
:106FB300D4020A01E115D6010A01E1F3D50E0A0153
:106FC300E12FD6030A01E14BD60201006B016B02EC
:106FD3006B00018E6B95EF0EF005C00CF006C00D33
:106FE300F00F6A0A0E0E6E0A0CD00E0225116E12F5
:106FF3006AFF0E1222FF0C116E126AFF0E1222FF9D
:107003000C076E51C005F052C006F01200076E3E29
:10701300C005F03FC006F012004E6E4EC005F000F2
:107023000C36C010F035C011F01200010E000190B3
:107033006F010C076E64C005F065C006F01200070F
:107043006EF5C005F0F6C006F0120004510A0DF308
:10705300500525F00F120006510A0DF3500725F0D5
:107063000F120002510A0DF3500325F00F12009680
:107073000E156E020E166E1200D00E056E570E061A
:107083006E12008C0E056E650E066E1200060E055E
:107093006E4A0E066E1200F8220800F55012006EBA
:1070A300EC10F027C0A2F328C0A3F329C0A4F32A4D
:1070B300C0A5F35AEC10F027C096F328C097F32924
:1070C300C098F32AC099F30B0EC9DBD890E435E8D6
:1070D3006FE535E96FE635EA6FE735EB6F030EECE5
:1070E3006FA2C3EDF1A3C3EEF1A4C3EFF1A5C3F007
:1070F300F1EC6701D007D0F035F033EF33EE33ED29
:1071030033EC2FF6D70101E851ED5D056EE951EE41
:1071130059066EEA51EF59076EEB51F059086E7A32
:10712300C009F07BC00AF0A7DBFAEC12F00101E31F
:107133006701D003D057DBE32FF9D763DB0C0E8E47
:10714300DB040EE86FA2C3E9F1A3C3EAF1A4C3EB26
:10715300F1A5C3ECF1E86701D003D0A5DBE82FFA72
:10716300D70101E451E95D056EE551EA59066EE682
:1071730051EB59076EE751EC59086E00017C510140
:1071830001ED6F00017D510101EE6FEF6BF06B04B8
:107193000EF16FA2C3F2F1A3C3F3F1A4C3F4F1A5FB
:1071A300C3F5F1F16701D007D0F535F533F433F3C7
:1071B30033F233F12FF6D70101ED51F25D096EEE93
:1071C30051F3590A6EEF51F4590B6EF051F5590C06
:1071D3006EFAEC12F00101E36701D003D003DBE3A5
:1071E3002FF9D706DB0E0E0101E36F54DB78C009DC
:1071F300F079C00AF040DBFAEC12F00101E3670119
:10720300D003D0F0DAE32FF9D705DB0301AA51B29B
:10721300259E6FAB51B3219F6FAC51B421A06FADCD
:1072230051B521A16F9EC305F09FC306F0A0C3070C
:10723300F0A1C308F0050E096E0A6A0B6A0C6AFA1C
:10724300EC12F0800E05240101E36F000E0620E42A
:107253006F000E0720E56F000E0820E66FE4C1E320
:10726300F1E5C1E4F1E6C1E5F1E66BE5BFE669E30B
:10727300C19AF3E4C19BF3E5C19CF3E6C19DF330EE
:1072830050D96EDA6A9AC3DEFF9BC3DEFF9CC3DE6E
:10729300FF9DC3DEFF9EC3E3F19FC3E4F1A0C3E5FB
:1072A300F1A1C3E6F1E6350EDB000EE3250301B2DF
:1072B3006F060E0101E4210301B36FFF0E0101E527
:1072C300210301B46FFF0E0101E6210301B56F0B2A
:1072D3000E4DDAFAEC12F00101E36701D003D0821C
:1072E300DAE32FF9D785DAD6DA6EC009F06FC00A70
:1072F300F0C2DAFAEC12F08EDA70C005F071C00653
:10730300F092DAFAEC12F0D89005340101E36F063B
:1073130034E46F0734E56F0834E66FE3510301AAE1
:10732300270101E4510301AB230101E5510301AC42
:10733300230101E6510301AD23000172510101E371
:107343006F000173510101E46FE56BE66BE4C1E685
:10735300F1E3C1E5F1E46BE36B020EE76FAAC3E867
:10736300F1ABC3E9F1ACC3EAF1ADC3EBF1E76701FC
:10737300D007D0EB35EB33EA33E933E833E72FF6C5
:10738300D70101E351E8250301AA6F0101E451E9A3
:10739300210301AB6F0101E551EA210301AC6F0148
:1073A30001E651EB210301AD6F0D0EE0D9FAEC12AA
:1073B300F00101E36701D003D015DAE32FF9D71801
:1073C300DA120E0101E36F030EE46F74C005F0756A
:1073D300C006F0000E36DAFAEC12F005C0E5F1064D
:1073E300C0E6F107C0E7F108C0E8F10101E4670175
:1073F300D007D0E835E833E733E633E533E42FF558
:10740300D776C005F077C006F00EDAFAEC12F0EA90
:10741300D905500101E525E96F0650E621EA6F071A
:1074230050E721EB6F0850E821EC6FE36701D003CD
:10743300D03ADAE32FFAD7E9C1B2F3EAC1B3F3EBF7
:10744300C1B4F3ECC1B5F30F0E0101E36F000E03FA
:1074530001B225056E800EB321066E000EB421071E
:107463006E000EB521086EDFC009F0E0C00AF00B14
:107473006A0C6AFAEC12F00101E36701D003D0B29F
:10748300D9E32FF9D7BED90301B251B311B411B562
:107493001101E112000C0E0101E36FAAC3E4F1AB89
:1074A300C3E5F1ACC3E6F1ADC3E7F1E36701D00493
:1074B300D0E73503DAE32FF9D796C3E8F197C3E9A9
:1074C300F198C3EAF199C3EBF10101E81FE91FEA5F
:1074D3001FEB1FE82B000EE923EA23EB23E451E81B
:1074E3005DEC6FE551E959ED6FE651EA59EE6FE74F
:1074F30051EB59EF6F000EEC25056E000EED2106E2
:107503006E100EEE21076E000EEF21086E350E0988
:107513006E0C0ECFD9FAEC12F005C0AEF306C0AF75
:10752300F307C0B0F308C0B1F3800E0301B15D15DA
:10753300E2D890AE35116EAF35126EB035136EB121
:1075430035146E9FD935EC16F011C0AEF312C0AFEF
:10755300F313C0B0F314C0B1F315D0AEC311F0AF41
:10756300C312F0B0C313F0B1C314F08BD935EC16CA
:10757300F0D89011340301AE6F1234AF6F1334B0EF
:107583006F1434B16FAEC3E3F1AFC3E4F1B0C3E53D
:10759300F1B1C3E6F1040E03D00101D89093D9E809
:1075A3002EFBD7E3C105F0E4C106F0E5C107F0E621
:1075B300C108F0AEC3E7F1AFC3E8F1B0C3E9F1B17D
:1075C300C3EAF1040E05D0D890EA33E933E833E790
:1075D30033E82EF9D7E7C109F0E8C10AF0E9C10B96
:1075E300F0EAC10CF0FAEC12F00E0E05D0D89008B8
:1075F30032073206320532E82EF9D7FAD80C0E01DB
:1076030001E36F68C005F069C006F0000E1AD9FAED
:10761300EC12F00101E36701D003D0E4D8E32FF9C2
:10762300D7F0D80D0E0101E36FAEC3E4F1AFC3E5AC
:10763300F1B0C3E6F1B1C3E7F1030E02D0D8903D38
:10764300D9E82EFCD7E4C105F0E5C106F0E6C10791
:10765300F0E7C108F06AC009F06BC00AF00CD9FA70
:10766300EC12F00101E36701D003D0BCD8E32FF99A
:10767300D7D1D8040E0101E36F6CC0E4F16DC0E50E
:10768300F1000EE5BFFF0EE66FE76F0301B2510194
:1076930001E425E86F0301B3510101E521E96F031B
:1076A30001B4510101E621EA6F0301B5510101E77C
:1076B30021EB6F0301AA510101E825EC6F0301AB34
:1076C300510101E921ED6F0301AC510101EA21EE02
:1076D3006F0301AD510101EB21EF6FE36701D007A8
:1076E300D0EF35EF33EE33ED33EC33E32FF6D7033F
:1076F30001AE510101EC250301AE6FAF510101ED64
:10770300210301AF6FB0510101EE210301B06FB14D
:10771300510101EF210301B16FAEC305F0AFC30601
:10772300F0B0C307F0B1C308F0E80E096E030EC151
:10773300D8FAEC12F005C011F006C012F007C0131E
:10774300F008C014F0140E156E340E166E176A1876
:107753006A35EC16F02F50D96EDA6A11C0DEFF12CB
:10776300C0DEFF13C0DEFF14C0DEFF12000101E321
:107773006F020EE46FB2C3E5F1B3C3E6F1B4C3E73E
:10778300F1B5C3E8F1E46701D007D0E835E833E7A2
:1077930033E633E533E42FF6D7E5C105F0E6C1065A
:1077A300F0E7C107F0E8C108F0020E0101E96FB28A
:1077B300C3EAF1B3C3EBF1B4C3ECF1B5C3EDF1E943
