:0400000007EF00F016
:100008005B8227ED22F056EF1CF028D050EC2BF045
:100018000C6E100E3524D96EDA6A020EDA220CC084
:10002800DFFF352A010E356415D00F0E3524D96E41
:10003800DA6A020EDA220A0EDE180CE10E0E3524F8
:10004800D96EDA6A020EDA220D0EDE1803E1010E0D
:10005800AF6F06D0950E356401D0356A3E50D6E1B3
:100068003E5002E15FEC2DF00001AF51D8B4120010
:10007800240E0201101901E134D269D27CEC1FF080
:1000880066D2240EE4EC29F04A0EE4EC29F00E6A5C
:100098000E50490FA0EC22F0E4EC29F00E2A0C0EC9
:1000A8000E64F6D70D0EE4EC29F00A0EE4EC29F004
:1000B8004ED20E6A07D075DAED0E0E24E16EE26AB2
:1000C800010E8DDAAFDAF6EC27F0FE0E5CDA01E20B
:1000D8003ED2F1D75AA01BD07CDA2E6E6EDA2D6E86
:1000E80072DA2C6E48500CE02E5005E161DA170EDA
:1000F800BBEC28F009D05CDA2E04BBEC28F004D065
:1001080057DA2E50BBEC28F095EC2CF020D2A1EC5D
:100118002CF01DD224DA0C040D1004E020DA0C5067
:100128000D10F5E11251D00F556E55C005F00E0EA9
:10013800C0EC2BF0E9D713DA0C040D1005E00FDA48
:10014800020E0C180D10E3E11251D00F4A6E4AC08E
:1001580005F0010EC0EC2BF00CEC2DF04A0403E185
:100168000001B16B02D0F5EC0DF0B36BCDD7010EE9
:1001780014DAC0EC2BF03BEC27F022D0020E0DDA9B
:10018800C0EC2BF0F8D7030E08DAC0EC2BF0F3D74D
:10019800040E03DAC0EC2BF0EED7050EFED9C0EC46
:1001A8002BF0E9D7DCD90D500BE10C50010ADFE048
:1001B800030AE4E0010AE7E0070AEAE0010AEDE0E1
:1001C800D00E02011225D2D90DBE06D00D509FE1E6
:1001D800060E0C5CD8B09BD7C2D90C500D1097E016
:1001E80093D7EBD9106EEFD9116E1A510A0DF3504F
:1001F8001B25F00F126EEDD912EC26F002011851F2
:100208000A0DF3501925F00F476E47C005F00D0E83
:10021800C0EC2BF079D7A3D90C500D1005E09FD96D
:100228000C040D1001E073D71251D00F4B6E13510F
:10023800D00F4C6E4BC005F0020EC0EC2BF04B50AB
:1002480001E062D74CC005F0030EC0EC2BF036EC91
:1002580019F045EC2CF058D782D90C500D1005E058
:100268007ED90C040D1001E052D71251D00F4D6EFB
:100278004DC005F0040EC0EC2BF046D770D90C50D9
:100288000D1005E06CD90C040D1001E040D7D00E1C
:1002980013256CD90C500D1007E0D00E132566D924
:1002A8000C040D1001E033D71251D00F4E6E1351CC
:1002B800D00F4F6E4EC005F0050EC0EC2BF0C1D923
:1002C800C0EC2BF021D74BD90C500D1005E047D9C5
:1002D8000C040D1001E01BD71251D00F506EAED98F
:1002E800C0EC2BF011D73BD90C500D1005E037D9D5
:1002F8000C040D1001E00BD71251D00F516E9BD991
:10030800C0EC2BF001D72BD90C040D1006E027D92F
:10031800020E0C180D1001E0FAD61251D00F526ED1
:1003280052C005F0090EC0EC2BF0EED618D90C041B
:100338000D1005E014D90C500D1001E0E8D612514B
:10034800D00F546EB6EC18F0C0EC2BF0DDD695EC5F
:100358002CF03D0E0D6EE10E0C6E400EE82EFED711
:100368000C2EFCD70D2EFAD73D0E0D6EE10E0C6E3D
:10037800400EE82EFED70C2EFCD70D2EFAD73D0ED8
:100388000D6EE10E0C6E400EE82EFED70C2EFCD73B
:100398000D2EFAD73D0E0D6EE10E0C6E400EE82EB6
:1003A800FED70C2EFCD70D2EFAD7FF00D0D0610E49
:1003B80012191BE1200E0301006F010E0E6E07D00B
:1003C800F0D8000E0E24E16EE26A030E08D92AD98D
:1003D800F6EC27F0FD0ED7D8F3E2000E0E24D96E06
:1003E800DA6A030EDA22DF6A05D06F0E121902E10B
:1003F8005A928AD695EC2CF044C0B0F05A8200018B
:10040800B16BF2D8A5EC21F0FED8A5EC21F005D906
:10041800A5EC21F0FDD8A5EC21F0F0EC0DF0A5EC51
:1004280021F0ECD8A5EC21F0E4D8E3EC2BF08FD048
:10043800240EE4EC29F0760EE4EC29F0280EE4EC26
:1004480029F00E6A09D0190E0E24F66EF76A7F0E8F
:10045800EED8E4EC29F00E2A190E056E7F0E066E12
:10046800F6EC27F088D8EFE3290EE4EC29F0200E0B
:10047800E4EC29F0200EE4EC29F00E6A09D0CF0E46
:100488000E24F66EF76A7E0ED2D8E4EC29F00E2A16
:10049800CF0E056E7E0E066EF6EC27F06CD8EFE3F5
:1004A800200EE4EC29F00E6A09D0000E0E24F66E38
:1004B800F76A7F0EBCD8E4EC29F00E2A000E056E10
:1004C8007F0E066EF6EC27F056D8EFE30D0EE4EC3F
:1004D80029F00A0EE4EC29F03AD01251760AA8E085
:1004E80016D61151440A01E1C9D50E0A01E1C9D550
:1004F8001A0A01E1DED5030A01E159D7070A01E129
:1005080009D6350A01E1BAD6030A01E184D6010AFF
:1005180001E111D6070A01E164D6010A01E1D3D647
:10052800030A01E13FD6140AD8E0010A01E194D692
:10053800070A01E1CFD5020A01E1E5D6010A01E186
:10054800D2D60E0A01E1F2D6030A01E100D7020170
:10055800106B116B126B356A0001AF6B1200D00E75
:1005680012250C6E0D6AFF0E0D22FF0C0C6E0D6A23
:10057800FF0E0D22FF0C0E500C6E0D6A05500C5C20
:1005880006500D58120005240C6EFF0E06200D6E45
:100598000E500C5C000E0D581200496E49C005F053
:1005A800000C120E0E24D96EDA6A020EDA2212003C
:1005B8002DC010F02CC011F0120014510A0DF35088
:1005C8001525F00F120016510A0DF3501725F00FDC
:1005D800120012510A0DF3501325F00F1200E222F7
:1005E800DFCFE7FF0E2A1200A00E056E170E066E6B
:1005F8001200000E0E6E030E0F6E1200300E056E06
:100608002D0E066E1200880E056E0C0E066E120078
:10061800860E056E240E066E1200140E056E360E3A
:10062800066E1200100E056E020E066E1200F722FC
:100638000800F550120051C005F0080C50C005F034
:10064800070C4FC005F0060C14EC2BF027C094F3F0
:1006580028C095F329C096F32AC097F370C0CEF24C
:1006680071C0CFF272C0D0F273C0D1F20201D1359D
:10067800FDDA000ECE250301A46F060E0201CF217C
:100688000301A56FFF0E0201D0210301A66FFF0E23
:100698000201D1210301A76F0B0E54DA61EC27F098
:1006A8000201CE6701D003D089DACE2FF9D78CDAD0
:1006B80098C305F099C306F09AC307F09BC308F0E6
:1006C8008FC009F090C00AF0A3DA61EC27F0B8DA1D
:1006D80091C005F092C006F080DA61EC27F0D8905E
:1006E80005340201CE6F0634CF6F0734D06F08345B
:1006F800D16FCE5103019C270201CF5103019D23E5
:100708000201D05103019E230201D15103019F230D
:10071800000193510201CE6F000194510201CF6F85
:10072800D06BD16BCFC2D1F2CEC2D0F2CF6BCE6B31
:10073800020ED26F9CC3D3F29DC3D4F29EC3D5F2EE
:100748009FC3D6F2D26701D007D0D635D633D5337A
:10075800D433D333D22FF6D70201CE51D325030198
:100768009C6F0201CF51D42103019D6F0201D0512A
:10077800D52103019E6F0201D151D62103019F6F3C
:100788000D0EE0D961EC27F00201CE6701D003D04D
:1007980015DACE2FF9D718DA120E0201CE6F030E32
:1007A800CF6F95C005F096C006F0000E24DA61EC14
:1007B80027F005C0D0F206C0D1F207C0D2F208C0B7
:1007C800D3F20201CF6701D007D0D335D333D23368
:1007D800D133D033CF2FF5D797C005F098C006F0A6
:1007E800FCD961EC27F0EAD905500201D025D46F75
:1007F8000650D121D56F0750D221D66F0850D3218A
:10080800D76FCE6701D007D0D735D733D633D53396
:10081800D433CE2FF6D7D4C2A4F3D5C2A5F3D6C20B
:10082800A6F3D7C2A7F30F0E0201CE6F000E030185
:10083800A425056E800EA521066E000EA621076E62
:10084800000EA721086EF5C009F0F6C00AF00B6A81
:100858000C6A61EC27F00201CE6701D003D0AED953
:10086800CE2FF9D7F6D90301A451A511A611A711C6
:1008780006E10201CA6BCB6BCC6BCD6B12000C0E80
:100888000201CE6F9CC3CFF29DC3D0F29EC3D1F2BA
:100898009FC3D2F2CE6701D004D0D235ECD9CE2F87
:1008A800F9D794C3D3F295C3D4F296C3D5F297C3BC
:1008B800D6F20201D31FD41FD51FD61FD32B000E8B
:1008C800D423D523D623CF51D35DD76FD051D45954
:1008D800D86FD151D559D96FD251D659DA6F000E88
:1008E800D725056E000ED821066E100ED921076E89
:1008F800000EDA21086E350E096E0C0EB3D961ECC4
:1009080027F005C0A0F306C0A1F307C0A2F308C0F2
:10091800A3F3800E0301A35D0EE2D890A035116EFB
:10092800A135126EA235136EA335146E80D958EC1A
:1009380023F074D915D0A0C311F0A1C312F0A2C33B
:1009480013F0A3C314F073D958EC23F0D8901134E2
:100958000301A06F1234A16F1334A26F1434A36F74
:10096800A0C3CEF2A1C3CFF2A2C3D0F2A3C3D1F2E7
:10097800040E03D00201D89079D9E82EFBD7CEC255
:1009880005F0CFC206F0D0C207F0D1C208F0A0C36C
:10099800D2F2A1C3D3F2A2C3D4F2A3C3D5F2040EF8
:1009A80005D0D890D533D433D333D233E82EF9D702
:1009B800D2C209F0D3C20AF0D4C20BF0D5C20CF0EF
:1009C80061EC27F00E0E05D0D890083207320632B7
:1009D8000532E82EF9D7F8D80C0E0201CE6F89C07F
:1009E80005F08AC006F0000E06D961EC27F0020176
:1009F800CE6701D003D0E2D8CE2FF9D72AD90D0E71
:100A08000201CE6FA0C3CFF2A1C3D0F2A2C3D1F22C
:100A1800A3C3D2F2030E02D0D8902DD9E82EFCD76A
:100A2800CFC205F0D0C206F0D1C207F0D2C208F09A
:100A38008BC009F08CC00AF0EBD861EC27F00201FA
:100A4800CE6701D003D0BAD8CE2FF9D7F9D8040E83
:100A58000201CE6F8DC0CFF28EC0D0F2000ED0BF93
:100A6800FF0ED16FD26F0301A4510201CF25D36FBE
:100A78000301A5510201D021D46F0301A65102013F
:100A8800D121D56F0301A7510201D221D66F0301ED
:100A98009C510201D325D76F03019D510201D42136
:100AA800D86F03019E510201D521D96F03019F51CF
:100AB8000201D621DA6FCE6701D007D0DA35DA33F2
:100AC800D933D833D733CE2FF6D70301A05102013B
:100AD800D7250301A06FA1510201D8210301A16FFD
:100AE800A2510201D9210301A26FA3510201DA2107
:100AF8000301A36FA0C305F0A1C306F0A2C307F0CA
:100B0800A3C308F0E80E096E030EACD861EC27F019
:100B180005C011F006C012F007C013F008C014F0A9
:100B2800140E156E340E166E176A186A58EC23F0F8
:100B380075D8A0C3CAF2A1C3CBF2A2C3CCF2A3C397
:100B4800CDF212000201CE6F020ECF6FA4C3D0F215
:100B5800A5C3D1F2A6C3D2F2A7C3D3F2CF6701D0FF
:100B680007D0D335D333D233D133D033CF2FF6D7C1
:100B7800D0C205F0D1C206F0D2C207F0D3C208F045
:100B8800020E0201D46FA4C3D5F2A5C3D6F2A6C340
:100B9800D7F2A7C3D8F2D46701D007D0D835D83355
:100BA800D733D633D533D42FF6D7D5C209F0D6C22A
:100BB8000AF0D7C20BF0D8C20CF012000834083281
:100BC800073206320532120005C098F306C099F3C1
:100BD80007C09AF308C09BF31200000E06BEFF0E72
:100BE800076E086EA4C309F0A5C30AF0A6C30BF0EC
:100BF800A7C30CF0120006BEFF0E076E086E98C35E
:100C080009F099C30AF09AC30BF09BC30CF01200C9
:100C1800000E0ABEFF0E0B6E0C6E120011C0A0F380
:100C280012C0A1F313C0A2F314C0A3F31200A4C30B
:100C380015F0A5C316F0A6C317F0A7C318F0120045
:100C480005C09CF306C09DF307C09EF308C09FF340
:100C5800120005C0A4F306C0A5F307C0A6F308C098
:100C6800A7F312000A6E0B6A0C6A1200D133D03354
:100C7800CF33CE331200D233D133D033CF33120037
:100C88004FD10CEC2DF00001B55118E0020E5BD9E4
:100C9800000E93EC23F0450E116E50D9090EC6ECE8
:100CA80020F0720E116E4AD90F0EC6EC20F0720EAB
:100CB800116E44D9150EC6EC20F023D1602903E14A
:100CC800612901E107D1520403E06051611175E126
:100CD8006ED94DD9DAEC28F00C500001AD6F77D9F8
:100CE80080D9D1EC27F005C083F006C084F0050E4A
:100CF8000001AD6502D0834B842B6ED972D9D1EC3B
:100D080027F0055006102FE1020E1DD9030E93ECB3
:100D180023F000018351841116E058C011F00ED958
:100D28000D0EC6EC20F02ED922D9DAEC28F00C50A2
:100D3800FFD8130EC6EC20F0B00E116EFFD8190EB6
:100D4800C6EC20F0DED01ED912D9DAEC28F00C500F
:100D5800EFD80D0EC6EC20F0B00E116EEFD8130EC2
:100D6800C6EC20F0CED0020EEED8000E93EC23F0A5
:100D780058C011F0E3D8090EC6EC20F0086A0A0E34
:100D8800076E2AD9D1EC27F0ECEC12F0DAEC28F057
:100D98000C50CED80F0EC6EC20F0F4D8E8D8DAEC18
:100DA80028F00C50C5D8150EC6EC20F0B00E116E08
:100DB800C5D81B0EC6EC20F0A4D0200E216E215001
:100DC8008AEC29F0212A300E2164F9D7086A640ECA
:100DD800076EFDD8D1EC27F0ECEC12F0DAEC28F035
:100DE800EBD8F5D8D1EC27F0ECEC12F0DAEC28F0DF
:100DF800FCD8DDD8BCD8DAEC28F0C9D839E0020E26
:100E0800A2D8030E93EC23F058C011F097D80B0E1C
:100E1800C6EC20F0C8D88CD8110EC6EC20F098D8B3
:100E280087D8170EC6EC20F083C111F087D81D0EA5
:100E3800C6EC20F001018451D00F10EC09F0200E0F
:100E4800E8EC21F085C111F095EC10F0260EE8ECE5
:100E580021F03D0E206EE10E1F6E400EE82EFED7EB
:100E68001F2EFCD7202EFAD70A0E42EC26F049D0C6
:100E7800020E69D8010E93EC23F058C011F05ED829
:100E88000B0EC6EC20F064D853D8110EC6EC20F037
:100E980083C111F053D8170EC6EC20F0DAEC0CF031
:100EA80047D81A0EC6EC20F085C111F095EC10F069
:100EB800200EE8EC21F03D0E206EE10E1F6E400E74
:100EC800E82EFED71F2EFCD7202EFAD7080E42ECAC
:100ED80026F017D0020E37D8000E93EC23F02D0E13
:100EE800116E2CD8090EC6EC20F02D0E116E26D8E6
:100EF8000F0EC6EC20F02D0E116E20D8150EC6EC84
:100F080020F039D861D828D85CEF21F029D8A5EC91
:100F180021F007EC03F0A5EC21F0B86B7FEF25F08A
:100F28005950040AF3E0010A01E1ABD6030A1200A2
:100F3800116E56C012F057C013F01200900E126EC8
:100F4800780E136E12000C6EBA0E0D6E0E6A120039
:100F580001018251D00F1200076E0A6A096A120055
:100F6800050E596E100E056E5B0E066E12000F6AA6
:100F78000A0E0E6E0A0C060E596E100E056E5B0EEA
:100F8800066E120083C00CF084C00DF012000C50E5
:100F9800300F0101846F2E0E836FB00E856F866B44
:100FA800300E8119120001018151D00F120060C06A
:100FB8000CF061C00DF012000C50300F0101816F70
:100FC800086A0A0E076E0A0C020E086E8A0C60C0C8
:100FD80005F061C006F0120083C005F084C006F079
:100FE8001200086A0A0E076E0A0C0C50300F010135
:100FF800826F1200236E08D10001B16B246A2AD9CE
:1010080019EC2AF076EC2BF0000909E023D919EC49
:101018002AF076EC2BF009D9BA0F36D903D0245030
:101028008AEC29F040D976EC2BF0FFD8C00F2CD9E8
:1010380031D919EC2AF076EC2BF0F7D8C70F24D960
:101048002ED976EC2BF0F1D8CD0F1ED9242A040E18
:101058002464D5D7246A3AEC12F019EC2AF076EC1D
:101068002BF0FDD8D30F10D93FEC12F076EC2BF013
:10107800F6D8D70F09D9242A020E2464ECD7000128
:10108800BF6B800EC56FC66FCC6BD26BD66B120070
:10109800010E0001B16FDED819EC2AF076EC2BF0C6
:1010A800396E01D976EC2BF0386EF4D819EC2AF0A9
:1010B80076EC2BF0376EF3D876EC2BF0366E395091
:1010C8003D1809E138503C1806E137503B1803E158
:1010D80036503A186BE036503A1809E0E0D876EC0A
:1010E8002BF09CEC07F0190EC6EC20F007D0D7D8EF
:1010F80076EC2BF091D8190EE8EC21F037503B181C
:101108000BE0C8D819EC2AF076EC2BF09CEC07F031
:10111800130EC6EC20F009D0BDD819EC2AF076ECF5
:101128002BF07AD8130EE8EC21F038503C1809E07F
:10113800BAD876EC2BF09CEC07F0070EC6EC20F042
:1011480007D0B1D876EC2BF067D8070EE8EC21F081
:1011580081D819EC2AF076EC2BF0000918E0395008
:101168003D180BE077D819EC2AF076EC2BF09CECC4
:1011780007F0010EC6EC20F010D06CD819EC2AF05C
:1011880076EC2BF049D8010EE8EC21F006D0116A74
:10119800A2EC07F0010EC6EC20F039C03DF038C0D3
:1011A8003CF037C03BF036C03AF0120053D819EC87
:1011B8002AF076EC2BF000090AE04CD819EC2AF05A
:1011C80076EC2BF029D8010EE8EC21F006D0116A54
:1011D80095EC10F0010EE8EC21F065D876EC2BF0D8
:1011E8001BD8070EE8EC21F055D819EC2AF076EC5C
:1011F8002BF012D8130EE8EC21F051D876EC2BF036
:101208000BD8190EE8EF21F02350010A01E1F4D6BA
:10121800030A01E13DD71200116E56C012F057C003
:1012280013F0BA0E146E156A1200050DF3CF1FF0F5
:10123800F4CF20F01F505624216E20505720226EE4
:1012480024502126000E222221C0F6FF22C0F7FFDB
:10125800245012000A0E096E056E42501200030D4A
:10126800550EF3241F6E780EF420206E24501F268E
:10127800000E2022030E1F26000E20221FC0F6FF9C
:1012880020C0F7FF24501200D96EDA6A0800F5CFA3
:10129800DFFF12000A0E096E056E415012000A0E99
:1012A800096E415012000A0E096E4250120027D0F2
:1012B80043D912EC26F0B60E0E6E120E0F6EFA0E11
:1012C800106E250E116E4CEC2AF023D0B60E0E6E61
:1012D800120E0F6E18EC29F01CD0312A0C0E316456
:1012E80002D0010E316E70EC11F05CEC21F0050EAD
:1012F800596E0FD031063150F6E10C0EF3D7595024
:10130800010AD6E0030AE9E0010AF4E0070ADEE090
:10131800010A5AA600D1A80EF66E7F0EF76E01D903
:10132800000EE8EC21F0A90EF66E7F0EF76EF9D8E4
:10133800060EE8EC21F0AA0EF66E7F0EF76EF1D8D5
:101348000C0EE8EC21F0C8D0F90EF66E7F0EF76EA1
:10135800E8D8120EE8EC21F0FA0EF66E7F0EF76E62
:10136800E0D8180EE8EC21F0D6D0F00EF66E7F0E1D
:10137800F76ED7D8120EE8EC21F0F10EF66E7F0E5C
:10138800F76ECFD8180EE8EC21F0C5D0D50EF66E62
:101398007F0EF76EC6D8120EE8EC21F0D60EF66E68
:1013A8007F0EF76EBED8180EE8EC21F0B4D0C90E47
:1013B800F66E7F0EF76EB5D8120EE8EC21F0CA0E65
:1013C800F66E7F0EF76EADD8180EE8EC21F0A3D0BC
:1013D800E10EF66E7F0EF76EA4D8120EE8EC21F03F
:1013E800E20EF66E7F0EF76E9CD8180EE8EC21F030
:1013F80092D0E40EF66E7F0EF76E93D8120EE8ECDC
:1014080021F0E50EF66E7F0EF76E8BD8180EE8EC1D
:1014180021F081D0D20EF66E7F0EF76E82D8120EB2
:10142800E8EC21F0D30EF66E7F0EF76E7AD8180E20
:10143800E8EC21F070D0D5EC0FF073D8120EE8EC80
:1014480021F0D0EC0FF06DD8180EE8EC21F063D045
:10145800D80EF66E7F0EF76E64D8120EE8EC21F007
:10146800D90EF66E7F0EF76E5CD8180EE8EC21F0F8
:1014780052D0C60EF66E7F0EF76E53D8120EE8ECF9
:1014880021F0C70EF66E7F0EF76E4BD8180EE8ECFB
:1014980021F041D0E70EF66E7F0EF76E42D8120E9D
:1014A800E8EC21F0E80EF66E7F0EF76E3AD8180ECB
:1014B800E8EC21F030D0DB0EF66E7F0EF76E31D8F7
:1014C800120EE8EC21F0DC0EF66E7F0EF76E29D8CE
:1014D800180EE8EC21F01FD03150010A01E134D791
:1014E800030A01E142D7010A01E150D7070A01E1E5
:1014F8005ED7010A01E16CD7030A01E17AD7010A34
:1015080089E00F0A98E0010AA3E0030AB2E0010AA1
:10151800C1E0070AD0E0BA0E076E37EC29F05A8608
:1015280012000800F5CF11F0900E126E780E136EAF
:10153800BA0E146E156A120030C010F031C011F0E6
:1015480032C012F02F50120000EC2BF027C0A4F389
:1015580028C0A5F329C0A6F32AC0A7F30B0E0FD9FC
:10156800D890CF35D36FD035D46FD135D56FD2352C
:10157800D66F030ED76FA4C3D8F2A5C3D9F2A6C3FA
:10158800DAF2A7C3DBF2D76701D007D0DB35DB334C
:10159800DA33D933D833D72FF6D70201D351D85DF0
:1015A800056ED451D959066ED551DA59076ED65100
:1015B800DB59086E9BC009F09CC00AF00CEC06F0E1
:1015C80061EC27F00201CE6701D004D0E2EC05F00F
:1015D800CE2FF8D705C094F306C095F307C096F34D
:1015E80008C097F30C0ECBD8040ED36FA4C3D4F263
:1015F800A5C3D5F2A6C3D6F2A7C3D7F2D36701D045
:1016080007D0D735D733D633D533D433D32FF6D7FE
:101618000201CF51D45D056ED051D559066ED15116
:10162800D659076ED251D759086E00019D51020153
:10163800D86F00019E510201D96FDA6BDB6B040E83
:10164800DC6FA4C3DDF2A5C3DEF2A6C3DFF2A7C335
:10165800E0F2DC6701D007D0E035E033DF33DE337A
:10166800DD33DC2FF6D70201D851DD5D096ED95183
:10167800DE590A6EDA51DF590B6EDB51E0590C6EF8
:1016880061EC27F00201CE6701D004D0E2EC05F04E
:10169800CE2FF8D705C0A0F306C0A1F307C0A2F368
:1016A80008C0A3F30E0E0201CE6FA0C305F0A1C3BC
:1016B80006F0A2C307F0A3C308F099C009F09AC0C6
:1016C8000AF00CEC06F061EC27F00201CE6701D0BD
:1016D80004D0E2EC05F0CE2FF8D705C098F306C089
:1016E80099F307C09AF308C09BF303019851942516
:1016F8000001706F0301995195210001716F030179
:101708009A5196210001726F03019B5197210001A4
:10171800736F70C005F071C006F072C007F073C037
:1017280008F0050E096E0A6A0B6A0C6A61EC27F06C
:10173800800E05240201CE6F000E0620CF6F000E2A
:101748000720D06F000E0820D16FCFC2CEF2D0C2D2
:10175800CFF2D1C2D0F2D16BD0BFD169CEC29CF347
:10176800CFC29DF3D0C29EF3D1C29FF39CC3CAF2ED
:101778009DC3CBF29EC3CCF29FC3CDF212000201EF
:10178800CE6F00019D510201CF6F00019E510201F1
:10179800D06FD16BD26B120001D10CEC2DF052043A
:1017A80004E000016251631162E104D9BBEC07F067
:1017B800DAEC28F00C500001AE6F01D9F5EC07F017
:1017C800D1EC27F005C085F006C086F0050E0001B3
:1017D800AE6502D0854B862BF7D8F5EC07F0D1EC37
:1017E80027F00550061017E1010EA7EC07F0030ECD
:1017F80093EC23F085C011F056C012F057C013F0D7
:101808000D0EC6EC20F0B00E116EA2EC07F0130E10
:10181800C6EC20F0AAD0010EA7EC07F0030E93EC5B
:1018280023F0086A0A0E076ECFD8D1EC27F0ECEC4B
:1018380012F0DAEC28F00C509CEC07F00B0EC6EC1A
:1018480020F085C00CF086C00DF0BBEC07F0DAEC98
:1018580028F00C509CEC07F0110EC6EC20F0B00EEE
:10186800116EA2EC07F0170EC6EC20F07ED0200E09
:10187800136E13508AEC29F0132A300E1364F9D72B
:10188800086A640E076E9BD8D1EC27F0ECEC12F0D6
:10189800DAEC28F0E0EC07F092D8D1EC27F0ECEC89
:1018A80012F0DAEC28F0F9EC07F084D8BBEC07F07A
:1018B800DAEC28F0CBEC07F037E0010EA7EC07F0E4
:1018C800020E93EC23F0D7EC07F09CEC07F00B0E1C
:1018D800C6EC20F0ACEC07F09CEC07F0110EC6EC5F
:1018E80020F083C111F0A2EC07F0170EC6EC20F02F
:1018F8005DD89CEC07F01A0EC6EC20F085C111F0FB
:1019080095EC10F0200EE8EC21F03D0E126EE10E81
:10191800116E400EE82EFED7112EFCD7122EFAD7E4
:10192800080E42EC26F021D0010EA7EC07F0020EBB
:1019380093EC23F0ACEC07F09CEC07F00B0EC6EC34
:1019480020F083C111F0A2EC07F0110EC6EC20F0D4
:101958002DD89CEC07F0140EC6EC20F085C111F0D0
:10196800A2EC07F01A0EC6EC20F0BFEC07F0E8EC8A
:1019780007F0B0EC07F05CEF21F0B4EC07F0A5EC51
:1019880021F0F8EC02F0A5EC21F04F5004E0030E32
:10199800B86F7FEF25F0B86B7FEF25F05950040A38
:1019A800ECE0010A01E1F9D6030A120001018451B1
:1019B800D00F120062C00CF063C00DF0120062C0BC
:1019C80005F063C006F0120085C005F086C006F079
:1019D80012005A80A2D04A50FEEC07F0020E4A18B4
:1019E80002E1FFD802D00001B16B0E0E406405D0B1
:1019F800100E406002D0030E596E270E40649BD033
:101A0800290E406098D0505004E041B002D0020E38
:101A180001D0030E596E8FD05A90240EE4EC29F0B1
:101A2800500EE4EC29F00D0EE4EC29F00A0EE4EC7B
:101A380029F0D2D8A5EC21F0680E056E210EC5D884
:101A48005CEC21F070EC11F05CEC21F020EE40F041
:101A580010EE2CF0070EDBCFE3FFE806FCE2050EE4
:101A6800596E5A96020E4A1866E10001B16B170EBC
:101A7800116E95EC10F00D0EE8EC21F05CD0505092
:101A880002E1545058E00001B16B5A90020E4A1816
:101A980007E1170E116E95EC10F00D0EE8EC21F031
:101AA8009BD8A5EC21F0050E596E5A965050010EA0
:101AB800D8B4040EB86F7FEC25F03DD04E5002E14B
:101AC8004F5039E00001B16B5A9086D8A5EC21F04F
:101AD800050E596E5A964E500CE0020E4A1807E150
:101AE800170E116E95EC10F00D0EE8EC21F0020EB9
:101AF8000DD04F50E0E0020E4A1807E1170E116EA4
:101B080095EC10F00D0EE8EC21F0030E0001D2D791
:101B1800B4EC07F0A5EC21F00ED05950010A01E110
:101B28007BD7030AACE0010AC9E0070AF1E0010A21
:101B380001E151D7030A5AA604D0BA0E076E37EC52
:101B480029F0030E096E415076EC2BF0000916E1DE
:101B5800070E401813E1555011E0640E2A6E030E6B
:101B68002B6E15EC27F00001B16B36D8A5EC21F0EF
:101B7800640E0E6E030E0F6EE3EC2BF04B5008E074
:101B880040A05AA405D05A9426EC2CF055EC29F024
:101B98005A860001B051441816E1050E096E4150ED
:101BA80076EC2BF00009D8A41200230E4018D8B404
:101BB8005AA212000001B16B0FD8A5EC21F0FDEC80
:101BC80002F0E3EF2BF05A921200066E086A076AD9
:101BD8000A6A320E096E320CDA0E056E190E066E9E
:101BE8001200010E0001B16F010C030E136EDED856
:101BF800146E1F0EC7EC1EF0216E21501F08256EB3
:101C08000A0E136ED3D8146E1F0EC7EC1EF0216E89
:101C180021501F08266EA2D8030EDF6404D09ED878
:101C2800090EDF6434D09AD8030EDE1804E19CD87C
:101C3800DE50255C2CE392D8030EDE1808E194D818
:101C48002550DE1804E1ACD8030EDF6020D086D81A
:101C58000A0EDE1804E188D82650DE5C18E37ED828
:101C68000A0EDE1808E180D82650DE1804E198D85C
:101C7800010EDF640CD072D80A0EDE180EE174D89B
:101C88002650DE180AE18CD8170EDE1806E120501F
:101C9800D96EDA6A010EDF6E04D02050D96EDA6A86
:101CA800DF6A2050D96EDA6ADF50D8B4120078D8CB
:101CB800170EDE1848E174D8DF6A7FD8DF2A7DD88E
:101CC800080EDE1803E179D8010EDF6E6FD8216E99
:101CD800030E211620E042D852D808E03FD8020E61
:101CE800DE1816E141D81C0EDE1812E137D80C0EAA
:101CF800DE1808E11F50D96E3DD836D8010EDF6EC8
:101D08002DD861D031D8010EDF6E28D8DF2A050C16
:101D18002BD8DF2A040C22D832D812E11FD80C0E97
:101D2800DE1808E11F50D96E25D81ED8010EDF6EC7
:101D380015D849D019D8010EDF6E10D8DF2A050C46
:101D480013D8DF2A040C2CD81F50E16EE26A020E69
:101D5800E126E750216E2128DF6E12001F50D96E50
:101D6800DA6A050ED926050C1F50D96EDA6A040EF8
:101D7800D926040CDA6A060ED926DF2A060CDF50AB
:101D8800216E226AD80E2124D96E010E2220DA6E25
:101D98001F50E16EE26A040EE126DE50E6181200DA
:101DA8001F50D96EDA6A020ED926020C1F50D96E5E
:101DB800DA6A060ED926DF5012001F50D96EDA6A89
:101DC800030ED926030C010EDF6E010C28D0A0ECFF
:101DD8000AF012EC26F0D40E0E6E1D0E0F6E4C0E8D
:101DE800106E340E116E4CEC2AF023D0D40E0E6E09
:101DF8001D0E0F6E18EC29F01CD02F2A070E2F6429
:101E080002D0010E2F6E70EC11F05CEC21F0050E83
:101E1800596E0FD02F062F50F6E1070EF3D7595001
:101E2800010AD5E0030AE9E0010AF4E0070ADEE066
:101E3800010A5AA6ABD09C0EF66E7F0EF76E95EC93
:101E48000AF0000EE8EC21F09D0EF66E7F0EF76E9C
:101E580095EC0AF0060EE8EC21F09E0EF66E7F0E69
:101E6800F76E95EC0AF00C0EE8EC21F07FD0CF0E5F
:101E7800F66E7F0EF76E95EC0AF0120EE8EC21F084
:101E8800D00EF66E7F0EF76E95EC0AF0180EE8ECA1
:101E980021F07CD0ED0EF66E7F0EF76E95EC0AF011
:101EA800120EE8EC21F0EE0EF66E7F0EF76E95EC52
:101EB8000AF0180EE8EC21F069D073D895EC0AF016
:101EC800120EE8EC21F068D895EC0AF0180EE8EC50
:101ED80021F05CD0F60EF66E7F0EF76E95EC0AF0E8
:101EE800120EE8EC21F0F70EF66E7F0EF76E95EC09
:101EF8000AF0180EE8EC21F049D0F30EF66E7F0ECA
:101F0800F76E95EC0AF0120EE8EC21F0F40EF66E7E
:101F18007F0EF76E95EC0AF0180EE8EC21F036D03B
:101F2800C00EF66E7F0EF76E95EC0AF0120EE8EC16
:101F380021F0C10EF66E7F0EF76E95EC0AF0180EC2
:101F4800E8EC21F023D0CC0EF66E7F0EF76E95EC00
:101F58000AF0120EE8EC21F0CD0EF66E7F0EF76E49
:101F680095EC0AF0180EE8EC21F010D02F50010A79
:101F7800EAE0030A01E17BD7010A8CE0070A9DE049
:101F8800010AA8E0030AB9E0010ACAE0BA0E076E1E
:101F980037EC29F05A861200DF0EF66E7F0EF76EC8
:101FA8001200DE0EF66E7F0EF76E12005AB802D0DF
:101FB8005A884AD05A9848D0B40E0E6E1F0E0F6E2B
:101FC800720E106E320E116E4CEC2AF047D0B40E21
:101FD8000E6E1F0E0F6E18EC29F040D02E2A170E29
:101FE8002E6401D02E6A70EC11F05CEC21F0050E25
:101FF800596E48500AE02E5004E1AAD8BBEC28F0EC
:102008002DD0A1D8BBEC28F029D093D8BBEC28F070
:1020180025D02E062E2802E1170E2E6E70EC11F038
:102028005CEC21F0050E596E48500AE02E5004E190
:102038008FD8BBEC28F012D086D8BBEC28F00ED095
:1020480078D8BBEC28F00AD05950010AB5E0030A49
:10205800C5E0010ADEE0070ABAE0010A5AA65BD029
:102068005AA842D04A0420E169D819EC2AF076EC43
:102078002BF000090BE062D819EC2AF076EC2BF073
:1020880010EC09F0000EE8EC21F005D0116A49D8EF
:10209800000EE8EC21F060D876EC2BF010EC09F09B
:1020A800060EE8EC21F037D049D819EC2AF076EC86
:1020B8002BF000090BE042D819EC2AF076EC2BF053
:1020C80010EC09F0010EE8EC21F005D0116A29D8CE
:1020D800010EE8EC21F040D876EC2BF010EC09F07A
:1020E800070EE8EC21F017D04A040BE1116A19D861
:1020F800000EE8EC21F0116A14D8060EE8EC21F085
:102108000AD0116A0ED8010EE8EC21F0116A09D83C
:10211800070EE8EC21F0BA0E076E37EC29F05A8664
:102128001200900E126E780E136EBA0E146E156AA7
:1021380012002DC010F0116A2E5012000A0E096EFE
:10214800056E2E5012002DC010F0116A2E041200D8
:102158002DC010F0116A170C0A0E096E2E501200CD
:102168005AB802D05A8861D05A985FD0680E056E66
:10217800210E066EA5EC21F0B40E056E1F0EE9ECDB
:102188000DF05CEC21F0A8D85CEC21F04A0413E1D6
:10219800AED819EC2AF076EC2BF010EC09F00D0E05
:1021A800E8EC21F0A9D876EC2BF010EC09F0130E2E
:1021B800E8EC21F014D04EEC09F019EC2AF076EC9A
:1021C8002BF010EC09F0130EE8EC21F053EC09F0B9
:1021D80076EC2BF010EC09F0190EE8EC21F030EC5D
:1021E80029F02DD0680E0E6E210E0F6E18EC29F016
:1021F80026D02D2A3B0E2D6401D02D6A6DD85CECBB
:1022080021F09DEC10F0BBEC28F0050E596E17D0AC
:102218002D062D2802E13B0E2D6E5ED85CEC21F0D8
:102228009DEC10F0BBEC28F0F0D75950010A9EE065
:10223800030ADFE0010AECE0070AD4E0010A5AA623
:1022480045D05AA828D04A0413E151D819EC2AF0ED
:1022580076EC2BF010EC09F00D0EE8EC21F04CD8E0
:1022680076EC2BF010EC09F0130EE8EC21F02ED0F0
:102278003ED819EC2AF076EC2BF010EC09F0130E8E
:10228800E8EC21F039D876EC2BF010EC09F0190EB7
:10229800E8EC21F01BD04A040DE1116A95EC10F02E
:1022A8000D0EE8EC21F0116A95EC10F0130EE8EC35
:1022B80021F00CD0116A95EC10F0130EE8EC21F027
:1022C800116A95EC10F0190EE8EC21F0BA0E076EC1
:1022D80037EC29F05A861200100E056E5B0E066E5A
:1022E800070E086ED00E076E0A6A096AD00C0A0E2D
:1022F800096E056E2D5012000A0E096E2D5012003F
:102308000CEC2DF0ACD02EEC09F019EC2AF076ECA0
:102318002BF000090CE02EEC09F019EC2AF076EC11
:102328002BF09CEC07F0000EC6EC20F006D0116AEA
:10233800A2EC07F0000EC6EC20F057EC09F076ECA2
:102348002BF09CEC07F0060EC6EC20F04EEC09F0E2
:1023580019EC2AF076EC2BF09CEC07F00D0EC6EC8D
:1023680020F053EC09F076EC2BF09CEC07F0130E00
:10237800C6EC20F01DEC23F079D819EC2AF076ECA5
:102388002BF0276E27280D6E190E13EC21F073D849
:1023980076EC2BF0276E27280D6E1D0E13EC21F01E
:1023A80034EF29F02EEC09F019EC2AF076EC2BF03A
:1023B80000090CE02EEC09F019EC2AF076EC2BF071
:1023C8009CEC07F0010EC6EC20F006D0116AA2ECD6
:1023D80007F0010EC6EC20F057EC09F076EC2BF074
:1023E8009CEC07F0070EC6EC20F03A0E116EA2EC3A
:1023F80007F00D0EC6EC20F01DEC23F04EEC09F0B2
:1024080019EC2AF076EC2BF09CEC07F0130EC6ECD6
:1024180020F053EC09F076EC2BF09CEC07F0190E49
:10242800C6EC20F0010E0001B16FB36B2EEC09F081
:1024380019EC2AF076EC2BF03D6E57EC09F076ECAF
:102448002BF03C6E4EEC09F019EC2AF076EC2BF0F0
:102458003B6E53EC09F076EC2BF03A6E12004A50C2
:10246800010A01E150D7030A9DE012000A0E096E25
:10247800056E405012000A0E096E40501200A0D09E
:10248800000168291EE169291CE1050EA7EC07F087
:10249800010E93EC23F0450E116EA2EC07F0090E25
:1024A800C6EC20F0520E116EA2EC07F00F0EC6EC2F
:1024B80020F0520E116EA2EC07F0150EC6EC20F0BB
:1024C8006DD0E80E685D030E695938E2050EA7EC79
:1024D80007F0010E93EC23F0086A640E81D8D1EC62
:1024E80027F076D8DAEC28F00C509CEC07F0090EAF
:1024F800C6EC20F0086A0A0E73D8D1EC27F068D829
:10250800DAEC28F00C509CEC07F00F0EC6EC20F02B
:102518002E0E116EA2EC07F0150EC6EC20F068C066
:102528000CF069C00DF0BBEC07F0DAEC28F00C50A9
:102538009CEC07F0180EC6EC20F030D0050EA7EC86
:1025480007F0020E93EC23F079EC1FF049D8D1EC98
:1025580027F03ED8DAEC28F00C509CEC07F00B0E74
:10256800C6EC20F0086A640E3BD8D1EC27F030D8CE
:10257800DAEC28F00C509CEC07F0110EC6EC20F0B9
:10258800086A0A0E2DD8D1EC27F022D8DAEC28F008
:102598000C509CEC07F0170EC6EC20F0BFEC07F0CF
:1025A80025D8B0EC07F05CEF21F0B4EC07F0A5EC0F
:1025B80021F00CEC03F0A5EC21F0B86B7FEF25F0CF
:1025C8005950040AF2E0010A01E15AD7030A12003D
:1025D80005C00CF006C00DF00F6A0A0E0E6E0A0C4C
:1025E800076E68C005F069C006F01200010E086E9B
:1025F800900C5BD0A0EC0AF012EC26F0FA0E0E6EEE
:10260800250E0F6ED40E106E1D0E116E4CEC2AF0B6
:1026180056D0FA0E0E6E250E0F6E18EC29F04FD01C
:10262800302A8ED81EE085D83050DE5C18E3020EC2
:1026380031181BE130501E6E1F6A7BD8DF50206EA8
:10264800FF0E2024216E226AFF0E22221E50215CDA
:102658002250800A236E1F50800A235806E2010E7A
:102668001FD067D83050DE5CFAE370EC11F05CECF8
:1026780021F0050E596E23D0300662D813E0305091
:1026880006E1020E311803E054D8DF5009D0020EDB
:102698003118EBE13050E9E14CD8DF501E6E1E04D2
:1026A800306EE3D73050F0E0E0D75950010AA2E08D
:1026B800030AB6E0010AE0E0070AABE0010A5AA6FD
:1026C80032D0AC0EF66E7F0EF76E95EC0AF0000E67
:1026D800E8EC21F0AD0EF66E7F0EF76E95EC0AF081
:1026E800060EE8EC21F0AE0EF66E7F0EF76E95EC56
:1026F8000AF00C0EE8EC21F00A0E096E056E305057
:1027080019EC2AF076EC2BF010EC09F0120EE8EC3C
:1027180021F00A0E096E305076EC2BF010EC09F01F
:10272800180EE8EC21F0BA0E076E37EC29F05A863D
:102738001200D80E3124D96EDA6A010EDA2212009C
:1027480032C01EF0030E1E16030C23C0CFF224C0A5
:10275800D0F286D8CF4BD02B25500FE0080E25603D
:102768000CD085D82550020DC90EF324D96E010E60
:10277800F42087D83AEC28F007D079D8FC0E156EEB
:102788007F0E166E3AEC28F077D8F6EC27F05ED874
:102798002C0EDF6ECF4BD02B63D8CF4BD02BCC0E6B
:1027A800136E020E146E26C015F0166A6BEC1EF03E
:1027B8005ED8CC0E156E020E166E3AEC28F05CD878
:1027C800F6EC27F043D8200EDF6ECF4BD02B4FD836
:1027D800FF0E27240D6E0E6AFF0E0E22106A0C0ED5
:1027E8000F6EE7EC24F0D8900D360E36E10E0D246E
:1027F800D96E020E0E2045D83AEC28F03DD8F6ECFA
:1028080027F024D8200EDF6ECF4BD02BC60E136EC8
:10281800020E146E28C015F029C016F06BEC1EF0DD
:1028280026D8C60E156E020E166E3AEC28F024D87D
:10283800F6EC27F005500201CF270650D02317D811
:102848006E0E156E7F0E166E3AEF28F005500201D7
:10285800CF270650D023CFC2D9FFD0C2DAFF12004B
:10286800CFC2D9FFD0C2DAFF200EDF6E200CCFC254
:1028780013F0D0C214F01200CFC205F0D0C206F097
:102888001200DA6EDECF15F0DDCF16F01200F30E6F
:102898002CEC18F089EC2BF0020E216ED40E206E71
:1028A800850EE82EFED7202EFCD7212EFAD7000061
:1028B800EB0E71D866EC22F00001EB51206EEC5162
:1028C800236E20C024F0232805E1242803E11E6894
:1028D8001F68120023C005F024C006F0076A086AC2
:1028E800A40E096E440E36EC06F061EC27F005C024
:1028F80026F006C027F007C028F008C029F028C035
:1029080026F029C027F0286A296AB30E2626ED0E7C
:102918002722FF0E2822292226C011F027C012F0F4
:1029280028C013F029C014F043D858EC23F01150F4
:10293800226E26C005F027C006F028C007F029C07F
:1029480008F030D8B1EC25F00550256E050E252489
:102958001AD8E1EC22F005500A0DF3CF25F02250E9
:10296800640DF3CF20F0F4CF21F025502024056E1C
:10297800000E2120066E22D8E1EC22F005C01EF0E0
:1029880006C01FF01200056E066A000E0622086ACD
:102998000A0E076E0A0C086E800E096E030E0A6E88
:1029A8000B6A030C640E096E0A6A0B6A0C6A640CE3
:1029B800640E156E166A176A186A640C086A0A0E9D
:1029C800076E0A0C49D0CC0E0E6E290E0F6EDA0E69
:1029D800106E190E116E4CEC2AF085D8A5EC21F07A
:1029E80045D0CC0E0E6E290E0F6E18EC29F03ED095
:1029F800030E596E3BD05350010ED8A4000E536EEF
:102A080070EC11F05CEC21F0050E596E53C005F026
:102A18000C0EC0EC2BF053501DE0AB9E949C949E82
:102A2800829E829C9C0E1E6ED70EE82EFED71E2E0E
:102A3800FCD700008D80070E1F6E170E1E6E6A0EE3
:102A4800E82EFED71E2EFCD71F2EFAD700D028EC72
:102A58002BF00CD08D900AD05950010AB4E0030A2B
:102A6800C7E0010AC8E0070ABCE0010A5AA635D047
:102A7800850EF66E7F0EF76E95EC0AF0000EE8EC08
:102A880021F0860EF66E7F0EF76E95EC0AF0060EB4
:102A9800E8EC21F0870EF66E7F0EF76E95EC0AF0E3
:102AA8000C0EE8EC21F0880EF66E7F0EF76E95ECB2
:102AB8000AF0120EE8EC21F0535008E02B0E116ECC
:102AC80095EC10F0180EE8EC21F007D02D0E116EE1
:102AD80095EC10F0180EE8EC21F0BA0E076E37EC02
:102AE80029F05A861200100E056E5B0E066E120053
:102AF80032D04B5006E088D830EC19F04CEC2AF074
:102B080034D082D80F6E720E106E310E116E4CECEE
:102B18002AF0030EF0EC2CF04C6E36EC19F045EC74
:102B28002CF023D0F80E0E6E2A0E0F6E18EC29F03A
:102B38001CD05FD870EC11F05CEC21F060D8C0ECD0
:102B48002BF013D056D870EC11F05CEC21F057D86C
:102B5800C0EC2BF00AD05950010ACBE0030AE9E097
:102B6800010AF0E0070ADEE0010A5AA63CD026EC8A
:102B780019F095EC0AF0000EE8EC21F021EC19F0C0
:102B880095EC0AF0060EE8EC21F01CEC19F095EC37
:102B98000AF00C0EE8EC21F04B5013E0C30EF66E71
:102BA8007F0EF76E95EC0AF0120EE8EC21F0C40ED9
:102BB800F66E7F0EF76E95EC0AF0180EE8EC21F031
:102BC80012D0EA0EF66E7F0EF76E95EC0AF0120E32
:102BD800E8EC21F0EB0EF66E7F0EF76E95EC0AF03E
:102BE800180EE8EC21F0BA0E076E37EC29F05A8679
:102BF80012004B50010ED8A4000E4B6E1200050EA9
:102C0800596E4BC005F0020CF80E0E6E2A0E12001B
:102C180099EC26F00C0EF0EC2CF0536E53B002D069
:102C28008D9001D08D80070E186E170E176E6A0EE4
:102C3800E82EFED7172EFCD7182EFAD700D0B9ECFD
:102C48002CF065EC2AF054EC2CF085EC2DF0ABEC74
:102C58002AF0ECEC2AF0FAEC2CF028EC2BF0C2EC81
:102C68001CF089EC2CF0000EF0EC2CF0496E010EF3
:102C7800F0EC2CF04A6E4A0403E10001B16B02D07B
:102C8800F5EC0DF0020EF0EC2CF04B6E030EF0ECB0
:102C98002CF04C6E36EC19F045EC2CF03BEC27F0A0
:102CA80082EC2DF01EEC2DF0E4EC24F079EC20F011
:102CB800120E056E000E066E086A280E30D85CECFF
:102CC80021F03A0E056E460E066E086A500E27D899
:102CD8005CEC21F0040EF0EC2CF04D6E050EF0ECDF
:102CE8002CF04E6E060EF0EC2CF04F6E070EF0EC4A
:102CF8002CF0506E080EF0EC2CF0516E090EF0EC32
:102D08002CF0526E0D0EF0EC2CF0476E0E0EF0EC1F
:102D18002CF0556E0A0EF0EC2CF0546E1200076E73
:102D28000A6A140E096E140C106A050E116E1CD076
:102D38007BEC28F0106EFCC011F027D072EC29F063
:102D4800106E060E0FD05BEC28F0106EF9C011F073
:102D58001CD01BEC25F0106E140E04D0ACEC27F040
:102D6800106E010E116E11D00001B7510E6E0F6A70
:102D78000F500BE10E50010ADBE0030AE4E0010A00
:102D8800EDE0070AE6E0010AD9E0105008E0ACECF3
:102D980025F011C007F0086A4ED85CEF21F0B76B38
:102DA80002EC03F0A5EC21F022D0140E056E360ECD
:102DB80030D85CEC21F02AD0860E056E240E29D876
:102DC8005CEC21F023D0A00E056E170E22D85CEC27
:102DD80021F01CD0880E056E0C0E1BD85CEC21F07F
:102DE80015D01FD85CEC21F084EC11F00FD0B8514D
:102DF8000E6E0F6A0F50F5E10E50010AD6E0030A75
:102E0800E2E0010AE7E0070AD7E0EBD70001B86B78
:102E18001200066E086A320E076E0A6A140E096EF0
:102E2800140CDA0E056E190E066E086A076A0A6A2D
:102E3800140E096E140C0A6A010E096E010C0001C9
:102E4800AB511AE0AB6B0201C86B11D0C85160D806
:102E5800DE50DE1006E1C8516BD8010EDE6EDD6A69
:102E680005D0C85155D8DE06000EDD5AC82B000122
:102E7800AC510201C85DEAE30201C96B43D0C951F4
:102E880057D8DE04DE103CE1C9514AD8DECFC6F27D
:102E9800DDCFC7F2C95154D8DE50DE1009E1C9515F
:102EA8003FD8DECF05F0DDCF06F0A5EC21F01BD032
:102EB800C9513ED8DE6ADD6AC9512AD8DE50DE1013
:102EC80012E1C9513DD8DECF27F0DDCF28F0FF0E43
:102ED8002724296EFF0E28202A6EC95119D829C027
:102EE800DEFF2AC0DDFF01D80BD005000201FA6E13
:102EF800C651FD6EC751FE6EF850FF6EFA501200B3
:102F08000201C92B0001AC510201C95DB8E31200EE
:102F1800080D020EF324D96E010EF420DA6E1200A9
:102F2800080D000EF324D96E010EF420DA6E12009B
:102F3800080D060EF324D96E010EF420DA6E120085
:102F4800080D040EF324D96E010EF420DA6E120077
:102F5800F50E7ED889EC2BF0020E216ED40E206E71
:102F6800850EE82EFED7202EFCD7212EFAD700009A
:102F7800EB0ECFEC14F066EC22F00001EB51206E62
:102F8800EC51236E20C024F0232805E1242803E116
:102F98001E681F68120023C005F024C006F0076AE7
:102FA800086AD40E096E300E36EC06F061EC27F094
:102FB80005C026F006C027F007C028F008C029F091
:102FC80028C026F029C027F0286A296AA80E2626D4
:102FD800FD0E2722FF0E2822292226C011F027C025
:102FE80012F028C013F029C014F0DCEC14F058ECEF
:102FF80023F01150226E26C005F027C006F028C025
:1030080007F029C008F0D6EC14F0B1EC25F0055013
:10301800256E050E2524C7EC14F0E1EC22F00550CE
:103028000A0DF3CF25F02250640DF3CF20F0F4CF32
:1030380021F025502024056E000E2120066EE2ECBA
:1030480014F0E1EC22F005C01EF006C01FF01200DB
:103058000001EB6FEB0E076E800E086E010E096E15
:10306800010C39D06A0E0E6E300E0F6E0E0E106EF9
:103078004F0E116E4CEC2AF077EC15F0A5EC21F010
:1030880053500DE1ED0E056E010E066EC20E076E71
:103098007E0E086E0A6A100E096E18EC28F0B96BDD
:1030A8003F6A23D06A0E0E6E300E0F6E18EC29F0B0
:1030B8001CD05450010ED8A4000E546E70EC11F0C0
:1030C8005CEC21F0050E596E4DD8C0EC2BF00DD0FC
:1030D800020E596E0AD05950010AC4E0030AE9E009
:1030E800010AF6E0070ADEE0010A5AA635D08A0E80
:1030F800F66E7F0EF76E95EC0AF0000EE8EC21F004
:103108008B0EF66E7F0EF76E95EC0AF0060EE8EC65
:1031180021F08C0EF66E7F0EF76E95EC0AF00C0E11
:10312800E8EC21F08D0EF66E7F0EF76E95EC0AF046
:10313800120EE8EC21F0545008E02B0E116E95ECBD
:1031480010F0180EE8EC21F007D02D0E116E95EC5A
:1031580010F0180EE8EC21F0BA0E076E37EC29F0E3
:103168005A86120054C005F00A0C2ED0720E0E6E4C
:10317800310E72D84CEC2AF031D0720E0E6E310E30
:103188000F6E18EC29F02AD04C2A070E4C6401D097
:103198004C6A70EC11F05CEC21F059D8C0EC2BF0C3
:1031A80061D845EC2CF01AD04C064C2802E1070EE9
:1031B8004C6E70EC11F05CEC21F049D8C0EC2BF0AF
:1031C80051D845EC2CF00AD05950010ACFE0030A37
:1031D800DBE0010AE9E0070AD0E0010A5AA622D09A
:1031E80031D895EC0AF0000EE8EC21F026D895ECE1
:1031F8000AF0060EE8EC21F01BD895EC0AF00C0E4C
:10320800E8EC21F00A0E096E4C5076EC2BF010EC2D
:1032180009F0120EE8EC21F0116A95EC10F0180E86
:10322800E8EC21F0BA0E076E37EC29F05A86120046
:10323800B20EF66E7F0EF76E1200B10EF66E7F0EAE
:10324800F76E1200B00EF66E7F0EF76E1200050EC6
:10325800596E4CC005F0030C0F6EF40E106E360E4E
:10326800116E12004CC007F00A0C28D0A0EC0AF02E
:1032780012EC26F0720E0E6E320E0F6EB60E106E37
:10328800120E116E4CEC2AF023D0720E0E6E320E16
:103298000F6E18EC29F01CD0322A630E326401D06C
:1032A800326A70EC11F05CEC21F0050E596E10D00A
:1032B80032063228F6E1630E326EF3D75950010A0E
:1032C800D5E0030AE9E0010AF3E0070ADEE0010AB3
:1032D8005AA63DD0980EF66E7F0EF76E95EC0AF062
:1032E800000EE8EC21F00001BF6B360EC06FC16F15
:1032F800C26B0A0E096E056E335019EC2AF076EC93
:103308002BF010EC09F0090EE8EC21F00A0E096E1A
:10331800335076EC2BF010EC09F00F0EE8EC21F0AE
:103328000A0E096E056E325019EC2AF076EC2BF075
:1033380010EC09F0150EE8EC21F00A0E096E325077
:1033480076EC2BF010EC09F01B0EE8EC21F0BA0E2D
:10335800076E37EC29F05A8612002DD0620E0E6ED9
:10336800330E0F6E6A0E106E300E116E4CEC2AF092
:103378002CD0620E0E6E330E0F6E18EC29F025D08D
:10338800522A030E521802E1010E526E70EC11F02F
:103398005CEC21F052D8C0EC2BF017D052065250FA
:1033A80002E1020E526E70EC11F05CEC21F045D88F
:1033B800C0EC2BF00AD05950010AD0E0030AE0E033
:1033C800010AECE0070AD5E0010A5AA630D0800EBF
:1033D800F66E7F0EF76E95EC0AF0000EE8EC21F021
:1033E800810EF66E7F0EF76E95EC0AF0060EE8EC8D
:1033F80021F0820EF66E7F0EF76E95EC0AF00C0E39
:10340800E8EC21F0830EF66E7F0EF76E95EC0AF06D
:10341800120EE8EC21F052C011F056C012F057C05D
:1034280013F0BA0E146E156A180EE8EC21F0BA0EF5
:10343800076E37EC29F05A861200050E596E52C0F5
:1034480005F0090C33D04C0E0E6E340E0F6E340E90
:10345800106E350E116E4CEC2AF032D04C0E0E6EFA
:10346800340E0F6E18EC29F02BD0492A050E49644A
:1034780002D0010E496E70EC11F05CEC21F0050EE3
:10348800596E51D8C0EC2BF03BEC27F019D0490607
:10349800495002E1050E496E70EC11F05CEC21F028
:1034A800050E596E40D8C0EC2BF0EED75950010AE2
:1034B800CAE0030ADAE0010AEAE0070ACFE0010AF3
:1034C8005AA62BD0A40EF66E7F0EF76E95EC0AF076
:1034D800000EE8EC21F0A50EF66E7F0EF76E95EC67
:1034E8000AF0060EE8EC21F0A60EF66E7F0EF76ED7
:1034F80095EC0AF00C0EE8EC21F00A0E096E495022
:1035080076EC2BF010EC09F0120EE8EC21F0116AC1
:1035180095EC10F0180EE8EC21F0BA0E076E37ECB7
:1035280029F05A86120049C005F0000C2DD0340E3F
:103538000E6E350E0F6EF80E106E2A0E116E4CECD4
:103548002AF02CD0340E0E6E350E0F6E18EC29F0C2
:1035580025D04A2A020E4A6402D0010E4A6E70EC47
:1035680011F05CEC21F04DD8C0EC2BF017D04A06D6
:103578004A5002E1020E4A6E70EC11F05CEC21F048
:1035880040D8C0EC2BF00AD05950010AD0E0030A09
:10359800E0E0010AECE0070AD5E0010A5AA62BD0C0
:1035A800A00EF66E7F0EF76E95EC0AF0000EE8ECB2
:1035B80021F0A10EF66E7F0EF76E95EC0AF0060E5E
:1035C800E8EC21F0A20EF66E7F0EF76E95EC0AF08D
:1035D8000C0EE8EC21F00A0E096E4A5076EC2BF03E
:1035E80010EC09F0120EE8EC21F0116A95EC10F0DD
:1035F800180EE8EC21F0BA0E076E37EC29F05A865F
:103608001200050E596E4AC005F0010C68D0000181
:10361800645165112EE064C01EF065C01FF022ECF5
:103628001FF04DEC25F0200E216E21508AEC29F078
:10363800212A300E2164F9D764C00CF065C00DF062
:10364800BBEC07F0DAEC28F00C5010EC09F0200E77
:10365800E8EC21F03D0E206EE10E1F6E400EE82EC4
:10366800FED71F2EFCD7202EFAD7080E42EC26F0E4
:103678001DD00CEC2DF0040EA7EC07F0030E93EC14
:1036880023F0450E116EA2EC07F00B0EC6EC20F0ED
:10369800520E116EA2EC07F0110EC6EC20F0520E7D
:1036A800116EA2EC07F0170EC6EC20F0BFEC07F085
:1036B800FAEC12F0B0EC07F05CEF21F0B4EC07F094
:1036C800A5EC21F011EC03F0A5EC21F0545004E036
:1036D800040EB86F7FEF25F0B86B7FEF25F05950D7
:1036E800040AECE0010A93E0030A12002CD0F40E5D
:1036F8000E6E360E0F6E020E106E3C0E116E4CECF6
:103708002AF02BD0F40E0E6E360E0F6E18EC29F040
:1037180024D04D2A010E4D6401D04D6A70EC11F091
:103728005CEC21F04DD8C0EC2BF017D04D064D289D
:1037380002E1010E4D6E70EC11F05CEC21F040D806
:10374800C0EC2BF00AD05950010AD1E0030AE1E09D
:10375800010AECE0070AD6E0010A5AA62BD0940E1B
:10376800F66E7F0EF76E95EC0AF0000EE8EC21F08D
:10377800950EF66E7F0EF76E95EC0AF0060EE8ECE5
:1037880021F0960EF66E7F0EF76E95EC0AF00C0E91
:10379800E8EC21F00A0E096E4D5076EC2BF010EC97
:1037A80009F0120EE8EC21F0116A95EC10F0180EF1
:1037B800E8EC21F0BA0E076E37EC29F05A861200B1
:1037C800050E596E4DC005F0040C25D0D20E0E6EB4
:1037D800370E0F6E620E106E330E116E4CEC2AF01F
:1037E80024D0D20E0E6E370E0F6E18EC29F01DD0B5
:1037F8005150010ED8A4000E516E70EC11F05CEC23
:1038080021F0050E596E1FEC03F0C0EC2BF00DD023
:10381800020E596E0AD05950010AD8E0030AE8E0AE
:10382800010AF6E0070ADDE0010A5AA635D08F0E34
:10383800F66E7F0EF76E95EC0AF0000EE8EC21F0BC
:10384800900EF66E7F0EF76E95EC0AF0060EE8EC19
:1038580021F0910EF66E7F0EF76E95EC0AF00C0EC5
:10386800E8EC21F0920EF66E7F0EF76E95EC0AF0FA
:10387800120EE8EC21F0515008E02B0E116E95EC79
:1038880010F0180EE8EC21F007D02D0E116E95EC13
:1038980010F0180EE8EC21F0BA0E076E37EC29F09C
:1038A8005A861200FA0EF66E580EF76E000EF86E73
:1038B80002EEE1F010EE18F00900F5CFEEFFE5504A
:1038C800E150FAE1FE0EF66E530EF76E000EF86E3A
:1038D80001EEC9F010EE34F00900F5CFEEFFE55027
:1038E800E150FAE1FC0EF66E5A0EF76E000EF86E15
:1038F80000EEF8F010EE07F00900F5CFEEFFE55006
:10390800E150FAE12A0EF66E5A0EF76E000EF86EC6
:1039180000EE49F010EE11F00900F5CFEEFFE5508A
:10392800E150FAE104EE00F0960EEE6AE806FDE1D9
:1039380003EE00F0940EEE6AE806FDE102EE00F0F8
:10394800C60EEE6AE806FDE101EE00F0C90EEE6A69
:10395800E806FDE100EE60F0980EEE6AE806FDE18B
:103968005A6A00EE2CF01D0EEE6AE806FDE15B9047
:103978005B92000EF86E0001A4EF22F0880E9CEC1A
:103988002BF012C09DF013C09EF08A0E9CEC2BF019
:1039980012C09BF013C09CF08C0E9CEC2BF012C054
:1039A80099F013C09AF08E0E9CEC2BF012C0F5F033
:1039B80013C0F6F0900E9CEC2BF012C097F013C0D9
:1039C80098F0920E9CEC2BF012C095F013C096F074
:1039D800940E9CEC2BF012C093F013C094F0960E4A
:1039E8009CEC2BF012C091F013C092F0980E9CEC56
:1039F8002BF012C08FF013C090F09A0E9CEC2BF0B5
:103A080012C08DF013C08EF09C0E9CEC2BF012C0EF
:103A18008BF013C08CF09E0E9CEC2BF012C089F03A
:103A280013C08AF0F50EEB6FCC0E0FD80AD889ECCC
:103A38002BF0F40E0001EB6FB70E07D802D889EF10
:103A48002BF0086E020E096E020CEC6FEB0E076E7F
:103A5800EC0C25D05A0E0E6E3A0E0F6ED20E106E6A
:103A6800370E116E4CEC2AF024D05A0E0E6E3A0E18
:103A78000F6E18EC29F01DD05050010ED8A4000E7E
:103A8800506E70EC11F05CEC21F0050E596E22ECD2
:103A980003F0C0EC2BF00DD0020E596E0AD059502D
:103AA800010AD8E0030AE8E0010AF6E0070ADDE0C7
:103AB800010A5AA632D0B40EF66E7F0EF76E95EC58
:103AC8000AF0000EE8EC21F0B50EF66E7F0EF76EE8
:103AD80095EC0AF0060EE8EC21F0B60EF66E7F0EB5
:103AE800F76E95EC0AF00C0EE8EC21F0505008E067
:103AF8002B0E116E95EC10F0120EE8EC21F007D0A9
:103B08002D0E116E95EC10F0120EE8EC21F0116AF2
:103B180095EC10F0180EE8EC21F0BA0E076E37ECB1
:103B280029F05A86120025D02E0E0E6E3B0E0F6E0F
:103B38005A0E106E3A0E116E4CEC2AF024D02E0E4E
:103B48000E6E3B0E0F6E18EC29F01DD04F50010E73
:103B5800D8A4000E4F6E70EC11F05CEC21F0050E4D
:103B6800596E25EC03F0C0EC2BF00DD0020E596E07
:103B78000AD05950010AD8E0030AE8E0010AF6E041
:103B8800070ADDE0010A5AA632D0BC0EF66E7F0E97
:103B9800F76E95EC0AF0000EE8EC21F0BD0EF66E1B
:103BA8007F0EF76E95EC0AF0060EE8EC21F0BE0EDB
:103BB800F66E7F0EF76E95EC0AF00C0EE8EC21F02D
:103BC8004F5008E02B0E116E95EC10F0120EE8EC39
:103BD80021F007D02D0E116E95EC10F0120EE8ECC6
:103BE80021F0116A95EC10F0180EE8EC21F0BA0EED
:103BF800076E37EC29F05A86120025D0020E0E6E99
:103C08003C0E0F6E2E0E106E3B0E116E4CEC2AF011
:103C180024D0020E0E6E3C0E0F6E18EC29F01DD04B
:103C28004E50010ED8A4000E4E6E70EC11F05CECF4
:103C380021F0050E596E4EC005F0C0EC2BF00DD0EA
:103C4800020E596E0AD05950010AD8E0030AE8E07A
:103C5800010AF6E0070ADDE0010A5AA632D0B80EDA
:103C6800F66E7F0EF76E95EC0AF0000EE8EC21F088
:103C7800B90EF66E7F0EF76E95EC0AF0060EE8ECBC
:103C880021F0BA0EF66E7F0EF76E95EC0AF00C0E68
:103C9800E8EC21F04E5008E02B0E116E95EC10F078
:103CA800120EE8EC21F007D02D0E116E95EC10F0F5
:103CB800120EE8EC21F0116A95EC10F0180EE8EC01
:103CC80021F0BA0E076E37EC29F05A861200180E4A
:103CD800226E1550161023E12250D96EDA6A300E82
:103CE800DF6E222A22D02250D96EDA6A15C00DF072
:103CF80016C00EF0106A0A0E0F6EE7EC24F00D5095
:103D0800300FDF6E222A15C005F016C006F0E2EC6F
:103D180014F0E1EC22F005C015F006C016F016BE4E
:103D280004D01650E0E11504DEE22250D96EDA6ABA
:103D3800DF6A180E176E1750225C1E6E1F6A1EBEB1
:103D48001F06206A216A10D0205018081E24D96E38
:103D5800DA6AD90613C0E1FF14C0E2FFDFCFE7FF3C
:103D6800134A142A204A212A1E50205C2150800A16
:103D7800176E1F50800A1758E7E313C0D9FF14C005
:103D8800DAFFDF6A12001B6E13500E08056E000E74
:103D9800D8A0E82A0008066E086A0C0E076EE1EC47
:103DA80022F005501D6E1D50145C1E6E1D500C0D2A
:103DB800F3501324FE0F1C6E010E086E900E076E52
:103DC8001EC005F0066AE1EC22F01E501BC015F07B
:103DD800166A1526000E16221E40E8423F0B1526CD
:103DE800000E162205501524176E06501620186E60
:103DF800086A0C0E076E1C501F0DF3CF05F0F4CFA8
:103E080006F0E1EC22F005501724196E0650182030
:103E18001A6E640E056E1E5019EC2AF0195E000E1B
:103E28001A5A580E19240D6E1B0E1A200E6E106A9F
:103E3800070E0F6EE7EC24F00D501200206AA60E54
:103E480020247AEC25F0DF6A202A200E2064F7D798
:103E5800040E0C6EA60E0D6E020E0E6E030E93EC83
:103E680023F043D83CD8D1EC27F0ECEC12F0DAEC94
:103E780028F02AD80B0EE8EC21F0086A640E2FD837
:103E8800D1EC27F0ECEC12F0DAEC28F01DD8110E8A
:103E9800E8EC21F0086A0A0E22D8D1EC27F0ECEC05
:103EA80012F0DAEC28F010D8170EE8EC21F02E0EFC
:103EB800116E900E126E780E136EA60E146E020E10
:103EC800156E1D0EE8EF21F00C50116E56C012F061
:103ED80057C013F0A60E146E020E156E1200076E70
:103EE8001EC005F01FC006F01200030E086EE80C95
:103EF800346A0F6A4FD8D96EDA6AB30E3424E16E89
:103F0800E26A010EE222DFCFE7FF342A3CD842D82A
:103F1800E16EE26AE6CF0BF0E5CF0CF00CC00BF0D7
:103F28000C6A0B50DF6E342A0F2A070E0F64E2D793
:103F38002AD858C0DFFF342AB30E056E010E066E6C
:103F480034C007F0F9EC28F00D6E240EE4EC29F0EB
:103F5800440EE4EC29F00E6A0AD0B30E0E24D96E92
:103F6800DA6A010EDA22DF50E4EC29F00E2A345026
:103F78000E5CF3E30D50E4EC29F00D0EE4EC29F0AF
:103F88000A0EE4EF29F0B30E3424D96EDA6A010E72
:103F9800DA2212000F50020DF350600F1200266E45
:103FA80026C0EBF046D8030E49D866EC22F0ECC0E8
:103FB80016F0176A186A196A18C019F017C018F0AD
:103FC80016C017F0166AEBC01AF01B6A1C6A1D6A45
:103FD8001BC01DF01AC01CF01B6A1A6A16501A245E
:103FE8001E6E17501B201F6E18501C20206E195073
:103FF8001D20216E0001ED511E24226E000E1F208F
:10400800236E000E2020246E000E2120256E050E42
:1040180005D0D8902532243223322232E82EF9D71F
:1040280022C012F023C013F024C014F025C015F0EC
:104038001200EB0E086EEC0E096EEC0C0A6E010E07
:104048000B6E010C8FEC29F0CC0EACEC29F0BE0EF7
:10405800ACEC29F0116A780E1124D96EDA6A010ED7
:10406800DA229BEC28F0DF6E112A010E1164F3D7D7
:10407800010179510D6E7851126E0DC013F013AE17
:1040880009D0126C131ED8B0132A0B50D96EDA6AF5
:104098002D0EDF6E12500F0B106E760E1024F66E7A
:1040A800F76A780EF7220800F5CF10F012C00DF06D
:1040B80013C00EF0040E0F6ED8900E320D320F2E74
:1040C800FBD70DC012F00EC013F012500A0DF3CF3B
:1040D80012F0F4CF13F010501226000E1320136EB6
:1040E80012C00BF013C00CF012000F6E8B848B9271
:1040F8000EC0A2F0A40E0C6E7E0E0D6E36EC2CF0E7
:104108009F0E0C6E7E0E0D6E03EC2DF00FC007F0A7
:10411800050EDAEC2CF0076A110EDAEC2CF00EC062
:1041280007F0120EDAEC2CF0076A130EDAEC2CF01A
:10413800076A140EDAEC2CF0076A150EDAEC2CF08C
:10414800076A160EDAEC2CF0260E076E060EDAEC6D
:104158002CF0080E076E000EDAEC2CF0030E076E3A
:10416800010EDAEC2CF0030E076E020EDAEC2CF0DE
:104178000768040EDAEC2CF0076A1C0EDAEC2CF057
:1041880033EF2AF01B6E1D6A1E6A1E50BA0F1B24DD
:10419800D96EDA6A1D500708146E1150050DF3CF59
:1041A80015F0F4CF16F015501224176E1650132080
:1041B800186E1E501726000E182217C0F6FF18C0DA
:1041C800F7FF0800F5CF19F0142A02D0D890193259
:1041D800142EFCD71E50BA0F1B24E16EE26AE7507A
:1041E8001A6ED8901A341910DF6E1E2A040E1E6437
:1041F800CCD71C6A100E146E940EE82EFED7142E1F
:10420800FCD700D01C2A220E1C64F4D7BA0E076E05
:1042180037EC29F01D2A070E1D64B6D7070C136E5C
:10422800156A166A1650BA0F1324D96EDA6A155031
:1042380007080E6E0D50030D550EF3240F6E780E01
:10424800F420106E16500F26000E10220FC0F6FF35
:1042580010C0F7FF0800F5CF11F00E2A02D0D89051
:1042680011320E2EFCD71650BA0F1324E16EE26AF3
:10427800E750126ED89012341110DF6E162A020E13
:104288001664D0D7146A100E0E6E940EE82EFED760
:104298000E2EFCD700D0142A220E1464F4D7BA0EBE
:1042A800076E37EC29F0152A070E1564BAD7070CE4
:1042B8000550061001E112000D6A1AD00D5094EC59
:1042C80017F00550DE1813E10650DE1810E1F29ED3
:1042D8000D508CEC17F030D80D50A4EC17F027D8FF
:1042E8000D509CEC17F0DE6ADD6AF28E12000D2A82
:1042F8000001AC510D5CE2E30F0EAC610F0CF29EB5
:10430800AC5194EC17F005C0DEFF06C0DDFFAC51E0
:104318008CEC17F011D8AC51A4EC17F008D8AC51BC
:104328009CEC17F0DE6ADD6AAC2BF28E120009C035
:10433800DEFF0AC0DDFF120007C0DEFF08C0DDFF98
:1043480012000B6A3CD00B5094EC17F00550DE18A5
:1043580035E10650DE1832E1F29E0B50076E086A0E
:10436800FF0EAC25096E0A6AFF0E0A2207500918CB
:1043780003E108500A181FE0AC51076E086AD8908C
:1043880007360836D89007360836D89007360836E4
:10439800F80E0724D96E000E0820DA6E0B50080DAF
:1043A800000EF324E16E010EF420E26E070EDBCF5F
:1043B800E3FFE806FCE2AC07F28E12000B2A0001CC
:1043C800AC510B5CC0E312001B6E010E1A6E1D6A25
:1043D8001C6A1150050DF3CF16F0F4CF17F01650E4
:1043E8001224186E17501320196E1D501826000E2F
:1043F800192218C0F6FF19C0F7FF0800F5501A1463
:104408000BE01CC005F014C006F015C007F01B50E7
:104418001D243CEC2BF00AD01CC005F014C006F09B
:1044280015C007F01B501D24C1EC2AF0D8901A368D
:104438001C2A070E1C64CDD7010E1A6E1D2A040E05
:104448001D64C6D7040C0600D9CF03F0DACF04F0F8
:10445800F2BAF2A403D03EEC2DF02ED0F0B8F0A2C0
:104468000FD0F092010EF1A8000EFF0A026E023A78
:10447800F1500218EF0B0218F16E43EC24F01CD037
:104488009DB09EA008D09E90150ECF6EA00ECE6E49
:1044980036EC2DF011D0A0B2A1A208D0A192F00E56
:1044A800B36E600EB26ECEEC23F006D0F2BC9DAABD
:1044B80003D09EBAC8EC29F004C0DAFF03C0D9FFC4
:1044C8005B92110072EC2DF00B5009E009504DEC95
:1044D8002DF0085031D84DEC2DF076EC2DF0095028
:1044E80001094DEC2DF0116A1DD0FF0E0A240C6E47
:1044F8000D6AFF0E0D2211500E6E0F6A0C500E5CE5
:104508000F50800A106E0D50800A105805E20FD81F
:10451800010EAEEC2BF004D00AD8000EAEEC2BF056
:10452800DF6E112A0A50115CE0E36EEF2DF008509F
:104538001124D96EDA6A1200D96EDA6ADF501200D5
:104548009C0E2B6ED70EE82EFED72B2EFCD7000024
:104558000CEC16F00CEC2DF0F29EDA0E056E190E2E
:10456800066E086A640E93EC16F05CEC21F0640E9B
:10457800056E490E066E086A960E076E0A6AC80E20
:10458800096E5CEC21F0C40E056E4B0E066EEEEC67
:104598002BF05CEC21F0DA0E056E4D0E066E030E64
:1045A800086EE80E076E270E0A6E100E096E5CEC98
:1045B80021F0F28E23EC17F0FDD70A6A08AE06D078
:1045C800076C081ED8B0082A010E0A6E06AE06D07F
:1045D800056C061ED8B0062A010E0A1A0B6A0C6A68
:1045E800075008101BE0010E096E04D0D89007365A
:1045F8000836092A08AEFAD7D8900B360C36075079
:10460800055C0850065805E30750055E0850065A31
:104618000B80D89008320732092EEED70A5004E0F2
:104628000B6C0C1ED8B00C2A0BC005F00CC006F0A1
:10463800120040C0B2F0420E126E410E136E400ED0
:10464800146E6EEC26F0430E126E440E136E450E79
:10465800146E460E156E7BEC24F00001B251401822
:1046680001E05A84030E401802E1010EFE6F51501A
:1046780007E0400E1F6E480E206EF9EC0DF001D0D9
:10468800486A060E4264060C180E4260180C415027
:10469800D8A412004050D8A412000001FE51D8B48A
:1046A8001200010EB66F010C196A1A6A1B6A1C6A9D
:1046B800155016101710181029E0010E1D6E06D09F
:1046C800D89015361636173618361D2A18AEF8D76C
:1046D800D89019361A361B361C361550115C1650F0
:1046E8001258175013581850145809E31550115EF2
:1046F8001650125A1750135A1850145A1980D89035
:1047080018321732163215321D2EE2D719C011F0A1
:104718001AC012F01BC013F01CC014F01200126E65
:10472800010E116E146A136A0C50080D150EF3244D
:104738000F6E780EF420106E14500F26000E102203
:104748000FC0F6FF10C0F7FF0800F55011140BE07A
:1047580013C005F00DC006F00EC007F01250142467
:104768003CEC2BF00AD013C005F00DC006F00EC0CB
:1047780007F012501424C1EC2AF0D8901136132AED
:10478800070E1364D1D7010E116E142A060E146495
:10479800CAD7060C0001A45109E0A12B1E0EA16185
:1047A80002D08C8E03D0A16BA46B8C9E4D50D8B4D4
:1047B8001200B651D8B41200FE6B9F510AE1A02B2B
:1047C800140EA06102D08C8E04D0A06B010E9F6FD6
:1047D8008C9E9F0502E17D4B7E2B2D0E7D5D010E8B
:1047E8007E5904E37D6B7E6B020E9F6F020E9F194C
:1047F800D8A41200A02B140EA06102D08C8E140C29
:10480800A06B9F6BB66B8C9E1200096A0950BB0F98
:10481800D96EDA6A095074EC25F0092A1E0E09646B
:10482800F5D7040E3F640DD021D807E13F2A1F0EAB
:104838003F64010CB96B3F6A000CD96B3F6AB92B16
:10484800010C14D8050D900EF324076E780EF42091
:10485800086E3F500726000E082207C0F6FF08C062
:10486800F7FF0800F5CFD9F03F2A010C0001B95134
:104878000524D96E000E0620DA6EDF501200000102
:10488800B151D8B41200B32B080EB3191BE1B36BA6
:1048980019D0360EC96FCA6F360C240E24D0240ED8
:1048A800C96FCA6F240C240EC96FCA6B1200C96B7A
:1048B800CA6B1200120EF8D7120EC96FCA6F120C0B
:1048C800120E11D0B351E5E0010AE7E0030AE7E070
:1048D800010AE9E0070AEBE0010AECE0030AECE070
:1048E800010AEEE01200C96F360ECA6F360C060ECA
:1048F80026D866EC22F015502CD8C4EC2CF0DF6ECC
:10490800050E1DD866EC22F0145023D81F0BC4ECFA
:104918002CF0DF6E040E13D866EC22F0135019D871
:104928003F0BC4EC2CF0DF6E030E09D866EC22F0C6
:1049380012500FD8070BC4EC2CF0DF6E12000001E8
:10494800EB6FEB0E086ED00E096E010E0A6E0B6E41
:10495800010CD96EDA6A0001EB511200E5EC2CF07B
:1049680000091EE0C40E0C6E010E0D6E62EC2CF0F8
:1049780033EC2AF00101C651056EC5510001606F84
:1049880005C061F0C4C158F00101C851056EC75196
:1049980000016E6F05C06FF0876B886BB56B03D035
:1049A8000001874B882BD10E875D020E8859D8A04D
:1049B8001200876B886B010EB56F02D879EF20F073
:1049C800050E0E6E7B0C126A0EAE06D00D6C0E1E16
:1049D800D8B00E2A010E126E10AE04D00F6C101E45
:1049E800D8B0102A0F50101017E0010E116E04D025
:1049F800D8900F361036112A10AEFAD70F500D5C2A
:104A080010500E5804E30F500D5E10500E5AD890F7
:104A180010320F32112EF2D7125004E00D6C0E1E18
:104A2800D8B00E2A0DC00DF00EC00EF0120021EE07
:104A3800E5F010EE0CF0070EDBCFE3FFE806FCE232
:104A48000001795101E1000C156A78517725070BAF
:104A5800146E14500C0FD96EDA6ADF500B6E1550B5
:104A6800BA0FD96EDA6A0B50DF16782B070E786505
:104A780001D0786B152A1F0E1564E7D7BA0E076E9A
:104A880037EC29F00001772B070E7765010C796B5D
:104A9800000C100E0E6E0F0E0F6E0C6AA60E0E2472
:104AA80025D80E501DD80E2AA60E0F241FD80F5039
:104AB80017D80F06BA0E076E37EC29F00D6A100EDC
:104AC8000B6E940EE82EFED70B2EFCD700D00D2AC5
:104AD8001D0E0D64F4D70C2A0F0E0C64DFD70F0CD3
:104AE800BA0FE16EE26ADFCFE7FF1200D96EDA6A29
:104AF800020EDA221200AAC0A9F00001AA2B040EA5
:104B0800AA6517D0AA6B15D059EC2DF0010E0FD05D
:104B18007AEC2DF0050E0BD053EC2DF0020E07D0D9
:104B280069EC2DF0040E03D064EC2DF0030EB76F82
:104B38000AD0A951E9E0010AEBE0030AEDE0010A15
:104B4800EFE0070AF1E004D8EEEC2BF05CEF21F07F
:104B5800300E056E2D0E066E120009500A100B104D
:104B68000C1023E0010E0D6E06D0D89009360A36D7
:104B78000B360C360D2A0CAEF8D70950055C0A50D6
:104B880006580B5007580C50085808E30950055EA2
:104B98000A50065A0B50075A0C50085AD8900C3233
:104BA8000B320A3209320D2EE8D705C005F006C0CF
:104BB80006F007C007F008C008F0120081BC02D058
:104BC800010E0BD081BE02D0020E07D081B602D0F2
:104BD800030E03D081B803D0040E056E01D0056A18
:104BE800055013E02D0E00017F5D010E805905E38D
:104BF800010E806F180E7F6F0CD07F4B802B0F0E2D
:104C08007F198011D8A4120004D000017F6B806B3B
:104C1800120005C059F0010EA46F010C136E030EAB
:104C28000001EB6F135063EC2BF01FD889EC2BF0CD
:104C3800040E0001EB6F105063EC2BF016D889ECD2
:104C48002BF0050E0001EB6F115063EC2BF03F0BBE
:104C58000CD889EC2BF0060E0001EB6F125063ECB8
:104C68002BF03F0B02D889EF2BF00001EC6FEB0E15
:104C7800076ED00E086E020E096E020C0C6E0E6ADC
:104C880025D00F6A0F50BB0FD96EDA6A0F5074EC3B
:104C980025F00F2A1E0E0F64F5D70E50DA0FD96EC5
:104CA800DA6ADF500001D96FBA0E076E37EC29F0C7
:104CB8000D6A100E0B6E940EE82EFED70B2EFCD745
:104CC80000D00D2A310E0D64F4D70E2A0E500C5C5C
:104CD800D8E212000001EB6BEB0E086ED00E20D864
:104CE80066EC22F01450ADEC24F0C4EC2CF0DF6E2E
:104CF800010EA3EC24F066EC22F01350ADEC24F086
:104D0800C4EC2CF0DF6E020EA3EC24F066EC22F06B
:104D18001250ADEC24F03F0BC4EC2CF0DF6E120007
:104D2800096E010E0A6E0B6E010C8B6A380E946EBA
:104D38008A6ADF0E936EF19E6D968C6A956A896A0F
:104D4800010E926E966A846A8D6A070EB46EC30E5F
:104D5800C216C150F00B0E09C16ECF0EC116C0505D
:104D6800F80B0609C06EC050C70B1009C06EC08E84
:104D7800C280F298F096F088F092838C12000001BD
:104D88007C5101E112007AC005F07BC006F009EC05
:104D980024F000090CE0BA0E076E37EC29F014D89D
:104DA800086A0D0E076E1FEC17F05CEF21F07C6BA4
:104DB80015EC17F05CEC21F0860E056E4D0E066EB4
:104DC800A5EC21F084EF11F0860E056E4D0E066EEF
:104DD8001200CFEC2CF02C0E056E580E066E086AE9
:104DE800AA0E076E170E0A6E700E096E5CEC21F0A3
:104DF800ACEC17F01EC068F01FC069F04BEC14F063
:104E08001EC06AF01FC06BF0A8EC0AF0CAC266F0B8
:104E1800CBC267F028EC03F0CAC264F0CBC265F0DD
:104E2800120043C0D3F244C0D4F245C0D5F2475073
:104E3800640DF3CFFDF1F4CFFEF146500101FD25DD
:104E48000201D16F000E0101FE210201D26F2AC0BA
:104E580023F02BC024F0D3C225F0D4C226F0D5C24B
:104E680027F0D1C228F0D2C229F0A9EF13F019D047
:104E7800580E566E7E0E576E1200260E566E7E0E19
:104E8800576E1200F40E566E7D0E576E1200C20E4B
:104E9800566E7D0E576E1200900E566E7D0E576E32
:104EA80012004950010AE4E0030AE7E0010AEAE0D7
:104EB800070AEDE0010AF0E012000D6A0E6A0F6AB7
:104EC800106A05A008D009500D260A500E220B5072
:104ED8000F220C501022D89009360A360B360C36A1
:104EE800D8900832073206320532055006100710EE
:104EF8000810E7E10DC005F00EC006F00FC007F07E
:104F080010C008F0120019D0ED0E056E010E066EE5
:104F180009EC24F019D00E0E0E6E4F0E0F6ECC0E4B
:104F2800106E290E116E4CEC2AF00ED00E0E0E6E7D
:104F38004F0E0F6E18EC29F007D05950010AEBE01C
:104F4800050AF4E0010AE0E0BA0E076E37EF29F02F
:104F58000001765103E1000C742B756B200E74610F
:104F680003D016D8DF50F8E01F0E746502D0766BB8
:104F7800000C0ED8D890DF36BA0E076E37EC29F041
:104F88000001752B070E7565010C756B742B010CF0
:104F98007451BA0FD96EDA6A12000A6A0B6A07509E
:104FA80008101BE0010E096E04D0D89007360836A9
:104FB800092A08AEFAD7D8900A360B360750055C8E
:104FC8000850065805E30750055E0850065A0A803F
:104FD800D89008320732092EEED70AC005F00BC068
:104FE80006F0120005C007F006C008F002D0054A16
:104FF800062A05C0F6FF06C0F7FFF86A070EF76431
:1050080003D00800F55001D009D80009F0E1075095
:10501800055C056E08500658066E1200F6CFE1FFD3
:10502800F7CFE2FFE750120007C00EF008C00FF0FC
:1050380005C00CF006C00DF011D00EC0F6FF0FC071
:10504800F7FF0800F5CF0BF00E4A0F2A0CC0D9FF66
:105058000DC0DAFF0BC0DFFF0C4A0D2A0906D8A0E5
:105068000A060928EAE10A28E8E1120013C019F043
:1050780014C01AF01550176E1650186E154A162AD5
:1050880017C0F6FF18C0F7FFF86A19C0D9FF1AC091
:10509800DAFF194A1A2A070EF76403D00800F550F8
:1050A80002D012EC28F0DF6EDF50E4E112000001BC
:1050B800FA5101E1000C1F0E0B6E0B50B90FD96E9F
:1050C800DA6A0B5074EC25F00B060B50F6E1BA6B5C
:1050D800BA0E076E37EC29F00001F82B020EF965BD
:1050E80001D0F95F1F0EF865010CFA6B000C000186
:1050F800FD5101E1000C0B6A0B50BB0FD96EDA6A47
:105108000B5074EC25F00B2A1E0E0B64F5D7D96BE7
:10511800BA0E076E37EC29F00001FB2B020EFC6576
:1051280001D0FC5F1F0EFB65010CFD6B000C076ACC
:10513800086A70EC2CF000090CE008C005F0010EBC
:10514800066E052A02D0D8900636052EFCD70650E2
:105158000712CD0E00D000D0E82EFCD700D000D02A
:105168000000082A070E0864E4D707501200126EE0
:105178000001EB6B115063EC2BF039EC26F089EC55
:105188002BF0010E0001EB6F105063EC2BF039ECA3
:1051980026F089EC2BF0020E0001EB6F125063EC45
:1051A8002BF03F0B39EC26F089EF2BF00E500F1047
:1051B80017E0010E106E04D0D8900E360F36102A64
:1051C8000FAEFAD70E500C5C0F500D5804E30E507A
:1051D8000C5E0F500D5AD8900F320E32102EF2D7A7
:1051E8000CC00CF00DC00DF012000A6A086A17D046
:1051F80008500524D96E000E0620DA6EDF500A1A10
:10520800096A0AAE05D00A500A24310A0A6E02D089
:10521800D8900A36092A070E0964F3D7082A0750D6
:10522800085CE6E30A5012000EC005F00FC006F055
:10523800A5EC21F015EC17F05CEC21F077EC15F0FB
:10524800A5EC21F009D80CEC2DF04A0401E108D0B6
:10525800010E0001B16F010C050E596E5A96050C2E
:105268000001B16B12000A6A8C90096A0950F80DA6
:105278000750F3240A24D96EDA6A180ED926DF50AB
:10528800086E0A2805EC2CF0085005EC2CF0092AC9
:10529800030E0964EBD78C800A2A070E0A64E4D748
:1052A800070C580E00016C5D020E6D5902E3050EE5
:1052B80006D06D5103E13A0E6C5D05E3030E076EEF
:1052C8000A0E45EF2CF06D5108E1330E6C5DD8B035
:1052D8001200076A0A0E45EC2CF0120000018251F8
:1052E80001E1000C81C00BF081511F080C6E0B50BE
:1052F8000DD80C500BD8BA0E076E37EC29F0000108
:10530800812B0F0E8165010C826B000CBA0FD96ED0
:10531800DA6ADF6A1200839C959C080E056ECA0E35
:10532800E82EFED7052EFCD7838C958CF00E00D086
:10533800E82EFDD7000E83BC010E066E070E056E23
:105348009A0EE82EFED7052EFCD700D00650120084
:10535800086E0A6A0AC006F008C007F0062A02D0DA
:10536800D8900732062EFCD70750096E010E091691
:105378000950F4EC2BF00A2A070E0A64EBD7FC0E4E
:1053880000D0E82EFDD71200ABA202D0AB98AB88B4
:10539800000E0001A6250FD8AECFDFFFA62B950E75
:1053A800A66501D0A66B3E2A3E04016E950E0164E7
:1053B800950C3E6A1200D96EDA6A040EDA221200DF
:1053C800056E0001A751FDE09DB805D09EA8FED747
:1053D80005C0ADFF12009D98000EA825D96EDA6AA7
:1053E800020EDA2205C0DFFFA82B0F0EA86501D038
:1053F800A86BA7071200E37E3D7FE47EEE7E217F47
:10540800367FF77E287F1F1D1F1E1F1E1F1F1E1F92
:105418001E1FFDBFEF7FFBDFF7FE3139322E31361D
:10542800382E342E310000000000066E086A055040
:1054380014E0010E076E03D0D8900536072A05AE92
:10544800FBD7D89008360550065C03E30550065E86
:105458000880D8900532072EF4D7085012008B9494
:10546800E20ED7EC2AF08B84700E076E070EDAEC8A
:105478002CF08B920B0E076E000EDAEC2CF08B8260
:10548800E70E00D000D0E82EFCD700D000001200B4
:105498000EC005F00FC006F0A5EC21F010C005F015
:1054A80011C006F0086A076A0A6A140E096E5CECF5
:1054B80021F070EC11F05CEC21F030EC29F00CEFED
:1054C8002DF08C80010E076E0C0E45EC2CF0076A4F
:1054D800090E45EC2CF0070E076E0B0E45EC2CF070
:1054E800020E076E0A0E45EC2CF0076A0F0E45EF08
:1054F8002CF00A6E8B940A50D7EC2AF00B6A0BD06A
:1055080007C0F6FF08C0F7FF0800F550D7EC2AF0EF
:10551800074A082A0B2A09500B5CF2E38B84120015
:105528000A6E8B940A50D7EC2AF00B6A0BD00B50FA
:105538000724D96E000E0820DA6E000ED7EC2AF088
:10554800DF6E0B2A09500B5CF2E38B8412000E0EFF
:105558000001EB6FEC6B0AD889EC2BF00F0E000101
:10556800EB6F080EEC6F02D889EF2BF0EB0E076E8D
:10557800D00E086E020E096E020C0B6E05C008F004
:10558800010E096E082A02D0D8900936082EFCD7D9
:10559800091C0A6E0B500624D96E000E0720DA6E1D
:1055A8000A50DF161200056E066A05AE02D08C8816
:1055B80001D08C98D89005368C8A010E83A6000EEF
:1055C80005128C9A062A070E0664EFD705501200BA
:1055D8008FEC29F00009D8A41200CC0EACEC29F00D
:1055E8004E0EACEC29F0000EACEC29F0000EACEC41
:1055F80029F07F0EACEF29F0FA0ED3EC1FF012C0A1
:10560800C6F213C0C7F214C0C8F215C0C9F2C6C2A8
:1056180027F0C7C228F0C8C229F0C9C22AF0120070
:10562800F70ED3EC1FF012C0C6F213C0C7F214C0B5
:10563800C8F215C0C9F2C6C227F0C7C228F0C8C24E
:1056480029F0C9C22AF01200948C948EAC98AC8AC6
:10565800AB88AB8EAC84B886B06A670EAF6E0001BB
:10566800A86B100EA76FA66BA56B3E6A9D8A1200E9
:105678000A6E05C008F0010E096E082A02D0D890FB
:105688000936082EFCD70A500624D96E000E0720CA
:10569800DA6E0950DF1212003E50FEE0000E0001E3
:1056A800A525DFEC29F0DF50056EA52B950EA56525
:1056B80001D0A56B9D9A3E069D8A055012000F6E7B
:1056C8000A0E096E0F5076EC2BF00D6E0F0E0D16AC
:1056D8000A0E056E0F5019EC2AF00E6E0E38F00BFC
:1056E8000D1012000A6E080E0B6E0C6AD8900A3460
:1056F8000C340C6ED8900A3609500C5C02E3095041
:105708000C5E0B2EF3D70C50120072EC2DF00850E3
:105718004DEC2DF00A6A07D007500A24A0EC22F0BD
:105728004DEC2DF00A2A09500A5CF6E36EEF2DF0D5
:10573800166E16C0EBF01DEC20F0020E22EC20F0E5
:1057480066EC22F00001EC51146EEB51126E14C09D
:1057580013F01200066E26EC2DF0C58626EC2DF00F
:10576800C9CF07F026EC2DF0065002E1C58A01D01A
:10577800C59AC58807501200066EA6B2FED706C0A5
:10578800A9FF05C0A8FFA69EA69CA684F29E550E5A
:10579800A76EAA0EA76EA682F28EAA0CFE0E2CEC9D
:1057A80018F089EC2BF0040E0C6E0C0E0B6E340EF8
:1057B800E82EFED70B2EFCD70C2EFAD712000EC0FF
:1057C8007AF00FC07BF0010E7C6FE8EC26F002D86F
:1057D8005CEF21F0086A076A0A6A010E096E010C7B
:1057E800056E839C959C050405E1080EE82EFED7FE
:1057F800838C958CFC0E00D0E82EFDD7838C958C7D
:105808001200056E066A05AE02D08C8401D08C9415
:105818008C8200008C92D8900536062A070E066402
:10582800F2D7070C2C0E056E580E066EA5EC21F06B
:10583800F70E0B6E26EC20F00BC062F00CC063F084
:105848007CEF1FF0C282C2B2FED7C450066E056A52
:10585800C350052400016C6F000E06206D6F000018
:105868000000120007D82A0E7DEC2AF003D8300E6B
:105878007DEF2AF00CC007F00DC008F0050E096E88
:10588800050C086E8C90096A085005EC2CF007503E
:1058980005EC2CF0092A030E0964F6D78C80030C5A
:1058A800CD90150ECF6EA00ECE6E9D80B192B180B8
:1058B800A082F00EB36E600EB26E600C0CC007F0E2
:1058C8000DC008F0A2C009F0610E94EC2AF0400E59
:1058D800076E070EDAEF2CF0839C959C040EE82ED9
:1058E800FED7838C958C180EE82EFED783BC010C4E
:1058F800000C7A7F2F7F097F607F447F4B7F747F06
:10590800597F117F677FDA7E527FD2EC2BF0E70E4A
:105918000001EB6FEB0E086E800E94EC26F066EF3C
:1059280022F04F0EE4EC29F04B0EE4EC29F00D0EBA
:10593800E4EC29F00A0EE4EF29F0450EE4EC29F036
:10594800520EE4EC29F00D0EE4EC29F00A0EE4EF17
:1059580029F0076E8B940750D7EC2AF0000ED7EC8D
:105968002AF0086E8B8408501200030E9312280E3A
:10597800C66EC76A770EC86EC584C5A41200FDD767
:10598800066E06C005F00F0E051606380F0B0A0D39
:10599800F350052412008FEC29F00009D8A4120056
:1059A800CC0EACEC29F0440EACEF29F0086E8B94C9
:1059B80008502009D7EC2AF00750D7EC2AF08B843E
:1059C80012002EEC2DF00A6E0ABC010C46EC2DF0EC
:1059D8000009D8B4010C000C056EA6B2FED705C0AC
:1059E800A9FFA69EA69CA680A8501200C70ED56E39
:1059F800F28AD76A160ED66E0001AC6B12000CC084
:105A080007F00DC008F0050E096E2B0E7DEF2AF089
:105A1800056A05508AEC29F0052A1F0E0564F9D796
:105A28001F0C0101010201010101010101010158DD
:035A38007E2B05BD
:105A3C009586959894929494959A958C8B84120053
:105A4C00C7B4FED7C5CF05F01F0E0516F9E11F0C24
:105A5C008B94FF0ED7EC2AF0076E8B840750120044
:105A6C000001B42B950EB465950CB46BCD9012005F
:105A7C00F294D76A160ED66E010E0001AB6F010CB4
:105A8C00170EADEC2CF0096E0950010B1200066ECE
:105A9C0026EC2DF006C0C9FF1200F86B140EF96F3E
:105AAC00010EFA6F010CFB6B140EFC6F010EFD6FF7
:105ABC00010C0001A66BA56B3E6A1200746B756B32
:105ACC00010E766F010C776B786B010E796F010C00
