:0400000007EF00F016
:100008005B82B6ED20F077EF1EF024D06BEC29F080
:100018000E6E000E9425D96EDA6A020EDA220EC030
:10002800DFFF942B010E946515D0FF0E9425D96E31
:10003800DA6A010EDA220A0EDE180CE1FE0E9425A9
:10004800D96EDA6A010EDA220D0EDE1803E1010E0E
:10005800976F02D04250DAE1425002E152EC2BF0A5
:1000680000019751D8B41200240E0201001901E1D1
:1000780010D242D2CEEC25F03FD2240E1EEC28F04E
:100088004A0E1EEC28F0106A10504A0F2AEC21F094
:100098001EEC28F0102A0B0E1064F6D70D0E1EEC7D
:1000A80028F00A0E1EEC28F027D2106A07D04EDA84
:1000B800EF0E1024E16EE26A010E6ADA78DAD5EC06
:1000C80026F0FE0E35DA01E217D2F1D75AA01CD07D
:1000D80049DA386E4DDA376E51DA366E0001F8516A
:1000E8000CE0385005E139DA170E15EC27F009D085
:1000F80034DA380415EC27F004D02FDA385015EC30
:1001080027F092EC2AF0F8D19EEC2AF0F5D1FCD930
:100118000E040F1005E0F8D9020E0E180F10F4E1C6
:100128000251D00F4B6E4BC005F0010EEDEC29F0DB
:1001380014EC2BF04B0403E10001996B01D024DA95
:100148009E6BDFD7010EFED9EDEC29F0F8EC25F017
:1001580022D0020EF7D9EDEC29F0F8D7030EF2D928
:10016800EDEC29F0F3D7040EEDD9EDEC29F0EED73C
:10017800050EE8D9EDEC29F0E9D7C6D90F500BE107
:100188000E50010ADFE0030AE4E0010AE7E0070A8B
:10019800EAE0010AEDE0D00E02010225BCD90FBE4B
:1001A80005D00F50B1E1060E0E5CAEE2ADD90E508F
:1001B8000F10AAE0A6D7DCD9106EE0D9116E08514D
:1001C8000A0DF3500925F00F126ECCD93CEC24F03F
:1001D80098D79AD90E500F1004E096D90E040F1034
:1001E80093E10251D00F4C6E0351D00F4D6E4CC0AD
:1001F80005F0020EEDEC29F04C5083E14DC005F0FE
:10020800030EEDEC29F019EC19F040EC2AF079D73F
:100218007BD90E500F1005E077D90E040F1001E0BE
:1002280073D70251D00F4E6E4EC005F0040EEDECA0
:1002380029F067D769D90E500F1005E065D90E046B
:100248000F1001E061D7D00E032565D90E500F10AD
:1002580007E0D00E03255FD90E040F1001E054D734
:100268000251D00F4F6E0351D00F506E4FC005F0A2
:10027800050EEDEC29F0AED9EDEC29F042D744D9C2
:100288000E500F1005E040D90E040F1001E03CD7C6
:100298000251D00F516EA1D9EDEC29F032D734D9E3
:1002A8000E500F1005E030D90E040F1001E02CD7C6
:1002B8000251D00F526E54EC1BF0EDEC29F021D70F
:1002C80023D90E040F1006E01FD9020E0E180F10C6
:1002D80001E01AD70251D00F536E53C005F0090E32
:1002E800EDEC29F00ED710D90E040F1005E00CD94B
:1002F8000E500F1001E008D70251D00F556E99EC3F
:1003080018F0EDEC29F0FDD692EC2AF03D0E0F6EB8
:10031800E10E0E6E400EE82EFED70E2EFCD70F2EE5
:10032800FAD73D0E0F6EE10E0E6E400EE82EFED788
:100338000E2EFCD70F2EFAD73D0E0F6EE10E0E6E65
:10034800400EE82EFED70E2EFCD70F2EFAD73D0E04
:100358000F6EE10E0E6E400EE82EFED70E2EFCD765
:100368000F2EFAD7FF00C8D0610E021913E1200E34
:10037800966F010E106E07D0E9D8960E1024E16E24
:10038800E26A020E05D913D9D5EC26F0FD0ED0D8B5
:1003980006E3F2D76F0E021902E15A92B2D692EC36
:1003A8002AF047C098F05A820001996B0AD9F3ECF9
:1003B8001FF0F3D8F3EC1FF0F4EC15F0F3EC1FF09A
:1003C800F1D8F3EC1FF0F8D8ACEC27F0A3EC0CF064
:1003D80071EC0BF0AAEC1FF03BEC12F0D5D88CD0E6
:1003E800240E1EEC28F0760E1EEC28F0280E1EECCB
:1003F80028F0106A09D07B0E1024F66EF76A7F0E7B
:10040800E5D81EEC28F0102A7B0E056E7F0E066ECE
:10041800D5EC26F085D8EFE3290E1EEC28F0200E47
:100428001EEC28F0200E1EEC28F0106A09D0670E8A
:100438001024F66EF76A7F0EC9D81EEC28F0102A31
:10044800670E056E7F0E066ED5EC26F069D8EFE3D1
:10045800200E1EEC28F0106A09D0720E1024F66ED9
:10046800F76A7F0EB3D81EEC28F0102A720E056EBC
:100478007F0E066ED5EC26F053D8EFE30D0E1EEC7A
:1004880028F00A0E1EEC28F037D00251760AA8E0B0
:100498003BD60151440A01E1EDD50E0A01E1EDD543
:1004A8001A0A01E102D6030A01E15ED7320A01E124
:1004B800C1D6030A01E18DD6010A01E128D6070A4F
:1004C80001E179D6010A01E1DAD6030A01E155D63C
:1004D800140ADBE0010A01E19BD6070A01E1F6D51F
:1004E800020A01E1EDD6010A01E1D9D60E0A01E1BD
:1004F800FAD6030A01E108D70201006B016B026B0F
:100508000001946B976B1200D00E02250E6E0F6AD5
:10051800FF0E0F22FF0C0E6E0F6AFF0E0F22FF0C4C
:1005280010500E6E0F6A05500E5C06500F581200E0
:1005380005240E6EFF0E06200F6E10500E5C000E86
:100548000F5812004A6E4AC005F0000C020E102423
:10055800D96EDA6A020EDA22120037C010F036C0FD
:1005680011F0120002510A0DF3500325F00F12008A
:1005780004510A0DF3500525F00F120006510A0D1B
:10058800F3500725F00F1200010E0001996F010CBE
:10059800E222DFCFE7FF102A1200BE0E056E0B0E17
:1005A800066E1200F00E056E220E066E1200000E88
:1005B800056E020E066E1200960E0B6E020E0C6E83
:1005C80012001E0E056E170E066E1200F7220800A6
:1005D800F550120050C005F0060C51C005F0070C8C
:1005E8002FEC29F027C0A3F328C0A4F329C0A5F352
:1005F8002AC0A6F360C096F361C097F362C098F36F
:1006080063C099F303019935D1DA000E9625B36FCB
:10061800060E9721B46FFF0E9821B56FFF0E992132
:10062800B66F0B0E2BDA1EEC26F00301966701D08D
:1006380003D05FDA962FF9D762DAA7C305F0A8C30B
:1006480006F0A9C307F0AAC308F076C009F077C07E
:100658000AF079DA1EEC26F07CDA78C005F079C069
:1006680006F056DA1EEC26F0D89005340301966F92
:100678000634976F0734986F0834996F9651AB27F3
:100688009751AC239851AD239951AE2300017A516B
:100698000301966F00017B510301976F986B996B6B
:1006A80097C399F396C398F3976B966B020E9A6F5C
:1006B800ABC39BF3ACC39CF3ADC39DF3AEC39EF336
:1006C8009A6701D007D09E359E339D339C339B3368
:1006D8009A2FF6D7030196519B25AB6F97519C2112
:1006E800AC6F98519D21AD6F99519E21AE6F0D0E43
:1006F800C5D91EEC26F00301966701D003D0F9D9BD
:10070800962FF9D7FCD9120E0301966F030E976F37
:100718007CC005F07DC006F0000E08DA1EEC26F05D
:1007280005C098F306C099F307C09AF308C09BF375
:100738000301976701D007D09B359B339A339933D0
:100748009833972FF5D77EC005F07FC006F0E0D923
:100758001EEC26F0CED90550030198259C6F065053
:1007680099219D6F07509A219E6F08509B219F6F7A
:10077800966701D007D09F359F339E339D339C33B6
:10078800962FF6D79CC3B3F39DC3B4F39EC3B5F3BA
:100798009FC3B6F30F0E0301966F000EB325056EC7
:1007A800800EB421066E000EB521076E000EB6212C
:1007B800086EF6C009F0F7C00AF00B6A0C6A1EEC66
:1007C80026F00301966701D003D093D9962FF9D765
:1007D800C9D90301B351B411B511B61105E12F6A96
:1007E800306A316A326A12000C0E966FABC397F307
:1007F800ACC398F3ADC399F3AEC39AF3966701D02F
:1008080004D09A35CED9962FF9D7A3C39BF3A4C3A6
:100818009CF3A5C39DF3A6C39EF303019B1F9C1FD6
:100828009D1F9E1F9B2B000E9C239D239E2397514B
:100838009B5D9F6F98519C59A06F99519D59A16FCD
:100848009A519E59A26F000E9F25056E000EA02199
:10085800066E100EA121076E000EA221086E350E3D
:10086800096E0C0E9AD91EEC26F005C0AFF306C02F
:10087800B0F307C0B1F308C0B2F3800E0301B25D54
:100888000EE2D890AF35116EB035126EB135136ED9
:10089800B235146E79D9E7EC21F06DD915D0AFC314
:1008A80011F0B0C312F0B1C313F0B2C314F06CD995
:1008B800E7EC21F0D89011340301AF6F1234B06F18
:1008C8001334B16F1434B26FAFC396F3B0C397F358
:1008D800B1C398F3B2C399F3040E03D00301D890BF
:1008E80065D9E82EFBD796C305F097C306F098C3E1
:1008F80007F099C308F0AFC39AF3B0C39BF3B1C331
:100908009CF3B2C39DF3040E05D0D8909D339C335D
:100918009B339A33E82EF9D79AC309F09BC30AF0A0
:100928009CC30BF09DC30CF01EEC26F00E0E05D0F8
:10093800D8900832073206320532E82EF9D7DFD8C8
:100948000C0E0301966F70C005F071C006F0000E22
:10095800EDD81EEC26F00301966701D003D0C9D864
:10096800962FF9D7FFD80D0E0301966FAFC397F3F3
:10097800B0C398F3B1C399F3B2C39AF3030E02D08C
:10098800D8900FD9E82EFCD797C305F098C306F086
:1009980099C307F09AC308F072C009F073C00AF04F
:1009A800D2D81EEC26F00301966701D003D0A1D857
:1009B800962FF9D7CED8040E0301966F74C097F31B
:1009C80075C098F3000E98BFFF0E996F9A6FB351D8
:1009D80097259B6FB45198219C6FB55199219D6FB4
:1009E800B6519A219E6FAB519B259F6FAC519C21AC
:1009F800A06FAD519D21A16FAE519E21A26F966748
:100A080001D007D0A235A233A133A0339F33962F4C
:100A1800F6D70301AF519F25AF6FB051A021B06F3A
:100A2800B151A121B16FB251A221B26FAFC305F08C
:100A3800B0C306F0B1C307F0B2C308F0E80E096E00
:100A4800030EABD81EEC26F005C011F006C012F05C
:100A580007C013F008C014F0140E156E340E166E8D
:100A6800176A186AE7EC21F086D8AFC32FF0B0C335
:100A780030F0B1C331F0B2C332F01200966F020EFB
:100A8800976FB3C398F3B4C399F3B5C39AF3B6C3D6
:100A98009BF3976701D007D09B359B339A339933E3
:100AA8009833972FF6D798C305F099C306F09AC3E1
:100AB80007F09BC308F0020E03019C6FB3C39DF3BC
:100AC800B4C39EF3B5C39FF3B6C3A0F39C6701D02C
:100AD80007D0A035A0339F339E339D339C2FF6D784
:100AE8009DC309F09EC30AF09FC30BF0A0C30CF08E
:100AF800120008340832073206320532120005C0E7
:100B0800A7F306C0A8F307C0A9F308C0AAF3120008
:100B1800000E06BEFF0E076E086EB3C309F0B4C31D
:100B28000AF0B5C30BF0B6C30CF0120006BEFF0EF8
:100B3800076E086EA7C309F0A8C30AF0A9C30BF093
:100B4800AAC30CF01200000E0ABEFF0E0B6E0C6E4C
:100B5800120005C0ABF306C0ACF307C0ADF308C084
:100B6800AEF3120005C0B3F306C0B4F307C0B5F383
:100B780008C0B6F3120011C0AFF312C0B0F313C02F
:100B8800B1F314C0B2F31200B3C315F0B4C316F036
:100B9800B5C317F0B6C318F012000A6E0B6A0C6AD8
:100BA80012009A3399339833973312009933983354
:100BB80097339633120059D114EC2BF000019F5152
:100BC80018E0020E65D9000E22EC22F0450E116ED7
:100BD8005AD9090E14EC1FF0720E116E54D90F0E6B
:100BE80014EC1FF0720E116E4ED9150E14EC1FF096
:100BF80023D1D42903E1D52901E107D1530403E026
:100C0800D451D51175E171D950D934EC27F00C5075
:100C18000001956F7AD983D969EC26F005C06AF08E
:100C280006C06BF0050E0001956502D06A4B6B2B70
:100C380071D975D969EC26F0055006102FE1020E1E
:100C480027D9030E22EC22F000016A516B1116E03D
:100C580058C011F018D90D0E14EC1FF031D925D950
:100C680034EC27F00C5009D9130E14EC1FF0B00E19
:100C7800116E09D9190E14EC1FF0DED021D915D93F
:100C880034EC27F00C50F9D80D0E14EC1FF0B00E10
:100C9800116EF9D8130E14EC1FF0CED0020EF8D84E
:100CA800000E22EC22F058C011F0EDD8090E14EC19
:100CB8001FF0086A0A0E076E2DD969EC26F02AEC97
:100CC80012F034EC27F00C50D8D80F0E14EC1FF0AB
:100CD800F7D8EBD834EC27F00C50CFD8150E14EC1D
:100CE8001FF0B00E116ECFD81B0E14EC1FF0A4D05D
:100CF800200E216E2150AEEC26F0212A300E216400
:100D0800F9D7086A640E076E00D969EC26F02AEC58
:100D180012F034EC27F0EED8F8D869EC26F02AEC7B
:100D280012F034EC27F0FFD8E0D8BFD834EC27F025
:100D3800CCD839E0020EACD8030E22EC22F058C011
:100D480011F0A1D80B0E14EC1FF0CBD896D8110EC9
:100D580014EC1FF0A6D891D8170E14EC1FF093C10D
:100D680011F091D81D0E14EC1FF001019451D00F11
:100D7800B2EC08F0200E77EC20F095C111F082EC6F
:100D880010F0260E77EC20F03D0E206EE10E1F6E5F
:100D9800400EE82EFED71F2EFCD7202EFAD70A0EBB
:100DA800F5EC24F049D0020E73D8010E22EC22F0A3
:100DB80058C011F068D80B0E14EC1FF072D85DD82B
:100DC800110E14EC1FF093C111F05DD8170E14EC3E
:100DD8001FF0A8EC0CF051D81A0E14EC1FF095C1B6
:100DE80011F082EC10F0200E77EC20F03D0E206E12
:100DF800E10E1F6E400EE82EFED71F2EFCD7202EC8
:100E0800FAD7080EF5EC24F017D0020E41D8000EE0
:100E180022EC22F02D0E116E36D8090E14EC1FF0BC
:100E28002D0E116E30D80F0E14EC1FF02D0E116E12
:100E38002AD8150E14EC1FF03CD864D82ED8AAEF87
:100E48001FF0050E596EC8EC24F03BEC12F0EFECE5
:100E580015F0F3EC1FF0D1EC02F0F3EC1FF0A3EC6B
:100E68000CF071EC0BF0AAEF1FF05950040AE9E0FE
:100E7800010A01E1A1D6030A1200116E56C012F050
:100E880057C013F01200280E126E790E136E12005E
:100E98000C6EA30E0D6E0E6A1200076E0A6A096ABE
:100EA800120001019251D00F12000F6A0A0E0E6E45
:100EB8000A0C060E596ED20E056E560E066E1200FC
:100EC8006AC00CF06BC00DF012000C50300F01011D
:100ED800946F2E0E936FB00E956F966B300E91191E
:100EE800120001019151D00F1200D4C00CF0D5C0EE
:100EF8000DF012000C50300F0101916F086A0A0EB4
:100F0800076E0A0C020E086E8A0CD4C005F0D5C014
:100F180006F012006AC005F06BC006F01200086AFD
:100F28000A0E076E0A0C0C50300F0101926F120066
:100F3800236E0CD10001996B246A2ED939EC28F064
:100F4800A4EC29F0000909E027D939EC28F0A4EC31
:100F580029F00DD9A30F3AD903D02450AEEC26F0CE
:100F680044D9A4EC29F003D9A90F30D935D939ECE3
:100F780028F0A4EC29F0FBD8B00F28D932D9A4EC7A
:100F880029F0F5D8B60F22D9242A040E2464D5D71F
:100F9800246AF4EC12F039EC28F0A4EC29F001D919
:100FA800BC0F14D9F9EC12F0A4EC29F0FAD8C00F50
:100FB8000DD9242A020E2464ECD70001A86B800EF8
:100FC800AE6FAF6FB56BBB6BBF6B1200010E00014C
:100FD800996FE2D839EC28F0A4EC29F0406E05D9D5
:100FE800A4EC29F03F6EF8D839EC28F0A4EC29F0ED
:100FF8003E6EF7D8A4EC29F03D6E405041180AE146
:101008003F5000019D1906E13E509C1903E13D50F7
:101018009B196EE03D5000019B1909E0E2D8A4EC51
:1010280029F041EC07F0190E14EC1FF007D0D9D8BD
:10103800A4EC29F093D8190E77EC20F03E5000016B
:101048009C190BE0C9D839EC28F0A4EC29F041EC44
:1010580007F0130E14EC1FF009D0BED839EC28F0B5
:10106800A4EC29F07BD8130E77EC20F03F50000158
:101078009D1909E0BAD8A4EC29F041EC07F0070E55
:1010880014EC1FF007D0B1D8A4EC29F067D8070EEC
:1010980077EC20F081D839EC28F0A4EC29F000098D
:1010A80018E0405041180BE077D839EC28F0A4EC50
:1010B80029F041EC07F0010E14EC1FF010D06CD8A9
:1010C80039EC28F0A4EC29F049D8010E77EC20F08F
:1010D80006D0116A47EC07F0010E14EC1FF040C06F
:1010E80041F03FC09DF03EC09CF03DC09BF0120017
:1010F80053D839EC28F0A4EC29F000090AE04CD8C0
:1011080039EC28F0A4EC29F029D8010E77EC20F06E
:1011180006D0116A82EC10F0010E77EC20F065D849
:10112800A4EC29F01BD8070E77EC20F055D839EC41
:1011380028F0A4EC29F012D8130E77EC20F051D83F
:10114800A4EC29F00BD8190E77EF20F02350010AF0
:1011580001E1F0D6030A01E139D71200116E56C039
:1011680012F057C013F0A30E146E156A1200050D85
:10117800F3CF1FF0F4CF20F01F505624216E2050DB
:101188005720226E24502126000E222221C0F6FF6D
:1011980022C0F7FF245012000A0E096E056E455052
:1011A8001200030DE50EF3241F6E780EF420206E56
:1011B80024501F26000E2022030E1F26000E202278
:1011C8001FC0F6FF20C0F7FF24501200D96EDA6A5C
:1011D8000800F5CFDFFF12000A0E096E056E4450B5
:1011E80012000A0E096E445012000A0E096E45508C
:1011F80012002DD0FA0E0E6E110E0F6EFA0E106E32
:10120800250E116EC7EC28F02CD0FA0E0E6E110EBA
:101218000F6E53EC27F025D03B2A0C0E3B6402D00E
:10122800010E3B6E64EC11F0AAEC1FF02DD93CECDA
:1012380024F017D03B063B5002E10C0E3B6E64ECE9
:1012480011F0AAEC1FF020D93CEC24F00AD0595038
:10125800010AD0E0030AE0E0010AECE0070AD5E061
:10126800010A5AA600D1AA0EF66E7F0EF76E01D9B2
:10127800000E77EC20F0AB0EF66E7F0EF76EF9D805
:10128800060E77EC20F0AC0EF66E7F0EF76EF1D8F6
:101298000C0E77EC20F0C8D0FB0EF66E7F0EF76EC2
:1012A800E8D8120E77EC20F0FC0EF66E7F0EF76E83
:1012B800E0D8180E77EC20F0D6D0F20EF66E7F0E3E
:1012C800F76ED7D8120E77EC20F0F30EF66E7F0E7D
:1012D800F76ECFD8180E77EC20F0C5D0D70EF66E83
:1012E8007F0EF76EC6D8120E77EC20F0D80EF66E89
:1012F8007F0EF76EBED8180E77EC20F0B4D0CB0E68
:10130800F66E7F0EF76EB5D8120E77EC20F0CC0E85
:10131800F66E7F0EF76EADD8180E77EC20F0A3D0DE
:10132800E30EF66E7F0EF76EA4D8120E77EC20F05F
:10133800E40EF66E7F0EF76E9CD8180E77EC20F050
:1013480092D0E60EF66E7F0EF76E93D8120E77ECFB
:1013580020F0E70EF66E7F0EF76E8BD8180E77EC3E
:1013680020F081D0D40EF66E7F0EF76E82D8120E62
:1013780077EC20F0D50EF66E7F0EF76E7AD8180E41
:1013880077EC20F070D0D5EC0EF073D8120E77EC15
:1013980020F0D0EC0EF06DD8180E77EC20F063D06A
:1013A800DA0EF66E7F0EF76E64D8120E77EC20F028
:1013B800DB0EF66E7F0EF76E5CD8180E77EC20F019
:1013C80052D0C80EF66E7F0EF76E53D8120E77EC19
:1013D80020F0C90EF66E7F0EF76E4BD8180E77EC1C
:1013E80020F041D0E90EF66E7F0EF76E42D8120E4D
:1013F80077EC20F0EA0EF66E7F0EF76E3AD8180EEC
:1014080077EC20F030D0DD0EF66E7F0EF76E31D817
:10141800120E77EC20F0DE0EF66E7F0EF76E29D8EE
:10142800180E77EC20F01FD03B50010A01E134D7A9
:10143800030A01E142D7010A01E150D7070A01E195
:101448005ED7010A01E16CD7030A01E17AD7010AE4
:1014580089E00F0A98E0010AA3E0030AB2E0010A52
:10146800C1E0070AD0E0A30E076E71EC27F05A8698
:1014780012000800F5CF11F0280E126E790E136EC7
:10148800A30E146E156A1200050E596E3AC010F0BC
:101498003BC011F03CC012F0395012005A80DED027
:1014A8004B509CEC07F0020E4B1803E1C8EC02F01D
:1014B80002D00001996B050E43640DD0070E4360FE
:1014C8000AD0D60E0B6EF90E0C6EFA0E0D6EFB0ED0
:1014D8000E6E93EC17F00E0E436405D0100E4360A9
:1014E80002D0030E596E270E4364C6D0290E4360FE
:1014F800C3D0515004E044B002D0020EA6D0030E6F
:10150800A4D05A90240E1EEC28F0500E1EEC28F0A1
:101518000D0E1EEC28F00A0E1EEC28F0EED8F3ECA7
:101528001FF04C0E056E210E72EC20F0320E096E83
:10153800AAEC1FF064EC11F0AAEC1FF020EE43F0C7
:1015480010EE36F0060EDBCFE3FFE806FCE2050EF0
:10155800596E5A96020E4B1801E08ED0C4D882EC10
:1015680010F00D0E77EC20F087D00001996B5A909F
:101578000BEC17F01EC0DCF01FC0DDF0B0EC13F070
:101588001EC0DEF01FC0DFF0BBEC0CF02FC0DAF09D
:1015980030C0DBF0F4EC02F02FC0D8F030C0D9F046
:1015A800020E4B1807E1170E116E82EC10F00D0EAB
:1015B80077EC20F0C8EC24F051500CE09ED8F3EC06
:1015C8001FF0DC0E056E2A0E066E87D8AAEC1FF0F7
:1015D80099D852D092D8F3EC1FF0F00E056E220E77
:1015E800066E7BD8AAEC1FF0F3D75A904F5017E03D
:1015F8008DD807E1170E116E82EC10F00D0E77EC06
:1016080020F0C8EC24F079D8F3EC1FF01E0E056E1C
:10161800170E066E62D8AAEC1FF074D815D0505079
:1016280013E074D807E1170E116E82EC10F00D0E5E
:1016380077EC20F0C8EC24F060D8F3EC1FF058D811
:101648004CD8AAEC1FF0E9D7050E596E15D0050E37
:10165800596EEFEC15F0F3EC1FF00ED05950010A5B
:1016680001E14FD7030A81E0010ABFE0070AEFE072
:10167800010A01E115D7030A5AA604D0A30E076E82
:1016880071EC27F04C5008E043A05AA405D05A94B6
:1016980021EC2AF0C9EC27F05A8600019851471826
:1016A8001AE1050E096E4450A4EC29F00009D8A4EB
:1016B8001200230E4318D8B45AA2120014D882EC90
:1016C80010F00D0E77EC20F0E0EC02F0ACEC27F017
:1016D800010E996F010C5A921200086A076A0A6A89
:1016E800140E096E140C0001996B170E116E170C6D
:1016F800BE0E056E0B0E066E1200A40E056E140EBD
:10170800066E1200050E596E5A96050C0001996B6B
:10171800020E4B1812000BD114EC2BF0530404E00A
:101728000001D651D71162E113D959EC07F034EC16
:1017380027F00C500001966F10D993EC07F069EC74
:1017480026F005C06CF006C06DF0050E0001966528
:1017580002D06C4B6D2B06D993EC07F069EC26F0A0
:101768000550061017E1010E4CEC07F0030E22ECB1
:1017780022F06CC011F056C012F057C013F00D0ED5
:1017880014EC1FF0B00E116E47EC07F0130E14ECBA
:101798001FF0AAD0010E4CEC07F0030E22EC22F049
:1017A800086A0A0E076EDED869EC26F02AEC12F0F9
:1017B80034EC27F00C5041EC07F00B0E14EC1FF042
:1017C8006CC00CF06DC00DF059EC07F034EC27F04C
:1017D8000C5041EC07F0110E14EC1FF0B00E116E16
:1017E80047EC07F0170E14EC1FF07ED0200E136E96
:1017F8001350AEEC26F0132A300E1364F9D7086A9A
:10180800640E076EAAD869EC26F02AEC12F034ECC4
:1018180027F07EEC07F0A1D869EC26F02AEC12F04C
:1018280034EC27F097EC07F093D859EC07F034EC38
:1018380027F069EC07F037E0010E4CEC07F0020ED8
:1018480022EC22F075EC07F041EC07F00B0E14ECDB
:101858001FF055EC07F041EC07F0110E14EC1FF0E7
:1018680093C111F047EC07F0170E14EC1FF06CD879
:1018780041EC07F01A0E14EC1FF095C111F082EC40
:1018880010F0200E77EC20F03D0E126EE10E116E76
:10189800400EE82EFED7112EFCD7122EFAD7080ECE
:1018A800F5EC24F021D0010E4CEC07F0020E22ECEE
:1018B80022F055EC07F041EC07F00B0E14EC1FF08A
:1018C80093C111F047EC07F0110E14EC1FF03CD84F
:1018D80041EC07F0140E14EC1FF095C111F047EC21
:1018E80007F01A0E14EC1FF05DEC07F086EC07F019
:1018F80051EC07F0AAEF1FF0050E596EC8EC24F062
:10190800EFEC15F0F3EC1FF0E5EC02F0F3EC1FF050
:10191800505006E07CEC0BF071EC0BF0AAEF1FF0D6
:101928000ED871EC0BF0AAEC1FF03BEF12F05950F7
:10193800040AE2E0010A01E1EFD6030A1200A40E4C
:10194800056E140E066E120001019451D00F12009C
:10195800D6C00CF0D7C00DF01200D6C005F0D7C025
:1019680006F012006CC005F06DC006F012001BEC0A
:1019780029F027C0B9F328C0BAF329C0BBF32AC09D
:10198800BCF30B0E0FD9D89097359B6F98359C6F89
:1019980099359D6F9A359E6F030E9F6FB9C3A0F35B
:1019A800BAC3A1F3BBC3A2F3BCC3A3F39F6701D01F
:1019B80007D0A335A333A233A133A0339F2FF6D783
:1019C80003019B51A05D056E9C51A159066E9D5166
:1019D800A259076E9E51A359086E82C009F083C0B0
:1019E8000AF0A7EC05F01EEC26F00301966701D07B
:1019F80004D07DEC05F0962FF8D705C0A9F306C0F2
:101A0800AAF307C0ABF308C0ACF30C0ECBD8040E96
:101A18009B6FB9C39CF3BAC39DF3BBC39EF3BCC30E
:101A28009FF39B6701D007D09F359F339E339D332B
:101A38009C339B2FF6D7030197519C5D056E9851F7
:101A48009D59066E99519E59076E9A519F59086E75
:101A5800000184510301A06F000185510301A16FAA
:101A6800A26BA36B040EA46FB9C3A5F3BAC3A6F304
:101A7800BBC3A7F3BCC3A8F3A46701D007D0A8359C
:101A8800A833A733A633A533A42FF6D70301A05153
:101A9800A55D096EA151A6590A6EA251A7590B6EF0
:101AA800A351A8590C6E1EEC26F00301966701D0CD
:101AB80004D07DEC05F0962FF8D705C0B5F306C025
:101AC800B6F307C0B7F308C0B8F30E0E0301966F5C
:101AD800B5C305F0B6C306F0B7C307F0B8C308F03E
:101AE80080C009F081C00AF0A7EC05F01EEC26F0D2
:101AF8000301966701D004D07DEC05F0962FF8D746
:101B080005C0ADF306C0AEF307C0AFF308C0B0F32D
:101B18000301AD51A9250001606F0301AE51AA214F
:101B28000001616F0301AF51AB210001626F030136
:101B3800B051AC210001636F60C005F061C006F0D0
:101B480062C007F063C008F0050E096E0A6A0B6AE6
:101B58000C6A1EEC26F0800E05240301966F000E19
:101B68000620976F000E0720986F000E0820996FC7
:101B780097C396F398C397F399C398F3996B98BF53
:101B8800996996C3B1F397C3B2F398C3B3F399C3F2
:101B9800B4F3B1C32FF0B2C330F0B3C331F0B4C360
:101BA80032F012000301966F000184510301976F10
:101BB800000185510301986F996B9A6B12002FD021
:101BC800C60E0E6E1B0E0F6E220E106E330E116EA9
:101BD800C7EC28F02ED0C60E0E6E1B0E0F6E53ECFF
:101BE80027F027D0392A070E396402D0010E396E42
:101BF80064EC11F0AAEC1FF048EC0AF03CEC24F07D
:101C080018D03906395002E1070E396E64EC11F02C
:101C1800AAEC1FF048EC0AF03CEC24F00AD059502A
:101C2800010ACEE0030ADEE0010AEBE0070AD3E08E
:101C3800010A5AA6ABD09E0EF66E7F0EF76E3DECEB
:101C48000AF0000E77EC20F09F0EF66E7F0EF76E0E
:101C58003DEC0AF0060E77EC20F0A00EF66E7F0E33
:101C6800F76E3DEC0AF00C0E77EC20F07FD0D10E29
:101C7800F66E7F0EF76E3DEC0AF0120E77EC20F050
:101C8800D20EF66E7F0EF76E3DEC0AF0180E77EC6A
:101C980020F07CD0EF0EF66E7F0EF76E3DEC0AF06A
:101CA800120E77EC20F0F00EF66E7F0EF76E3DEC1C
:101CB8000AF0180E77EC20F069D073D83DEC0AF0E2
:101CC800120E77EC20F068D83DEC0AF0180E77EC8D
:101CD80020F05CD0F80EF66E7F0EF76E3DEC0AF041
:101CE800120E77EC20F0F90EF66E7F0EF76E3DECD3
:101CF8000AF0180E77EC20F049D0F50EF66E7F0E3C
:101D0800F76E3DEC0AF0120E77EC20F0F60EF66E48
:101D18007F0EF76E3DEC0AF0180E77EC20F036D007
:101D2800C20EF66E7F0EF76E3DEC0AF0120E77ECDF
:101D380020F0C30EF66E7F0EF76E3DEC0AF0180E1B
:101D480077EC20F023D0CE0EF66E7F0EF76E3DECCA
:101D58000AF0120E77EC20F0CF0EF66E7F0EF76EBB
:101D68003DEC0AF0180E77EC20F010D03950010A3B
:101D7800EAE0030A01E17BD7010A8CE0070A9DE04B
:101D8800010AA8E0030AB9E0010ACAE0A30E076E37
:101D980071EC27F05A861200E10EF66E7F0EF76E90
:101DA8001200E00EF66E7F0EF76E1200030E1D6E27
:101DB800DED81E6E1F0E6FEC1DF02B6E2B501F0809
:101DC8002F6E0A0E1D6ED3D81E6E1F0E6FEC1DF0FF
:101DD8002B6E2B501F08306EA2D8030EDF6404D080
:101DE8009ED8090EDF6434D09AD8030EDE1804E1B9
:101DF8009CD8DE502F5C2CE392D8030EDE1808E145
:101E080094D82F50DE1804E1ACD8030EDF6020D040
:101E180086D80A0EDE1804E188D83050DE5C18E354
:101E28007ED80A0EDE1808E180D83050DE1804E1AA
:101E380098D8010EDF640CD072D80A0EDE180EE1B5
:101E480074D83050DE180AE18CD8170EDE1806E177
:101E58002A50D96EDA6A010EDF6E04D02A50D96E84
:101E6800DA6ADF6A2A50D96EDA6ADF50D8B412000B
:101E780078D8170EDE1848E174D8DF6A7FD8DF2AD1
:101E88007DD8080EDE1803E179D8010EDF6E6FD811
:101E98002B6E030E2B1620E042D852D808E03FD80C
:101EA800020EDE1816E141D81C0EDE1812E137D8F2
:101EB8000C0EDE1808E12950D96E3DD836D8010E2F
:101EC800DF6E2DD861D031D8010EDF6E28D8DF2A19
:101ED800050C2BD8DF2A040C22D832D812E11FD8DF
:101EE8000C0EDE1808E12950D96E25D81ED8010E2F
:101EF800DF6E15D849D019D8010EDF6E10D8DF2A49
:101F0800050C13D8DF2A040C2CD82950E16EE26A9C
:101F1800020EE126E7502B6E2B28DF6E12002950A7
:101F2800D96EDA6A050ED926050C2950D96EDA6AF7
:101F3800040ED926040CDA6A060ED926DF2A060C06
:101F4800DF502B6E2C6AE20E2B24D96E010E2C204A
:101F5800DA6E2950E16EE26A040EE126DE50E618D8
:101F680012002950D96EDA6A020ED926020C2950BD
:101F7800D96EDA6A060ED926DF5012002950D96EBA
:101F8800DA6A030ED926030C010EDF6E010C5AB86B
:101F980002D05A8846D05A9844D0960E0E6E1F0E1C
:101FA8000F6E0A0E106E340E116EC7EC28F043D077
:101FB800960E0E6E1F0E0F6E53EC27F03CD0382A8B
:101FC800170E386401D0386A64EC11F0AAEC1FF0DF
:101FD800B0D80AE0385004E1A3D815EC27F02BD08C
:101FE800A3D815EC27F027D091D815EC27F023D0EB
:101FF8003806382802E1170E386E64EC11F0AAECA6
:102008001FF097D80AE0385004E18AD815EC27F079
:1020180012D08AD815EC27F00ED078D815EC27F016
:102028000AD05950010AB9E0030AC9E0010AE0E000
:10203800070ABEE0010A5AA65BD05AA842D04B0450
:1020480020E169D839EC28F0A4EC29F000090BE06C
:1020580062D839EC28F0A4EC29F0B2EC08F0000EB4
:1020680077EC20F005D0116A49D8000E77EC20F003
:1020780065D8A4EC29F0B2EC08F0060E77EC20F055
:1020880037D049D839EC28F0A4EC29F000090BE046
:1020980042D839EC28F0A4EC29F0B2EC08F0010E93
:1020A80077EC20F005D0116A29D8010E77EC20F0E2
:1020B80045D8A4EC29F0B2EC08F0070E77EC20F034
:1020C80017D04B040BE1116A19D8000E77EC20F0F9
:1020D800116A14D8060E77EC20F00AD0116A0ED8CF
:1020E800010E77EC20F0116A09D8070E77EC20F082
:1020F800A30E076E71EC27F05A861200280E126E96
:10210800790E136EA30E146E156A120037C010F004
:10211800116A385012000A0E096E056E3850120006
:1021280037C010F0116A170C37C010F0116A380464
:102138001200050E596E0001F85112000A0E096EC0
:10214800385012005AB802D05A8863D05A9861D0D1
:102158004C0E056E210E066EF3EC1FF0960E056E02
:102168001F0E72EC20F0320E096EAAEC1FF0A8D8F0
:10217800AAEC1FF04B0413E1AED839EC28F0A4EC1C
:1021880029F0B2EC08F00D0E77EC20F0A9D8A4ECF9
:1021980029F0B2EC08F0130E77EC20F014D0F0EC34
:1021A80008F039EC28F0A4EC29F0B2EC08F0130E92
:1021B80077EC20F0F5EC08F0A4EC29F0B2EC08F08C
:1021C800190E77EC20F086EC0BF02DD04C0E0E6E2D
:1021D800210E0F6E53EC27F026D0372A3B0E3764BA
:1021E80001D0376A6DD8AAEC1FF08AEC10F015EC14
:1021F80027F0050E596E17D03706372802E13B0E37
:10220800376E5ED8AAEC1FF08AEC10F015EC27F0B8
:10221800F0D75950010A9CE0030ADFE0010AECE01C
:10222800070AD4E0010A5AA645D05AA828D04B0478
:1022380013E151D839EC28F0A4EC29F0B2EC08F0FD
:102248000D0E77EC20F04CD8A4EC29F0B2EC08F095
:10225800130E77EC20F02ED03ED839EC28F0A4EC01
:1022680029F0B2EC08F0130E77EC20F039D8A4EC82
:1022780029F0B2EC08F0190E77EC20F01BD04B04D3
:102288000DE1116A82EC10F00D0E77EC20F0116A66
:1022980082EC10F0130E77EC20F00CD0116A82EC6F
:1022A80010F0130E77EC20F0116A82EC10F0190E82
:1022B80077EC20F0A30E076E71EC27F05A86120017
:1022C800D20E056E560E066E070E086ED00E076EFD
:1022D8000A6A096AD00C0A0E096E056E3750120098
:1022E8000A0E096E37501200A9D00001DC291EE140
:1022F800DD291CE1050E4CEC07F0010E22EC22F062
:10230800450E116E47EC07F0090E14EC1FF0520E43
:10231800116E47EC07F00F0E14EC1FF0520E116E01
:1023280047EC07F0150E14EC1FF06DD0E80EDC5DDD
:10233800030EDD5938E2050E4CEC07F0010E22ECD5
:1023480022F0086A640E8AD869EC26F07FD834EC4B
:1023580027F00C5041EC07F0090E14EC1FF0086A46
:102368000A0E7CD869EC26F071D834EC27F00C50B2
:1023780041EC07F00F0E14EC1FF02E0E116E47EC17
:1023880007F0150E14EC1FF0DCC00CF0DDC00DF0EA
:1023980059EC07F034EC27F00C5041EC07F0180E1C
:1023A80014EC1FF030D0050E4CEC07F0020E22ECB6
:1023B80022F021EC1EF052D869EC26F047D834EC14
:1023C80027F00C5041EC07F00B0E14EC1FF0086AD4
:1023D800640E44D869EC26F039D834EC27F00C5058
:1023E80041EC07F0110E14EC1FF0086A0A0E36D8FB
:1023F80069EC26F02BD834EC27F00C5041EC07F0B0
:10240800170E14EC1FF05DEC07F02ED851EC07F016
:10241800AAEF1FF0050E596EC8EC24F03BEC12F041
:10242800EFEC15F0F3EC1FF0D6EC02F0F3EC1FF034
:10243800A3EC0CF071EC0BF0AAEF1FF05950040A52
:10244800E9E0010A01E151D7030A120005C00CF0C6
:1024580006C00DF00F6A0A0E0E6E0A0C076EDCC07D
:1024680005F0DDC006F01200010E086E900C14ECA9
:102478002BF0AFD0D0EC08F039EC28F0A4EC29F020
:1024880000090CE0D0EC08F039EC28F0A4EC29F0B5
:1024980041EC07F0000E14EC1FF006D0116A47EC6F
:1024A80007F0000E14EC1FF0F9EC08F0A4EC29F08A
:1024B80041EC07F0060E14EC1FF0F0EC08F039ECD4
:1024C80028F0A4EC29F041EC07F00D0E14EC1FF0F5
:1024D800F5EC08F0A4EC29F041EC07F0130E14EC2D
:1024E8001FF0ACEC21F07CD839EC28F0A4EC29F0F2
:1024F800316E31280D6E190E61EC1FF076D8A4EC00
:1025080029F0316E31280D6E1D0E61EC1FF06EEF53
:1025180027F0D0EC08F039EC28F0A4EC29F00009F9
:102528000CE0D0EC08F039EC28F0A4EC29F041ECF0
:1025380007F0010E14EC1FF006D0116A47EC07F003
:10254800010E14EC1FF0F9EC08F0A4EC29F041ECB2
:1025580007F0070E14EC1FF03A0E116E47EC07F067
:102568000D0E14EC1FF0ACEC21F0F0EC08F039EC97
:1025780028F0A4EC29F041EC07F0130E14EC1FF03E
:10258800F5EC08F0A4EC29F041EC07F0190E14EC76
:102598001FF0010E0001996F9E6BD0EC08F039EC2A
:1025A80028F0A4EC29F0416EF9EC08F0A4EC29F02D
:1025B80000019D6FF0EC08F039EC28F0A4EC29F04C
:1025C80000019C6FF5EC08F0A4EC29F000019B6F6A
:1025D80012004B50010A01E14DD7030A9AE012009C
:1025E8000A0E096E056E435012000A0E096E43501A
:1025F800120062D0FA0E0E6E250E0F6EC60E106E09
:102608001B0E116EC7EC28F061D0FA0E0E6E250E67
:102618000F6E53EC27F05AD03A2A99D81FE090D879
:102628003A50DE5C18E3020E3B181CE13A501E6E6D
:102638001F6A86D8DF50206EFF0E2024216E226A82
:10264800FF0E22221E50215C2250800A236E1F504A
:10265800800A235807E2010E3A6E04D071D83A5026
:10266800DE5CF9E364EC11F0AAEC1FF048EC0AF028
:102678003CEC24F02BD03A066AD813E03A5006E135
:10268800020E3B1803E05CD8DF5009D0020E3B185D
:102698000AE13A5008E154D8DF501E6E1E043A6E23
:1026A80002D03A50F0E064EC11F0AAEC1FF048ECCC
:1026B8000AF03CEC24F00AD05950010A9BE0030AC6
:1026C800ABE0010AD8E0070AA0E0010A5AA632D016
:1026D800AE0EF66E7F0EF76E3DEC0AF0000E77EC4C
:1026E80020F0AF0EF66E7F0EF76E3DEC0AF0060E88
:1026F80077EC20F0B00EF66E7F0EF76E3DEC0AF028
:102708000C0E77EC20F00A0E096E056E3A5039EC83
:1027180028F0A4EC29F0B2EC08F0120E77EC20F0C7
:102728000A0E096E3A50A4EC29F0B2EC08F0180E23
:1027380077EC20F0A30E076E71EC27F05A86120092
:10274800E20E3B24D96EDA6A010EDA2212003CC08E
:102758001EF0030E1E16030CF30E00018BEC17F08F
:1027680091EC29F0020E216ED40E206E850EE82E13
:10277800FED7202EFCD7212EFAD70000E40E71D800
:10278800F5EC20F00001E451206EE551236E20C0E5
:1027980024F0232805E1242803E11E681F6812009D
:1027A80023C005F024C006F0076A086AA40E096E63
:1027B800440ED1EC05F01EEC26F005C026F006C04C
:1027C80027F007C028F008C029F028C026F029C043
:1027D80027F0286A296AB30E2626ED0E2722FF0E57
:1027E8002822292226C011F027C012F028C013F091
:1027F80029C014F03DD8E7EC21F01150226E26C014
:1028080005F027C006F028C007F029C008F036D820
:10281800DBEC23F00550256E050E25241AD870EC44
:1028280021F005500A0DF3CF25F02250640DF3CFA7
:1028380020F0F4CF21F025502024056E000E212031
:10284800066E22D870EC21F005C01EF006C01FF0FD
:102858001200056E066A000E0622086A0A0E076E46
:102868000A0C086E800E096E030E0A6E0B6A030CC2
:10287800640E156E166A176A186A640C640E096E7F
:102888000A6A0B6A0C6A640C086A0A0E076E0A0C5C
:102898004AD0980E0E6E280E0F6EA40E106E140EEF
:1028A800116EC7EC28F0EFEC15F0F3EC1FF045D0F3
:1028B800980E0E6E280E0F6E53EC27F03ED0030EC6
:1028C800596E3BD05450010ED8A4000E546E64ECDF
:1028D80011F0AAEC1FF0050E596E54C005F00C0E4D
:1028E800EDEC29F054501DE0AB9E949C949E829E82
:1028F800829C9C0E1E6ED70EE82EFED71E2EFCD78D
:1029080000008D80070E1F6E170E1E6E6A0EE82ED1
:10291800FED71E2EFCD71F2EFAD700D043EC29F085
:102928000CD08D900AD05950010AB3E0030AC7E0D1
:10293800010AC8E0070ABCE0010A5AA635D0870E8A
:10294800F66E7F0EF76E3DEC0AF0000E77EC20F085
:10295800880EF66E7F0EF76E3DEC0AF0060E77ECE9
:1029680020F0890EF66E7F0EF76E3DEC0AF00C0E25
:1029780077EC20F08A0EF66E7F0EF76E3DEC0AF0CB
:10298800120E77EC20F0545008E02B0E116E82ECFA
:1029980010F0180E77EC20F007D02D0E116E82EC97
:1029A80010F0180E77EC20F0A30E076E71EC27F0EC
:1029B8005A86120032D04C5006E088D813EC19F031
:1029C800C7EC28F034D082D80F6E380E106E310E56
:1029D800116EC7EC28F0030EEEEC2AF04D6E19ECE0
:1029E80019F040EC2AF023D0BC0E0E6E290E0F6EA3
:1029F80053EC27F01CD05FD864EC11F0AAEC1FF060
:102A080060D8EDEC29F013D056D864EC11F0AAEC9C
:102A18001FF057D8EDEC29F00AD05950010ACBE045
:102A2800030AE9E0010AF0E0070ADEE0010A5AA613
:102A38003CD009EC19F03DEC0AF0000E77EC20F0E0
:102A480004EC19F03DEC0AF0060E77EC20F0FFECF0
:102A580018F03DEC0AF00C0E77EC20F04C5013E027
:102A6800C50EF66E7F0EF76E3DEC0AF0120E77EC8F
:102A780020F0C60EF66E7F0EF76E3DEC0AF0180ECB
:102A880077EC20F012D0EC0EF66E7F0EF76E3DEC70
:102A98000AF0120E77EC20F0ED0EF66E7F0EF76E50
:102AA8003DEC0AF0180E77EC20F0A30E076E71ECDF
:102AB80027F05A8612004C50010ED8A4000E4C6E16
:102AC8001200050E596E4CC005F0020CBC0E0E6EBD
:102AD800290E120079D00001D851D9112EE0D8C0A2
:102AE8001EF0D9C01FF0CAEC1DF0A9EC23F0200E8F
:102AF800216E2150AEEC26F0212A300E2164F9D740
:102B0800D8C00CF0D9C00DF059EC07F034EC27F020
:102B18000C50B2EC08F0200E77EC20F03D0E206E41
:102B2800E10E1F6E400EE82EFED71F2EFCD7202E7A
:102B3800FAD7080EF5EC24F01DD014EC2BF0040E97
:102B48004CEC07F0030E22EC22F0450E116E47EC18
:102B580007F00B0E14EC1FF0520E116E47EC07F045
:102B6800110E14EC1FF0520E116E47EC07F0170E01
:102B780014EC1FF05DEC07F038EC12F051EC07F0A4
:102B8800AAEF1FF0050E596E55500CE0C8EC24F062
:102B980022D8F3EC1FF024D8F3EC1FF0F00E056EEA
:102BA800220E0DD0C8EC24F03BEC12F014D8F3EC54
:102BB8001FF016D8F3EC1FF0A40E056E140E066E67
:102BC80071EC0BF0AAEF1FF05950040ADBE0010A80
:102BD80082E0030A1200D20E056E560E066E12002F
:102BE800DC0E056E2A0E066E1200A4EC25F00C0E03
:102BF800EEEC2AF0546E54B002D08D9001D08D8046
:102C0800070E186E170E176E6A0EE82EFED7172ECF
:102C1800FCD7182EFAD700D0C2EC2AF06CEC28F0BA
:102C28006BEC2AF066EC2BF09BEC28F007EC29F013
:102C380002EC2BF043EC29F0C6EC1BF086EC2AF0F2
:102C4800000EEEEC2AF04A6E010EEEEC2AF04B6E06
:102C58004B0403E10001996B02D0C8EC02F0020EAC
:102C6800EEEC2AF04C6E030EEEEC2AF04D6E19ECE9
:102C780019F040EC2AF0F8EC25F063EC2BF025EC89
:102C88002BF097EC24F0C6EC1EF0120E056E000E29
:102C9800066E086A280E076E2DD8AAEC1FF0580E8B
:102CA800056E430E066E086A500E076E23D8AAEC0E
:102CB8001FF0040EEEEC2AF04E6E050EEEEC2AF034
:102CC8004F6E060EEEEC2AF0506E070EEEEC2AF070
:102CD800516E080EEEEC2AF0526E090EEEEC2AF058
:102CE800536E0A0EEEEC2AF0556E066A030E056E58
:102CF8005DEF2AF00A6A140E096E140C0001925155
:102D08001AE0926B0201FC6B11D0FC5160D8DE50C6
:102D1800DE1006E1FC5163D8010EDE6EDD6A05D0D7
:102D2800FC5155D8DE06000EDD5AFC2B00019351EC
:102D38000201FC5DEAE30201FD6B43D0FD514FD86F
:102D4800DE04DE103CE1FD5152D8DECFFAF2DDCFD1
:102D5800FBF2FD5154D8DE50DE1009E1FD5147D891
:102D6800DECF05F0DDCF06F0F3EC1FF01BD0FD51F0
:102D780036D8DE6ADD6AFD512AD8DE50DE1012E14F
:102D8800FD513DD8DECF31F0DDCF32F0FF0E3124DA
:102D9800336EFF0E3220346EFD5119D833C0DEFF7A
:102DA80034C0DDFF01D80BD005000201FA6EFA51DC
:102DB800FD6EFB51FE6EF850FF6EFA5012000201D4
:102DC800FD2B000193510201FD5DB8E31200080DCF
:102DD800020EF324D96E010EF420DA6E1200080DEB
:102DE800060EF324D96E010EF420DA6E1200080DD7
:102DF800000EF324D96E010EF420DA6E1200080DCD
:102E0800040EF324D96E010EF420DA6E1200F50ECA
:102E18007ED891EC29F0020E216ED40E206E850E1C
:102E2800E82EFED7202EFCD7212EFAD70000E40E7C
:102E380035EC14F0F5EC20F00001E451206EE5517A
:102E4800236E20C024F0232805E1242803E11E680E
:102E58001F68120023C005F024C006F0076A086A3C
:102E6800D40E096E300ED1EC05F01EEC26F005C02C
:102E780026F006C027F007C028F008C029F028C0AF
:102E880026F029C027F0286A296AA80E2626FD0EF2
:102E98002722FF0E2822292226C011F027C012F06F
:102EA80028C013F029C014F03CEC14F0E7EC21F032
:102EB8001150226E26C005F027C006F028C007F082
:102EC80029C008F042EC14F0DBEC23F00550256E25
:102ED800050E25242DEC14F070EC21F005500A0D98
:102EE800F3CF25F02250640DF3CF20F0F4CF21F07A
:102EF80025502024056E000E2120066E48EC14F0A3
:102F080070EC21F005C01EF006C01FF01200E46F3F
:102F1800E40E076E800E086E010E096E010C060E97
:102F2800F66E790EF76E20EE12F00F0E6BEC21F0B4
:102F3800FDE20C50D96EDA6A2B0EDF6E6CD08FEC86
:102F480027F00009D8A41200CC0EE6EC27F0440EB6
:102F5800E6EC27F00E50D96EDA6ADF6A0D50D96EAA
:102F6800DA6A020EDF6ECD80020C8FEC27F0CC0EF1
:102F7800E6EC27F0BE0EE6EC27F0236A880E232441
:102F8800D96EDA6A010EDA22F5EC26F0DF6E232A12
:102F9800010E2364F3D7010189510F6E8851246E05
:102FA8000FC025F025AE09D0246C251ED8B0252ADF
:102FB8000C50D96EDA6A2D0EDF6E24500F0B226E7C
:102FC8002250120FD96EDA6ADF50226E24C00FF039
:102FD80025C010F0040E116ED89010320F32112E49
:102FE800FBD70FC024F010C025F024500A0DF3CFF2
:102FF80024F0F4CF25F022502426000E25220B5071
:10300800D96EDA6A24C0DEFF25C0DDFF0D50D96E07
:10301800DA6ADF6A12000D50D96EDA6ADF508FE083
:10302800010AA3E0030A120039D0300E0E6E300EEA
:103038000F6E880E106E4C0E116EC7EC28F0EFEC78
:1030480015F0F3EC1FF054500DE1EF0E056E010E74
:10305800066E5A0E076E7F0E086E0A6A100E096E0B
:10306800B3EC26F0A26BA16B23D0300E0E6E300E9F
:103078000F6E53EC27F01CD05550010ED8A4000E4B
:10308800556E64EC11F0AAEC1FF0050E596E4DD880
:10309800EDEC29F00DD0020E596E0AD05950010AF4
:1030A800C4E0030AE9E0010AF6E0070ADEE0010AE3
:1030B8005AA635D08C0EF66E7F0EF76E3DEC0AF0F0
:1030C800000E77EC20F08D0EF66E7F0EF76E3DEC5D
:1030D8000AF0060E77EC20F08E0EF66E7F0EF76E75
:1030E8003DEC0AF00C0E77EC20F08F0EF66E7F0E9A
:1030F800F76E3DEC0AF0120E77EC20F0555008E020
:103108002B0E116E82EC10F0180E77EC20F007D021
:103118002D0E116E82EC10F0180E77EC20F0A30E35
:10312800076E71EC27F05A86120055C005F00A0C9C
:103138002ED0380E0E6E310E72D8C7EC28F031D072
:10314800380E0E6E310E0F6E53EC27F02AD04D2A32
:10315800070E4D6401D04D6A64EC11F0AAEC1FF023
:1031680059D8EDEC29F061D840EC2AF01AD04D0678
:103178004D2802E1070E4D6E64EC11F0AAEC1FF029
:1031880049D8EDEC29F051D840EC2AF00AD0595032
:10319800010ACFE0030ADBE0010AE9E0070AD0E010
:1031A800010A5AA622D031D83DEC0AF0000E77EC7D
:1031B80020F026D83DEC0AF0060E77EC20F01BD85C
:1031C8003DEC0AF00C0E77EC20F00A0E096E4D501B
:1031D800A4EC29F0B2EC08F0120E77EC20F0116A9A
:1031E80082EC10F0180E77EC20F0A30E076E71EC4D
:1031F80027F05A861200B40EF66E7F0EF76E120094
:10320800B30EF66E7F0EF76E1200B20EF66E7F0EDC
:10321800F76E1200050E596E4DC005F0030C0F6EC7
:10322800AE0E106E360E116E12004DC007F00A0C6D
:103238002DD0380E0E6E320E0F6E300E106E300E10
:10324800116EC7EC28F02CD0380E0E6E320E0F6EB1
:1032580053EC27F025D0532A030E531802E1010E30
:10326800536E64EC11F0AAEC1FF052D8EDEC29F083
:1032780017D05306535002E1020E536E64EC11F05E
:10328800AAEC1FF045D8EDEC29F00AD05950010AF4
:10329800D0E0030AE0E0010AECE0070AD5E0010A01
:1032A8005AA630D0820EF66E7F0EF76E3DEC0AF00D
:1032B800000E77EC20F0830EF66E7F0EF76E3DEC75
:1032C8000AF0060E77EC20F0840EF66E7F0EF76E8D
:1032D8003DEC0AF00C0E77EC20F0850EF66E7F0EB2
:1032E800F76E3DEC0AF0120E77EC20F053C011F0A7
:1032F80056C012F057C013F0A30E146E156A180EBC
:1033080077EC20F0A30E076E71EC27F05A861200B6
:10331800050E596E53C005F0090C33D0220E0E6EFF
:10332800330E0F6EF00E106E340E116EC7EC28F0CF
:1033380032D0220E0E6E330E0F6E53EC27F02BD0C8
:103348004A2A050E4A6402D0010E4A6E64EC11F056
:10335800AAEC1FF0050E596E51D8EDEC29F0F8ECE7
:1033680025F019D04A064A5002E1050E4A6E64EC6F
:1033780011F0AAEC1FF0050E596E40D8EDEC29F0BB
:10338800EED75950010ACAE0030ADAE0010AEAE076
:10339800070ACFE0010A5AA62BD0A60EF66E7F0EBA
:1033A800F76E3DEC0AF0000E77EC20F0A70EF66EF3
:1033B8007F0EF76E3DEC0AF0060E77EC20F0A80EB3
:1033C800F66E7F0EF76E3DEC0AF00C0E77EC20F0EF
:1033D8000A0E096E4A50A4EC29F0B2EC08F0120E5D
:1033E80077EC20F0116A82EC10F0180E77EC20F0E0
:1033F800A30E076E71EC27F05A8612004AC005F03A
:10340800000C2ED00A0E0E6E340E0F6EFA0E106ED1
:10341800110E116EC7EC28F02DD00A0E0E6E340E68
:103428000F6E53EC27F026D03C2A630E3C6401D083
:103438003C6A64EC11F0AAEC1FF048EC0AF03CEC92
:1034480024F018D03C063C2802E1630E3C6E64EC84
:1034580011F0AAEC1FF048EC0AF03CEC24F00AD07A
:103468005950010ACFE0030ADFE0010AEBE0070A3E
:10347800D4E0010A5AA632D09A0EF66E7F0EF76E85
:103488003DEC0AF0000E77EC20F09B0EF66E7F0EF6
:10349800F76E3DEC0AF0060E77EC20F09C0EF66E07
:1034A8007F0EF76E3DEC0AF00C0E77EC20F00A0E5A
:1034B800096E056E3C5039EC28F0A4EC29F0B2EC0A
:1034C80008F0120E77EC20F00A0E096E3C50A4ECBE
:1034D80029F0B2EC08F0180E77EC20F0A30E076E76
:1034E80071EC27F05A8612002DD0F00E0E6E340EB5
:1034F8000F6EBC0E106E290E116EC7EC28F02CD082
:10350800F00E0E6E340E0F6E53EC27F025D04B2ABA
:10351800020E4B6402D0010E4B6E64EC11F0AAEC63
:103528001FF04DD8EDEC29F017D04B064B5002E1B7
:10353800020E4B6E64EC11F0AAEC1FF040D8EDECD3
:1035480029F00AD05950010AD0E0030AE0E0010A44
:10355800ECE0070AD5E0010A5AA62BD0A20EF66EB7
:103568007F0EF76E3DEC0AF0000E77EC20F0A30E0C
:10357800F66E7F0EF76E3DEC0AF0060E77EC20F043
:10358800A40EF66E7F0EF76E3DEC0AF00C0E77EC8B
:1035980020F00A0E096E4B50A4EC29F0B2EC08F0AA
:1035A800120E77EC20F0116A82EC10F0180E77EC0E
:1035B80020F0A30E076E71EC27F05A861200050E54
:1035C800596E4BC005F0010C24D0D00E0E6E350E8E
:1035D8000F6E380E106E320E116EC7EC28F023D025
:1035E800D00E0E6E350E0F6E53EC27F01CD05250D5
:1035F800010ED8A4000E526E64EC11F0AAEC1FF074
:10360800050E596E4DD8EDEC29F00DD0020E596E0D
:103618000AD05950010AD9E0030AE9E0010AF6E0A4
:10362800070ADEE0010A5AA635D0910EF66E7F0E23
:10363800F76E3DEC0AF0000E77EC20F0920EF66E75
:103648007F0EF76E3DEC0AF0060E77EC20F0930E35
:10365800F66E7F0EF76E3DEC0AF00C0E77EC20F05C
:10366800940EF66E7F0EF76E3DEC0AF0120E77ECB4
:1036780020F0525008E02B0E116E82EC10F0180E5C
:1036880077EC20F007D02D0E116E82EC10F0180E9A
:1036980077EC20F0A30E076E71EC27F05A86120023
:1036A80052C005F0080C2CD0AE0E0E6E360E0F6E02
:1036B8000A0E106E3A0E116EC7EC28F02BD0AE0E23
:1036C8000E6E360E0F6E53EC27F024D04E2A010EE4
:1036D8004E6401D04E6A64EC11F0AAEC1FF04DD88C
:1036E800EDEC29F017D04E064E2802E1010E4E6E81
:1036F80064EC11F0AAEC1FF040D8EDEC29F00AD0E8
:103708005950010AD1E0030AE1E0010AECE0070A96
:10371800D6E0010A5AA62BD0960EF66E7F0EF76EEB
:103728003DEC0AF0000E77EC20F0970EF66E7F0E57
:10373800F76E3DEC0AF0060E77EC20F0980EF66E68
:103748007F0EF76E3DEC0AF00C0E77EC20F00A0EB7
:10375800096E4E50A4EC29F0B2EC08F0120E77EC8A
:1037680020F0116A82EC10F0180E77EC20F0A30E0E
:10377800076E71EC27F05A861200050E596E4EC07E
:1037880005F0040C880EC9EC29F012C084F013C0AF
:1037980085F08A0EC9EC29F012C082F013C083F0BC
:1037A8008C0EC9EC29F012C080F013C081F08E0E87
:1037B800C9EC29F012C0F6F013C0F7F0900EC9EC6E
:1037C80029F012C07EF013C07FF0920EC9EC29F0E8
:1037D80012C07CF013C07DF0940EC9EC29F012C021
:1037E8007AF013C07BF0960EC9EC29F012C078F07D
:1037F80013C079F0980EC9EC29F012C076F013C006
:1038080077F09A0EC9EC29F012C074F013C075F065
:103818009C0EC9EC29F012C072F013C073F09E0E12
:10382800C9EC29F012C070F013C071F0F50EE46F06
:10383800CC0E0FD80AD891EC29F0F40E0001E46FF1
:10384800B70E07D802D891EF29F0086E020E096E5C
:10385800020CE56FE40E076EEC0C25D0620E0E6EBE
:10386800380E0F6ED00E106E350E116EC7EC28F0A4
:1038780024D0620E0E6E380E0F6E53EC27F01DD05A
:103888005150010ED8A4000E516E64EC11F0AAEC50
:103898001FF0050E596EF1EC02F0EDEC29F00DD099
:1038A800020E596E0AD05950010AD8E0030AE8E01E
:1038B800010AF6E0070ADDE0010A5AA632D0B60E80
:1038C800F66E7F0EF76E3DEC0AF0000E77EC20F0F6
:1038D800B70EF66E7F0EF76E3DEC0AF0060E77EC2B
:1038E80020F0B80EF66E7F0EF76E3DEC0AF00C0E67
:1038F80077EC20F0515008E02B0E116E82EC10F09E
:10390800120E77EC20F007D02D0E116E82EC10F01D
:10391800120E77EC20F0116A82EC10F0180E77EC9A
:1039280020F0A30E076E71EC27F05A86120025D0FE
:10393800360E0E6E390E0F6E620E106E380E116E48
:10394800C7EC28F024D0360E0E6E390E0F6E53ECED
:1039580027F01DD05050010ED8A4000E506E64EC14
:1039680011F0AAEC1FF0050E596EEEEC02F0EDEC2A
:1039780029F00DD0020E596E0AD05950010AD8E02C
:10398800030AE8E0010AF6E0070ADDE0010A5AA6A0
:1039980032D0BE0EF66E7F0EF76E3DEC0AF0000ECA
:1039A80077EC20F0BF0EF66E7F0EF76E3DEC0AF056
:1039B800060E77EC20F0C00EF66E7F0EF76E3DEC2B
:1039C8000AF00C0E77EC20F0505008E02B0E116E28
:1039D80082EC10F0120E77EC20F007D02D0E116E4D
:1039E80082EC10F0120E77EC20F0116A82EC10F0E5
:1039F800180E77EC20F0A30E076E71EC27F05A86AC
:103A0800120025D00A0E0E6E3A0E0F6E360E106E8C
:103A1800390E116EC7EC28F024D00A0E0E6E3A0E3D
:103A28000F6E53EC27F01DD04F50010ED8A4000E96
:103A38004F6E64EC11F0AAEC1FF0050E596E4FC0E2
:103A480005F0EDEC29F00DD0020E596E0AD0595050
:103A5800010AD8E0030AE8E0010AF6E0070ADDE017
:103A6800010A5AA632D0BA0EF66E7F0EF76E3DECFA
:103A78000AF0000E77EC20F0BB0EF66E7F0EF76EA4
:103A88003DEC0AF0060E77EC20F0BC0EF66E7F0EC9
:103A9800F76E3DEC0AF00C0E77EC20F04F5008E082
:103AA8002B0E116E82EC10F0120E77EC20F007D07E
:103AB8002D0E116E82EC10F0120E77EC20F0116AC8
:103AC80082EC10F0180E77EC20F0A30E076E71EC64
:103AD80027F05A861200256E1D500E08056E000E3E
:103AE800D8A0E82A0008066E086A0C0E076E70EC6B
:103AF80021F00550276E27501E5C286E27500C0DAC
:103B0800F3501D24FE0F266E010E086E900E076EF0
:103B180028C005F0066A70EC21F0285025C01FF077
:103B2800206A1F26000E20222840E8423F0B1F264D
:103B3800000E202205501F24216E06502020226EE0
:103B4800086A0C0E076E26501F0DF3CF05F0F4CF50
:103B580006F070EC21F005502124236E0650222037
:103B6800246E640E056E285039EC28F0235E000E92
:103B7800245A580E2324176E1B0E2420186E1A6A16
:103B8800070E196E75EC23F017501200206AC30E49
:103B98002024D6EC23F0DF6A202A200E2064F7D7F1
:103BA800040E0C6EC30E0D6E010E0E6E030E22EC8B
:103BB80022F043D83CD869EC26F02AEC12F034EC19
:103BC80027F02AD80B0E77EC20F0086A640E2FD85D
:103BD80069EC26F02AEC12F034EC27F01DD8110E0F
:103BE80077EC20F0086A0A0E22D869EC26F02AEC55
:103BF80012F034EC27F010D8170E77EC20F02E0EC8
:103C0800116E280E126E790E136EC30E146E010E0D
:103C1800156E1D0E77EF20F00C50116E56C012F085
:103C280057C013F0C30E146E010E156E1200076E06
:103C38001EC005F01FC006F01200030E086EE80C47
:103C4800266E26C0E4F046D8030E49D8F5EC20F0DD
:103C5800E5C016F0176A186A196A18C019F017C073
:103C680018F016C017F0166AE4C01AF01B6A1C6A2E
:103C78001D6A1BC01DF01AC01CF01B6A1A6A165078
:103C88001A241E6E17501B201F6E18501C20206E01
:103C980019501D20216E0001E6511E24226E000ECF
:103CA8001F20236E000E2020246E000E2120256E7A
:103CB800050E05D0D8902532243223322232E82E40
:103CC800F9D722C012F023C013F024C014F025C085
:103CD80015F01200E40E086EEC0E096EEC0C0A6E7C
:103CE800010E0B6E010C9E0EF66E540EF76E000E52
:103CF800F86E01EEE3F010EE1CF00900F5CFEEFFD0
:103D0800E550E150FAE1D80EF66E560EF76E000E49
:103D1800F86E0900F5CFFCF03A0EF66E560EF76E07
:103D2800000EF86E00EE4AF010EE10F00900F5CF24
:103D3800EEFFE550E150FAE103EE00F0960EEE6A70
:103D4800E806FDE102EE00F0FA0EEE6AE806FDE193
:103D580001EE00F0E30EEE6AE806FDE100EE60F029
:103D68009C0EEE6AE806FDE15A6A00EE36F0140E83
:103D7800EE6AE806FDE15B905B92000EF86E0001CA
:103D880036EF20F00F6E8B848B920EC089F03C0EBC
:103D98000C6E7F0E0D6E31EC2AF0370E0C6E7F0E16
:103DA8000D6E0BEC2BF00FC007F0050ECDEC2AF0D2
:103DB800076A110ECDEC2AF00EC007F0120ECDECFA
:103DC8002AF0076A130ECDEC2AF0076A140ECDEC20
:103DD8002AF0076A150ECDEC2AF0076A160ECDEC0C
:103DE8002AF0260E076E060ECDEC2AF0080E076E96
:103DF800000ECDEC2AF0030E076E010ECDEC2AF072
:103E0800030E076E020ECDEC2AF04F0E076E040E5D
:103E1800CDEC2AF0076A1C0ECDEC2AF053EF28F0FF
:103E28001B6E1D6A1E6A1E50A30F1B24D96EDA6A08
:103E38001D500708146E1150050DF3CF15F0F4CF7F
:103E480016F015501224176E16501320186E1E50B7
:103E58001726000E182217C0F6FF18C0F7FF080033
:103E6800F5CF19F0142A02D0D8901932142EFCD7A5
:103E78001E50A30F1B24E16EE26AE7501A6ED89019
:103E88001A341910DF6E1E2A040E1E64CCD71C6A61
:103E9800100E146E940EE82EFED7142EFCD700D008
:103EA8001C2A220E1C64F4D7A30E076E71EC27F0AF
:103EB8001D2A070E1D64B6D7070C136E156A166AFD
:103EC8001650A30F1324D96EDA6A155007080E6E20
:103ED8000D50030DE50EF3240F6E780EF420106ECE
:103EE80016500F26000E10220FC0F6FF10C0F7FF65
:103EF8000800F5CF11F00E2A02D0D89011320E2EFC
:103F0800FCD71650A30F1324E16EE26AE750126E35
:103F1800D89012341110DF6E162A020E1664D0D70C
:103F2800146A100E0E6E940EE82EFED70E2EFCD7D5
:103F380000D0142A220E1464F4D7A30E076E71EC75
:103F480027F0152A070E1564BAD7070C0550061076
:103F580001E112000D6A1AD00D50FBEC16F0055065
:103F6800DE1813E10650DE1810E1F29E0D50EBEC5E
:103F780016F030D80D5003EC17F027D80D50F3EC9D
:103F880016F0DE6ADD6AF28E12000D2A00019351E6
:103F98000D5CE2E30F0E93610F0CF29E9351FBEC64
:103FA80016F005C0DEFF06C0DDFF9351EBEC16F0FE
:103FB80011D8935103EC17F008D89351F3EC16F08D
:103FC800DE6ADD6A932BF28E120009C0DEFF0AC09A
:103FD800DDFF120007C0DEFF08C0DDFF12000B6A1C
:103FE8003CD00B50FBEC16F00550DE1835E10650BE
:103FF800DE1832E1F29E0B50076E086AFF0E932519
:10400800096E0A6AFF0E0A220750091803E10850D0
:104018000A181FE09351076E086AD89007360836C9
:10402800D89007360836D89007360836F80E072491
:10403800D96E000E0820DA6E0B50080D000EF3241E
:10404800E16E010EF420E26E070EDBCFE3FFE80617
:10405800FCE29307F28E12000B2A000193510B5CCD
:10406800C0E312009C0E356ED70EE82EFED7352E13
:10407800FCD70000F9EC15F014EC2BF0F29EA3EC41
:104088000CF0086A640E076E7EEC16F0AAEC1FF0BE
:10409800D80E056E480E066E086A960E076E0A6AF6
:1040A800040E096EAAEC1FF0180E056E480E16D8FD
:1040B800010E096EAAEC1FF09C0E056E4B0E066EE3
:1040C8000F0E086EA00E076E070E0A6ED00E096E50
:1040D800AAEC1FF0F28E82EC16F0FDD7066E086A85
:1040E800076A0A6A12001B6E010E1A6E1D6A1C6AA4
:1040F8001150050DF3CF16F0F4CF17F01650122417
:10410800186E17501320196E1D501826000E19220C
:1041180018C0F6FF19C0F7FF0800F5501A140BE095
:104128001CC005F014C006F015C007F01B501D2474
:1041380057EC29F00AD01CC005F014C006F015C0D1
:1041480007F01B501D24B1EC28F0D8901A361C2A11
:10415800070E1C64CDD7010E1A6E1D2A040E1D64AD
:10416800C6D7040C0600D9CF03F0DACF04F0F2BAB0
:10417800F2A403D03DEC2BF02ED0F0B8F0A20FD073
:10418800F092010EF1A8000EFF0A026E023AF150F9
:104198000218EF0B0218F16ED2EC22F01CD09DB081
:1041A8009EA008D09E90150ECF6EA00ECE6EF8EC95
:1041B8002AF011D0A0B2A1A208D0A192F00EB36E3D
:1041C800600EB26E5DEC22F006D0F2BC9DAA03D060
:1041D8009EBA02EC28F004C0DAFF03C0D9FF5B9254
:1041E80011005BEC2BF00B5009E009504CEC2BF064
:1041F80008502CD84CEC2BF05FEC2BF0095001093F
:104208004CEC2BF0116A1DD0FF0E0A240C6E0D6ABF
:10421800FF0E0D2211500E6E0F6A0C500E5C0F50DF
:10422800800A106E0D50800A105805E213D8010E4E
:10423800DBEC29F004D00ED8000EDBEC29F0DF6EA1
:10424800112A0A50115CE0E357EF2BF0D96EDA6AB5
:10425800DF50120008501124D96EDA6A1200156A6C
:10426800200EF66E790EF76E20EE0CF0070E2FD8A2
:10427800FEE2176A166A17500C0F1524D96EDA6A0F
:10428800DF500B6E1650A30FD96EDA6A0B50DF168B
:10429800152A070E156401D0156A162A1F0E166412
:1042A800EAD7A30E076E71EC27F0146A100E0B6E96
:1042B800940EE82EFED70B2EFCD700D0142A630EDE
:1042C8001464F4D7172A070E1764D4D7070C09000B
:1042D800F5CFDEFFE80612000A6A08AE06D0076CC2
:1042E800081ED8B0082A010E0A6E06AE06D0056C64
:1042F800061ED8B0062A010E0A1A0B6A0C6A075065
:1043080008101BE0010E096E04D0D8900736083655
:10431800092A08AEFAD7D8900B360C360750055C38
:104328000850065805E30750055E0850065A0B80EA
:10433800D89008320732092EEED70A5004E00B6CE9
:104348000C1ED8B00C2A0BC005F00CC006F01200E9
:1043580043C09AF0450E126E440E136E430E146E4F
:1043680079EC25F0460E126E470E136E480E146E49
:10437800490E156E0AEC23F000019A51431801E02A
:104388005A84030E431802E1010EFC6F525007E0F5
:10439800430E296EF80E2A6EDAEC0EF001D0F86B97
:1043A800060E4564060C180E4560180C4450D8A437
:1043B80012004350D8A412000001FC51D8B41200D6
:1043C800010EA06F010C196A1A6A1B6A1C6A155043
:1043D80016101710181029E0010E1D6E06D0D8907F
:1043E80015361636173618361D2A18AEF8D7D8904F
:1043F80019361A361B361C361550115C16501258D1
:10440800175013581850145809E31550115E1650D8
:10441800125A1750135A1850145A1980D890183233
:104428001732163215321D2EE2D719C011F01AC0F4
:1044380012F01BC013F01CC014F01200126E010E13
:10444800116E146A136A0C50080DA50EF3240F6E32
:10445800780EF420106E14500F26000E10220FC094
:10446800F6FF10C0F7FF0800F55011140BE013C059
:1044780005F00DC006F00EC007F01250142457ECDA
:1044880029F00AD013C005F00DC006F00EC007F0E1
:1044980012501424B1EC28F0D8901136132A070EC4
:1044A8001364D1D7010E116E142A060E1464CAD7EC
:1044B800060C00018B5109E0882B1E0E886102D082
:1044C8008C8E03D0886B8B6B8C9E4E50D8B41200A8
:1044D800A051D8B41200FC6B86510AE1872B140E48
:1044E800876102D08C8E04D0876B010E866F8C9EFC
:1044F800860502E1644B652B2D0E645D010E65593E
:1045080004E3646B656B020E866F020E8619D8A4ED
:104518001200872B140E876102D08C8E140C876BC7
:10452800866BA06B8C9E1200096A0950A40FD96E85
:10453800DA6A0950D0EC23F0092A1E0E0964F5D76F
:10454800040E0001A1650DD021D807E1A12B1F0E93
:10455800A165010CA26BA16B000CC26BA16BA22B15
:10456800010C14D8050D280EF324076E790EF420DB
:10457800086EA1510726000E082207C0F6FF08C0E2
:10458800F7FF0800F5CFC2F0A12B010CA2510524BA
:10459800D96E000E0620DA6EDF5012000001995124
:1045A800D8B412009E2B080E9E191BE19E6B19D0E1
:1045B800360EB26FB36F360C240E24D0240EB26FB1
:1045C800B36F240C240EB26FB36B1200B26BB36BD3
:1045D8001200120EF8D7120EB26FB36F120C120E31
:1045E80011D09E51E5E0010AE7E0030AE7E0010A7D
:1045F800E9E0070AEBE0010AECE0030AECE0010A53
:10460800EEE01200B26F360EB36F360C060E26D8E7
:10461800F5EC20F015502CD8E3EC2AF0DF6E050EEF
:104628001DD8F5EC20F0145023D81F0BE3EC2AF02A
:10463800DF6E040E13D8F5EC20F0135019D83F0B99
:10464800E3EC2AF0DF6E030E09D8F5EC20F01250E7
:104658000FD8070BE3EC2AF0DF6E12000001E46FBD
:10466800E40E086ED00E096E010E0A6E0B6E010C78
:10467800D96EDA6A0001E4511200EEC005F0EFC00D
:1046880006F0F0C007F0F1C008F02D0E096E7F0E9D
:104698000A6E950E0B6E4C0E0C6E1EEC26F005285D
:1046A8000001EE6F000E0620EF6F000E0720F06F7E
:1046B800000E0820F16FEEC013F0EFC014F0F0C048
:1046C80015F0F1C016F0120E05D0D890163215323A
:1046D80014321332E82EF9D713C011F014C012F0B7
:1046E80012001C6A18AE06D0176C181ED8B0182A0B
:1046F800010E1C6E1AAE04D0196C1A1ED8B01A2AF4
:1047080019501A1017E0010E1B6E04D0D8901936F4
:104718001A361B2A1AAEFAD71950175C1A501858AD
:1047280004E31950175E1A50185AD8901A321932E1
:104738001B2EF2D71C5004E0176C181ED8B0182A8C
:1047480017C017F018C018F01200100E0E6E0F0EDA
:104758000F6E0C6AC30E0E2425D80E501DD80E2AD3
:10476800C30E0F241FD80F5017D80F06A30E076EBD
:1047780071EC27F00D6A100E0B6E940EE82EFED722
:104788000B2EFCD700D00D2A1D0E0D64F4D70C2A71
:104798000F0E0C64DFD70F0CA30FE16EE26ADFCFB8
:1047A800E7FF1200D96EDA6A010EDA221200095008
:1047B8000A100B100C1023E0010E0D6E06D0D890D5
:1047C80009360A360B360C360D2A0CAEF8D70950C6
:1047D800055C0A5006580B5007580C50085808E357
:1047E8000950055E0A50065A0B50075A0C50085AD1
:1047F800D8900C320B320A3209320D2EE8D705C098
:1048080005F006C006F007C007F008C008F012005F
:1048180081BC02D0010E0BD081BE02D0020E07D09F
:1048280081B602D0030E03D081B803D0040E056E02
:1048380001D0056A055013E02D0E0001665D010EDA
:10484800675905E3010E676F180E666F0CD0664B4B
:10485800672B0F0E66196711D8A4120004D0000147
:10486800666B676B120005C059F0010E8B6F010C67
:10487800136E030E0001E46F13507EEC29F01FD86D
:1048880091EC29F0040E0001E46F10507EEC29F041
:1048980016D891EC29F0050E0001E46F11507EEC5A
:1048A80029F03F0B0CD891EC29F0060E0001E46FBB
:1048B80012507EEC29F03F0B02D891EF29F000014D
:1048C800E56FE40E076ED00E086E020E096E020C3C
:1048D800D8EC2AF0000913E0F20E0B6EAAEC2AF0CD
:1048E80053EC28F00001F451056EF351D46F05C064
:1048F800D5F0F2C058F06E6B6F6B9F6B03D0000160
:104908006E4B6F2B990E6E5D3A0E6F59D8A0120040
:104918006E6B6F6B010E9F6F06D8C6EC1EF0000120
:10492800E24BE32B1200040E0E6E640C0E6A27D8BD
:10493800DF5020E00C6A23D80E50A30FE16EE26A24
:10494800E7500B6ED8900B34DF6EA30E076E71EC38
:1049580027F00D6A100E0B6E940EE82EFED70B2E64
:10496800FCD700D00D2A040E0D64F4D70C2A070ECC
:104978000C64E1D70E2A1F0E0E64D9D71F0C0E50F7
:10498800A30FD96EDA6A12000ED041EC23F011C0E1
:1049980017F012C018F01A6A050E196E75EC23F09C
:1049A80017500001916F000191519019EEE091C0EC
:1049B80090F09151020D160EF324F66E790EF42044
:1049C800F76E0900F5CF68F00A00F5CF69F0050029
:1049D800FA6E6851FD6E6951FE6EF850FF6EFA501E
:1049E80012000C6E0E6A25D00F6A0F50A40FD96EF4
:1049F800DA6A0F50D0EC23F00F2A1E0E0F64F5D799
:104A08000E50C30FD96EDA6ADF500001C26FA30ED1
:104A1800076E71EC27F00D6A100E0B6E940EE82EDF
:104A2800FED70B2EFCD700D00D2A310E0D64F4D71B
:104A38000E2A0E500C5CD8E21200640E0E6E0D6A3F
:104A48000F6A0F50A40FD96EDA6A0F50D0EC23F01A
:104A58000F2A1F0E0F64F5D70001C26BA30E076E55
:104A680071EC27F00C6A09D0100E0B6E940EE82E2C
:104A7800FED70B2EFCD700D00C2A0E500C5CF4E3AA
:104A88000A0E0E6401D00E5E0D2A1F0E0D64D8D7D3
:104A98001F0C640E0E6E0D6A1F0E0F6E0F50A20FC4
:104AA800D96EDA6A0F50D0EC23F00F060F50F6E1FA
:104AB8000001A36BA30E076E71EC27F00C6A09D0F6
:104AC800100E0B6E940EE82EFED70B2EFCD700D0DE
:104AD8000C2A0E500C5CF4E30A0E0E6401D00E5E34
:104AE8000D2A1F0E0D64D8D71F0C0001E46BE40ECD
:104AF800086ED00E20D8F5EC20F014503CEC23F0D2
:104B0800E3EC2AF0DF6E010E32EC23F0F5EC20F036
:104B180013503CEC23F0E3EC2AF0DF6E020E32EC8B
:104B280023F0F5EC20F012503CEC23F03F0BE3ECC3
:104B38002AF0DF6E1200096E010E0A6E0B6E010C70
:104B48008B6A380E946E8A6ADF0E936EF19E6D96AC
:104B58008C6A956A896A010E926E966A846A8D6A71
:104B6800070EB46EC30EC216C150F00B0E09C16E0B
:104B7800CF0EC116C050F80B0609C06EC050C70B47
:104B88001009C06EC08EC280F298F096F088F0923C
:104B9800838C1200240E1EEC28F0440E1EEC28F024
:104BA800086A1BD8DF501EEC28F017D8DECF06F0B5
:104BB800DDCF07F007C006F0076A06501EEC28F0A4
:104BC800082A070E0864EDD758501EEC28F00D0E81
:104BD8001EEC28F00A0E1EEF28F00850020DF350C4
:104BE800D40FD96EDA6A120019D0F00E566E7E0E06
:104BF800576E1200BE0E566E7E0E576E12008C0E49
:104C0800566E7E0E576E12005A0E566E7E0E576EF8
:104C18001200280E566E7E0E576E12004A50010A78
:104C2800E4E0030AE7E0010AEAE0070AEDE0010A26
:104C3800F0E012000D6A0E6A0F6A106A05A008D02B
:104C480009500D260A500E220B500F220C5010222C
:104C5800D89009360A360B360C36D8900832073207
:104C6800063205320550061007100810E7E10DC09E
:104C780005F00EC006F00FC007F010C008F01200D3
:104C880019D0EF0E056E010E066E98EC22F019D0C1
:104C9800880E0E6E4C0E0F6E980E106E280E116E4A
:104CA800C7EC28F00ED0880E0E6E4C0E0F6E53EC2B
:104CB80027F007D05950010AEBE0050AF4E0010A91
:104CC800E0E0A30E076E71EF27F00A6A0B6A07503F
:104CD80008101BE0010E096E04D0D890073608367C
:104CE800092A08AEFAD7D8900A360B360750055C61
:104CF8000850065805E30750055E0850065A0A8012
:104D0800D89008320732092EEED70AC005F00BC03A
:104D180006F012000C6A1F0E0D6E0E6A0C501AD89F
:104D28000C2A0D5017D80D06A30E076E71EC27F04C
:104D38000F6A100E0B6E940EE82EFED70B2EFCD7C2
:104D480000D00F2A1D0E0F64F4D70E2A0F0E0E6422
:104D5800E5D70F0CA30FD96EDA6ADF6A120007C015
:104D68000EF008C00FF005C00CF006C00DF011D011
:104D78000EC0F6FF0FC0F7FF0800F5CF0BF00E4A84
:104D88000F2A0CC0D9FF0DC0DAFF0BC0DFFF0C4A99
:104D98000D2A0906D8A00A060928EAE10A28E8E146
:104DA800120005C007F006C008F002D0054A062A1E
:104DB80005C0F6FF06C0F7FFF86A070EF76403D0D0
:104DC8000800F55005D0F6CFE1FFF7CFE2FFE75036
:104DD8000009ECE10750055C056E08500658066EA0
:104DE8001200076A086A79EC2AF000090CE008C08A
:104DF80005F0010E066E052A02D0D8900636052E5B
:104E0800FCD706500712CD0E00D000D0E82EFCD7F4
:104E180000D000D00000082A070E0864E4D7075025
:104E28001200126E0001E46B11507EEC29F063EC65
:104E380024F091EC29F0010E0001E46F10507EEC93
:104E480029F063EC24F091EC29F0020E0001E46FE4
:104E580012507EEC29F03F0B63EC24F091EF29F01F
:104E68000E500F1017E0010E106E04D0D8900E36B9
:104E78000F36102A0FAEFAD70E500C5C0F500D5893
:104E880004E30E500C5E0F500D5AD8900F320E32BC
:104E9800102EF2D70CC00CF00DC00DF012000EC091
:104EA80005F00FC006F0F3EC1FF0A3EC0CF071EC6A
:104EB8000BF0AAEC1FF0EFEC15F0F3EC1FF086EC0A
:104EC8000BF014EC2BF04B0401E104D0010E0001AF
:104ED800996F010C0001996B12000A6A8C90096A9B
:104EE8000950F80D0750F3240A24D96EDA6A180E0F
:104EF800D926DF50086E0A2810EC2AF0085010EC6A
:104F08002AF0092A030E0964EBD78C800A2A070EB7
:104F18000A64E4D7070C839C959C080E056ECA0E9C
:104F2800E82EFED7052EFCD7838C958CF00E00D08A
:104F3800E82EFDD7000E83BC010E066E070E056E27
:104F48009A0EE82EFED7052EFCD700D00650120088
:104F5800F29E11D0A30E076E71EC27F00E6A100EA8
:104F68000D6E940EE82EFED70D2EFCD700D00E2A1B
:104F7800450E0E64F4D70BC005F00CC006F098EC93
:104F880022F00009E7E1F28E1200580E0001E05D00
:104F9800020EE15902E3050E06D0E15103E13A0E93
:104FA800E05D05E3030E076E0A0E40EF2AF0E151BB
:104FB80008E1330EE05DD8B01200076A0A0E40EC33
:104FC8002AF01200086E0A6A0AC006F008C007F044
:104FD800062A02D0D8900732062EFCD70750096E51
:104FE800010E09160950FFEC29F00A2A070E0A6477
:104FF800EBD7FC0E00D0E82EFDD71200ABA202D0F2
:10500800AB98AB88000E00018D250FD8AECFDFFF1F
:105018008D2B950E8D6501D08D6B422A4204016E51
:10502800950E0164950C426A1200D96EDA6A030E75
:10503800DA221200056E00018E51FDE09DB805D000
:105048009EA8FED705C0ADFF12009D98780E8F254B
:10505800D96EDA6A010EDA2205C0DFFF8F2B0F0E38
:105068008F6501D08F6B8E071200066E086A055097
:1050780014E0010E076E03D0D8900536072A05AE56
:10508800FBD7D89008360550065C03E30550065E4A
:105098000880D8900532072EF4D7085012008B9458
:1050A800E20EF2EC28F08B84700E076E070ECDEC42
:1050B8002AF08B920B0E076E000ECDEC2AF08B8235
:1050C800E70E00D000D0E82EFCD700D00000120078
:1050D8008C80010E076E0C0E40EC2AF0076A090E50
:1050E80040EC2AF0070E076E0B0E40EC2AF0020E79
:1050F800076E0A0E40EC2AF0076A0F0E40EF2AF0FE
:105108000A6E8B940A50F2EC28F00B6A0BD007C099
:10511800F6FF08C0F7FF0800F550F2EC28F0074A40
:10512800082A0B2A09500B5CF2E38B8412000E0E3E
:105138000001E46FE56B0AD891EC29F00F0E00012D
:10514800E46F080EE56F02D891EF29F0E40E076EC0
:10515800D00E086E020E096E020C0B6E05C008F028
:10516800010E096E082A02D0D8900936082EFCD7FD
:10517800091C0A6E0B500624D96E000E0720DA6E41
:105188000A50DF1612000EC005F00FC006F0F3EC4F
:105198001FF010C005F011C006F071EC0BF0AAEC7E
:1051A8001FF064EC11F0AAEC1FF086EC0BF014EF82
:1051B8002BF0096E8B940950F2EC28F00A6A09D09A
:1051C80007500A24D96EDA6A000EF2EC28F0DF6E76
:1051D8000A2A08500A5CF4E38B841200056E066AFA
:1051E80005AE02D08C8801D08C98D89005368C8A70
:1051F800010E83A6000E05128C9A062A070E066475
:10520800EFD7055012008FEC27F00009D8A4120040
:10521800CC0EE6EC27F04E0EE6EC27F0000EE6EC9E
:1052280027F0000EE6EC27F07F0EE6EF27F0FA0EE7
:1052380024EC1EF012C02BF013C02CF014C02DF07B
:1052480015C02EF02BC027F02CC028F02DC029F057
:105258002EC02AF01200F70E24EC1EF012C02BF01C
:1052680013C02CF014C02DF015C02EF02BC027F061
:105278002CC028F02DC029F02EC02AF01200948CE2
:10528800948EAC98AC8AAB88AB8EAC84B886B06A86
:10529800670EAF6E00018F6B100E8E6F8D6B8C6B6F
:1052A800426A9D8A12000A6E05C008F0010E096E56
:1052B800082A02D0D8900936082EFCD70A500624AE
:1052C800D96E000E0720DA6E0950DF121200425024
:1052D800FEE0000E00018C2519EC28F0DF50056E69
:1052E8008C2B950E8C6501D08C6B9D9A42069D8AFD
:1052F800055012000F6E0A0E096E0F50A4EC29F02B
:105308000D6E0F0E0D160A0E056E0F5039EC28F0B3
:105318000E6E0E38F00B0D1012005BEC2BF00850DF
:105328004CEC2BF00A6A07D007500A242AEC21F02B
:105338004CEC2BF00A2A09500A5CF6E357EF2BF0E5
:105348000A6E080E0B6E0C6AD8900A340C340C6E78
:10535800D8900A3609500C5C02E309500C5E0B2EFB
:10536800F3D70C501200FE0E00018BEC17F091ECF5
:1053780029F0040E0C6E0C0E0B6E340EE82EFED7C0
:105388000B2EFCD70C2EFAD71200166E16C0E4F0BE
:105398006EEC1EF0020E73EC1EF0F5EC20F000012E
:1053A800E551146EE451126E14C013F01200066E2B
:1053B80035EC2BF0C58635EC2BF0C9CF07F035EC72
:1053C8002BF0065002E1C58A01D0C59AC58807505E
:1053D8001200066EA6B2FED706C0A9FF05C0A8FF38
:1053E800A69EA69CA684F29E550EA76EAA0EA76E30
:1053F800A682F28EAA0C056E839C959C050405E195
:10540800080EE82EFED7838C958CFC0E00D0E82E73
:10541800FDD7838C958C1200056E066A05AE02D006
:105428008C8401D08C948C8200008C92D8900536A4
:10543800062A070E0664F2D7070CC282C2B2FED74C
:10544800C450066E056AC35005240001E06F000EC3
:105458000620E16F00000000120007D82A0E84EC35
:1054680028F003D8300E84EF28F00CC007F00DC0E8
:1054780008F0050E096E050C086E8C90096A085034
:1054880010EC2AF0075010EC2AF0092A030E0964E0
:10549800F6D78C80030C1F1D1F1E1F1E1F1F1E1FEB
:1054A8001E1F3139322E3136382E342E310000008D
:1054B8000000FF0E0524076EFF0E0620086E07C0C9
:1054C800EEF008C0EFF00001F06BF16B1200CD9028
:1054D800150ECF6EA00ECE6E9D80B192B180A082C7
:1054E800F00EB36E600EB26E600C839C959C040E39
:1054F800E82EFED7838C958C180EE82EFED783BC39
:10550800010C000CB7EC29F0E70E0001E46FE40E83
:10551800086E800E9FEC25F0F5EF20F04F0E1EEC84
:1055280028F04B0E1EEC28F00D0E1EEC28F00A0E8B
:105538001EEF28F0450E1EEC28F0520E1EEC28F047
:105548000D0E1EEC28F00A0E1EEF28F00BC007F017
:1055580089C008F0610EDDEC28F0400E076E070EDA
:10556800CDEF2AF0076E8B940750F2EC28F0000E6E
:10557800F2EC28F0086E8B8408501200030E931288
:10558800280EC66EC76A770EC86EC584C5A41200F9
:10559800FDD7086E8B9408502009F2EC28F00750CC
:1055A800F2EC28F08B8412002DEC2BF00A6E0ABC6A
:1055B800010C45EC2BF00009D8B4010C000C066E68
:1055C80006C005F00F0E051606380F0B0A0DF3502E
:1055D80005241200056EA6B2FED705C0A9FFA69E37
:1055E800A69CA680A85012000001FB2B950EFB6517
:1055F800950CFB6B010EFA6FCD90010CC70ED56EA2
:10560800F28AD76A160ED66E0001936B12000CC090
:1056180007F00DC008F0050E096E2B0E84EF28F078
:10562800056A0550AEEC26F0052A1F0E0564F9D769
:105638001F0C010101020101010101010100F07EBD
:105648002B059586959894929494959A958C8B842D
:1056580012008B94FF0EF2EC28F0076E8B84075033
:105668001200C7B4FED7C5CF05F01F0E0516F9E125
:105678001F0CF294D76A160ED66E010E0001926FB7
:10568800010C170EB6EC2AF0096E0950010B120036
:10569800066E35EC2BF006C0C9FF120000018D6BB9
:1056A8008C6B426A120035EC2BF0C584120035EC85
:1056B8002BF0C580120035EC2BF0C5821200959EA8
:1056C8008C9E1200F28EF28C1200040E596E040C9D
:0156D80001D0
:1078A400000000000000000000087C4E4F4E7C08E1
:1078B400000426473F07060400203E7F7F3F3E200A
:1078C400007E121E00701000004C6C30186C6400B6
:1078D40000771166116600440041516B4541000078
:1078E400000000007C447C007C0074545C54547C94
:1078F4001C107C5C54747C547404047C7C547C5C48
:10790400547C00010102020304040506060707086B
:1079140009096642424A9A4A1C4D3449FDBFEF7F29
:10792400FBDFF7FE00000000004551453E006B6F91
:107934006B3E003E7C3E1C003C7E3C1800367F368D
:107944003000000000000000000000000000000003
:107954000000000000000000000000000000000023
:107964000000000000000000000000000000000013
:107974000000000000000000000000000000000003
:1079840000000000000000000000000000000000F3
:10799400000000000000000000363600000024361D
:1079A4000000002424000000240000000000000067
:1079B4000000120000000012120000001236000045
:1079C40000123600000000000000005F0000000705
:1079D400000700147F147F14242A7F2A122313081B
:1079E400646236495620500008070300001C2241F7
:1079F400000041221C002A1C7F1C2A08083E08089B
:107A0400008070300008080808086060000000204A
:107A1400100804023E5149453E00427F4000426145
:107A24005149462141454B311814127F10274545D1
:107A340045393C4A494930017109050336494949E8
:107A440036064949291E000036360000403400003D
:107A540000081422411414141414004122140802BE
:107A6400015909063E415D594E7C1211127C7F4931
:107A74004949363E414141227F4141413E7F494986
:107A840049417F090909013E414151727F080808B3
:107A94007F00417F41002040413F017F0814224183
:107AA4007F404040407F0204027F7F0408107F3EF5
:107AB4004141413E7F090909063E4151215E7F094A
:107AC400192946264949493201017F01013F4040B5
:107AD400403F1F2040201F3F4038403F631408149C
:107AE4006303047804036151494543007F41410025
:107AF40002040810200041417F00040201020440F6
:107B040040404040000307080020545478407F2838
:107B14004444383844444428384444287F3854542E
:107B24005418087E09020018A4A49C787F08040451
:107B34007800447D40002040403D007F10284400F0
:107B440000417F40007C047804787C080404783881
:107B540044444438FC1824241818242418FC7C04B5
:107B6400040800485454542400043F44203C40403A
:107B7400207C1C2040201C3C4030403C44281028E1
:107B8400444C9090907C4464544C4400083641002A
:107B940000007700000041360800020102040200E0
:107BA40000000000000000000000000000000000D1
:107BB4000000000000000000000000000040004041
:107BC4000040000000000000000000003E55554148
:107BD400220000000000000000000000000000007F
:107BE4000000000000000000000000000000000091
:107BF4000000000000000000000000000000000081
:107C040000000000000000000000000000000C1E46
:107C14001E0C000000000000000000000000000036
:107C24000000000000000000000000000000000050
:107C34000000000000000000000000000000000040
:107C44000000000000000000000000000000000030
:107C5400000000000000000000000000007E02029E
:107C64000203000000000000000000007E4B4A4BAD
:107C74004200000000003E49494922000000000083
:107C840000000000000000000000000000000000F0
:107C9400417E4100000609090644445F4444004112
