:020000040000FA
:10000000F72FFF1B0B2883137F1883170008840A20
:100010000319FF0A080000308A000408840A8207D6
:100020000034003401340134023402340334043423
:1000300004340534063406340734073408340934EC
:100040000934203401342434053405342034013497
:10005000243405340534FF3FFF3FFF3FFF3FFF3FA0
:10006000FF3FFF3FFF3FFF3FFF3FFF3FFF3FFF3FA0
:10007000FF3FFF3FFF3FFF3FFF3FFF3FFF3FFF3F90
:10008000FF3FFF3FFF3FFF3FFF3FFF3FFF3FFF3F80
:10009000FF3FFF3FFF3FFF3FFF3FFF3FFF3FFF3F70
:100AC000FF3FFF3FF7007708CF252B30392E8611E7
:100AD000FF302426F200861508006725F300303920
:100AE000031D003401346725F300F31A0034731A30
:100AF0000134FF348312031305110830F200003073
:100B0000812DF300861120382426720824268615AC
:100B1000080064008001840A0406031900340406F6
:100B20008A2D831606148510051186110612861665
:100B30008312861508004E26003A031D0800CC30AB
:100B400098264E30982600309826003098267F3020
:100B5000982E7030F200073081250A30F200003004
:100B600081252C30F400F40BB32DB62D080083162C
:100B70000313861406151811181298169817831265
:100B8000181698170C30831699000800F70077089C
:100B9000CF252A3039267708CF253030392EF2007C
:100BA0000030031D8030F3000530F400080083128C
:100BB000031385118316851100008C26DF2DE02D8F
:100BC000E12D83120313050CF000F00C700C0139B9
:100BD00008000130850007309F00831685018115CC
:100BE0000114811401158312851591259B2504306C
:100BF000F8006430D126B72D8611E2302426861500
:100C00007030F2000730812505110B30F200003002
:100C1000812505152C30F400F40B0C2E0F2E080046
:100C2000F700831203130511A925831203138611FC
:100C3000E130242686157708F200F3012908F40034
:100C4000A030392605150800F000F101F01F2A2E0A
:100C500085142B2E85100310F00D06160608013999
:100C6000F00406120830F10A7102031C262E7008E7
:100C70000800F50086112426F60174087602031890
:100C80004C2E7308FF007208840001202426F20A0B
:100C90000319F30AF60A3D2E861508009226A6309F
:100CA000F000F00B512E00008C262130F000F00BEC
:100CB000572E00308312031385190130F1008D3057
:100CC000F000F00B612E71080800F401F501701CB2
:100CD0006F2E7208F4070318F50A7308F50703105E
:100CE000F20DF30D0310F10CF00C70087104031DEC
:100CF000672E7508F1007408F0000800F1009226D4
:100D00007103031D852E842E8C262230F000F00BFB
:100D1000872E8A2E8C2608008312031385158316CE
:100D200085150800831203138511831685110800A9
:100D3000F300F5017308F200750AA02E0310F20CFF
:100D4000FF3E031D9E2E7208F4000130F405740866
:100D50007E260830F50A7502031C9A2E2230F20016
:100D6000F20BB02EB32E0800F201F301D725003AA2
:100D70000319C52E0130F100730AC02E0310F10DC6
:100D8000FF3E031DBE2E7108F2042730F100F10B67
:100D9000C72ECA2E0830F30A7302031CB62E72083F
:100DA0000800F90083120313861505117808A900BD
:100DB0001630C625113062257908F20005308125EC
:100DC0001130F20181257808F200123081251330AC
:100DD000F20181251430F20181251530F2018125BF
:100DE0001630F20181252630F200063081250830C8
:100DF000F200003081250330F200013081250330FC
:100E0000F20002308125FF30F200043081251C30D1
:100E1000F2018125FC2D83120313B10076088400B2
:100E20002B3080004E26003A031D0034CC3098262B
:100E3000443098260430F900CF30F8000130F70034
:100E4000F70B202FF80B202FF90B202F272F4E26E2
:100E5000CC309826BE30982683120313B301330892
:100E6000203E8400B42683138000023083120313D3
:100E7000B30A3302031C2F2F2108B5002008B40049
:100E8000B51F4B2FB409B509B40A0319B50A760882
:100E900084002D3080003408B2000F30B2053208D3
:100EA000013E84000B20B2000F30B40EB50EB40525
:100EB0003508F039B4040F30B5053408F0000A30B5
:100EC000F101F200F30165267108B5007008B40065
:100ED0003208B4070318B50A3108840034088000CA
:100EE000840A350880000134E92575308312AB008F
:100EF000DC30AC001930AD007930AE0064007D30DC
:100F0000F6002F300B27003A03198F2F7D0883122C
:100F10000313AB002F08AC003008AD00942FFF3056
:100F200083120313AB00AC007930AE0064002B30A9
:100F300010266D25003A031D992F7325FC007C08AF
:100F4000031DB02F05100B30FB006230FA00FA0BC6
:100F5000A72FFB0BA72F0000831203130514E02F0C
:100F60007C03031DE02F05100330FB009730FA00CF
:100F7000FA0BB82FFB0BB82FBD2F831203130514E8
:100F8000C330FB00CD30FA00FA0BC42FFB0BC42F8B
:100F90008312031305100330FB009730FA00FA0B9D
:100FA000CF2FFB0BCF2FD42F8312031305141A302E
:100FB000FB00F830FA00FA0BDB2FFB0BDB2F0000F5
:100FC0007A2505148316860183128601083083165C
:100FD000850001308312850063000F3083120313F4
:100FE000AA0A2A02031CEC2FAA0191257E2F203089
:100FF000FC01FD0183138400313089258301742FA6
:10420000FF00FF00FF00FF00FF00FF00FF00FF00B6
:10421000FF00FF00FF00FF00FF00FF00FF00FF00A6
:10422000FF00FF00FF00FF00FF00FF00FF00FF0096
:10423000FF00FF00FF00FF00FF00FF00FF00FF0086
:10424000FF00FF00FF00FF00FF00FF00FF00FF0076
:10425000FF00FF00FF00FF00FF00FF00FF00FF0066
:10426000FF00FF00FF00FF00FF00FF00FF00FF0056
:10427000FF00FF00FF00FF00FF00FF00FF00FF0046
:10428000FF00FF00FF00FF00FF00FF00FF00FF0036
:10429000FF00FF00FF00FF00FF00FF00FF00FF0026
:1042A000FF00FF00FF00FF00FF00FF00FF00FF0016
:1042B000FF00FF00FF00FF00FF00FF00FF00FF0006
:1042C000FF00FF00FF00FF00FF00FF00FF00FF00F6
:1042D000FF00FF00FF00FF00FF00FF00FF00FF00E6
:1042E000FF00FF00FF00FF00FF00FF00FF00FF00D6
:1042F000FF00FF00FF00FF00FF00FF00FF00FF00C6
:02400E00343F3D
:08400000FF3FFF3FFF3FFF3FC0
:00000001FF
