:0510000007EF08F001FC
:0A1008005B8242ED19F0D9EF1AF0F7
:101EB000040E596E040CF28EF28C1200959E8C9ECC
:101EC000120087EC0FF0C582120087EC0FF0C5807E
:101ED000120087EC0FF0C584120000018D6B8C6B33
:101EE000416A1200066E87EC0FF006C0C9FF1200AF
:101EF000170E05EC10F0096E0950010B1200F29458
:101F0000D76A160ED66E010E0001926F010CC7B48F
:101F1000FED7C5CF05F01F0E0516F9E11F0C8B94F7
:101F2000FF0EC2EC11F0076E8B84075012009586ED
:0E1F3000959894929494959A958C8B841200B7
:101F3F00010101020101010101010100F17E002BEC
:101F4F0005056A05501CEC14F0052A1F0E0564F9EF
:101F5F00D71F0CC70ED56EF28AD76A160ED66E0033
:101F6F0001936B12000001FD2B950EFD65950CFD85
:101F7F006B010EFC6FCD90010C056EA6B2FED7055E
:101F8F00C0A9FFA69EA69CA680A8501200066E06AA
:101F9F00C005F00F0E051606380F0B0A0DF350058E
:101FAF002412008FEC0FF00A6E0ABC010C78EC0FB4
:101FBF00F00009D8B4010C000C086E8B9408502067
:101FCF0009C2EC11F00750C2EC11F08B8412000D16
:101FDF00C007F00EC008F00FC009F0050E0A6E2BF7
:101FEF000E79EF12F0030E9312280EC66EC76A77A2
:101FFF000EC86EC584C5A41200FDD7076E8B94075B
:10200F0050C2EC11F0000EC2EC11F0086E8B840878
:10201F005012000BC007F089C008F0610ED7EC1109
:10202F00F0400E076E070EE4EF0FF0450E94EC1222
:10203F00F0520E94EC12F00D0E94EC12F00A0E9476
:10204F00EF12F04F0E94EC12F04B0E94EC12F00DC9
:10205F000E94EC12F00A0E94EF12F000EC11F0E770
:10206F000E0001E56FE50E086E800E33EC15F004DF
:10207F00EF19F0839C959C040EE82EFED7838C9568
:10208F008C180EE82EFED783BC010C000CCD9015DA
:10209F000ECF6EA00ECE6E9D80B192B180A082F059
:1020AF000EB36E600EB26E600CFF0E0524076EFF4E
:1020BF000E0620086E07C0F4F008C0F5F00001F618
:1020CF006BF76B12001F1D1F1E1F1E1F1F1E1F1ED3
:1020DF001F3139322E3136382E342E3100000000A8
:1020EF0000086E8C90096A085097EC10F007509713
:1020FF00EC10F0092A030E0964F6D78C80030CC28A
:10210F0082C2B2FED7C450066E056AC350052400C2
:10211F0001E16F000E0620E26F00000000120005C3
:10212F006E066A05AE02D08C8401D08C948C82002E
:10213F00008C92D8900536062A070E0664F2D70750
:10214F000C07D82A0E79EC12F003D8300E79EF1263
:10215F00F00DC007F00EC008F00FC009F0050E0A11
:10216F006E050C056E839C959C050405E1080EE831
:10217F002EFED7838C958CFC0E00D0E82EFDD783D6
:10218F008C958C1200066EA6B2FED706C0A9FF056D
:10219F00C0A8FFA69EA69CA684F29E550EA76EAA67
:1021AF000EA76EA682F28EAA0C066E87EC0FF0C5F4
:1021BF008687EC0FF0C9CF07F087EC0FF0065002BF
:1021CF00E1C58A01D0C59AC58807501200166E1650
:1021DF00C0E5F064EC1CF0020E69EC1CF004EC1985
:1021EF00F00001E651146EE551126E14C013F01297
:1021FF0000FE0E0001FCEC23F025EC11F0040E0C98
:10220F006E0C0E0B6E340EE82EFED70B2EFCD70C79
:10221F002EFAD712000A6E080E0B6E0C6AD8900AAF
:10222F00340C340C6ED8900A3609500C5C02E3095A
:10223F00500C5E0B2EF3D70C50120065EC0FF0080C
:10224F005072EC0FF00A6A07D007500A2439EC19C4
:10225F00F072EC0FF00A2A09500A5CF6E369EF0FEF
:10226F00F00F6E0A0E096E0F5012EC11F00D6E0F7B
:10227F000E0D160A0E056E0F505FEC12F00E6E0E5D
:10228F0038F00B0D1012004150FEE0000E00018CD3
:10229F0025C6EC12F0DF50056E8C2B950E8C650168
:1022AF00D08C6B9D9A41069D8A055012000A6E05CF
:1022BF00C008F0010E096E082A02D0D8900936081E
:1022CF002EFCD70A500624D96E000E0720DA6E09AD
:1022DF0050DF121200948C948EAC98AC8AAB88AB02
:1022EF008EAC84B886B06A670EAF6E00018F6B102C
:1022FF000E8E6F8D6B8C6B416A9D8A1200F70E1AD2
:10230F00EC1CF012C02BF013C02CF014C02DF015E4
:10231F00C02EF02BC027F02CC028F02DC029F02E96
:10232F00C02AF01200FA0E1AEC1CF012C02BF01398
:10233F00C02CF014C02DF015C02EF02BC027F02CA0
:10234F00C028F02DC029F02EC02AF0120021EC1366
:10235F00F00009D8A41200CC0ECBEC12F04E0ECB2D
:10236F00EC12F0000ECBEC12F0000ECBEC12F07F63
:10237F000ECBEF12F0056E066A05AE02D08C880107
:10238F00D08C98D89005368C8A010E83A6000E0546
:10239F00128C9A062A070E0664EFD7055012000911
:1023AF006E8B940950C2EC11F00A6A09D007500ADB
:1023BF0024D96EDA6A000EC2EC11F0DF6E0A2A0819
:1023CF00500A5CF4E38B8412000EC005F00FC006B8
:1023DF00F001EC1AF010C005F011C006F066EC31F8
:1023EF00F044EC1AF0F5EC2AF044EC1AF07BEC31E7
:1023FF00F0A8EF0FF00B6E05C008F0010E096E0884
:10240F002A02D0D8900936082EFCD7091C0A6E0B69
:10241F00500624D96E000E0720DA6E0A50DF16120E
:10242F00000E0E0001E56FE66B0AD825EC11F00FD8
:10243F000E0001E56F080EE66F02D825EF11F0E5EB
:10244F000E076ED00E086E020E096E020C8C800104
:10245F000E076E0C0E78EC10F0076A090E78EC1070
:10246F00F0070E076E0B0E78EC10F0020E076E0AD7
:10247F000E78EC10F0076A0F0E78EF10F08B94E2E5
:10248F000EC2EC11F08B84700E076E070EE4EC0F8A
:10249F00F08B920B0E076E000EE4EC0FF08B82E7C1
:1024AF000E00D000D0E82EFCD700D000001200069E
:1024BF006E086A055014E0010E076E03D0D8900520
:1024CF0036072A05AEFBD7D89008360550065C03B1
:1024DF00E30550065E0880D8900532072EF4D70822
:1024EF005012000B6E8B940B50C2EC11F00C6A0F54
:1024FF00D007C0F6FF08C0F7FF09C0F8FF0800F5C6
:10250F0050C2EC11F0072A000E082209220C2A0AE9
:10251F00500C5CEEE38B841200056E00018E51FDB2
:10252F00E09DB805D09EA8FED705C0ADFF12009D57
:10253F0098780E8F25D96EDA6A010EDA2205C0DF80
:10254F00FF8F2B0F0E8F6501D08F6B8E071200AB95
:10255F00A202D0AB98AB88000E00018D250FD8AE2C
:10256F00CFDFFF8D2B950E8D6501D08D6B412A41ED
:10257F0004016E950E0164950C416A1200D96EDA52
:10258F006A030EDA221200086E0A6A0AC006F00801
:10259F00C007F0062A02D0D8900732062EFCD707C4
:1025AF0050096E010E09160950B9EC10F00A2A07EE
:1025BF000E0A64EBD7FC0E00D0E82EFDD7120058A0
:1025CF000E0001E15D020EE25902E3050E06D0E2B4
:1025DF005103E13A0EE15D05E3030E076E0A0E7833
:1025EF00EF10F0E25108E1330EE15DD8B0120007B1
:1025FF006A0A0E78EC10F01200F29E11D0A40E07AA
:10260F006E3EEC13F0186A100E176E940EE82EFE45
:10261F00D7172EFCD700D0182A450E1864F4D715FB
:10262F00C005F016C006F026EC1BF00009E7E1F23A
:10263F008E1200839C959C080E056ECA0EE82EFE26
:10264F00D7052EFCD7838C958CF00E00D0E82EFD8D
:10265F00D7000E83BC010E066E070E056E9A0EE8AC
:10266F002EFED7052EFCD700D0065012000A6A8C1A
:10267F0090096A0950F80D0750F3240A24D96EDA2D
:10268F006A180ED926DF50086E0A2897EC10F0084A
:10269F005097EC10F0092A030E0964EBD78C800ACF
:1026AF002A070E0A64E4D7070C0EC005F00FC00608
:1026BF00F001EC1AF02FEC30F066EC31F044EC1A2C
:1026CF00F096EC25F001EC1AF07BEC31F0A8EC0F52
:1026DF00F04A0401E104D0010E0001996F010C00D2
:1026EF0001996B12000E500F1017E0010E106E04BF
:1026FF00D0D8900E360F36102A0FAEFAD70E500CD8
:10270F005C0F500D5804E30E500C5E0F500D5AD84D
:10271F00900F320E32102EF2D70CC00CF00DC00DF0
:10272F00F01200126E0001E56B115038EC11F04100
:10273F00EC16F025EC11F0010E0001E56F1050388A
:10274F00EC11F041EC16F025EC11F0020E0001E552
:10275F006F125038EC11F03F0B41EC16F025EF11D2
:10276F00F0076A086A41EC10F000090CE008C00598
:10277F00F0010E066E052A02D0D8900636052EFC03
:10278F00D706500712CD0E00D000D0E82EFCD70090
:10279F00D000D00000082A070E0864E4D7075012B3
:1027AF000005C008F006C009F007C00AF004D00504
:1027BF002A000E0622072205C0F6FF06C0F7FF0704
:1027CF0050E8BE04D0F86E0800F55005D0F6CFE102
:1027DF00FFF7CFE2FFE7500009EAE10850055C057B
:1027EF006E09500658066E12000C6A1F0E0D6E0E03
:1027FF006A0C501AD80C2A0D5017D80D06A40E07C4
:10280F006E3EEC13F00F6A100E0B6E940EE82EFE58
:10281F00D70B2EFCD700D00F2A1D0E0F64F4D70E46
:10282F002A0F0E0E64E5D70F0CA40FD96EDA6ADFEC
:10283F006A12000A6A0B6A075008101BE0010E09A2
:10284F006E04D0D89007360836092A08AEFAD7D8C2
:10285F00900A360B360750055C0850065805E307FB
:10286F0050055E0850065A0A80D890083207320980
:10287F002EEED70AC005F00BC006F0120019D0EFEC
:10288F000E056E010E066E26EC1BF019D08C0E0E87
:10289F006E280E0F6E8C0E106E4D0E116EECEC112D
:1028AF00F00ED08C0E0E6E280E0F6E5CEC13F00730
:1028BF00D05950010AEBE0050AF4E0010AE0E0A468
:1028CF000E076E3EEF13F00D6A0E6A0F6A106A055F
:1028DF00A008D009500D260A500E220B500F220CC3
:1028EF00501022D89009360A360B360C36D890087D
:1028FF00320732063205320550061007100810E76E
:10290F00E10DC005F00EC006F00FC007F010C008B3
:10291F00F0120007C00CF008C00DF009C00EF00552
:10292F00C010F006C011F015D00CC0F6FF0DC0F7A7
:10293F00FF0EC0F8FF0800F5CF0FF00C2A000E0DA8
:10294F00220E2210C0D9FF11C0DAFF0FC0DFFF1017
:10295F004A112A0A06D8A00B060A28E6E10B28E43A
:10296F00E11200240E94EC12F0440E94EC12F008D5
:10297F006A1BD8DF5094EC12F017D8DECF06F0DDCB
:10298F00CF07F007C006F0076A065094EC12F00864
:10299F002A070E0864EDD7585094EC12F00D0E94E0
:1029AF00EC12F00A0E94EF12F00850020DF350D50E
:1029BF000FD96EDA6A12008B6A380E946E8A6ADF4C
:1029CF000E936EF19E6D968C6A956A896A010E92CE
:1029DF006E966A846A8D6A070EB46EC30EC216C1F4
:1029EF0050F00B0E09C16ECF0EC116C050F80B067A
:1029FF0009C06EC050C70B1009C06EC08EC280F2E6
:102A0F0098F096F088F092838C12000001E56BE548
:102A1F000E086ED00E20D804EC19F01450DAEC1713
:102A2F00F0CEEC0FF0DF6E010ED0EC17F004EC19C6
:102A3F00F01350DAEC17F0CEEC0FF0DF6E020ED081
:102A4F00EC17F004EC19F01250DAEC17F03F0BCE44
:102A5F00EC0FF0DF6E1200096E010E0A6E0B6E01A5
:102A6F000C640E0E6E0D6A1F0E0F6E0F50A30FD952
:102A7F006EDA6A0F5002EC17F00F060F50F6E100F6
:102A8F0001A46BA40E076E3EEC13F00C6A09D01074
:102A9F000E0B6E940EE82EFED70B2EFCD700D00C2B
:102AAF002A0E500C5CF4E30A0E0E6401D00E5E0D7C
:102ABF002A1F0E0D64D8D71F0C640E0E6E0D6A0FF1
:102ACF006A0F50A50FD96EDA6A0F5002EC17F00F8C
:102ADF002A1F0E0F64F5D70001C36BA40E076E3EBD
:102AEF00EC13F00C6A09D0100E0B6E940EE82EFE4C
:102AFF00D70B2EFCD700D00C2A0E500C5CF4E30A37
:102B0F000E0E6401D00E5E0D2A1F0E0D64D8D71F56
:102B1F000C0C6E0E6A25D00F6A0F50A50FD96EDA06
:102B2F006A0F5002EC17F00F2A1E0E0F64F5D70E26
:102B3F0050C40FD96EDA6ADF500001C36FA40E07BD
:102B4F006E3EEC13F00D6A100E0B6E940EE82EFE17
:102B5F00D70B2EFCD700D00D2A310E0D64F4D70EF3
:102B6F002A0E500C5CD8E212000E6A27D8DF5020D4
:102B7F00E00C6A23D80E50A40FE16EE26AE7500B07
:102B8F006ED8900B34DF6EA40E076E3EEC13F00D73
:102B9F006A100E0B6E940EE82EFED70B2EFCD7008C
:102BAF00D00D2A040E0D64F4D70C2A070E0C64E125
:102BBF00D70E2A1F0E0E64D9D71F0C0E50A40FD993
:102BCF006EDA6A120023D0F10E556E7E0E566E002D
:102BDF000E576E1200BF0E556E7E0E566E000E57BC
:102BEF006E12008D0E556E7E0E566E000E576E12C3
:102BFF00005B0E556E7E0E566E000E576E1200293C
:102C0F000E556E7E0E566E000E576E120049500115
:102C1F000ADAE0030ADFE0010AE4E0070AE9E0016B
:102C2F000AEEE01200136E030E0001E56F13503829
:102C3F00EC11F01FD825EC11F0040E0001E56F1018
:102C4F005038EC11F016D825EC11F0050E0001E507
:102C5F006F115038EC11F03F0B0CD825EC11F0062A
:102C6F000E0001E56F125038EC11F03F0B02D82522
:102C7F00EF11F00001E66FE50E076ED00E086E0241
:102C8F000E096E020CD9EC0FF0000919E0EF0E0BD4
:102C9F006E11EC10F046EC12F00001F151056EF0E0
:102CAF0051D56F05C0D6F0EFC058F0F351056EF255
:102CBF0051E36F05C0E4F06E6B6F6BA06B03D00038
:102CCF00016E4B6F2B990E6E5D3A0E6F59D8A01295
:102CDF00006E6B6F6B010EA06F02D877EF1BF005C4
:102CEF000E106E640C81BC02D0010E0BD081BE029F
:102CFF00D0020E07D081B602D0030E03D081B803E5
:102D0F00D0040E056E01D0056A055013E02D0E009C
:102D1F0001665D010E675905E3010E676F180E66B8
:102D2F006F0CD0664B672B0F0E66196711D8A41264
:102D3F000004D00001666B676B120005C059F001EB
:102D4F000E8B6F010C09500A100B100C1023E001B1
:102D5F000E0D6E06D0D89009360A360B360C360D8E
:102D6F002A0CAEF8D70950055C0A5006580B5007CD
:102D7F00580C50085808E30950055E0A50065A0BC4
:102D8F0050075A0C50085AD8900C320B320A32099D
:102D9F00320D2EE8D705C005F006C006F007C007B4
:102DAF00F008C008F01200100E0E6E0F0E0F6E0C12
:102DBF006AC30E0E2425D80E501DD80E2AC30E0F2F
:102DCF00241FD80F5017D80F06A40E076E3EEC1312
:102DDF00F00D6A100E0B6E940EE82EFED70B2EFC24
:102DEF00D700D00D2A1D0E0D64F4D70C2A0F0E0C30
:102DFF0064DFD70F0CA40FE16EE26ADFCFE7FF129B
:102E0F0000D96EDA6A010EDA2212000ED074EC17B6
:102E1F00F011C017F012C018F01A6A050E196E40A3
:102E2F00EC17F017500001916F000191519019EEBE
:102E3F00E091C090F09151020DF3CF1DF0F4CF1E31
:102E4F00F0170E1D24F66E790E1E20F76EF86A002D
:102E5F000EF8220900F5CF68F00A00F5CF69F005EA
:102E6F0000FA6E6851FD6E6951FE6EFF6AFA5012DC
:102E7F00001C6A18AE06D0176C181ED8B0182A019D
:102E8F000E1C6E1AAE04D0196C1A1ED8B01A2A195D
:102E9F00501A1017E0010E1B6E04D0D89019361A75
:102EAF00361B2A1AAEFAD71950175C1A5018580445
:102EBF00E31950175E1A50185AD8901A3219321B4C
:102ECF002EF2D71C5004E0176C181ED8B0182A1712
:102EDF00C017F018C018F01200F4C005F0F5C006C6
:102EEF00F0F6C007F0F7C008F02D0E096E7F0E0A3E
:102EFF006E950E0B6E4C0E0C6E6BEC14F0052800DD
:102F0F0001F46F000E0620F56F000E0720F66F001C
:102F1F000E0820F76FF4C013F0F5C014F0F6C015CB
:102F2F00F0F7C016F0120E05D0D8901632153214E5
:102F3F00321332E82EF9D713C011F014C012F01269
:102F4F0000060E26D804EC19F015502CD8CEEC0F35
:102F5F00F0DF6E050E1DD804EC19F0145023D81FA6
:102F6F000BCEEC0FF0DF6E040E13D804EC19F01338
:102F7F005019D83F0BCEEC0FF0DF6E030E09D804BB
:102F8F00EC19F012500FD8070BCEEC0FF0DF6E12CA
:102F9F00000001E56FE50E086ED00E096E010E0AF6
:102FAF006E0B6E010CD96EDA6A0001E5511200004A
:102FBF00019951D8B412009F2B080E9F191BE19F46
:102FCF006B19D0360EB36FB46F360C240E24D02489
:102FDF000EB36FB46F240C240EB36FB46B1200B327
:102FEF006BB46B1200120EF8D7120EB36FB46F12D0
:102FFF000C120E11D09F51E5E0010AE7E0030AE73A
:10300F00E0010AE9E0070AEBE0010AECE0030AEC51
:10301F00E0010AEEE01200B36F360EB46F360C000B
:10302F00018B5109E0882B1E0E886102D08C8E0314
:10303F00D0886B8B6B8C9E4D50D8B41200A151D899
:10304F00B41200FE6B86510AE1872B140E876102C2
:10305F00D08C8E04D0876B010E866F8C9E860502F6
:10306F00E1644B652B2D0E645D010E655904E3641D
:10307F006B656B020E866F020E8619D8A41200873D
:10308F002B140E876102D08C8E140C876B866BA16C
:10309F006B8C9E1200196A1A6A1B6A1C6A155016ED
:1030AF00101710181029E0010E1D6E06D0D89015BC
:1030BF00361636173618361D2A18AEF8D7D8901987
:1030CF00361A361B361C361550115C16501258170F
:1030DF005013581850145809E31550115E1650121A
:1030EF005A1750135A1850145A1980D8901832176B
:1030FF0032163215321D2EE2D719C011F01AC01236
:10310F00F01BC013F01CC014F0120042C09AF04420
:10311F000E126E430E136E420E146E0DEC15F0452B
:10312F000E126E460E136E470E146E480E156EA8D5
:10313F00EC17F000019A51421801E05A84030E4235
:10314F001802E1010EFE6F515007E0420E296EFA90
:10315F000E2A6EE6EC2BF001D0FA6B060E446406D5
:10316F000C180E4460180C4350D8A412004250D8CB
:10317F00A412000001FE51D8B41200010EA16F017C
:10318F000C0A6A08AE06D0076C081ED8B0082A01D0
:10319F000E0A6E06AE06D0056C061ED8B0062A01C2
:1031AF000E0A1A0B6A0C6A075008101BE0010E0971
:1031BF006E04D0D89007360836092A08AEFAD7D849
:1031CF00900B360C360750055C0850065805E30780
:1031DF0050055E0850065A0B80D890083207320906
:1031EF002EEED70A5004E00B6C0C1ED8B00C2A0B35
:1031FF00C005F00CC006F0120065EC0FF00B500983
:10320F00E0095072EC0FF008502CD872EC0FF061FF
:10321F00EC0FF00950010972EC0FF0116A1DD0FF8D
:10322F000E0A240C6E0D6AFF0E0D2211500E6E0F3A
:10323F006A0C500E5C0F50800A106E0D50800A10F1
:10324F005805E213D8010EDCEC10F004D00ED800B4
:10325F000EDCEC10F0DF6E112A0A50115CE0E3690E
:10326F00EF0FF0D96EDA6ADF50120008501124D92F
:10327F006EDA6A12000600D9CF03F0DACF04F0F24B
:10328F00BAF2A403D07FEC0FF02ED0F0B8F0A20F5B
:10329F00D0F092010EF1A8000EFF0A026E023AF171
:1032AF00500218EF0B0218F16EDFEC17F01CD09DD7
:1032BF00B09EA008D09E90150ECF6EA00ECE6EBA07
:1032CF00EC0FF011D0A0B2A1A208D0A192F00EB3D2
:1032DF006E600EB26E17EC18F006D0F2BC9DAA030A
:1032EF00D09EBAAFEC12F004C0DAFF03C0D9FF5B77
:1032FF00921100156A210EF66E790EF76E000EF818
:10330F006E20EE0CF0070E2FD8FEE2176A166A1722
:10331F00500C0F1524D96EDA6ADF500B6E1650A4BD
:10332F000FD96EDA6A0B50DF16152A070E156401D6
:10333F00D0156A162A1F0E1664EAD7A40E076E3E22
:10334F00EC13F0146A100E0B6E940EE82EFED70BD2
:10335F002EFCD700D0142A630E1464F4D7172A0753
:10336F000E1764D4D7070C0900F5CFDEFFE806125D
:10337F00009C0E356ED70EE82EFED7352EFCD700EB
:10338F00008CEC24F0A8EC0FF0F29E2FEC30F0083C
:10339F006A640E076E11EC25F044EC1AF0940E05DA
:1033AF006E2C0E066E086A960E076E0A6A040E09D8
:1033BF006E44EC1AF0F40E056E2C0E16D8010E09A1
:1033CF006E44EC1AF0720E056E290E066E0F0E0883
:1033DF006EA00E076E070E0A6ED00E096E44EC1A21
:1033EF00F0F28E04EC24F0FDD7066E086A076A0A25
:1033FF006A12000B6A3CD00B5074EC24F00550DEBF
:10340F001835E10650DE1832E1F29E0B50076E08B8
:10341F006AFF0E9325096E0A6AFF0E0A22075009EA
:10342F001803E108500A181FE09351076E086AD875
:10343F009007360836D89007360836D890073608E2
:10344F0036F80E0724D96E000E0820DA6E0B5008DE
:10345F000D000EF324E16E010EF420E26E070EDB79
:10346F00CFE3FFE806FCE29307F28E12000B2A006F
:10347F000193510B5CC0E312000550061001E112DD
:10348F00000D6A1AD00D5074EC24F00550DE18139D
:10349F00E10650DE1810E1F29E0D506CEC24F02B7B
:1034AF00D80D5084EC24F02CD80D507CEC24F0DE99
:1034BF006ADD6AF28E12000D2A000193510D5CE253
:1034CF00E30F0E93610F0CF29E935174EC24F005F1
:1034DF00C0DEFF06C0DDFF93516CEC24F00CD893D7
:1034EF005184EC24F00DD893517CEC24F0DE6ADD8E
:1034FF006A932BF28E120007C0DEFF08C0DDFF12A9
:10350F000009C0DEFF0AC0DDFF1200226E010E218E
:10351F006E246A236A2450176E186A1150050DF332
:10352F00CF19F0F4CF1AF0195012241B6E1A501342
:10353F00201C6E000E14201D6E17501B241E6E18BB
:10354F00501C201F6E000E1D20206E1EC0F6FF1F88
:10355F00C0F7FF20C0F8FF0800F55021140BE0233F
:10356F00C005F015C006F016C007F0225024245EE7
:10357F00EC11F00AD023C005F015C006F016C007F5
:10358F00F02250242402EC12F0D8902136232A077F
:10359F000E2364C0D7010E216E242A040E2464B9B1
:1035AF00D7040CD40EF66E200EF76E000EF86E01D7
:1035BF00EEE3F010EE1CF00900F5CFEEFFE550E161
:1035CF0050FAE1040EF66E100EF76E000EF86E094B
:1035DF0000F5CFFEF03F0EF66E1F0EF76E000EF8E1
:1035EF006E00EE49F010EE11F00900F5CFEEFFE599
:1035FF0050E150FAE103EE00F0960EEE6AE806FD98
:10360F00E102EE00F0FA0EEE6AE806FDE101EE00CF
:10361F00F0E30EEE6AE806FDE100EE60F09E0EEEBE
:10362F006AE806FDE15A6A00EE36F0130EEE6AE81C
:10363F0006FDE15B905B920001C0EF19F0146A1474
:10364F0050A50FD96EDA6A145002EC17F0142A1E27
:10365F000E1464F5D7040E0001A2650DD038D807FB
:10366F00E1A22B1F0EA265010CA36BA26B000CC372
:10367F006BA26BA32B010CA251076E086A28D80509
:10368F000DF3CF09F0F4CF0AF0290E0B6E790E0C63
:10369F006E000E0D6E09500B240E6E0A500C200F8B
:1036AF006E000E0D20106E07500E24116E08500F75
:1036BF0020126E000E1020136E11C0F6FF12C0F70D
:1036CF00FF13C0F8FF0800F5CFC3F0A22B010CA326
:1036DF00510524D96E000E0620DA6EDF501200114C
:1036EF006E8B848B9210C089F03D0E0D6E7F0E0E87
:1036FF006E000E0F6EA8EC10F0380E0D6E7F0E0ED2
:10370F006E000E0F6EEFEC0FF011C007F0050EE418
:10371F00EC0FF0076A110EE4EC0FF010C007F01277
:10372F000EE4EC0FF0076A130EE4EC0FF0076A14C7
:10373F000EE4EC0FF0076A150EE4EC0FF0076A16B3
:10374F000EE4EC0FF0260E076E060EE4EC0FF008F9
:10375F000E076E000EE4EC0FF0030E076E010EE481
:10376F00EC0FF0030E076E020EE4EC0FF007680487
:10377F000EE4EC0FF0076A1C0EE4EC0FF046EF12AC
:10378F00F01D6E010E1C6E1F6A1E6A1F500F6E1009
:10379F006A0C50080DF3CF11F0F4CF12F0A60E13F0
:1037AF006E780E146E000E156E11501324166E12D5
:1037BF00501420176E000E1520186E0F5016241976
:1037CF006E105017201A6E000E18201B6E19C0F6BF
:1037DF00FF1AC0F7FF1BC0F8FF0800F5501C140BB1
:1037EF00E01EC005F00DC006F00EC007F01D501F03
:1037FF00245EEC11F00AD01EC005F00DC006F00ECD
:10380F00C007F01D501F2402EC12F0D8901C361E7A
:10381F002A070E1E64BAD7010E1C6E1F2A060E1F32
:10382F0064B3D7060C266E26C0E5F046D8030E49C2
:10383F00D804EC19F0E6C016F0176A186A196A185E
:10384F00C019F017C018F016C017F0166AE5C01AA5
:10385F00F01B6A1C6A1D6A1BC01DF01AC01CF01BEE
:10386F006A1A6A16501A241E6E17501B201F6E18E4
:10387F00501C20206E19501D20216E0001E7511E93
:10388F0024226E000E1F20236E000E2020246E00B7
:10389F000E2120256E050E05D0D890253224322317
:1038AF00322232E82EF9D722C012F023C013F024AF
:1038BF00C014F025C015F01200E50E086EEC0E09CD
:1038CF006EEC0C0A6E010E0B6E010C226E246A2533
:1038DF006A2550A40F2224D96EDA6A2450070815DE
:1038EF006E2550166E176A1150050DF3CF18F0F4B0
:1038FF00CF19F0185012241A6E195013201B6E0096
:10390F000E14201C6E16501A241D6E17501B201EED
:10391F006E000E1C201F6E1DC0F6FF1EC0F7FF1F8E
:10392F00C0F8FF0800F5CF20F0152A02D0D890205C
:10393F0032152EFCD72550A40F2224E16EE26AE740
:10394F0050216ED89021342010DF6E252A040E25C9
:10395F0064BFD7236A100E156E940EE82EFED7158E
:10396F002EFCD700D0232A220E2364F4D7A40E07EF
:10397F006E3EEC13F0242A070E2464A9D7070C25FA
:10398F006E1D500E08056E000ED8A0E82A0008061E
:10399F006E086A0C0E076EC8EC18F00550276E27DC
:1039AF00501E5C286E27500C0DF3501D24FE0F2661
:1039BF006E010E086E900E076E28C005F0066AC8DD
:1039CF00EC18F0285025C01FF0206A1F26000E208B
:1039DF00222840E8423F0B1F26000E202205501FD1
:1039EF0024216E06502020226E086A0C0E076E26C8
:1039FF00501F0DF3CF05F0F4CF06F0C8EC18F0050B
:103A0F00502124236E06502220246E640E056E284A
:103A1F00505FEC12F0235E000E245A580E23241729
:103A2F006E1B0E2420186E1A6A070E196E40EC17C3
:103A3F00F017501200276AC30E272408EC17F0DF87
:103A4F006A272A200E2764F7D7040E0C6EC30E0DBB
:103A5F006E010E0E6E030EC8EC1BF047D840D82136
:103A6F00EC14F026EC2AF07AEC13F02CD80B0E8D18
:103A7F00EC1AF0086A640E33D821EC14F026EC2A05
:103A8F00F07AEC13F01FD8110E8DEC1AF0086A0AB9
:103A9F000E26D821EC14F026EC2AF07AEC13F01253
:103AAF00D8170E8DEC1AF02E0E116E290E126E799C
:103ABF000E136E000E146EC30E156E010E166E1DD4
:103ACF000E8DEF1AF00C50116E55C012F056C01338
:103ADF00F057C014F0C30E156E010E166E120007CC
:103AEF006E25C005F026C006F01200030E086EE822
:103AFF000C1E6E206A216A2150A40F1E24D96EDA83
:103B0F006A205007080E6E21500F6E106A0D500379
:103B1F000DF3CF11F0F4CF12F0E60E136E780E14F2
:103B2F006E000E156E11501324166E1250142017BE
:103B3F006E000E1520186E0F501624196E105017A8
:103B4F00201A6E000E18201B6E19C0F6FF1AC0F750
:103B5F00FF1BC0F8FF0800F5CF1CF00E2A02D0D8CB
:103B6F00901C320E2EFCD72150A40F1E24E16EE2C2
:103B7F006AE7501D6ED8901D341C10DF6E212A028B
:103B8F000E2164B9D71F6A100E0E6E940EE82EFE2A
:103B9F00D70E2EFCD700D01F2A220E1F64F4D7A4F5
:103BAF000E076E3EEC13F0202A070E2064A3D707F2
:103BBF000C880EEEEC10F012C084F013C085F08A62
:103BCF000EEEEC10F012C082F013C083F08C0EEEEC
:103BDF00EC10F012C080F013C081F08E0EEEEC10DE
:103BEF00F012C0F8F013C0F9F0900EEEEC10F012D6
:103BFF00C07EF013C07FF0920EEEEC10F012C07C7E
:103C0F00F013C07DF0940EEEEC10F012C07AF013AA
:103C1F00C07BF0960EEEEC10F012C078F013C07966
:103C2F00F0980EEEEC10F012C076F013C077F09A09
:103C3F000EEEEC10F012C074F013C075F09C0EEE87
:103C4F00EC10F012C072F013C073F09E0EEEEC1079
:103C5F00F012C070F013C071F0F50EE56FCC0E0FBF
:103C6F00D80AD825EC11F0F40E0001E56FB70E0756
:103C7F00D802D825EF11F0086E020E096E020CE67D
:103C8F006FE50E076EEC0C25D0960E0E6E3C0E0FE8
:103C9F006E760E106E3D0E116EECEC11F024D09678
:103CAF000E0E6E3C0E0F6E5CEC13F01DD04E5001DD
:103CBF000ED8A4000E4E6EF5EC2AF044EC1AF00567
:103CCF000E596E4EC005F0CAEC10F00DD0020E5911
:103CDF006E0AD05950010AD8E0030AE8E0010AF64B
:103CEF00E0070ADDE0010A5AA638D0BB0EF66E7F58
:103CFF000EF76E000EF86EF7EC32F0000E8DEC1A28
:103D0F00F0BC0EF66E7F0EF76E000EF86EF7EC320B
:103D1F00F0060E8DEC1AF0BD0EF66E7F0EF76E00EC
:103D2F000EF86EF7EC32F00C0E8DEC1AF04E5008C8
:103D3F00E02B0E116EC0EC2BF0120E8DEC1AF0076B
:103D4F00D02D0E116EC0EC2BF0120E8DEC1AF0115F
:103D5F006AC0EC2BF0180E8DEC1AF0A40E076E3E15
:103D6F00EC13F05A86120025D0760E0E6E3D0E0F14
:103D7F006E560E106E3E0E116EECEC11F024D076D6
:103D8F000E0E6E3D0E0F6E5CEC13F01DD04F5001FA
:103D9F000ED8A4000E4F6EF5EC2AF044EC1AF00585
:103DAF000E596E50EC3CF0CAEC10F00DD0020E59CB
:103DBF006E0AD05950010AD8E0030AE8E0010AF66A
:103DCF00E0070ADDE0010A5AA638D0BF0EF66E7F73
:103DDF000EF76E000EF86EF7EC32F0000E8DEC1A47
:103DEF00F0C00EF66E7F0EF76E000EF86EF7EC3227
:103DFF00F0060E8DEC1AF0C10EF66E7F0EF76E0008
:103E0F000EF86EF7EC32F00C0E8DEC1AF04F5008E6
:103E1F00E02B0E116EC0EC2BF0120E8DEC1AF0078A
:103E2F00D02D0E116EC0EC2BF0120E8DEC1AF0117E
:103E3F006AC0EC2BF0180E8DEC1AF0A40E076E3E34
:103E4F00EC13F05A86120025D0560E0E6E3E0E0F52
:103E5F006E0C0E106E410E116EECEC11F024D0565C
:103E6F000E0E6E3E0E0F6E5CEC13F01DD050500117
:103E7F000ED8A4000E506EF5EC2AF044EC1AF005A3
:103E8F000E596E4DEC3CF0CAEC10F00DD0020E59ED
:103E9F006E0AD05950010AD8E0030AE8E0010AF689
:103EAF00E0070ADDE0010A5AA638D0B70EF66E7F9A
:103EBF000EF76E000EF86EF7EC32F0000E8DEC1A66
:103ECF00F0B80EF66E7F0EF76E000EF86EF7EC324E
:103EDF00F0060E8DEC1AF0B90EF66E7F0EF76E002F
:103EEF000EF86EF7EC32F00C0E8DEC1AF050500805
:103EFF00E02B0E116EC0EC2BF0120E8DEC1AF007AA
:103F0F00D02D0E116EC0EC2BF0120E8DEC1AF0119D
:103F1F006AC0EC2BF0180E8DEC1AF0A40E076E3E53
:103F2F00EC13F05A8612002CD0360E0E6E3F0E0F89
:103F3F006E960E106E3C0E116EECEC11F02BD0360F
:103F4F000E0E6E3F0E0F6E5CEC13F024D04D2A0157
:103F5F000E4D6401D04D6AF5EC2AF044EC1AF05383
:103F6F00D8CAEC10F017D04D064D2802E1010E4DC6
:103F7F006EF5EC2AF044EC1AF046D8CAEC10F00AB1
:103F8F00D05950010AD1E0030AE1E0010AECE00741
:103F9F000AD6E0010A5AA631D0970EF66E7F0EF7B9
:103FAF006E000EF86EF7EC32F0000E8DEC1AF098F2
:103FBF000EF66E7F0EF76E000EF86EF7EC32F0060F
:103FCF000E8DEC1AF0990EF66E7F0EF76E000EF84E
:103FDF006EF7EC32F00C0E8DEC1AF00A0E096E4DE6
:103FEF005012EC11F02EEC34F0120E8DEC1AF01181
:103FFF006AC0EC2BF0180E8DEC1AF0A40E076E3E73
:10400F00EC13F05A861200050E596E4DC005F004E0
:10401F000C2DD0200E0E6E400E0F6E5C0E106E4CDF
:10402F000E116EECEC11F02CD0200E0E6E400E0F18
:10403F006E5CEC13F025D04A2A020E4A6402D001BE
:10404F000E4A6EF5EC2AF044EC1AF053D8CAEC1075
:10405F00F017D04A064A5002E1020E4A6EF5EC2ADA
:10406F00F044EC1AF046D8CAEC10F00AD0595001BF
:10407F000AD0E0030AE0E0010AECE0070AD5E0010C
:10408F000A5AA631D0A30EF66E7F0EF76E000EF809
:10409F006EF7EC32F0000E8DEC1AF0A40EF66E7F78
:1040AF000EF76E000EF86EF7EC32F0060E8DEC1A6E
:1040BF00F0A50EF66E7F0EF76E000EF86EF7EC326F
:1040CF00F00C0E8DEC1AF00A0E096E4A5012EC111C
:1040DF00F02EEC34F0120E8DEC1AF0116AC0EC2BAE
:1040EF00F0180E8DEC1AF0A40E076E3EEC13F05A7A
:1040FF00861200050E596E4AC005F0010C24D00C33
:10410F000E0E6E410E0F6EE00E106E430E116EEC22
:10411F00EC11F023D00C0E0E6E410E0F6E5CEC13F3
:10412F00F01CD05150010ED8A4000E516EF5EC2AA0
:10413F00F044EC1AF0050E596E55D8CAEC10F00D7C
:10414F00D0020E596E0AD05950010AD9E0030AE97C
:10415F00E0010AF6E0070ADEE0010A5AA63DD09216
:10416F000EF66E7F0EF76E000EF86EF7EC32F00063
:10417F000E8DEC1AF0930EF66E7F0EF76E000EF8A2
:10418F006EF7EC32F0060E8DEC1AF0940EF66E7F91
:10419F000EF76E000EF86EF7EC32F00C0E8DEC1A77
:1041AF00F0950EF66E7F0EF76E000EF86EF7EC328E
:1041BF00F0120E8DEC1AF0515008E02B0E116EC05C
:1041CF00EC2BF0180E8DEC1AF007D02D0E116EC0DF
:1041DF00EC2BF0180E8DEC1AF0A40E076E3EEC13BC
:1041EF00F05A86120051C005F0080C2ED0FA0E0EB0
:1041FF006E410E0F6E080E106E630E116EECEC1109
:10420F00F02DD0FA0E0E6E410E0F6E5CEC13F026F1
:10421F00D03C2A630E3C6401D03C6AF5EC2AF04492
:10422F00EC1AF004EC33F01AEC16F018D03C063C04
:10423F002802E1630E3C6EF5EC2AF044EC1AF00410
:10424F00EC33F01AEC16F00AD05950010ACFE00304
:10425F000ADFE0010AEBE0070AD4E0010A5AA638A8
:10426F00D09B0EF66E7F0EF76E000EF86EF7EC32E7
:10427F00F0000E8DEC1AF09C0EF66E7F0EF76E00AE
:10428F000EF86EF7EC32F0060E8DEC1AF09D0EF66E
:10429F006E7F0EF76E000EF86EF7EC32F00C0E8D8F
:1042AF00EC1AF00A0E096E056E3C505FEC12F0121C
:1042BF00EC11F02EEC34F0120E8DEC1AF00A0E0900
:1042CF006E3C5012EC11F02EEC34F0180E8DEC1AEF
:1042DF00F0A40E076E3EEC13F05A86120033D0ECAA
:1042EF000E0E6E420E0F6E200E106E400E116EEC03
:1042FF00EC11F032D0EC0E0E6E420E0F6E5CEC1322
:10430F00F02BD0492A050E496402D0010E496EF5F3
:10431F00EC2AF044EC1AF0050E596E57D8CAEC107F
:10432F00F0EAEC15F019D04906495002E1050E49A3
:10433F006EF5EC2AF044EC1AF0050E596E46D8CA09
:10434F00EC10F0EED75950010ACAE0030ADAE00187
:10435F000AEAE0070ACFE0010A5AA631D0A70EF603
:10436F006E7F0EF76E000EF86EF7EC32F0000E8DCA
:10437F00EC1AF0A80EF66E7F0EF76E000EF86EF7C1
:10438F00EC32F0060E8DEC1AF0A90EF66E7F0EF7DA
:10439F006E000EF86EF7EC32F00C0E8DEC1AF00A80
:1043AF000E096E495012EC11F02EEC34F0120E8DF6
:1043BF00EC1AF0116AC0EC2BF0180E8DEC1AF0A469
:1043CF000E076E3EEC13F05A86120049C005F0003E
:1043DF000C2DD0E00E0E6E430E0F6E400E106E4B76
:1043EF000E116EECEC11F02CD0E00E0E6E430E0F92
:1043FF006E5CEC13F025D0522A030E521802E10125
:10440F000E526EF5EC2AF044EC1AF05CD8CAEC10A0
:10441F00F017D05206525002E1020E526EF5EC2AFE
:10442F00F044EC1AF04FD8CAEC10F00AD0595001F2
:10443F000AD0E0030AE0E0010AECE0070AD5E00148
:10444F000A5AA63AD0830EF66E7F0EF76E000EF85C
:10445F006EF7EC32F0000E8DEC1AF0840EF66E7FD4
:10446F000EF76E000EF86EF7EC32F0060E8DEC1AAA
:10447F00F0850EF66E7F0EF76E000EF86EF7EC32CB
:10448F00F00C0E8DEC1AF0860EF66E7F0EF76E00A6
:10449F000EF86EF7EC32F0120E8DEC1AF052C011CE
:1044AF00F055C012F056C013F057C014F0A40E15FB
:1044BF006E166A180E8DEC1AF0A40E076E3EEC13F2
:1044CF00F05A861200050E596E52C005F0090C2ED7
:1044DF00D0DE0E0E6E440E78D8ECEC11F031D0DE3B
:1044EF000E0E6E440E0F6E5CEC13F02AD04C2A07A2
:1044FF000E4C6401D04C6AF5EC2AF044EC1AF05FD4
:10450F00D8CAEC10F067D878EC10F01AD04C064CE3
:10451F002802E1070E4C6EF5EC2AF044EC1AF04F2E
:10452F00D8CAEC10F057D878EC10F00AD0595001D7
:10453F000ACFE0030ADBE0010AE9E0070AD0E00155
:10454F000A5AA622D035D8F7EC32F0000E8DEC1AAD
:10455F00F028D8F7EC32F0060E8DEC1AF01BD8F7D6
:10456F00EC32F00C0E8DEC1AF00A0E096E4C501254
:10457F00EC11F02EEC34F0120E8DEC1AF0116AC023
:10458F00EC2BF0180E8DEC1AF0A40E076E3EEC1308
:10459F00F05A861200B50EF66E7F0EF76E000EF80B
:1045AF006E1200B40EF66E7F0EF76E000EF86E12DE
:1045BF0000B30EF66E7F0EF76E000EF86E1200054A
:1045CF000E596E4CC005F0030C0F6E360E106E3F79
:1045DF000E116E12004CC007F00A0C070EF66E7922
:1045EF000EF76E000EF86E20EE12F00F0EBBEC19E8
:1045FF00F0FDE20C50D96EDA6A2B0EDF6E6CD02113
:10460F00EC13F00009D8A41200CC0ECBEC12F0443E
:10461F000ECBEC12F00E50D96EDA6ADF6A0D50D95C
:10462F006EDA6A020EDF6ECD80020C21EC13F0CC35
:10463F000ECBEC12F0BE0ECBEC12F0236A880E23D9
:10464F0024D96EDA6A010EDA22B8EC13F0DF6E238A
:10465F002A010E2364F3D7010189510F6E8851246B
:10466F006E0FC025F025AE09D0246C251ED8B025BD
:10467F002A0C50D96EDA6A2D0EDF6E24500F0B22E2
:10468F006E2250120FD96EDA6ADF50226E24C00FDD
:10469F00F025C010F0040E116ED89010320F3211A9
:1046AF002EFBD70FC024F010C025F024500A0DF3B5
:1046BF00CF24F0F4CF25F022502426000E25220B14
:1046CF0050D96EDA6A24C0DEFF25C0DDFF0D50D948
:1046DF006EDA6ADF6A12000D50D96EDA6ADF508F18
:1046EF00E0010AA3E0030A1200F50E7ED825EC11B3
:1046FF00F0020E216ED40E206E850EE82EFED7200E
:10470F002EFCD7212EFAD70000E50EE5EC27F0049A
:10471F00EC19F00001E551206EE651236E20C02404
:10472F00F0232805E1242803E11E681F68120023E7
:10473F00C005F024C006F0076A086AD40E096E306F
:10474F000E3EEC39F06BEC14F005C026F006C027D6
:10475F00F007C028F008C029F028C026F029C0278C
:10476F00F0286A296AA80E2626FD0E2722FF0E289A
:10477F0022292226C011F027C012F028C013F029D9
:10478F00C014F0ECEC27F052EC18F01150226E260A
:10479F00C005F027C006F028C007F029C008F0F2C6
:1047AF00EC27F0AAEC16F00550256E050E2524DD3A
:1047BF00EC27F0C8EC18F005500A0DF3CF25F022C6
:1047CF0050640DF3CF20F0F4CF21F02550202405B5
:1047DF006E000E2120066EF8EC27F0C8EC18F005DD
:1047EF00C01EF006C01FF01200E56FE50E076E80C9
:1047FF000E086E010E096E010C000192511AE09223
:10480F006B0201FC6B11D0FC515FD8DE50DE10063D
:10481F00E1FC516AD8010EDE6EDD6A05D0FC515401
:10482F00D8DE06000EDD5AFC2B000193510201FC6D
:10483F005DEAE30201FD6B42D0FD5156D8DE04DE86
:10484F00103BE1FD5149D8DECFFAF2DDCFFBF2FD8F
:10485F005153D8DE50DE1009E1FD513ED8DECF05B1
:10486F00F0DDCF06F001EC1AF01BD0FD513DD8DE84
:10487F006ADD6AFD5129D8DE50DE1012E1FD513C90
:10488F00D8DECF31F0DDCF32F0FF0E3124336EFFA3
:10489F000E3220346EFD5118D833C0DEFF34C0DD28
:1048AF00FF01D80AD00500FA6E0201FA51FD6EFB26
:1048BF0051FE6EFF6AFA5012000201FD2B000193A8
:1048CF00510201FD5DB9E31200080D020EF324D968
:1048DF006E010EF420DA6E1200080D000EF324D9CB
:1048EF006E010EF420DA6E1200080D060EF324D9B5
:1048FF006E010EF420DA6E1200080D040EF324D9A7
:10490F006E010EF420DA6E1200E3EC14F00C0EC4FC
:10491F00EC0FF0536E53B002D08D9001D08D800705
:10492F000E186E170E176E6A0EE82EFED7172EFC96
:10493F00D7182EFAD700D0FAEC0FF02EEC12F04E5B
:10494F00EC10F05BEC0FF018EC12F0AEEC11F0B1D4
:10495F00EC0FF072EC11F0E0EC1DF035EC10F00004
:10496F000EC4EC0FF0496E010EC4EC0FF04A6E4A04
:10497F000403E10001996B02D031EC3CF0020EC44C
:10498F00EC0FF04B6E030EC4EC0FF04C6EF2EC22FA
:10499F00F078EC10F0EAEC15F05EEC0FF097EC0FFE
:1049AF00F077EC16F077EC1BF0980E056E720E0692
:1049BF006E086A280E076E2DD844EC1AF01A0E05F1
:1049CF006E310E066E086A500E076E23D844EC1A2D
:1049DF00F0040EC4EC0FF04D6E050EC4EC0FF04E4C
:1049EF006E060EC4EC0FF04F6E070EC4EC0FF050B6
:1049FF006E080EC4EC0FF0516E090EC4EC0FF0529E
:104A0F006E0A0EC4EC0FF0546E066A030E056E5C50
:104A1F00EF10F00A6A140E096E140C79D00001D948
:104A2F0051DA112EE0D9C025F0DAC026F022EC1DA4
:104A3F00F0DBEC16F0200E286E28501CEC14F0283A
:104A4F002A300E2864F9D7D9C00CF0DAC00DF01E49
:104A5F00EC36F07AEC13F00C502EEC34F0200E8D77
:104A6F00EC1AF03D0E276EE10E266E400EE82EFE7C
:104A7F00D7262EFCD7272EFAD7080E90EC15F01D4F
:104A8F00D0A8EC0FF0040E15EC36F0030EC8EC1B9B
:104A9F00F0450E116E0AEC36F00B0E6DEC1CF05259
:104AAF000E116E0AEC36F0110E6DEC1CF0520E1159
:104ABF006E0AEC36F0170E6DEC1CF022EC36F0346B
:104ACF00EC2AF01AEC36F044EF1AF0050E596E543A
:104ADF00500CE00DEC17F022D801EC1AF024D8019D
:104AEF00EC1AF0E80E056E520E0DD00DEC17F0B566
:104AFF00EC28F014D801EC1AF016D801EC1AF08E4D
:104B0F000E056E600E066E66EC31F044EF1AF0592A
:104B1F0050040ADBE0010A82E0030A1200B00E051E
:104B2F006E1E0E066E12002A0E056E4A0E066E12CD
:104B3F00003BD0400E0E6E4B0E0F6E8C0E106E287B
:104B4F000E116EECEC11F096EC25F001EC1AF0530F
:104B5F00500FE1EF0E056E010E066E5B0E076E7FB6
:104B6F000E086E000E096E0B6A100E0A6E91EC1491
:104B7F00F0A36BA26B23D0400E0E6E4B0E0F6E5C2C
:104B8F00EC13F01CD05450010ED8A4000E546EF547
:104B9F00EC2AF044EC1AF0050E596E55D8CAEC10F9
:104BAF00F00DD0020E596E0AD05950010AC2E0031F
:104BBF000AE9E0010AF6E0070ADEE0010A5AA63D1B
:104BCF00D08D0EF66E7F0EF76E000EF86EF7EC328C
:104BDF00F0000E8DEC1AF08E0EF66E7F0EF76E0053
:104BEF000EF86EF7EC32F0060E8DEC1AF08F0EF613
:104BFF006E7F0EF76E000EF86EF7EC32F00C0E8D26
:104C0F00EC1AF0900EF66E7F0EF76E000EF86EF740
:104C1F00EC32F0120E8DEC1AF0545008E02B0E11FE
:104C2F006EC0EC2BF0180E8DEC1AF007D02D0E1174
:104C3F006EC0EC2BF0180E8DEC1AF0A40E076E3E22
:104C4F00EC13F05A86120054C005F00A0C32D04B08
:104C5F005006E090D8ECEC22F0ECEC11F034D08A56
:104C6F00D80F6EDE0E106E440E116EECEC11F003C9
:104C7F000EC4EC0FF04C6EF2EC22F078EC10F02337
:104C8F00D05C0E0E6E4C0E0F6E5CEC13F01CD067EA
:104C9F00D8F5EC2AF044EC1AF068D8CAEC10F013EF
:104CAF00D05ED8F5EC2AF044EC1AF05FD8CAEC10BD
:104CBF00F00AD05950010ACBE0030AE9E0010AF0EB
:104CCF00E0070ADEE0010A5AA644D0E0EC22F0F732
:104CDF00EC32F0000E8DEC1AF0D9EC22F0F7EC323A
:104CEF00F0060E8DEC1AF0D2EC22F0F7EC32F00C4D
:104CFF000E8DEC1AF04B5017E0C60EF66E7F0EF7C6
:104D0F006E000EF86EF7EC32F0120E8DEC1AF0C743
:104D1F000EF66E7F0EF76E000EF86EF7EC32F0188F
:104D2F000E8DEC1AF016D0ED0EF66E7F0EF76E00AC
:104D3F000EF86EF7EC32F0120E8DEC1AF0EE0EF656
:104D4F006E7F0EF76E000EF86EF7EC32F0180E8DC8
:104D5F00EC1AF0A40E076E3EEC13F05A8612004BBD
:104D6F0050010ED8A4000E4B6E1200050E596E4B5B
:104D7F00C005F0020C5C0E0E6E4C0E12004AD08C69
:104D8F000E0E6E4D0E0F6E8E0E106E600E116EECBF
:104D9F00EC11F096EC25F001EC1AF045D08C0E0ECC
:104DAF006E4D0E0F6E5CEC13F03ED0030E596E3B42
:104DBF00D05350010ED8A4000E536EF5EC2AF044D8
:104DCF00EC1AF0050E596E53C005F00C0ECAEC101C
:104DDF00F053501DE0AB9E949C949E829E829C9CAF
:104DEF000E256ED70EE82EFED7252EFCD700008D90
:104DFF0080070E266E170E256E6A0EE82EFED7253B
:104E0F002EFCD7262EFAD700D072EC11F00CD08DD5
:104E1F00900AD05950010AB3E0030AC7E0010AC84B
:104E2F00E0070ABCE0010A5AA63DD0880EF66E7F55
:104E3F000EF76E000EF86EF7EC32F0000E8DEC1AD6
:104E4F00F0890EF66E7F0EF76E000EF86EF7EC32ED
:104E5F00F0060E8DEC1AF08A0EF66E7F0EF76E00CE
:104E6F000EF86EF7EC32F00C0E8DEC1AF08B0EF68E
:104E7F006E7F0EF76E000EF86EF7EC32F0120E8D9D
:104E8F00EC1AF0535008E02B0E116EC0EC2BF018FB
:104E9F000E8DEC1AF007D02D0E116EC0EC2BF01802
:104EAF000E8DEC1AF0A40E076E3EEC13F05A86121C
:104EBF0000F30E0001FCEC23F025EC11F0020E21A3
:104ECF006ED40E206E850EE82EFED7202EFCD72135
:104EDF002EFAD70000E50E71D804EC19F00001E5A9
:104EEF0051206EE651236E20C024F0232805E124C3
:104EFF002803E11E681F68120023C005F024C006B6
:104F0F00F0076A086AA40E096E440E3EEC39F06B86
:104F1F00EC14F005C026F006C027F007C028F008F3
:104F2F00C029F028C026F029C027F0286A296AB3C3
:104F3F000E2626ED0E2722FF0E2822292226C0112B
:104F4F00F027C012F028C013F029C014F03DD8523A
:104F5F00EC18F01150226E26C005F027C006F0287D
:104F6F00C007F029C008F036D8AAEC16F005502576
:104F7F006E050E25241AD8C8EC18F005500A0DF34B
:104F8F00CF25F02250640DF3CF20F0F4CF21F02580
:104F9F00502024056E000E2120066E22D8C8EC1872
:104FAF00F005C01EF006C01FF01200056E066A0065
:104FBF000E0622086A0A0E076E0A0C086E800E098A
:104FCF006E030E0A6E0B6A030C640E156E166A17CB
:104FDF006A186A640C640E096E0A6A0B6A0C6A64BA
:104FEF000C086A0A0E076E0A0C62D0F80E0E6E4F8E
:104FFF000E0F6EAE0E106E590E116EECEC11F061BD
:10500F00D0F80E0E6E4F0E0F6E5CEC13F05AD03AB6
:10501F002A9FD81FE096D83A50DE5C18E3020E3B69
:10502F00181CE13A50256E266A8CD8DF50276EFF88
:10503F000E2724286E296AFF0E29222550285C2965
:10504F0050800A2A6E2650800A2A5807E2010E3A2B
:10505F006E04D077D83A50DE5CF9E3F5EC2AF044D1
:10506F00EC1AF004EC33F01AEC16F02BD03A067071
:10507F00D813E03A5006E1020E3B1803E062D8DF86
:10508F005009D0020E3B180AE13A5008E15AD8DF16
:10509F0050256E25043A6E02D03A50F0E0F5EC2A16
:1050AF00F044EC1AF004EC33F01AEC16F00AD05975
:1050BF0050010A9BE0030AABE0010AD8E0070AA0FF
:1050CF00E0010A5AA638D0AF0EF66E7F0EF76E00CB
:1050DF000EF86EF7EC32F0000E8DEC1AF0B00EF603
:1050EF006E7F0EF76E000EF86EF7EC32F0060E8D37
:1050FF00EC1AF0B10EF66E7F0EF76E000EF86EF72B
:10510F00EC32F00C0E8DEC1AF00A0E096E056E3AA9
:10511F00505FEC12F012EC11F02EEC34F0120E8DF9
:10512F00EC1AF00A0E096E3A5012EC11F02EEC3414
:10513F00F0180E8DEC1AF0A40E076E3EEC13F05A19
:10514F00861200E20E3B24D96EDA6A010EDA2212C1
:10515F00003CC025F0030E2516030CA8EC0FF0B58C
:10516F00D082EC34F05FEC12F012EC11F000090C6D
:10517F00E082EC34F05FEC12F012EC11F002EC363E
:10518F00F0000E6DEC1CF006D0116A0AEC36F00040
:10519F000E6DEC1CF09CEC34F012EC11F002EC36BE
:1051AF00F0060E6DEC1CF093EC34F05FEC12F01285
:1051BF00EC11F002EC36F00D0E6DEC1CF098EC34A7
:1051CF00F012EC11F002EC36F0130E6DEC1CF08DBA
:1051DF00EC18F00A0E096E056E42505FEC12F012D9
:1051EF00EC11F0316E31280D6E190E80EC1DF00AA6
:1051FF000E096E425012EC11F0316E31280D6E1DFA
:10520F000E80EC1DF077EF13F082EC34F05FEC12B0
:10521F00F012EC11F000090CE082EC34F05FEC12AC
:10522F00F012EC11F002EC36F0010E6DEC1CF006F2
:10523F00D0116A0AEC36F0010E6DEC1CF09CEC34C8
:10524F00F012EC11F002EC36F0070E6DEC1CF03A98
:10525F000E116E0AEC36F00D0E6DEC1CF08DEC1885
:10526F00F093EC34F05FEC12F012EC11F002EC362C
:10527F00F0130E6DEC1CF098EC34F012EC11F00200
:10528F00EC36F0190E6DEC1CF0010E0001996F9FBA
:10529F006B82EC34F05FEC12F012EC11F000019E17
:1052AF006F9CEC34F012EC11F000019D6F93EC3415
:1052BF00F05FEC12F012EC11F000019C6F98EC34DF
:1052CF00F012EC11F000019B6F12004A50010A011D
:1052DF00E147D7030A99E01200A9D00001DD291E8A
:1052EF00E1DE291CE1050E15EC36F0010EC8EC1BB2
:1052FF00F0450E116E0AEC36F0090E6DEC1CF052F3
:10530F000E116E0AEC36F00F0E6DEC1CF0520E11F2
:10531F006E0AEC36F0150E6DEC1CF06DD0E80EDD5C
:10532F005D030EDE5938E2050E15EC36F0010EC89E
:10533F00EC1BF0086A640E8AD821EC14F07FD87A3F
:10534F00EC13F00C5002EC36F0090E6DEC1CF0086B
:10535F006A0A0E7CD821EC14F071D87AEC13F00C99
:10536F005002EC36F00F0E6DEC1CF02E0E116E0A83
:10537F00EC36F0150E6DEC1CF0DDC00CF0DEC00D40
:10538F00F01EEC36F07AEC13F00C5002EC36F018FD
:10539F000E6DEC1CF030D0050E15EC36F0020EC879
:1053AF00EC1BF07DEC1DF052D821EC14F047D87AAD
:1053BF00EC13F00C5002EC36F00B0E6DEC1CF008F9
:1053CF006A640E44D821EC14F039D87AEC13F00C3F
:1053DF005002EC36F0110E6DEC1CF0086A0A0E3616
:1053EF00D821EC14F02BD87AEC13F00C5002EC36D9
:1053FF00F0170E6DEC1CF022EC36F02ED81AEC36AE
:10540F00F044EF1AF0050E596E0DEC17F0B5EC28BD
:10541F00F096EC25F001EC1AF035EC3CF001EC1AAB
:10542F00F02FEC30F066EC31F044EF1AF0595004E5
:10543F000AE9E0010A01E151D7030A120005C00C85
:10544F00F006C00DF00F6A0A0E0E6E0A0C076EDD25
:10545F00C005F0DEC006F01200010E086E900C5A67
:10546F00B802D05A8863D05A9861D06E0E056E5428
:10547F000E066E01EC1AF0120E056E560EFCEC19AC
:10548F00F0320E096E44EC1AF0A8D844EC1AF04A28
:10549F000413E1AED85FEC12F012EC11F02EEC34E5
:1054AF00F00D0E8DEC1AF0A9D812EC11F02EEC3491
:1054BF00F0130E8DEC1AF014D093EC34F05FEC1265
:1054CF00F012EC11F02EEC34F0130E8DEC1AF09864
:1054DF00EC34F012EC11F02EEC34F0190E8DEC1AB6
:1054EF00F07BEC31F02DD06E0E0E6E540E0F6E5C05
:1054FF00EC13F026D0372A3B0E376401D0376A6D94
:10550F00D844EC1AF0CAEC2BF099EC13F0050E59B5
:10551F006E17D03706372802E13B0E376E5ED84440
:10552F00EC1AF0CAEC2BF099EC13F0F0D7595001AC
:10553F000A9CE0030ADFE0010AECE0070AD4E0016D
:10554F000A5AA645D05AA828D04A0413E151D85F69
:10555F00EC12F012EC11F02EEC34F00D0E8DEC1A63
:10556F00F04CD812EC11F02EEC34F0130E8DEC1A27
:10557F00F02ED03ED85FEC12F012EC11F02EEC347E
:10558F00F0130E8DEC1AF039D812EC11F02EEC341A
:10559F00F0190E8DEC1AF01BD04A040DE1116AC000
:1055AF00EC2BF00D0E8DEC1AF0116AC0EC2BF013F2
:1055BF000E8DEC1AF00CD0116AC0EC2BF0130E8D7F
:1055CF00EC1AF0116AC0EC2BF0190E8DEC1AF0A446
:1055DF000E076E3EEC13F05A861200B00E056E1ECB
:1055EF000E066E070E086ED00E076E0A6A096AD095
:1055FF000C0A0E096E056E375012000A0E096E372F
:10560F005012005AB802D05A8846D05A9844D01235
:10561F000E0E6E560E0F6EFA0E106E410E116EECD0
:10562F00EC11F043D0120E0E6E560E0F6E5CEC1393
:10563F00F03CD0382A170E386401D0386AF5EC2ABE
:10564F00F044EC1AF0B2D80AE0385004E1AAD89925
:10565F00EC13F02BD0A1D899EC13F027D093D89955
:10566F00EC13F023D03806382802E1170E386EF508
:10567F00EC2AF044EC1AF099D80AE0385004E19182
:10568F00D899EC13F012D088D899EC13F00ED07A89
:10569F00D899EC13F00AD05950010AB9E0030AC99E
:1056AF00E0010AE0E0070ABEE0010A5AA65BD05A01
:1056BF00A842D04A0420E16BD85FEC12F012EC1133
:1056CF00F000090BE064D85FEC12F012EC11F02E31
:1056DF00EC34F0000E8DEC1AF005D0116A49D800A9
:1056EF000E8DEC1AF067D812EC11F02EEC34F00698
:1056FF000E8DEC1AF037D04BD85FEC12F012EC1184
:10570F00F000090BE044D85FEC12F012EC11F02E10
:10571F00EC34F0010E8DEC1AF005D0116A29D80186
:10572F000E8DEC1AF047D812EC11F02EEC34F00776
:10573F000E8DEC1AF017D04A040BE1116A19D8003C
:10574F000E8DEC1AF0116A14D8060E8DEC1AF00AB1
:10575F00D0116A0ED8010E8DEC1AF0116A09D80714
:10576F000E8DEC1AF0A40E076E3EEC13F05A861253
:10577F0000290E126E790E136E000E146EA40E1504
:10578F006E166A120037C010F0116A385012000AF4
:10579F000E096E056E3850120037C010F0116A38BE
:1057AF0004120037C010F0116A170C050E596E0065
:1057BF0001FA5112000A0E096E38501200030E1D25
:1057CF006EDED81E6E1F0EC7EC1CF02B6E2B501FFB
:1057DF00082F6E0A0E1D6ED3D81E6E1F0EC7EC1C3F
:1057EF00F02B6E2B501F08306EA2D8030EDF64040F
:1057FF00D09ED8090EDF6434D09AD8030EDE180479
:10580F00E19CD8DE502F5C2CE392D8030EDE1808F3
:10581F00E194D82F50DE1804E1ACD8030EDF6020DE
:10582F00D086D80A0EDE1804E188D83050DE5C1816
:10583F00E37ED80A0EDE1808E180D83050DE180457
:10584F00E198D8010EDF640CD072D80A0EDE180E64
:10585F00E174D83050DE180AE18CD8170EDE180626
:10586F00E12A50D96EDA6A010EDF6E04D02A50D9C0
:10587F006EDA6ADF6A2A50D96EDA6ADF50D8B4124C
:10588F000078D8170EDE1848E174D8DF6A7FD8DFAA
:10589F002A7DD8080EDE1803E179D8010EDF6E6F6E
:1058AF00D82B6E030E2B1620E042D852D808E03FBB
:1058BF00D8020EDE1816E141D81C0EDE1812E137A1
:1058CF00D80C0EDE1808E12950D96E3DD836D80114
:1058DF000EDF6E2DD861D031D8010EDF6E28D8DFE4
:1058EF002A050C2BD8DF2A040C22D832D812E11F3C
:1058FF00D80C0EDE1808E12950D96E25D81ED80114
:10590F000EDF6E15D849D019D8010EDF6E10D8DF13
:10591F002A050C13D8DF2A040C2CD82950E16EE28B
:10592F006A020EE126E7502B6E2B28DF6E1200293C
:10593F0050D96EDA6A050ED926050C2950D96EDAC0
:10594F006A040ED926040CDA6A060ED926DF2A0657
:10595F000CDF502B6E2C6AE20E2B24D96E010E2C0D
:10596F0020DA6E2950E16EE26A040EE126DE50E67F
:10597F001812002950D96EDA6A020ED926020C29A4
:10598F0050D96EDA6A060ED926DF5012002950D987
:10599F006EDA6A030ED926030C010EDF6E010C2F8F
:1059AF00D0AE0E0E6E590E0F6EEC0E106E420E1123
:1059BF006EECEC11F02ED0AE0E0E6E590E0F6E5C1B
:1059CF00EC13F027D0392A070E396402D0010E39B3
:1059DF006EF5EC2AF044EC1AF004EC33F01AEC16E6
:1059EF00F018D03906395002E1070E396EF5EC2A5E
:1059FF00F044EC1AF004EC33F01AEC16F00AD0591C
:105A0F0050010ACEE0030ADEE0010AEBE0070AD3F9
:105A1F00E0010A5AA6CAD09F0EF66E7F0EF76E00EF
:105A2F000EF86EF7EC32F0000E8DEC1AF0A00EF6B9
:105A3F006E7F0EF76E000EF86EF7EC32F0060E8DDD
:105A4F00EC1AF0A10EF66E7F0EF76E000EF86EF7E1
:105A5F00EC32F00C0E8DEC1AF097D0D20EF66E7F62
:105A6F000EF76E000EF86EF7EC32F0120E8DEC1A88
:105A7F00F0D30EF66E7F0EF76E000EF86EF7EC3267
:105A8F00F0180E8DEC1AF091D0F00EF66E7F0EF727
:105A9F006E000EF86EF7EC32F0120E8DEC1AF0F17C
:105AAF000EF66E7F0EF76E000EF86EF7EC32F018F2
:105ABF000E8DEC1AF07AD086D8F7EC32F0120E8DEC
:105ACF00EC1AF079D8F7EC32F0180E8DEC1AF06D65
:105ADF00D0F90EF66E7F0EF76E000EF86EF7EC3201
:105AEF00F0120E8DEC1AF0FA0EF66E7F0EF76E00B6
:105AFF000EF86EF7EC32F0180E8DEC1AF056D0F659
:105B0F000EF66E7F0EF76E000EF86EF7EC32F01297
:105B1F000E8DEC1AF0F70EF66E7F0EF76E000EF884
:105B2F006EF7EC32F0180E8DEC1AF03FD0C30EF674
:105B3F006E7F0EF76E000EF86EF7EC32F0120E8DD0
:105B4F00EC1AF0C40EF66E7F0EF76E000EF86EF7BD
:105B5F00EC32F0180E8DEC1AF028D0CF0EF66E7FC7
:105B6F000EF76E000EF86EF7EC32F0120E8DEC1A87
:105B7F00F0D00EF66E7F0EF76E000EF86EF7EC3269
:105B8F00F0180E8DEC1AF011D03950010AE6E0032F
:105B9F000A01E163D7010A01E177D7070A8CE00117
:105BAF000A97E0030AACE0010AC1E0A40E076E3EBB
:105BBF00EC13F05A861200E20EF66E7F0EF76E00AF
:105BCF000EF86E1200E10EF66E7F0EF76E000EF8F5
:105BDF006E12009AEC11F027C0B9F328C0BAF3295E
:105BEF00C0BBF32AC0BCF30B0E0FD9D89097359BCF
:105BFF006F98359C6F99359D6F9A359E6F030E9FE9
:105C0F006FB9C3A0F3BAC3A1F3BBC3A2F3BCC3A3C1
:105C1F00F39F6701D007D0A335A333A233A133A0DD
:105C2F00339F2FF6D703019B51A05D056E9C51A1A9
:105C3F0059066E9D51A259076E9E51A359086E8247
:105C4F00C009F083C00AF014EC39F06BEC14F003C8
:105C5F0001966701D004D0EAEC38F0962FF8D705FB
:105C6F00C0A9F306C0AAF307C0ABF308C0ACF30C8E
:105C7F000ECBD8040E9B6FB9C39CF3BAC39DF3BB75
:105C8F00C39EF3BCC39FF39B6701D007D09F359F83
:105C9F00339E339D339C339B2FF6D7030197519C33
:105CAF005D056E98519D59066E99519E59076E9AD2
:105CBF00519F59086E000184510301A06F000185A7
:105CCF00510301A16FA26BA36B040EA46FB9C3A5FF
:105CDF00F3BAC3A6F3BBC3A7F3BCC3A8F3A467016E
:105CEF00D007D0A835A833A733A633A533A42FF6F2
:105CFF00D70301A051A55D096EA151A6590A6EA245
:105D0F0051A7590B6EA351A8590C6E6BEC14F003ED
:105D1F0001966701D004D0EAEC38F0962FF8D7053A
:105D2F00C0B5F306C0B6F307C0B7F308C0B8F30E9B
:105D3F000E0301966FB5C305F0B6C306F0B7C307E0
:105D4F00F0B8C308F080C009F081C00AF014EC3934
:105D5F00F06BEC14F00301966701D004D0EAEC3835
:105D6F00F0962FF8D705C0ADF306C0AEF307C0AF5E
:105D7F00F308C0B0F30301AD51A9250001606F0313
:105D8F0001AE51AA210001616F0301AF51AB210098
:105D9F0001626F0301B051AC210001636F60C00558
:105DAF00F061C006F062C007F063C008F0050E098D
:105DBF006E0A6A0B6A0C6A6BEC14F0800E052403F2
:105DCF0001966F000E0620976F000E0720986F0048
:105DDF000E0820996F97C396F398C397F399C398BA
:105DEF00F3996B98BF996996C3B1F397C3B2F398C0
:105DFF00C3B3F399C3B4F3B1C32FF0B2C330F0B34D
:105E0F00C331F0B4C332F012000301966F00018466
:105E1F00510301976F000185510301986F996B9A98
:105E2F006B12000DD1A8EC0FF0520404E00001D763
:105E3F0051D81164E115D91EEC36F07AEC13F00C41
:105E4F00500001966F12D958EC36F021EC14F00582
:105E5F00C06CF006C06DF0050E0001966502D06CA7
:105E6F004B6D2B08D958EC36F021EC14F005500689
:105E7F001019E1010E15EC36F0030EC8EC1BF06C97
:105E8F00C011F055C012F056C013F057C014F00DEA
:105E9F000E6DEC1CF0B00E116E0AEC36F0130E6D99
:105EAF00EC1CF0AAD0010E15EC36F0030EC8EC1B5B
:105EBF00F0086A0A0E076EDED821EC14F026EC2AE1
:105ECF00F07AEC13F00C5002EC36F00B0E6DEC1C6C
:105EDF00F06CC00CF06DC00DF01EEC36F07AEC13C8
:105EEF00F00C5002EC36F0110E6DEC1CF0B00E11F0
:105EFF006E0AEC36F0170E6DEC1CF07ED0200E13F0
:105F0F006E13501CEC14F0132A300E1364F9D708DB
:105F1F006A640E076EAAD821EC14F026EC2AF07AE8
:105F2F00EC13F043EC36F0A1D821EC14F026EC2A58
:105F3F00F07AEC13F05CEC36F093D81EEC36F07A76
:105F4F00EC13F02EEC36F037E0010E15EC36F002C4
:105F5F000EC8EC1BF03AEC36F002EC36F00B0E6D7F
:105F6F00EC1CF011EC36F002EC36F0110E6DEC1C5F
:105F7F00F093C111F00AEC36F0170E6DEC1CF06CBB
:105F8F00D802EC36F01A0E6DEC1CF095C111F0C072
:105F9F00EC2BF0200E8DEC1AF03D0E126EE10E116F
:105FAF006E400EE82EFED7112EFCD7122EFAD70810
:105FBF000E90EC15F021D0010E15EC36F0020EC844
:105FCF00EC1BF011EC36F002EC36F00B0E6DEC1C06
:105FDF00F093C111F00AEC36F0110E6DEC1CF03C91
:105FEF00D802EC36F0140E6DEC1CF095C111F00ACE
:105FFF00EC36F01A0E6DEC1CF022EC36F04BEC3652
:10600F00F01AEC36F044EF1AF0050E596E0DEC173E
:10601F00F096EC25F001EC1AF03FEC3CF001EC1A95
:10602F00F04F5006E071EC31F066EC31F044EF1AAE
:10603F00F00ED866EC31F044EC1AF0B5EF28F059B9
:10604F0050040AE2E0010A01E1EDD6030A12008EC4
:10605F000E056E600E066E120001019451D00F12E4
:10606F0000D7C00CF0D8C00DF01200D7C005F0D883
:10607F00C006F012006CC005F06DC006F012005A99
:10608F0080DED04A500EEC33F0020E4A1803E13195
:10609F00EC3CF002D00001996B050E42640DD00765
:1060AF000E42600AD0D70E0B6EFB0E0C6EFC0E0D5F
:1060BF006EFD0E0E6EF5EC22F00E0E426405D01042
:1060CF000E426002D0030E596E270E4264C6D029CD
:1060DF000E4260C3D0505004E043B002D0020EA66F
:1060EF00D0030EA4D05A90240E94EC12F0500E94BC
:1060FF00EC12F00D0E94EC12F00A0E94EC12F0EE7E
:10610F00D801EC1AF06E0E056E540EFCEC19F0323D
:10611F000E096E44EC1AF0F5EC2AF044EC1AF0205C
:10612F00EE42F010EE36F0060EDBCFE3FFE806FC92
:10613F00E2050E596E5A96020E4A1801E08ED0C42F
:10614F00D8C0EC2BF00D0E8DEC1AF087D000019912
:10615F006B5A907CEC23F01EC0DDF01FC0DEF060A8
:10616F00EC27F01EC0DFF01FC0E0F0F1EC2DF02F98
:10617F00C0DBF030C0DCF061EC36F02FC0D9F0306E
:10618F00C0DAF0020E4A1807E1170E116EC0EC2BA1
:10619F00F00D0E8DEC1AF00DEC17F050500CE09E38
:1061AF00D801EC1AF02A0E056E4A0E066E87D844F7
:1061BF00EC1AF099D852D092D801EC1AF0E80E05EB
:1061CF006E520E066E7BD844EC1AF0F3D75A904EEF
:1061DF005017E08DD807E1170E116EC0EC2BF00DA4
:1061EF000E8DEC1AF00DEC17F079D801EC1AF03295
:1061FF000E056E5E0E066E62D844EC1AF074D8155A
:10620F00D04F5013E074D807E1170E116EC0EC2B6E
:10621F00F00D0E8DEC1AF00DEC17F060D801EC1AA2
:10622F00F058D84CD844EC1AF0E9D7050E596E1532
:10623F00D0050E596E96EC25F001EC1AF00ED059E0
:10624F0050010A01E14FD7030A81E0010ABFE007BD
:10625F000AEFE0010A01E115D7030A5AA604D0A4F8
:10626F000E076E3EEC13F04B5008E042A05AA40507
:10627F00D05A9487EC10F0E7EC12F05A8600019890
:10628F005146181AE1050E096E435012EC11F00039
:10629F0009D8A41200230E4218D8B45AA21200141F
:1062AF00D8C0EC2BF00D0E8DEC1AF03AEC3CF0044C
:1062BF00EC13F0010E996F010C5A921200086A0745
:1062CF006A0A6A140E096E140C0001996B170E11ED
:1062DF006E170C400E056E690E066E12008E0E05BF
:1062EF006E600E066E1200050E596E5A96050C0062
:1062FF0001996B020E4A1812002DD0080E0E6E6314
:10630F000E0F6EF80E106E4F0E116EECEC11F02C8E
:10631F00D0080E0E6E630E0F6E5CEC13F025D03BA3
:10632F002A0C0E3B6402D0010E3B6EF5EC2AF044B2
:10633F00EC1AF062D91AEC16F017D03B063B50025C
:10634F00E10C0E3B6EF5EC2AF044EC1AF055D91A1D
:10635F00EC16F00AD05950010AD0E0030AE0E00130
:10636F000AECE0070AD5E0010A5AA633D1AB0EF6C4
:10637F006E7F0EF76E000EF86E32D9000E8DEC1A8E
:10638F00F0AC0EF66E7F0EF76E000EF86E28D90683
:10639F000E8DEC1AF0AD0EF66E7F0EF76E000EF846
:1063AF006E1ED90C0E8DEC1AF0F4D0FC0EF66E7F2B
:1063BF000EF76E000EF86E13D9120E8DEC1AF0FD5B
:1063CF000EF66E7F0EF76E000EF86E09D9180E8D51
:1063DF00EC1AF0FFD0F30EF66E7F0EF76E000EF88C
:1063EF006EFED8120E8DEC1AF0F40EF66E7F0EF7CD
:1063FF006E000EF86EF4D8180E8DEC1AF0EAD0D8A5
:10640F000EF66E7F0EF76E000EF86EE9D8120E8D37
:10641F00EC1AF0D90EF66E7F0EF76E000EF86EDFE7
:10642F00D8180E8DEC1AF0D5D0CC0EF66E7F0EF775
:10643F006E000EF86ED4D8120E8DEC1AF0CD0EF64B
:10644F006E7F0EF76E000EF86ECAD8180E8DEC1A0E
:10645F00F0C0D0E40EF66E7F0EF76E000EF86EBF32
:10646F00D8120E8DEC1AF0E50EF66E7F0EF76E0059
:10647F000EF86EB5D8180E8DEC1AF0ABD0E70EF6FD
:10648F006E7F0EF76E000EF86EAAD8120E8DEC1AF4
:10649F00F0E80EF66E7F0EF76E000EF86EA0D818AD
:1064AF000E8DEC1AF096D0D50EF66E7F0EF76E00AD
:1064BF000EF86E95D8120E8DEC1AF0D60EF66E7F82
:1064CF000EF76E000EF86E8BD8180E8DEC1AF08149
:1064DF00D0EAEC2DF084D8120E8DEC1AF0E3EC2DEF
:1064EF00F07ED8180E8DEC1AF074D0DB0EF66E7F9E
:1064FF000EF76E000EF86E73D8120E8DEC1AF0DCDC
:10650F000EF66E7F0EF76E000EF86E69D8180E8DB0
:10651F00EC1AF05FD0C90EF66E7F0EF76E000EF814
:10652F006E5ED8120E8DEC1AF0CA0EF66E7F0EF755
:10653F006E000EF86E54D8180E8DEC1AF04AD0EA91
:10654F000EF66E7F0EF76E000EF86E49D8120E8D96
:10655F00EC1AF0EB0EF66E7F0EF76E000EF86E3F34
:10656F00D8180E8DEC1AF035D0DE0EF66E7F0EF7C2
:10657F006E000EF86E34D8120E8DEC1AF0DF0EF698
:10658F006E7F0EF76E000EF86E2AD8180E8DEC1A6D
:10659F00F020D03B50010A01E108D7030A01E11AAC
:1065AF00D7010A01E12CD7070A01E13ED7010A0101
:1065BF00E150D7030A01E162D7010A01E174D70F55
:1065CF000A87E0010A92E0030AA5E0010AB8E00792
:1065DF000ACBE0A40E076E3EEC13F05A86120008A9
:1065EF0000F5CF11F0290E126E790E136E000E14F6
:1065FF006EA40E156E166A1200050E596E3AC01073
:10660F00F03BC011F03CC012F039501200336E163F
:10661F00D10001996B346A6ED95FEC12F012EC1154
:10662F00F000090CE03450266E276A64D95FEC1233
:10663F00F012EC11F016D9A40F68D903D034501C06
:10664F00EC14F05DD9445012EC11F00BD9AA0F5D88
:10665F00D956D9056E43505FEC12F012EC11F001D0
:10666F00D9B10F53D94CD9435012EC11F0FAD8B716
:10667F000F4CD9342A040E3464CED7346A40D9056E
:10668F006E42505FEC12F012EC11F0030D0BD9BDFE
:10669F000F3CD935D9425012EC11F0030D03D9C17B
:1066AF000F34D9342A020E3464E9D70001A96B8064
:1066BF000EAF6FB06FB66BBC6BC06B1200010E00EC
:1066CF0001996F18D95FEC12F012EC11F0406E2C9B
:1066DF00D912EC11F03F6E1FD95FEC12F012EC11D2
:1066EF00F03E6E1ED912EC11F03D6E405000019E2F
:1066FF001909E13F509D1906E13E509C1903E13DF8
:10670F00509B196EE03D509B1909E00AD912EC110C
:10671F00F002EC36F0190E6DEC1CF007D001D91217
:10672F00EC11F094D8190E8DEC1AF03E5000019C2C
:10673F00190BE0F1D85FEC12F012EC11F002EC360D
:10674F00F0130E6DEC1CF009D0E6D85FEC12F012CE
:10675F00EC11F07CD8130E8DEC1AF03F5000019D18
:10676F001909E0E2D812EC11F002EC36F0070E6DC9
:10677F00EC1CF007D0D9D812EC11F068D8070E8DA9
:10678F00EC1AF0B8D85FEC12F012EC11F000091906
:10679F00E0405000019E190BE0ADD85FEC12F012F3
:1067AF00EC11F002EC36F0010E6DEC1CF010D0A2E3
:1067BF00D85FEC12F012EC11F049D8010E8DEC1AE3
:1067CF00F006D0116A0AEC36F0010E6DEC1CF040A9
:1067DF00C09EF03FC09DF03EC09CF03DC09BF012AC
:1067EF000089D85FEC12F012EC11F000090AE08278
:1067FF00D85FEC12F012EC11F029D8010E8DEC1AC3
:10680F00F006D0116AC0EC2BF0010E8DEC1AF08C53
:10681F00D812EC11F01BD8070E8DEC1AF07CD85F54
:10682F00EC12F012EC11F012D8130E8DEC1AF07866
:10683F00D812EC11F00BD8190E8DEF1AF03350015E
:10684F000A01E1E6D6030A01E139D71200116E55AC
:10685F00C012F056C013F057C014F0A40E156E16E8
:10686F006A1200050DF3CF28F0F4CF29F028505508
:10687F00242A6E295056202B6E000E29BEFF0E576C
:10688F00202C6E26502A242D6E27502B202E6E0082
:10689F000E2C202F6E2DC0F6FF2EC0F7FF2FC0F845
:1068AF00FF34501200F3CF28F0F4CF29F0030E2855
:1068BF0026000E2922E60E2A6E780E2B6E000E2C65
:1068CF006E28502A242D6E29502B202E6E000E2C50
:1068DF00202F6E26502D24306E27502E20316E0023
:1068EF000E2F20326E30C0F6FF31C0F7FF32C0F8E6
:1068FF00FF345012000A0E096E056E445012003418
:10690F0050266E276A0A0E096E0A0CD96EDA6A08CB
:10691F0000F5CFDFFF12000A0E096E056E4350120D
:10692F00000A0E096E435012000A0E096E445012EF
:10693F000059D1A8EC0FF00001A05118E0020E6D24
:10694F00D9000EC8EC1BF0450E116E5CD9090E6D07
:10695F00EC1CF0720E116E56D90F0E6DEC1CF0720E
:10696F000E116E50D9150E6DEC1CF023D1D52903E5
:10697F00E1D62901E107D1520403E0D551D61175B3
:10698F00E175D954D97AEC13F00C500001956F7E54
:10699F00D987D921EC14F005C06AF006C06BF00559
:1069AF000E0001956502D06A4B6B2B75D979D921F1
:1069BF00EC14F0055006102FE1020E2FD9030EC86C
:1069CF00EC1BF000016A516B1116E058C011F01A60
:1069DF00D90D0E6DEC1CF035D929D97AEC13F00CCA
:1069EF005009D9130E6DEC1CF0B00E116E0BD919A6
:1069FF000E6DEC1CF0DED025D919D97AEC13F00C02
:106A0F0050F9D80D0E6DEC1CF0B00E116EFBD813B3
:106A1F000E6DEC1CF0CED0020E00D9000EC8EC1B90
:106A2F00F058C011F0EFD8090E6DEC1CF0086A0A8F
:106A3F000E076E31D921EC14F026EC2AF07AEC1304
:106A4F00F00C50D8D80F0E6DEC1CF0FBD8EFD87AA5
:106A5F00EC13F00C50CFD8150E6DEC1CF0B00E11DE
:106A6F006ED1D81B0E6DEC1CF0A4D0200E286E2812
:106A7F00501CEC14F0282A300E2864F9D7086A64E9
:106A8F000E076E04D921EC14F026EC2AF07AEC13E1
:106A9F00F0F2D8FCD821EC14F026EC2AF07AEC13A3
:106AAF00F003D9E4D8C3D87AEC13F0D0D839E00288
:106ABF000EB4D8030EC8EC1BF058C011F0A3D80BBE
:106ACF000E6DEC1CF0CFD896D8110E6DEC1CF0A10A
:106ADF00D891D8170E6DEC1CF093C111F093D81DFF
:106AEF000E6DEC1CF001019451D00F2EEC34F02000
:106AFF000E8DEC1AF095C111F0C0EC2BF0260E8D17
:106B0F00EC1AF03D0E276EE10E266E400EE82EFEBB
:106B1F00D7262EFCD7272EFAD70A0E90EC15F04960
:106B2F00D0020E7BD8010EC8EC1BF058C011F06AD2
:106B3F00D80B0E6DEC1CF06DD85DD8110E6DEC1CE2
:106B4F00F093C111F05FD8170E6DEC1CF034EC30E0
:106B5F00F051D81A0E6DEC1CF095C111F0C0EC2B52
:106B6F00F0200E8DEC1AF03D0E276EE10E266E40D2
:106B7F000EE82EFED7262EFCD7272EFAD7080E901A
:106B8F00EC15F017D0020E49D8000EC8EC1BF02DF3
:106B9F000E116E38D8090E6DEC1CF02D0E116E32E1
:106BAF00D80F0E6DEC1CF02D0E116E2CD8150E6D2E
:106BBF00EC1CF040D868D836D844EF1AF0050E59BF
:106BCF006E0DEC17F0B5EC28F096EC25F001EC1AF1
:106BDF00F044EC3CF001EC1AF02FEC30F066EC31A5
:106BEF00F044EF1AF05950040AE9E0010A01E1A15B
:106BFF00D6030A1200116E55C012F056C013F0578B
:106C0F00C014F01200290E126E790E136E000E14BE
:106C1F006E120001019251D00F12000C6EA40E0DD6
:106C2F006E0E6A1200076E0A6A096A12000F6A0A6C
:106C3F000E0E6E0A0C060E596EB00E056E1E0E0667
:106C4F006E12006AC00CF06BC00DF012000C5030C9
:106C5F000F0101946F2E0E936FB00E956F966B30E0
:106C6F000E9119120001019151D00F1200D5C00CD5
:106C7F00F0D6C00DF012000C50300F0101916F08CB
:106C8F006A0A0E076E0A0C020E086E8A0CD5C00532
:106C9F00F0D6C006F012006AC005F06BC006F01205
:106CAF0000086A0A0E076E0A0C0C50300F01019291
:106CBF006F120086EC11F027C0A3F328C0A4F329AC
:106CCF00C0A5F32AC0A6F360C096F361C097F36224
:106CDF00C098F363C099F303019935D1DA000E968A
:106CEF0025B36F060E9721B46FFF0E9821B56FFF76
:106CFF000E9921B66F0B0E2BDA6BEC14F003019685
:106D0F006701D003D05FDA962FF9D762DAA7C305F0
:106D1F00F0A8C306F0A9C307F0AAC308F076C0090C
:106D2F00F077C00AF079DA6BEC14F08EDA78C005E0
:106D3F00F079C006F056DA6BEC14F0D890053403F6
:106D4F0001966F0634976F0734986F0834996F96D2
:106D5F0051AB279751AC239851AD239951AE2300D6
:106D6F00017A510301966F00017B510301976F98D0
:106D7F006B996B97C399F396C398F3976B966B02C6
:106D8F000E9A6FABC39BF3ACC39CF3ADC39DF3AE35
:106D9F00C39EF39A6701D007D09E359E339D339CD7
:106DAF00339B339A2FF6D7030196519B25AB6F97E1
:106DBF00519C21AC6F98519D21AD6F99519E21AE81
:106DCF006F0D0EC5D96BEC14F00301966701D0035C
:106DDF00D0F9D9962FF9D7FCD9120E0301966F036C
:106DEF000E976F7CC005F07DC006F0000E08DA6BC1
:106DFF00EC14F005C098F306C099F307C09AF30896
:106E0F00C09BF30301976701D007D09B359B339A43
:106E1F003399339833972FF5D77EC005F07FC0068F
:106E2F00F0E0D96BEC14F0CED90550030198259CF6
:106E3F006F065099219D6F07509A219E6F08509BA6
:106E4F00219F6F966701D007D09F359F339E339D4B
:106E5F00339C33962FF6D79CC3B3F39DC3B4F39EE5
:106E6F00C3B5F39FC3B6F30F0E0301966F000EB3B6
:106E7F0025056E800EB421066E000EB521076E003B
:106E8F000EB621086EF8C009F0F9C00AF00B6A0CB3
:106E9F006A6BEC14F00301966701D003D093D99677
:106EAF002FF9D7DBD90301B351B411B511B61105C1
:106EBF00E12F6A306A316A326A12000C0E966FAB9C
:106ECF00C397F3ACC398F3ADC399F3AEC39AF396DC
:106EDF006701D004D09A35CED9962FF9D7A3C39B8B
:106EEF00F3A4C39CF3A5C39DF3A6C39EF303019B19
:106EFF001F9C1F9D1F9E1F9B2B000E9C239D239E3F
:106F0F002397519B5D9F6F98519C59A06F99519DED
:106F1F0059A16F9A519E59A26F000E9F25056E00C1
:106F2F000EA021066E100EA121076E000EA22108E1
:106F3F006E350E096E0C0E9AD96BEC14F005C0AFBE
:106F4F00F306C0B0F307C0B1F308C0B2F3800E036D
:106F5F0001B25D0EE2D890AF35116EB035126EB141
:106F6F0035136EB235146E67D952EC18F05BD91524
:106F7F00D0AFC311F0B0C312F0B1C313F0B2C3144A
:106F8F00F05AD952EC18F0D89011340301AF6F12A8
:106F9F0034B06F1334B16F1434B26FAFC396F3B014
:106FAF00C397F3B1C398F3B2C399F3040E03D0039D
:106FBF0001D89065D9E82EFBD796C305F097C30685
:106FCF00F098C307F099C308F0AFC39AF3B0C39B0F
:106FDF00F3B1C39CF3B2C39DF3040E05D0D8909DBB
:106FEF00339C339B339A33E82EF9D79AC309F09B1E
:106FFF00C30AF09CC30BF09DC30CF06BEC14F00EA6
:10700F000E05D0D8900832073206320532E82EF935
:10701F00D7DFD80C0E0301966F70C005F071C00654
:10702F00F0000EEDD86BEC14F00301966701D0035E
:10703F00D0C9D8962FF9D711D90D0E0301966FAF7E
:10704F00C397F3B0C398F3B1C399F3B2C39AF303E1
:10705F000E02D0D8900FD9E82EFCD797C305F09821
:10706F00C306F099C307F09AC308F072C009F07312
:10707F00C00AF0D2D86BEC14F00301966701D0036D
:10708F00D0A1D8962FF9D7E0D8040E0301966F74CC
:10709F00C097F375C098F3000E98BFFF0E996F9AC3
:1070AF006FB35197259B6FB45198219C6FB5519930
:1070BF00219D6FB6519A219E6FAB519B259F6FAC4F
:1070CF00519C21A06FAD519D21A16FAE519E21A268
:1070DF006F966701D007D0A235A233A133A0339F9B
:1070EF0033962FF6D70301AF519F25AF6FB051A045
:1070FF0021B06FB151A121B16FB251A221B26FAFC7
:10710F00C305F0B0C306F0B1C307F0B2C308F0E88F
:10711F000E096E030EABD86BEC14F005C011F00620
:10712F00C012F007C013F008C014F0140E156E341F
:10713F000E166E176A186A52EC18F074D8AFC32F78
:10714F00F0B0C330F0B1C331F0B2C332F0120096D9
:10715F006F020E976FB3C398F3B4C399F3B5C39A85
:10716F00F3B6C39BF3976701D007D09B359B339A38
:10717F003399339833972FF6D798C305F099C306F1
:10718F00F09AC307F09BC308F0020E03019C6FB384
:10719F00C39DF3B4C39EF3B5C39FF3B6C3A0F39CD3
:1071AF006701D007D0A035A0339F339E339D339C0A
:1071BF002FF6D79DC309F09EC30AF09FC30BF0A013
:1071CF00C30CF012000834083207320632053212AF
:1071DF000005C0A7F306C0A8F307C0A9F308C0AA0B
:1071EF00F31200000E06BEFF0E076E086EB3C30942
:1071FF00F0B4C30AF0B5C30BF0B6C30CF01200061F
:10720F00BEFF0E076E086EA7C309F0A8C30AF0A948
:10721F00C30BF0AAC30CF01200000E0ABEFF0E0B38
:10722F006E0C6E120011C0AFF312C0B0F313C0B1E9
:10723F00F314C0B2F31200B3C315F0B4C316F0B514
:10724F00C317F0B6C318F0120005C0ABF306C0ACFD
:10725F00F307C0ADF308C0AEF3120005C0B3F306D9
:10726F00C0B4F307C0B5F308C0B6F312000A6E0B33
:10727F006A0C6A12009A3399339833973312009934
:10728F0033983397339633120024D04BEC11F00E12
:10729F006E000E9425D96EDA6A020EDA220EC0DF66
:1072AF00FF942B010E946515D0FF0E9425D96EDA3D
:1072BF006A010EDA220A0EDE180CE1FE0E9425D9B1
:1072CF006EDA6A010EDA220D0EDE1803E1010E9757
:1072DF006F02D04150DAE1415002E16DEC0FF00046
:1072EF00019751D8B41200240E0201001901E128B0
:1072FF00D25AD2B9EC14F057D2240E94EC12F04AB1
:10730F000E94EC12F0106A1050490F39EC19F094EA
:10731F00EC12F0102A0B0E1064F6D70D0E94EC122F
:10732F00F00A0E94EC12F03FD2106A07D06FDAEF2A
:10733F000E1024E16EE26A010E87DA5FDAD8EC13E1
:10734F00F0FE0E4DDA01E22FD2F1D75AA01CD07603
:10735F00DA386E68DA376E6CDA366E0001FA510C75
:10736F00E0385005E15ADA170E99EC13F009D055B1
:10737F00DA380499EC13F004D050DA385099EC1342
:10738F00F029EC10F010D21DEC10F00DD214DA0E23
:10739F00040F1005E010DA020E0E180F10F4E102C0
:1073AF0051D00F4A6E4AC005F0010ECAEC10F0A87A
:1073BF00EC0FF04A0403E10001996B01D04ADA9F08
:1073CF006BDFD7010E16DACAEC10F0EAEC15F022DB
:1073DF00D0020E0FDACAEC10F0F8D7030E0ADACA91
:1073EF00EC10F0F3D7040E05DACAEC10F0EED70567
:1073FF000E00DACAEC10F0E9D7DED90F500BE10E10
:10740F0050010ADFE0030AE4E0010AE7E0070AEAB5
:10741F00E0010AEDE0D00E02010225D4D90FBE051E
:10742F00D00F50B1E1060E0E5CAEE2C5D90E500F73
:10743F0010AAE0A6D7F7D9106EFBD9116E08510A22
:10744F000DF3500925F00F126EF9D91AEC16F098BA
:10745F00D7B2D90E500F1004E0AED90E040F10930F
:10746F00E10251D00F4B6E0351D00F4C6E4BC00544
:10747F00F0020ECAEC10F04B5083E14CC005F00344
:10748F000ECAEC10F0F2EC22F078EC10F079D793F2
:10749F00D90E500F1005E08FD90E040F1001E073B5
:1074AF00D70251D00F4D6E4DC005F0040ECAEC102F
:1074BF00F067D781D90E500F1005E07DD90E040F5C
:1074CF001001E061D7D00E03257DD90E500F1007A4
:1074DF00E0D00E032577D90E040F1001E054D70228
:1074EF0051D00F4E6E0351D00F4F6E4EC005F005A9
:1074FF000ECAEC10F0CDD9CAEC10F042D75CD90E01
:10750F00500F1005E058D90E040F1001E03CD702C0
:10751F0051D00F506EBAD9CAEC10F032D74CD90EE9
:10752F00500F1005E048D90E040F1001E02CD702C0
:10753F0051D00F516EFAEC20F0CAEC10F021D73B6E
:10754F00D90E040F1006E037D9020E0E180F1001D6
:10755F00E01AD70251D00F526E52C005F0090ECA71
:10756F00EC10F00ED728D90E040F1005E024D90E19
:10757F00500F1001E008D70251D00F546E2BEC269C
:10758F00F0CAEC10F0FDD629EC10F03D0E0F6EE1B5
:10759F000E0E6E400EE82EFED70E2EFCD70F2EFAD3
:1075AF00D73D0E0F6EE10E0E6E400EE82EFED70E7B
:1075BF002EFCD70F2EFAD73D0E0F6EE10E0E6E403A
:1075CF000EE82EFED70E2EFCD70F2EFAD73D0E0F3C
:1075DF006EE10E0E6E400EE82EFED70E2EFCD70F6C
:1075EF002EFAD7FF00E0D0610E021913E1200E969C
:1075FF006F010E106E07D00AD9960E1024E16EE2BD
:10760F006A020E22D9FAD8D8EC13F0FD0EE8D8068C
:10761F00E3F2D76F0E021902E15A92B2D629EC109B
:10762F00F046C098F05A820001996B21D901EC1AEB
:10763F00F023D901EC1AF09BEC25F001EC1AF00DB8
:10764F00D901EC1AF00FD904EC13F02FEC30F066DF
:10765F00EC31F044EC1AF0B5EC28F0FBD8A4D024B0
:10766F000E94EC12F0760E94EC12F0280E94EC12AD
:10767F00F0106A0FD010500E6E0F6A7C0E0E24F6AB
:10768F006E7F0E0F20F76EF86A000EFBD894EC1287
:10769F00F0102A7C0E056E7F0E066E000E076ED858
:1076AF00EC13F095D8E7E3290E94EC12F0200E942A
:1076BF00EC12F0200E94EC12F0106A0FD010500E56
:1076CF006E0F6A680E0E24F66E7F0E0F20F76EF89F
:1076DF006A000ED7D894EC12F0102A680E056E7F50
:1076EF000E066E000E076ED8EC13F071D8E7E3208C
:1076FF000E94EC12F0106A0FD010500E6E0F6A73CA
:10770F000E0E24F66E7F0E0F20F76EF86A000EB97C
:10771F00D894EC12F0102A730E056E7F0E066E00D1
:10772F000E076ED8EC13F053D8E7E30D0E94EC125E
:10773F00F00A0E94EC12F037D00251760A90E02343
:10774F00D60151440A01E1D5D50E0A01E1D5D51A6A
:10775F000A01E1EAD5030A01E146D7320A01E1A99C
:10776F00D6030A01E175D6010A01E110D6070A0115
:10777F00E161D6010A01E1C2D6030A01E13DD61447
:10778F000ADBE0010A01E183D6070A01E1DED50237
:10779F000A01E1D5D6010A01E1C1D60E0A01E1E2E3
:1077AF00D6030A01E1F0D60201006B016B026B00F8
:1077BF0001946B976B1200D00E02250E6E0F6AFFAD
:1077CF000E0F22FF0C0E6E0F6AFF0E0F22FF0C1012
:1077DF00500E6E0F6A05500E5C06500F58120005C2
:1077EF00240E6EFF0E06200F6E10500E5C000E0F53
:1077FF00581200496E49C005F0000C000E056E02CC
:10780F000E066E0510D8A4800E076E1200020E1021
:10781F0024D96EDA6A020EDA22120037C010F0365F
:10782F00C011F0120004510A0DF3500525F00F128C
:10783F000006510A0DF3500725F00F120002510AEE
:10784F000DF3500325F00F1200E222DFCFE7FF10F8
:10785F002A1200010E0001996F010CE80E056E52FD
:10786F000E066E1200960E156E020E166E12003276
:10787F000E056E5E0E066E1200400E056E690E0648
:10788F006E1200F8220800F550120050C005F007E4
:10789F000C4FC005F0060C000000000000000008AF
:1078AF007C4E4F4E7C08000426473F0706040020FD
:1078BF003E7F7F3F3E20007E121E00701000004C66
:1078CF006C30186C6400007711661166004400413B
:1078DF00516B45410000000000007C447C007C009F
:1078EF0074545C54547C1C107C5C54747C5474042D
:1078FF00047C7C547C5C547C000101020203040470
:10790F0005060607070809090233C82A702AF8274F
:10791F00782BFDBFEF7FFBDFF7FE00000000004577
:10792F0051453E006B6F6B3E003E7C3E1C003C7E23
:10793F003C1800367F3630000000000000000000C9
:10794F000000000000000000000000000000000028
:10795F000000000000000000000000000000000018
:10796F000000000000000000000000000000000008
