:0510000007EF08F001FC
:0A1008005B8241ED19F0D8EF1AF0F9
:101EB200040E596E040CF28EF28C1200959E8C9ECA
:101EC200120088EC0FF0C582120088EC0FF0C5807A
:101ED200120088EC0FF0C584120000018D6B8C6B30
:101EE200416A1200066E88EC0FF006C0C9FF1200AC
:101EF200170E06EC10F0096E0950010B1200F29455
:101F0200D76A160ED66E010E0001926F010CC7B48D
:101F1200FED7C5CF05F01F0E0516F9E11F0C8B94F5
:101F2200FF0EC3EC11F0076E8B84075012009586EA
:0E1F3200959894929494959A958C8B841200B5
:101F4100010101020101010101010100F17E002BEA
:101F510005056A05501DEC14F0052A1F0E0564F9EC
:101F6100D71F0CC70ED56EF28AD76A160ED66E0031
:101F710001936B12000001FC2B950EFC65950CFC86
:101F81006B010EFB6FCD90010C056EA6B2FED7055D
:101F9100C0A9FFA69EA69CA680A8501200066E06A8
:101FA100C005F00F0E051606380F0B0A0DF350058C
:101FB10024120090EC0FF00A6E0ABC010C79EC0FB0
:101FC100F00009D8B4010C000C086E8B9408502065
:101FD10009C3EC11F00750C3EC11F08B8412000D12
:101FE100C007F00EC008F00FC009F0050E0A6E2BF5
:101FF1000E7AEF12F0030E9312280EC66EC76A779F
:102001000EC86EC584C5A41200FDD7076E8B940758
:1020110050C3EC11F0000EC3EC11F0086E8B840874
:102021005012000BC007F089C008F0610ED8EC1106
:10203100F0400E076E070EE5EF0FF0450E95EC121E
:10204100F0520E95EC12F00D0E95EC12F00A0E9571
:10205100EF12F04F0E95EC12F04B0E95EC12F00DC5
:102061000E95EC12F00A0E95EF12F001EC11F0E76B
:102071000E0001E56FE50E086E800E34EC15F003DD
:10208100EF19F0839C959C040EE82EFED7838C9566
:102091008C180EE82EFED783BC010C000CCD9015D8
:1020A1000ECF6EA00ECE6E9D80B192B180A082F057
:1020B1000EB36E600EB26E600CFF0E0524076EFF4C
:1020C1000E0620086E07C0EFF008C0F0F00001F125
:1020D1006BF26B12001F1D1F1E1F1E1F1F1E1F1ED6
:1020E1001F3139322E3136382E342E3100000000A6
:1020F10000086E8C90096A085098EC10F00750980F
:10210100EC10F0092A030E0964F6D78C80030CC287
:1021110082C2B2FED7C450066E056AC350052400C0
:1021210001E16F000E0620E26F00000000120005C1
:102131006E066A05AE02D08C8401D08C948C82002C
:10214100008C92D8900536062A070E0664F2D7074E
:102151000C07D82A0E7AEC12F003D8300E7AEF125F
:10216100F00DC007F00EC008F00FC009F0050E0A0F
:102171006E050C056E839C959C050405E1080EE82F
:102181002EFED7838C958CFC0E00D0E82EFDD783D4
:102191008C958C1200066EA6B2FED706C0A9FF056B
:1021A100C0A8FFA69EA69CA684F29E550EA76EAA65
:1021B1000EA76EA682F28EAA0C066E88EC0FF0C5F1
:1021C1008688EC0FF0C9CF07F088EC0FF0065002BB
:1021D100E1C58A01D0C59AC58807501200166E164E
:1021E100C0E5F064EC1CF0020E69EC1CF003EC1984
:1021F100F00001E651146EE551126E14C013F01295
:1022010000FE0E0001FCEC23F026EC11F0040E0C94
:102211006E0C0E0B6E340EE82EFED70B2EFCD70C77
:102221002EFAD712000A6E080E0B6E0C6AD8900AAD
:10223100340C340C6ED8900A3609500C5C02E30958
:10224100500C5E0B2EF3D70C50120066EC0FF00809
:102251005073EC0FF00A6A07D007500A2438EC19C2
:10226100F073EC0FF00A2A09500A5CF6E36AEF0FEB
:10227100F00F6E0A0E096E0F5013EC11F00D6E0F78
:102281000E0D160A0E056E0F5060EC12F00E6E0E5A
:1022910038F00B0D1012004150FEE0000E00018CD1
:1022A10025C7EC12F0DF50056E8C2B950E8C650165
:1022B100D08C6B9D9A41069D8A055012000A6E05CD
:1022C100C008F0010E096E082A02D0D8900936081C
:1022D1002EFCD70A500624D96E000E0720DA6E09AB
:1022E10050DF121200948C948EAC98AC8AAB88AB00
:1022F1008EAC84B886B06A670EAF6E00018F6B102A
:102301000E8E6F8D6B8C6B416A9D8A1200F70E1ACF
:10231100EC1CF012C02BF013C02CF014C02DF015E2
:10232100C02EF02BC027F02CC028F02DC029F02E94
:10233100C02AF01200FA0E1AEC1CF012C02BF01396
:10234100C02CF014C02DF015C02EF02BC027F02C9E
:10235100C028F02DC029F02EC02AF0120022EC1363
:10236100F00009D8A41200CC0ECCEC12F04E0ECC29
:10237100EC12F0000ECCEC12F0000ECCEC12F07F5F
:102381000ECCEF12F0056E066A05AE02D08C880104
:10239100D08C98D89005368C8A010E83A6000E0544
:1023A100128C9A062A070E0664EFD705501200090F
:1023B1006E8B940950C3EC11F00A6A09D007500AD8
:1023C10024D96EDA6A000EC3EC11F0DF6E0A2A0816
:1023D100500A5CF4E38B8412000EC005F00FC006B6
:1023E100F000EC1AF010C005F011C006F066EC31F7
:1023F100F043EC1AF0F5EC2AF043EC1AF07BEC31E7
:10240100F0A9EF0FF00B6E05C008F0010E096E0880
:102411002A02D0D8900936082EFCD7091C0A6E0B67
:10242100500624D96E000E0720DA6E0A50DF16120C
:10243100000E0E0001E56FE66B0AD826EC11F00FD5
:102441000E0001E56F080EE66F02D826EF11F0E5E8
:102451000E076ED00E086E020E096E020C8C800102
:102461000E076E0C0E79EC10F0076A090E79EC106C
:10247100F0070E076E0B0E79EC10F0020E076E0AD4
:102481000E79EC10F0076A0F0E79EF10F08B94E2E1
:102491000EC3EC11F08B84700E076E070EE5EC0F86
:1024A100F08B920B0E076E000EE5EC0FF08B82E7BE
:1024B1000E00D000D0E82EFCD700D000001200069C
:1024C1006E086A055014E0010E076E03D0D890051E
:1024D10036072A05AEFBD7D89008360550065C03AF
:1024E100E30550065E0880D8900532072EF4D70820
:1024F1005012000B6E8B940B50C3EC11F00C6A0F51
:10250100D007C0F6FF08C0F7FF09C0F8FF0800F5C3
:1025110050C3EC11F0072A000E082209220C2A0AE6
:10252100500C5CEEE38B841200056E00018E51FDB0
:10253100E09DB805D09EA8FED705C0ADFF12009D55
:1025410098780E8F25D96EDA6A010EDA2205C0DF7E
:10255100FF8F2B0F0E8F6501D08F6B8E071200AB93
:10256100A202D0AB98AB88000E00018D250FD8AE2A
:10257100CFDFFF8D2B950E8D6501D08D6B412A41EB
:1025810004016E950E0164950C416A1200D96EDA50
:102591006A030EDA221200086E0A6A0AC006F008FF
:1025A100C007F0062A02D0D8900732062EFCD707C2
:1025B10050096E010E09160950BAEC10F00A2A07EB
:1025C1000E0A64EBD7FC0E00D0E82EFDD71200589E
:1025D1000E0001E15D020EE25902E3050E06D0E2B2
:1025E1005103E13A0EE15D05E3030E076E0A0E7930
:1025F100EF10F0E25108E1330EE15DD8B0120007AF
:102601006A0A0E79EC10F01200F29E11D0A40E07A6
:102611006E3FEC13F0186A100E176E940EE82EFE42
:10262100D7172EFCD700D0182A450E1864F4D715F9
:10263100C005F016C006F025EC1BF00009E7E1F239
:102641008E1200839C959C080E056ECA0EE82EFE24
:10265100D7052EFCD7838C958CF00E00D0E82EFD8B
:10266100D7000E83BC010E066E070E056E9A0EE8AA
:102671002EFED7052EFCD700D0065012000A6A8C18
:1026810090096A0950F80D0750F3240A24D96EDA2B
:102691006A180ED926DF50086E0A2898EC10F00847
:1026A1005098EC10F0092A030E0964EBD78C800ACC
:1026B1002A070E0A64E4D7070C0EC005F00FC00606
:1026C100F000EC1AF02FEC30F066EC31F043EC1A2C
:1026D100F096EC25F000EC1AF07BEC31F0A9EC0F50
:1026E100F04A0401E104D0010E0001996F010C00D0
:1026F10001996B12000E500F1017E0010E106E04BD
:10270100D0D8900E360F36102A0FAEFAD70E500CD5
:102711005C0F500D5804E30E500C5E0F500D5AD84B
:10272100900F320E32102EF2D70CC00CF00DC00DEE
:10273100F01200126E0001E56B115039EC11F070CE
:10274100EC16F026EC11F0010E0001E56F10503986
:10275100EC11F070EC16F026EC11F0020E0001E520
:102761006F125039EC11F03F0B70EC16F026EF119F
:10277100F0076A086A42EC10F000090CE008C00595
:10278100F0010E066E052A02D0D8900636052EFC01
:10279100D706500712CD0E00D000D0E82EFCD7008E
:1027A100D000D00000082A070E0864E4D7075012B1
:1027B1000005C008F006C009F007C00AF004D00502
:1027C1002A000E0622072205C0F6FF06C0F7FF0702
:1027D10050E8BE04D0F86E0800F55005D0F6CFE100
:1027E100FFF7CFE2FFE7500009EAE10850055C0579
:1027F1006E09500658066E12000C6A1F0E0D6E0E01
:102801006A0C501AD80C2A0D5017D80D06A40E07C1
:102811006E3FEC13F00F6A100E0B6E940EE82EFE55
:10282100D70B2EFCD700D00F2A1D0E0F64F4D70E44
:102831002A0F0E0E64E5D70F0CA40FD96EDA6ADFEA
:102841006A12000A6A0B6A075008101BE0010E09A0
:102851006E04D0D89007360836092A08AEFAD7D8C0
:10286100900A360B360750055C0850065805E307F9
:1028710050055E0850065A0A80D89008320732097E
:102881002EEED70AC005F00BC006F0120019D0EFEA
:102891000E056E010E066E25EC1BF019D08E0E0E84
:1028A1006E280E0F6E8C0E106E4D0E116EEDEC112A
:1028B100F00ED08E0E0E6E280E0F6E5DEC13F0072B
:1028C100D05950010AEBE0050AF4E0010AE0E0A466
:1028D1000E076E3FEF13F00D6A0E6A0F6A106A055C
:1028E100A008D009500D260A500E220B500F220CC1
:1028F100501022D89009360A360B360C36D890087B
:10290100320732063205320550061007100810E76B
:10291100E10DC005F00EC006F00FC007F010C008B1
:10292100F0120007C00CF008C00DF009C00EF00550
:10293100C010F006C011F015D00CC0F6FF0DC0F7A5
:10294100FF0EC0F8FF0800F5CF0FF00C2A000E0DA6
:10295100220E2210C0D9FF11C0DAFF0FC0DFFF1015
:102961004A112A0A06D8A00B060A28E6E10B28E438
:10297100E11200240E95EC12F0440E95EC12F008D1
:102981006A1BD8DF5095EC12F017D8DECF06F0DDC8
:10299100CF07F007C006F0076A065095EC12F00861
:1029A1002A070E0864EDD7585095EC12F00D0E95DC
:1029B100EC12F00A0E95EF12F00850020DF350D50B
:1029C1000FD96EDA6A12008B6A380E946E8A6ADF4A
:1029D1000E936EF19E6D968C6A956A896A010E92CC
:1029E1006E966A846A8D6A070EB46EC30EC216C1F2
:1029F10050F00B0E09C16ECF0EC116C050F80B0678
:102A010009C06EC050C70B1009C06EC08EC280F2E3
:102A110098F096F088F092838C12000001E56BE546
:102A21000E086ED00E20D803EC19F01450D9EC1713
:102A3100F0CFEC0FF0DF6E010ECFEC17F003EC19C5
:102A4100F01350D9EC17F0CFEC0FF0DF6E020ECF80
:102A5100EC17F003EC19F01250D9EC17F03F0BCF43
:102A6100EC0FF0DF6E1200096E010E0A6E0B6E01A3
:102A71000C640E0E6E0D6A1F0E0F6E0F50A30FD950
:102A81006EDA6A0F5001EC17F00F060F50F6E100F5
:102A910001A46BA40E076E3FEC13F00C6A09D01071
:102AA1000E0B6E940EE82EFED70B2EFCD700D00C29
:102AB1002A0E500C5CF4E30A0E0E6401D00E5E0D7A
:102AC1002A1F0E0D64D8D71F0C640E0E6E0D6A0FEF
:102AD1006A0F50A50FD96EDA6A0F5001EC17F00F8B
:102AE1002A1F0E0F64F5D70001C36BA40E076E3FBA
:102AF100EC13F00C6A09D0100E0B6E940EE82EFE4A
:102B0100D70B2EFCD700D00C2A0E500C5CF4E30A34
:102B11000E0E6401D00E5E0D2A1F0E0D64D8D71F54
:102B21000C0C6E0E6A25D00F6A0F50A50FD96EDA04
:102B31006A0F5001EC17F00F2A1E0E0F64F5D70E25
:102B410050C40FD96EDA6ADF500001C36FA40E07BB
:102B51006E3FEC13F00D6A100E0B6E940EE82EFE14
:102B6100D70B2EFCD700D00D2A310E0D64F4D70EF1
:102B71002A0E500C5CD8E212000E6A27D8DF5020D2
:102B8100E00C6A23D80E50A40FE16EE26AE7500B05
:102B91006ED8900B34DF6EA40E076E3FEC13F00D70
:102BA1006A100E0B6E940EE82EFED70B2EFCD7008A
:102BB100D00D2A040E0D64F4D70C2A070E0C64E123
:102BC100D70E2A1F0E0E64D9D71F0C0E50A40FD991
:102BD1006EDA6A1200DAEC0FF0000913E0F30E0B63
:102BE1006E12EC10F047EC12F00001F551056EF495
:102BF10051D56F05C0D6F0F3C058F06E6B6F6BA066
:102C01006B03D000016E4B6F2B990E6E5D3A0E6F08
:102C110059D8A012006E6B6F6B010EA06F06D8C859
:102C2100EC1BF00001E34BE42B1200040E106E6468
:102C31000C23D0F10E556E7E0E566E000E576E129D
:102C410000BF0E556E7E0E566E000E576E12008D31
:102C51000E556E7E0E566E000E576E12005B0E55AF
:102C61006E7E0E566E000E576E1200290E556E7E48
:102C71000E566E000E576E12004950010ADAE0033B
:102C81000ADFE0010AE4E0070AE9E0010AEEE012E6
:102C910000136E030E0001E56F135039EC11F01FA4
:102CA100D826EC11F0040E0001E56F105039EC113B
:102CB100F016D826EC11F0050E0001E56F11503920
:102CC100EC11F03F0B0CD826EC11F0060E0001E5DB
:102CD1006F125039EC11F03F0B02D826EF11F000C2
:102CE10001E66FE50E076ED00E086E020E096E0248
:102CF1000C81BC02D0010E0BD081BE02D0020E07A6
:102D0100D081B602D0030E03D081B803D0040E05E2
:102D11006E01D0056A055013E02D0E0001665D01BC
:102D21000E675905E3010E676F180E666F0CD066CA
:102D31004B672B0F0E66196711D8A4120004D0003F
:102D410001666B676B120005C059F0010E8B6F01B4
:102D51000C09500A100B100C1023E0010E0D6E0629
:102D6100D0D89009360A360B360C360D2A0CAEF83F
:102D7100D70950055C0A5006580B5007580C5008EB
:102D81005808E30950055E0A50065A0B50075A0CC1
:102D910050085AD8900C320B320A3209320D2EE803
:102DA100D705C005F006C006F007C007F008C00847
:102DB100F01200100E0E6E0F0E0F6E0C6AC30E0E87
:102DC1002425D80E501DD80E2AC30E0F241FD80F4C
:102DD1005017D80F06A40E076E3FEC13F00D6A10C2
:102DE1000E0B6E940EE82EFED70B2EFCD700D00DE5
:102DF1002A1D0E0D64F4D70C2A0F0E0C64DFD70FB9
:102E01000CA40FE16EE26ADFCFE7FF1200D96EDAA0
:102E11006A010EDA2212000ED073EC17F011C017FE
:102E2100F012C018F01A6A050E196E3FEC17F01770
:102E3100500001916F000191519019EEE091C09005
:102E4100F09151020DF3CF1DF0F4CF1EF0170E1DBE
:102E510024F66E790E1E20F76EF86A000EF822092C
:102E610000F5CF68F00A00F5CF69F00500FA6E6849
:102E710051FD6E6951FE6EFF6AFA5012001C6A180C
:102E8100AE06D0176C181ED8B0182A010E1C6E1A87
:102E9100AE04D0196C1A1ED8B01A2A19501A10177C
:102EA100E0010E1B6E04D0D89019361A361B2A1A6F
:102EB100AEFAD71950175C1A50185804E319501775
:102EC1005E1A50185AD8901A3219321B2EF2D71C9A
:102ED1005004E0176C181ED8B0182A17C017F01844
:102EE100C018F01200EFC005F0F0C006F0F1C00705
:102EF100F0F2C008F02D0E096E7F0E0A6E950E0BD2
:102F01006E4C0E0C6E6CEC14F005280001EF6F0096
:102F11000E0620F06F000E0720F16F000E0820F260
:102F21006FEFC013F0F0C014F0F1C015F0F2C0164D
:102F3100F0120E05D0D8901632153214321332E841
:102F41002EF9D713C011F014C012F01200060E268C
:102F5100D803EC19F015502CD8CFEC0FF0DF6E052B
:102F61000E1DD803EC19F0145023D81F0BCFEC0F12
:102F7100F0DF6E040E13D803EC19F0135019D83F8B
:102F81000BCFEC0FF0DF6E030E09D803EC19F01232
:102F9100500FD8070BCFEC0FF0DF6E12000001E5E8
:102FA1006FE50E086ED00E096E010E0A6E0B6E01F2
:102FB1000CD96EDA6A0001E551120000019951D86D
:102FC100B412009F2B080E9F191BE19F6B19D0367D
:102FD1000EB36FB46F360C240E24D0240EB36FB42D
:102FE1006F240C240EB36FB46B1200B36BB46B126D
:102FF10000120EF8D7120EB36FB46F120C120E112D
:10300100D09F51E5E0010AE7E0030AE7E0010AE9A0
:10301100E0070AEBE0010AECE0030AECE0010AEE4A
:10302100E01200B36F360EB46F360C00018B5109FC
:10303100E0882B1E0E886102D08C8E03D0886B8BAA
:103041006B8C9E4D50D8B41200A151D8B41200FD22
:103051006B86510AE1872B140E876102D08C8E0496
:10306100D0876B010E866F8C9E860502E1644B65ED
:103071002B2D0E645D010E655904E3646B656B02D3
:103081000E866F020E8619D8A41200872B140E87A4
:103091006102D08C8E140C876B866BA16B8C9E1297
:1030A10000196A1A6A1B6A1C6A1550161017101843
:1030B1001029E0010E1D6E06D0D890153616361770
:1030C1003618361D2A18AEF8D7D89019361A361B7D
:1030D100361C361550115C165012581750135818DB
:1030E10050145809E31550115E1650125A17501317
:1030F1005A1850145A1980D89018321732163215AE
:10310100321D2EE2D719C011F01AC012F01BC013E4
:10311100F01CC014F0120042C09AF0440E126E432B
:103121000E136E420E146E0EEC15F0450E126E4625
:103131000E136E470E146E480E156EA7EC17F000B5
:10314100019A51421801E05A84030E421802E1012A
:103151000EFD6F515007E0420E296EF90E2A6EE600
:10316100EC2BF001D0F96B060E4464060C180E44EA
:1031710060180C4350D8A412004250D8A412000089
:1031810001FD51D8B41200010EA16F010C0A6A08A9
:10319100AE06D0076C081ED8B0082A010E0A6E06CA
:1031A100AE06D0056C061ED8B0062A010E0A1A0B0F
:1031B1006A0C6A075008101BE0010E096E04D0D892
:1031C1009007360836092A08AEFAD7D8900B360C84
:1031D100360750055C0850065805E30750055E08A0
:1031E10050065A0B80D89008320732092EEED70AC2
:1031F1005004E00B6C0C1ED8B00C2A0BC005F00C6F
:10320100C006F0120066EC0FF00B5009E009507394
:10321100EC0FF008502CD873EC0FF062EC0FF009B2
:1032210050010973EC0FF0116A1DD0FF0E0A240C36
:103231006E0D6AFF0E0D2211500E6E0F6A0C500EAC
:103241005C0F50800A106E0D50800A105805E21371
:10325100D8010EDDEC10F004D00ED8000EDDEC101C
:10326100F0DF6E112A0A50115CE0E36AEF0FF0D92A
:103271006EDA6ADF50120008501124D96EDA6A1230
:10328100000600D9CF03F0DACF04F0F2BAF2A403BA
:10329100D080EC0FF02ED0F0B8F0A20FD0F0920158
:1032A1000EF1A8000EFF0A026E023AF1500218EF69
:1032B1000B0218F16EDEEC17F01CD09DB09EA00839
:1032C100D09E90150ECF6EA00ECE6EBBEC0FF011FE
:1032D100D0A0B2A1A208D0A192F00EB36E600EB23E
:1032E1006E16EC18F006D0F2BC9DAA03D09EBAB0BF
:1032F100EC12F004C0DAFF03C0D9FF5B9211001594
:103301006A210EF66E790EF76E000EF86E20EE0C45
:10331100F0070E2FD8FEE2176A166A17500C0F1528
:1033210024D96EDA6ADF500B6E1650A40FD96EDA0B
:103331006A0B50DF16152A070E156401D0156A169F
:103341002A1F0E1664EAD7A40E076E3FEC13F01481
:103351006A100E0B6E940EE82EFED70B2EFCD700D2
:10336100D0142A630E1464F4D7172A070E1764D4F5
:10337100D7070C0900F5CFDEFFE80612009C0E35D9
:103381006ED70EE82EFED7352EFCD700008CEC242C
:10339100F0A9EC0FF0F29E2FEC30F0086A640E07F2
:1033A1006E11EC25F043EC1AF0D60E056E2B0E06CD
:1033B1006E086A960E076E0A6A040E096E43EC1ACD
:1033C100F0F20E056E2C0E16D8010E096E43EC1AA2
:1033D100F0740E056E290E066E0F0E086EA00E0714
:1033E1006E070E0A6ED00E096E43EC1AF0F28E04CF
:1033F100EC24F0FDD7066E086A076A0A6A12000B10
:103401006A3CD00B507CEC24F00550DE1835E10607
:1034110050DE1832E1F29E0B50076E086AFF0E93E0
:1034210025096E0A6AFF0E0A220750091803E108EE
:10343100500A181FE09351076E086AD890073608A2
:1034410036D89007360836D89007360836F80E0772
:1034510024D96E000E0820DA6E0B50080D000EF311
:1034610024E16E010EF420E26E070EDBCFE3FFE8EC
:1034710006FCE29307F28E12000B2A000193510B16
:103481005CC0E312000550061001E112000D6A1A3A
:10349100D00D507CEC24F00550DE1813E10650DE0F
:1034A1001810E1F29E0D506CEC24F02BD80D5084D5
:1034B100EC24F02CD80D5074EC24F0DE6ADD6AF2B5
:1034C1008E12000D2A000193510D5CE2E30F0E9361
:1034D100610F0CF29E93517CEC24F005C0DEFF06D7
:1034E100C0DDFF93516CEC24F00CD8935184EC2493
:1034F100F00DD8935174EC24F0DE6ADD6A932BF25F
:103501008E120007C0DEFF08C0DDFF120009C0DE19
:10351100FF0AC0DDFF1200226E010E216E246A2314
:103521006A2450176E186A1150050DF3CF19F0F483
:10353100CF1AF0195012241B6E1A5013201C6E0062
:103541000E14201D6E17501B241E6E18501C201FB8
:103551006E000E1D20206E1EC0F6FF1FC0F7FF205B
:10356100C0F8FF0800F55021140BE023C005F01549
:10357100C006F016C007F0225024245FEC11F00AB7
:10358100D023C005F015C006F016C007F022502464
:103591002403EC12F0D8902136232A070E2364C0AD
:1035A100D7010E216E242A040E2464B9D7040CD647
:1035B1000EF66E200EF76E000EF86E01EEE3F010BF
:1035C100EE1CF00900F5CFEEFFE550E150FAE10401
:1035D1000EF66E100EF76E000EF86E0900F5CFFDB7
:1035E100F0410EF66E1F0EF76E000EF86E00EE49FA
:1035F100F010EE11F00900F5CFEEFFE550E150FAC1
:10360100E103EE00F0960EEE6AE806FDE102EE003F
:10361100F0FA0EEE6AE806FDE101EE00F0E30EEECF
:103621006AE806FDE100EE60F09D0EEE6AE806FD37
:10363100E15A6A00EE36F0130EEE6AE806FDE15B30
:10364100905B920001BFEF19F0146A1450A50FD9D5
:103651006EDA6A145001EC17F0142A1E0E1464F588
:10366100D7040E0001A2650DD038D807E1A22B1FA7
:103671000EA265010CA36BA26B000CC36BA26BA322
:103681002B010CA251076E086A28D8050DF3CF094A
:10369100F0F4CF0AF0290E0B6E790E0C6E000E0DB0
:1036A1006E09500B240E6E0A500C200F6E000E0D89
:1036B10020106E07500E24116E08500F20126E005C
:1036C1000E1020136E11C0F6FF12C0F7FF13C0F8E1
:1036D100FF0800F5CFC3F0A22B010CA3510524D99B
:1036E1006E000E0620DA6EDF5012001D6E010E1CF8
:1036F1006E1F6A1E6A1F500F6E106A0C50080DF380
:10370100CF11F0F4CF12F0A60E136E780E146E00E6
:103711000E156E11501324166E12501420176E00E0
:103721000E1520186E0F501624196E105017201AFE
:103731006E000E18201B6E19C0F6FF1AC0F7FF1B92
:10374100C0F8FF0800F5501C140BE01EC005F00D79
:10375100C006F00EC007F01D501F245FEC11F00AE7
:10376100D01EC005F00DC006F00EC007F01D501FA1
:103771002403EC12F0D8901C361E2A070E1E64BAE0
:10378100D7010E1C6E1F2A060E1F64B3D7060C113B
:103791006E8B848B9210C089F03D0E0D6E7F0E0EE4
:1037A1006E000E0F6EA9EC10F0380E0D6E7F0E0E2E
:1037B1006E000E0F6EF0EC0FF011C007F0050EE574
:1037C100EC0FF0076A110EE5EC0FF010C007F012D4
:1037D1000EE5EC0FF0076A130EE5EC0FF0076A1423
:1037E1000EE5EC0FF0076A150EE5EC0FF0076A160F
:1037F1000EE5EC0FF0260E076E060EE5EC0FF00855
:103801000E076E000EE5EC0FF0030E076E010EE5DC
:10381100EC0FF0030E076E020EE5EC0FF04F0E07F2
:103821006E040EE5EC0FF0076A1C0EE5EC0FF04795
:10383100EF12F0266E26C0E5F046D8030E49D803F4
:10384100EC19F0E6C016F0176A186A196A18C0195F
:10385100F017C018F016C017F0166AE5C01AF01B71
:103861006A1C6A1D6A1BC01DF01AC01CF01B6A1A73
:103871006A16501A241E6E17501B201F6E18501CFA
:1038810020206E19501D20216E0001E7511E2422B7
:103891006E000E1F20236E000E2020246E000E21CC
:1038A10020256E050E05D0D89025322432233222F0
:1038B10032E82EF9D722C012F023C013F024C0142D
:1038C100F025C015F01200E50E086EEC0E096EEC45
:1038D1000C0A6E010E0B6E010C226E246A256A25FC
:1038E10050A40F2224D96EDA6A24500708156E25D8
:1038F10050166E176A1150050DF3CF18F0F4CF1959
:10390100F0185012241A6E195013201B6E000E1459
:10391100201C6E16501A241D6E17501B201E6E009F
:103921000E1C201F6E1DC0F6FF1EC0F7FF1FC0F842
:10393100FF0800F5CF20F0152A02D0D890203215CB
:103941002EFCD72550A40F2224E16EE26AE7502114
:103951006ED89021342010DF6E252A040E2564BF15
:10396100D7236A100E156E940EE82EFED7152EFC85
:10397100D700D0232A220E2364F4D7A40E076E3F6A
:10398100EC13F0242A070E2464A9D7070C256E1D19
:10399100500E08056E000ED8A0E82A0008066E0831
:1039A1006A0C0E076EC7EC18F00550276E27501EE3
:1039B1005C286E27500C0DF3501D24FE0F266E015E
:1039C1000E086E900E076E28C005F0066AC7EC1847
:1039D100F0285025C01FF0206A1F26000E20222843
:1039E10040E8423F0B1F26000E202205501F2421D4
:1039F1006E06502020226E086A0C0E076E26501F9C
:103A01000DF3CF05F0F4CF06F0C7EC18F005502107
:103A110024236E06502220246E640E056E28506009
:103A2100EC12F0235E000E245A580E2324176E1B4D
:103A31000E2420186E1A6A070E196E3FEC17F01744
:103A4100501200276AC30E272407EC17F0DF6A27FC
:103A51002A200E2764F7D7040E0C6EC30E0D6E01DB
:103A61000E0E6E030E76EC1BF047D840D822EC14F4
:103A7100F026EC2AF07BEC13F02CD80B0E8CEC1A10
:103A8100F0086A640E33D822EC14F026EC2AF07B9D
:103A9100EC13F01FD8110E8CEC1AF0086A0A0E26EE
:103AA100D822EC14F026EC2AF07BEC13F012D81794
:103AB1000E8CEC1AF02E0E116E290E126E790E1369
:103AC1006E000E146EC30E156E010E166E1D0E8C59
:103AD100EF1AF00C50116E55C012F056C013F0578A
:103AE100C014F0C30E156E010E166E1200076E257E
:103AF100C005F026C006F01200030E086EE80C1E89
:103B01006E206A216A2150A40F1E24D96EDA6A2020
:103B11005007080E6E21500F6E106A0D50030DF301
:103B2100CF11F0F4CF12F0E60E136E780E146E0082
:103B31000E156E11501324166E12501420176E00BC
:103B41000E1520186E0F501624196E105017201ADA
:103B51006E000E18201B6E19C0F6FF1AC0F7FF1B6E
:103B6100C0F8FF0800F5CF1CF00E2A02D0D8901C37
:103B7100320E2EFCD72150A40F1E24E16EE26AE71B
:103B8100501D6ED8901D341C10DF6E212A020E21AB
:103B910064B9D71F6A100E0E6E940EE82EFED70E72
:103BA1002EFCD700D01F2A220E1F64F4D7A40E07C3
:103BB1006E3FEC13F0202A070E2064A3D7070C8870
:103BC1000EEFEC10F012C084F013C085F08A0EEFF6
:103BD100EC10F012C082F013C083F08C0EEFEC10E9
:103BE100F012C080F013C081F08E0EEFEC10F012D5
:103BF100C0F7F013C0F8F0900EEFEC10F012C07E99
:103C0100F013C07FF0920EEFEC10F012C07CF013B5
:103C1100C07DF0940EEFEC10F012C07AF013C07B6F
:103C2100F0960EEFEC10F012C078F013C079F09816
:103C31000EEFEC10F012C076F013C077F09A0EEF91
:103C4100EC10F012C074F013C075F09C0EEFEC1084
:103C5100F012C072F013C073F09E0EEFEC10F01270
:103C6100C070F013C071F0F50EE56FCC0E0FD80ADD
:103C7100D826EC11F0F40E0001E56FB70E07D8025B
:103C8100D826EF11F0086E020E096E020CE66FE500
:103C91000E076EEC0C25D0960E0E6E3C0E0F6E7656
:103CA1000E106E3D0E116EEDEC11F024D0960E0E3D
:103CB1006E3C0E0F6E5DEC13F01DD04E50010ED810
:103CC100A4000E4E6EF5EC2AF043EC1AF0050E59E5
:103CD1006E4EC005F0CBEC10F00DD0020E596E0AFD
:103CE100D05950010AD8E0030AE8E0010AF6E007DA
:103CF1000ADDE0010A5AA638D0BB0EF66E7F0EF738
:103D01006E000EF86EF7EC32F0000E8CEC1AF0BC7F
:103D11000EF66E7F0EF76E000EF86EF7EC32F006BF
:103D21000E8CEC1AF0BD0EF66E7F0EF76E000EF8DB
:103D31006EF7EC32F00C0E8CEC1AF04E5008E02BC2
:103D41000E116EC0EC2BF0120E8CEC1AF007D02D78
:103D51000E116EC0EC2BF0120E8CEC1AF0116AC031
:103D6100EC2BF0180E8CEC1AF0A40E076E3FEC133E
:103D7100F05A86120025D0760E0E6E3D0E0F6E564D
:103D81000E106E3E0E116EEDEC11F024D0760E0E7B
:103D91006E3D0E0F6E5DEC13F01DD04F50010ED82D
:103DA100A4000E4F6EF5EC2AF043EC1AF0050E5903
:103DB1006E50EC3CF0CBEC10F00DD0020E596E0AB7
:103DC100D05950010AD8E0030AE8E0010AF6E007F9
:103DD1000ADDE0010A5AA638D0BF0EF66E7F0EF753
:103DE1006E000EF86EF7EC32F0000E8CEC1AF0C09B
:103DF1000EF66E7F0EF76E000EF86EF7EC32F006DF
:103E01000E8CEC1AF0C10EF66E7F0EF76E000EF8F6
:103E11006EF7EC32F00C0E8CEC1AF04F5008E02BE0
:103E21000E116EC0EC2BF0120E8CEC1AF007D02D97
:103E31000E116EC0EC2BF0120E8CEC1AF0116AC050
:103E4100EC2BF0180E8CEC1AF0A40E076E3FEC135D
:103E5100F05A86120025D0560E0E6E3E0E0F6E0CD5
:103E61000E106E410E116EEDEC11F024D0560E0EB7
:103E71006E3E0E0F6E5DEC13F01DD05050010ED84A
:103E8100A4000E506EF5EC2AF043EC1AF0050E5921
:103E91006E4DEC3CF0CBEC10F00DD0020E596E0AD9
:103EA100D05950010AD8E0030AE8E0010AF6E00718
:103EB1000ADDE0010A5AA638D0B70EF66E7F0EF77A
:103EC1006E000EF86EF7EC32F0000E8CEC1AF0B8C2
:103ED1000EF66E7F0EF76E000EF86EF7EC32F006FE
:103EE1000E8CEC1AF0B90EF66E7F0EF76E000EF81E
:103EF1006EF7EC32F00C0E8CEC1AF0505008E02BFF
:103F01000E116EC0EC2BF0120E8CEC1AF007D02DB6
:103F11000E116EC0EC2BF0120E8CEC1AF0116AC06F
:103F2100EC2BF0180E8CEC1AF0A40E076E3FEC137C
:103F3100F05A8612002CD0360E0E6E3F0E0F6E9682
:103F41000E106E3C0E116EEDEC11F02BD0360E0EF4
:103F51006E3F0E0F6E5DEC13F024D04D2A010E4D15
:103F61006401D04D6AF5EC2AF043EC1AF053D8CB3A
:103F7100EC10F017D04D064D2802E1010E4D6EF503
:103F8100EC2AF043EC1AF046D8CBEC10F00AD059E9
:103F910050010AD1E0030AE1E0010AECE0070AD688
:103FA100E0010A5AA631D0970EF66E7F0EF76E0029
:103FB1000EF86EF7EC32F0000E8CEC1AF0980EF65B
:103FC1006E7F0EF76E000EF86EF7EC32F0060E8C77
:103FD100EC1AF0990EF66E7F0EF76E000EF86EF782
:103FE100EC32F00C0E8CEC1AF00A0E096E4D5013E7
:103FF100EC11F02EEC34F0120E8CEC1AF0116AC0B8
:10400100EC2BF0180E8CEC1AF0A40E076E3FEC139B
:10401100F05A861200050E596E4DC005F0040C2DA4
:10402100D0200E0E6E400E0F6E5C0E106E4C0E11F7
:104031006EEDEC11F02CD0200E0E6E400E0F6E5D69
:10404100EC13F025D04A2A020E4A6402D0010E4A2E
:104051006EF5EC2AF043EC1AF053D8CBEC10F017C4
:10406100D04A064A5002E1020E4A6EF5EC2AF043AC
:10407100EC1AF046D8CBEC10F00AD05950010AD016
:10408100E0030AE0E0010AECE0070AD5E0010A5A80
:10409100A631D0A30EF66E7F0EF76E000EF86EF706
:1040A100EC32F0000E8CEC1AF0A40EF66E7F0EF7D7
:1040B1006E000EF86EF7EC32F0060E8CEC1AF0A5DD
:1040C1000EF66E7F0EF76E000EF86EF7EC32F00C06
:1040D1000E8CEC1AF00A0E096E4A5013EC11F02EF8
:1040E100EC34F0120E8CEC1AF0116AC0EC2BF018C3
:1040F1000E8CEC1AF0A40E076E3FEC13F05A8612E8
:1041010000050E596E4AC005F0010C24D00C0E0EAC
:104111006E410E0F6EE00E106E430E116EEDEC113E
:10412100F023D00C0E0E6E410E0F6E5DEC13F01CE1
:10413100D05150010ED8A4000E516EF5EC2AF04377
:10414100EC1AF0050E596E55D8CBEC10F00DD002DB
:104151000E596E0AD05950010AD9E0030AE9E0016B
:104161000AF6E0070ADEE0010A5AA63DD0920EF6F1
:104171006E7F0EF76E000EF86EF7EC32F0000E8CCB
:10418100EC1AF0930EF66E7F0EF76E000EF86EF7D6
:10419100EC32F0060E8CEC1AF0940EF66E7F0EF7F0
:1041A1006E000EF86EF7EC32F00C0E8CEC1AF095F6
:1041B1000EF66E7F0EF76E000EF86EF7EC32F0120F
:1041C1000E8CEC1AF0515008E02B0E116EC0EC2B46
:1041D100F0180E8CEC1AF007D02D0E116EC0EC2BDE
:1041E100F0180E8CEC1AF0A40E076E3FEC13F05A87
:1041F10086120051C005F0080C2ED0FA0E0E6E4149
:104201000E0F6E080E106E630E116EEDEC11F02D97
:10421100D0FA0E0E6E410E0F6E5DEC13F026D03CFF
:104221002A630E3C6401D03C6AF5EC2AF043EC1A97
:10423100F004EC33F049EC16F018D03C063C2802AF
:10424100E1630E3C6EF5EC2AF043EC1AF004EC331A
:10425100F049EC16F00AD05950010ACFE0030ADF09
:10426100E0010AEBE0070AD4E0010A5AA638D09B24
:104271000EF66E7F0EF76E000EF86EF7EC32F00060
:104281000E8CEC1AF09C0EF66E7F0EF76E000EF897
:104291006EF7EC32F0060E8CEC1AF09D0EF66E7F86
:1042A1000EF76E000EF86EF7EC32F00C0E8CEC1A75
:1042B100F00A0E096E056E3C5060EC12F013EC1121
:1042C100F02EEC34F0120E8CEC1AF00A0E096E3C52
:1042D1005013EC11F02EEC34F0180E8CEC1AF0A403
:1042E1000E076E3FEC13F05A86120033D0EC0E0E1F
:1042F1006E420E0F6E200E106E400E116EEDEC111F
:10430100F032D0EC0E0E6E420E0F6E5DEC13F02B00
:10431100D0492A050E496402D0010E496EF5EC2AF6
:10432100F043EC1AF0050E596E57D8CBEC10F0198A
:10433100EC16F019D04906495002E1050E496EF517
:10434100EC2AF043EC1AF0050E596E46D8CBEC106E
:10435100F0EED75950010ACAE0030ADAE0010AEA8D
:10436100E0070ACFE0010A5AA631D0A70EF66E7F08
:104371000EF76E000EF86EF7EC32F0000E8CEC1AB0
:10438100F0A80EF66E7F0EF76E000EF86EF7EC32A7
:10439100F0060E8CEC1AF0A90EF66E7F0EF76E0089
:1043A1000EF86EF7EC32F00C0E8CEC1AF00A0E09D6
:1043B1006E495013EC11F02EEC34F0120E8CEC1A05
:1043C100F0116AC0EC2BF0180E8CEC1AF0A40E0759
:1043D1006E3FEC13F05A86120049C005F0000C2D17
:1043E100D0E00E0E6E430E0F6E400E106E4B0E118E
:1043F1006EEDEC11F02CD0E00E0E6E430E0F6E5DE3
:10440100EC13F025D0522A030E521802E1010E528C
:104411006EF5EC2AF043EC1AF05CD8CBEC10F017F7
:10442100D05206525002E1020E526EF5EC2AF043D0
:10443100EC1AF04FD8CBEC10F00AD05950010AD049
:10444100E0030AE0E0010AECE0070AD5E0010A5ABC
:10445100A63AD0830EF66E7F0EF76E000EF86EF759
:10446100EC32F0000E8CEC1AF0840EF66E7F0EF733
:104471006E000EF86EF7EC32F0060E8CEC1AF08539
:104481000EF66E7F0EF76E000EF86EF7EC32F00C42
:104491000E8CEC1AF0860EF66E7F0EF76E000EF89B
:1044A1006EF7EC32F0120E8CEC1AF052C011F0558E
:1044B100C012F056C013F057C014F0A40E156E16BA
:1044C1006A180E8CEC1AF0A40E076E3FEC13F05A2A
:1044D100861200050E596E52C005F0090C2ED0DE71
:1044E1000E0E6E440E78D8EDEC11F031D0DE0E0ECA
:1044F1006E440E0F6E5DEC13F02AD04C2A070E4C61
:104501006401D04C6AF5EC2AF043EC1AF05FD8CB89
:10451100EC10F067D879EC10F01AD04C064C280258
:10452100E1070E4C6EF5EC2AF043EC1AF04FD8CBB4
:10453100EC10F057D879EC10F00AD05950010ACF9D
:10454100E0030ADBE0010AE9E0070AD0E0010A5AC8
:10455100A622D035D8F7EC32F0000E8CEC1AF028F8
:10456100D8F7EC32F0060E8CEC1AF01BD8F7EC32CF
:10457100F00C0E8CEC1AF00A0E096E4C5013EC1173
:10458100F02EEC34F0120E8CEC1AF0116AC0EC2B08
:10459100F0180E8CEC1AF0A40E076E3FEC13F05AD3
:1045A100861200B50EF66E7F0EF76E000EF86E12D3
:1045B10000B40EF66E7F0EF76E000EF86E1200B3A9
:1045C1000EF66E7F0EF76E000EF86E1200050E5994
:1045D1006E4CC005F0030C0F6E360E106E3F0E11BF
:1045E1006E12004CC007F00A0C070EF66E790EF73A
:1045F1006E000EF86E20EE12F00F0EBAEC19F0FDFF
:10460100E20C50D96EDA6A2B0EDF6E6CD022EC13FD
:10461100F00009D8A41200CC0ECCEC12F0440ECC60
:10462100EC12F00E50D96EDA6ADF6A0D50D96EDAEB
:104631006A020EDF6ECD80020C22EC13F0CC0ECCA0
:10464100EC12F0BE0ECCEC12F0236A880E2324D9B2
:104651006EDA6A010EDA22B9EC13F0DF6E232A0159
:104661000E2364F3D7010189510F6E8851246E0F17
:10467100C025F025AE09D0246C251ED8B0252A0C02
:1046810050D96EDA6A2D0EDF6E24500F0B226E2286
:1046910050120FD96EDA6ADF50226E24C00FF02556
:1046A100C010F0040E116ED89010320F32112EFB93
:1046B100D70FC024F010C025F024500A0DF3CF24E9
:1046C100F0F4CF25F022502426000E25220B50D9DC
:1046D1006EDA6A24C0DEFF25C0DDFF0D50D96EDA27
:1046E1006ADF6A12000D50D96EDA6ADF508FE0017D
:1046F1000AA3E0030A1200F50E7ED826EC11F0029F
:104701000E216ED40E206E850EE82EFED7202EFCD3
:10471100D7212EFAD70000E50EE5EC27F003EC19BE
:10472100F00001E551206EE651236E20C024F023F4
:104731002805E1242803E11E681F68120023C00533
:10474100F024C006F0076A086AD40E096E300E3EE6
:10475100EC39F06CEC14F005C026F006C027F00728
:10476100C028F008C029F028C026F029C027F02869
:104771006A296AA80E2626FD0E2722FF0E28222965
:104781002226C011F027C012F028C013F029C0144E
:10479100F0ECEC27F051EC18F01150226E26C00518
:1047A100F027C006F028C007F029C008F0F2EC2776
:1047B100F0A9EC16F00550256E050E2524DDEC2739
:1047C100F0C7EC18F005500A0DF3CF25F022506424
:1047D1000DF3CF20F0F4CF21F025502024056E00F9
:1047E1000E2120066EF8EC27F0C7EC18F005C01E6C
:1047F100F006C01FF01200E56FE50E076E800E088F
:104801006E010E096E010C000192511AE0926B02C9
:1048110001FC6B11D0FC515FD8DE50DE1006E1FCCB
:104821005162D8010EDE6EDD6A05D0FC5154D8DE2E
:1048310006000EDD5AFC2B000193510201FC5DEADA
:10484100E30201FD6B42D0FD514ED8DE04DE103B88
:10485100E1FD5151D8DECFFAF2DDCFFBF2FD51532C
:10486100D8DE50DE1009E1FD5146D8DECF05F0DD7E
:10487100CF06F000EC1AF01BD0FD5135D8DE6ADD11
:104881006AFD5129D8DE50DE1012E1FD513CD8DE1F
:10489100CF31F0DDCF32F0FF0E3124336EFF0E3217
:1048A10020346EFD5118D833C0DEFF34C0DDFF0166
:1048B100D80AD00500FA6E0201FA51FD6EFB51FED5
:1048C1006EFF6AFA5012000201FD2B0001935102A2
:1048D10001FD5DB9E31200080D020EF324D96E014A
:1048E1000EF420DA6E1200080D060EF324D96E01C3
:1048F1000EF420DA6E1200080D000EF324D96E01B9
:104901000EF420DA6E1200080D040EF324D96E01A4
:104911000EF420DA6E1200E4EC14F00C0EC5EC0F6C
:10492100F0536E53B002D08D9001D08D80070E18D8
:104931006E170E176E6A0EE82EFED7172EFCD718CB
:104941002EFAD700D0FBEC0FF02FEC12F04FEC1049
:10495100F05CEC0FF019EC12F0AFEC11F0B2EC0FCF
:10496100F073EC11F0E0EC1DF036EC10F0000EC528
:10497100EC0FF0496E010EC5EC0FF04A6E4A0403CC
:10498100E10001996B02D02CEC3CF0020EC5EC0F5A
:10499100F04B6E030EC5EC0FF04C6EF2EC22F07989
:1049A100EC10F019EC16F05FEC0FF098EC0FF0162C
:1049B100EC16F0C8EC1BF0980E056E720E066E0830
:1049C1006A280E076E2DD843EC1AF0180E056E31C9
:1049D1000E066E086A500E076E23D843EC1AF004D7
:1049E1000EC5EC0FF04D6E050EC5EC0FF04E6E06C8
:1049F1000EC5EC0FF04F6E070EC5EC0FF0506E08B0
:104A01000EC5EC0FF0516E090EC5EC0FF0526E0A97
:104A11000EC5EC0FF0546E066A030E056E5DEF10C5
:104A2100F00A6A140E096E140C79D00001D951DA1A
:104A3100112EE0D9C025F0DAC026F022EC1DF0DA03
:104A4100EC16F0200E286E28501DEC14F0282A30A8
:104A51000E2864F9D7D9C00CF0DAC00DF01EEC367F
:104A6100F07BEC13F00C502EEC34F0200E8CEC1A91
:104A7100F03D0E276EE10E266E400EE82EFED72683
:104A81002EFCD7272EFAD7080E91EC15F01DD0A9D0
:104A9100EC0FF0040E15EC36F0030E76EC1BF0452E
:104AA1000E116E0AEC36F00B0E6DEC1CF0520E116D
:104AB1006E0AEC36F0110E6DEC1CF0520E116E0AFE
:104AC100EC36F0170E6DEC1CF022EC36F034EC2ACB
:104AD100F01AEC36F043EF1AF0050E596E54500CF3
:104AE100E00CEC17F022D800EC1AF024D800EC1AF4
:104AF100F0E80E056E520E0DD00CEC17F0B5EC2857
:104B0100F014D800EC1AF016D800EC1AF08E0E054D
:104B11006E600E066E66EC31F043EF1AF0595004E8
:104B21000ADBE0010A82E0030A1200B20E056E1EE2
:104B31000E066E12002A0E056E4A0E066E12003B1C
:104B4100D0400E0E6E4B0E0F6E8E0E106E280E1193
:104B51006EEDEC11F096EC25F000EC1AF053500FCD
:104B6100E1EF0E056E010E066E5B0E076E7F0E08FD
:104B71006E000E096E0B6A100E0A6E92EC14F0A311
:104B81006BA26B23D0400E0E6E4B0E0F6E5DEC13BD
:104B9100F01CD05450010ED8A4000E546EF5EC2A2E
:104BA100F043EC1AF0050E596E55D8CBEC10F00D10
:104BB100D0020E596E0AD05950010AC2E0030AE927
:104BC100E0010AF6E0070ADEE0010A5AA63DD08DAF
:104BD1000EF66E7F0EF76E000EF86EF7EC32F000F7
:104BE1000E8CEC1AF08E0EF66E7F0EF76E000EF83C
:104BF1006EF7EC32F0060E8CEC1AF08F0EF66E7F2B
:104C01000EF76E000EF86EF7EC32F00C0E8CEC1A0B
:104C1100F0900EF66E7F0EF76E000EF86EF7EC3226
:104C2100F0120E8CEC1AF0545008E02B0E116EC0ED
:104C3100EC2BF0180E8CEC1AF007D02D0E116EC073
:104C4100EC2BF0180E8CEC1AF0A40E076E3FEC134F
:104C5100F05A86120054C005F00A0C32D04B5006AF
:104C6100E090D8ECEC22F0EDEC11F034D08AD80FC2
:104C71006EDE0E106E440E116EEDEC11F0030EC5DA
:104C8100EC0FF04C6EF2EC22F079EC10F023D05CDA
:104C91000E0E6E4C0E0F6E5DEC13F01CD067D8F546
:104CA100EC2AF043EC1AF068D8CBEC10F013D05E8C
:104CB100D8F5EC2AF043EC1AF05FD8CBEC10F00AEF
:104CC100D05950010ACBE0030AE9E0010AF0E007FC
:104CD1000ADEE0010A5AA644D0E0EC22F0F7EC32F9
:104CE100F0000E8CEC1AF0D9EC22F0F7EC32F00661
:104CF1000E8CEC1AF0D2EC22F0F7EC32F00C0E8CA8
:104D0100EC1AF04B5017E0C60EF66E7F0EF76E00F0
:104D11000EF86EF7EC32F0120E8CEC1AF0C70EF6AC
:104D21006E7F0EF76E000EF86EF7EC32F0180E8CF7
:104D3100EC1AF016D0ED0EF66E7F0EF76E000EF83F
:104D41006EF7EC32F0120E8CEC1AF0EE0EF66E7F6E
:104D51000EF76E000EF86EF7EC32F0180E8CEC1AAE
:104D6100F0A40E076E3FEC13F05A8612004B50016F
:104D71000ED8A4000E4B6E1200050E596E4BC005E5
:104D8100F0020C5C0E0E6E4C0E12004AD08C0E0E10
:104D91006E4D0E0F6E8E0E106E600E116EEDEC11DB
:104DA100F096EC25F000EC1AF045D08C0E0E6E4D0D
:104DB1000E0F6E5DEC13F03ED0030E596E3BD053D7
:104DC10050010ED8A4000E536EF5EC2AF043EC1AF4
:104DD100F0050E596E53C005F00C0ECBEC10F053DC
:104DE100501DE0AB9E949C949E829E829C9C0E25BD
:104DF1006ED70EE82EFED7252EFCD700008D80073A
:104E01000E266E170E256E6A0EE82EFED7252EFC95
:104E1100D7262EFAD700D073EC11F00CD08D900A62
:104E2100D05950010AB3E0030AC7E0010AC8E007FC
:104E31000ABCE0010A5AA63DD0880EF66E7F0EF735
:104E41006E000EF86EF7EC32F0000E8CEC1AF08961
:104E51000EF66E7F0EF76E000EF86EF7EC32F0066E
:104E61000E8CEC1AF08A0EF66E7F0EF76E000EF8BD
:104E71006EF7EC32F00C0E8CEC1AF08B0EF66E7FA6
:104E81000EF76E000EF86EF7EC32F0120E8CEC1A83
:104E9100F0535008E02B0E116EC0EC2BF0180E8C65
:104EA100EC1AF007D02D0E116EC0EC2BF0180E8C01
:104EB100EC1AF0A40E076E3FEC13F05A861200F3C1
:104EC1000E0001FCEC23F026EC11F0020E216ED451
:104ED1000E206E850EE82EFED7202EFCD7212EFA4D
:104EE100D70000E50E71D803EC19F00001E551205F
:104EF1006EE651236E20C024F0232805E124280307
:104F0100E11E681F68120023C005F024C006F007E7
:104F11006A086AA40E096E440E3EEC39F06CEC147A
:104F2100F005C026F006C027F007C028F008C02908
:104F3100F028C026F029C027F0286A296AB30E2676
:104F410026ED0E2722FF0E2822292226C011F02746
:104F5100C012F028C013F029C014F03DD851EC184C
:104F6100F01150226E26C005F027C006F028C007B8
:104F7100F029C008F036D8A9EC16F00550256E05C9
:104F81000E25241AD8C7EC18F005500A0DF3CF25C9
:104F9100F02250640DF3CF20F0F4CF21F025502002
:104FA10024056E000E2120066E22D8C7EC18F005EC
:104FB100C01EF006C01FF01200056E066A000E0644
:104FC10022086A0A0E076E0A0C086E800E096E032B
:104FD1000E0A6E0B6A030C640E156E166A176A18B8
:104FE1006A640C640E096E0A6A0B6A0C6A640C0826
:104FF1006A0A0E076E0A0C62D0F80E0E6E4F0E0F83
:105001006EAE0E106E590E116EEDEC11F061D0F80E
:105011000E0E6E4F0E0F6E5DEC13F05AD03A2A9FB2
:10502100D81FE096D83A50DE5C18E3020E3B181CFC
:10503100E13A50256E266A8CD8DF50276EFF0E2785
:1050410024286E296AFF0E29222550285C295080C8
:105051000A2A6E2650800A2A5807E2010E3A6E0487
:10506100D077D83A50DE5CF9E3F5EC2AF043EC1A3C
:10507100F004EC33F049EC16F02BD03A0670D8135B
:10508100E03A5006E1020E3B1803E062D8DF500916
:10509100D0020E3B180AE13A5008E15AD8DF5025F8
:1050A1006E25043A6E02D03A50F0E0F5EC2AF04356
:1050B100EC1AF004EC33F049EC16F00AD059500127
:1050C1000A9BE0030AABE0010AD8E0070AA0E0016D
:1050D1000A5AA638D0AF0EF66E7F0EF76E000EF8A4
:1050E1006EF7EC32F0000E8CEC1AF0B00EF66E7F1B
:1050F1000EF76E000EF86EF7EC32F0060E8CEC1A1D
:10510100F0B10EF66E7F0EF76E000EF86EF7EC3210
:10511100F00C0E8CEC1AF00A0E096E056E3A506016
:10512100EC12F013EC11F02EEC34F0120E8CEC1AA0
:10513100F00A0E096E3A5013EC11F02EEC34F0180F
:105141000E8CEC1AF0A40E076E3FEC13F05A861287
:1051510000E20E3B24D96EDA6A010EDA2212003C1B
:10516100C025F0030E2516030CA9EC0FF0B5D08273
:10517100EC34F060EC12F013EC11F000090CE08259
:10518100EC34F060EC12F013EC11F002EC36F000AC
:105191000E6DEC1CF006D0116A0AEC36F0000E6DB3
:1051A100EC1CF09CEC34F013EC11F002EC36F00640
:1051B1000E6DEC1CF093EC34F060EC12F013EC117A
:1051C100F002EC36F00D0E6DEC1CF098EC34F0139F
:1051D100EC11F002EC36F0130E6DEC1CF08CEC18B7
:1051E100F00A0E096E056E425060EC12F013EC11DC
:1051F100F0316E31280D6E190E80EC1DF00A0E098A
:105201006E425013EC11F0316E31280D6E1D0E807F
:10521100EC1DF078EF13F082EC34F060EC12F01337
:10522100EC11F000090CE082EC34F060EC12F013A8
:10523100EC11F002EC36F0010E6DEC1CF006D01111
:105241006A0AEC36F0010E6DEC1CF09CEC34F013A4
:10525100EC11F002EC36F0070E6DEC1CF03A0E1179
:105261006E0AEC36F00D0E6DEC1CF08CEC18F09320
:10527100EC34F060EC12F013EC11F002EC36F013A8
:105281000E6DEC1CF098EC34F013EC11F002EC36DE
:10529100F0190E6DEC1CF0010E0001996F9F6B82ED
:1052A100EC34F060EC12F013EC11F000019E6F9CF5
:1052B100EC34F013EC11F000019D6F93EC34F060CD
:1052C100EC12F013EC11F000019C6F98EC34F01328
:1052D100EC11F000019B6F12004A50010A01E147F5
:1052E100D7030A99E01200A9D00001DD291EE1DEF1
:1052F100291CE1050E15EC36F0010E76EC1BF0458C
:105301000E116E0AEC36F0090E6DEC1CF0520E1106
:105311006E0AEC36F00F0E6DEC1CF0520E116E0A97
:10532100EC36F0150E6DEC1CF06DD0E80EDD5D0372
:105331000EDE5938E2050E15EC36F0010E76EC1B47
:10534100F0086A640E8AD822EC14F07FD87BEC1343
:10535100F00C5002EC36F0090E6DEC1CF0086A0AF4
:105361000E7CD822EC14F071D87BEC13F00C5002B7
:10537100EC36F00F0E6DEC1CF02E0E116E0AEC36B1
:10538100F0150E6DEC1CF0DDC00CF0DEC00DF01E52
:10539100EC36F07BEC13F00C5002EC36F0180E6D8D
:1053A100EC1CF030D0050E15EC36F0020E76EC1B3D
:1053B100F07DEC1DF052D822EC14F047D87BEC13B1
:1053C100F00C5002EC36F00B0E6DEC1CF0086A6428
:1053D1000E44D822EC14F039D87BEC13F00C5002B7
:1053E100EC36F0110E6DEC1CF0086A0A0E36D8226C
:1053F100EC14F02BD87BEC13F00C5002EC36F017C8
:105401000E6DEC1CF022EC36F02ED81AEC36F0437F
:10541100EF1AF0050E596E0CEC17F0B5EC28F0966A
:10542100EC25F000EC1AF03AEC3CF000EC1AF02F0D
:10543100EC30F066EC31F043EF1AF05950040AE910
:10544100E0010A01E151D7030A120005C00CF00680
:10545100C00DF00F6A0A0E0E6E0A0C076EDDC00554
:10546100F0DEC006F01200010E086E900C5AB80270
:10547100D05A8863D05A9861D06E0E056E540E06CC
:105481006E00EC1AF0120E056E560EFBEC19F0329E
:105491000E096E43EC1AF0A8D843EC1AF04A041333
:1054A100E1AED860EC12F013EC11F02EEC34F00DFB
:1054B1000E8CEC1AF0A9D813EC11F02EEC34F01389
:1054C1000E8CEC1AF014D093EC34F060EC12F01363
:1054D100EC11F02EEC34F0130E8CEC1AF098EC3445
:1054E100F013EC11F02EEC34F0190E8CEC1AF07B69
:1054F100EC31F02DD06E0E0E6E540E0F6E5DEC136E
:10550100F026D0372A3B0E376401D0376A6DD84375
:10551100EC1AF0CAEC2BF09AEC13F0050E596E1749
:10552100D03706372802E13B0E376E5ED843EC1ABE
:10553100F0CAEC2BF09AEC13F0F0D75950010A9C09
:10554100E0030ADFE0010AECE0070AD4E0010A5AAD
:10555100A645D05AA828D04A0413E151D860EC12CC
:10556100F013EC11F02EEC34F00D0E8CEC1AF04C23
:10557100D813EC11F02EEC34F0130E8CEC1AF02E43
:10558100D03ED860EC12F013EC11F02EEC34F01395
:105591000E8CEC1AF039D813EC11F02EEC34F01912
:1055A1000E8CEC1AF01BD04A040DE1116AC0EC2BF1
:1055B100F00D0E8CEC1AF0116AC0EC2BF0130E8C6E
:1055C100EC1AF00CD0116AC0EC2BF0130E8CEC1A13
:1055D100F0116AC0EC2BF0190E8CEC1AF0A40E0736
:1055E1006E3FEC13F05A861200B20E056E1E0E06C7
:1055F1006E070E086ED00E076E0A6A096AD00C0A91
:105601000E096E056E375012000A0E096E375012E0
:10561100005AB802D05A8846D05A9844D0120E0E79
:105621006E560E0F6EFA0E106E410E116EEDEC11EC
:10563100F043D0120E0E6E560E0F6E5DEC13F03C61
:10564100D0382A170E386401D0386AF5EC2AF043B5
:10565100EC1AF0B2D80AE0385004E1A5D89AEC135C
:10566100F02BD0A5D89AEC13F027D093D89AEC134D
:10567100F023D03806382802E1170E386EF5EC2AEF
:10568100F043EC1AF099D80AE0385004E18CD89A2A
:10569100EC13F012D08CD89AEC13F00ED07AD89A81
:1056A100EC13F00AD05950010AB9E0030AC9E0012C
:1056B1000AE0E0070ABEE0010A5AA65BD05AA842F6
:1056C100D04A0420E16BD860EC12F013EC11F00029
:1056D100090BE064D860EC12F013EC11F02EEC34FD
:1056E100F0000E8CEC1AF005D0116A49D8000E8C2E
:1056F100EC1AF067D813EC11F02EEC34F0060E8C96
:10570100EC1AF037D04BD860EC12F013EC11F0002A
:10571100090BE044D860EC12F013EC11F02EEC34DC
:10572100F0010E8CEC1AF005D0116A29D8010E8C0B
:10573100EC1AF047D813EC11F02EEC34F0070E8C74
:10574100EC1AF017D04A040BE1116A19D8000E8C3B
:10575100EC1AF0116A14D8060E8CEC1AF00AD0116A
:105761006A0ED8010E8CEC1AF0116A09D8070E8C5A
:10577100EC1AF0A40E076E3FEC13F05A86120029C2
:105781000E126E790E136E000E146EA40E156E16A7
:105791006A120037C010F0116A385012000A0E095F
:1057A1006E056E3850120037C010F0116A170C37B1
:1057B100C010F0116A38041200050E596E0001F98B
:1057C1005112000A0E096E38501200030E1D6EDED2
:1057D100D81E6E1F0EC7EC1CF02B6E2B501F082F0E
:1057E1006E0A0E1D6ED3D81E6E1F0EC7EC1CF02B59
:1057F1006E2B501F08306EA2D8030EDF6404D09EBA
:10580100D8090EDF6434D09AD8030EDE1804E19C67
:10581100D8DE502F5C2CE392D8030EDE1808E194F9
:10582100D82F50DE1804E1ACD8030EDF6020D086FB
:10583100D80A0EDE1804E188D83050DE5C18E37E09
:10584100D80A0EDE1808E180D83050DE1804E1983D
:10585100D8010EDF640CD072D80A0EDE180EE17486
:10586100D83050DE180AE18CD8170EDE1806E12A6E
:1058710050D96EDA6A010EDF6E04D02A50D96EDA81
:105881006ADF6A2A50D96EDA6ADF50D8B41200781A
:10589100D8170EDE1848E174D8DF6A7FD8DF2A7D79
:1058A100D8080EDE1803E179D8010EDF6E6FD82B10
:1058B1006E030E2B1620E042D852D808E03FD802E2
:1058C1000EDE1816E141D81C0EDE1812E137D80C95
:1058D1000EDE1808E12950D96E3DD836D8010EDF09
:1058E1006E2DD861D031D8010EDF6E28D8DF2A05A0
:1058F1000C2BD8DF2A040C22D832D812E11FD80C85
:105901000EDE1808E12950D96E25D81ED8010EDF08
:105911006E15D849D019D8010EDF6E10D8DF2A05CF
:105921000C13D8DF2A040C2CD82950E16EE26A024C
:105931000EE126E7502B6E2B28DF6E12002950D97D
:105941006EDA6A050ED926050C2950D96EDA6A0479
:105951000ED926040CDA6A060ED926DF2A060CDFD8
:10596100502B6E2C6AE20E2B24D96E010E2C20DAFC
:105971006E2950E16EE26A040EE126DE50E618124D
:10598100002950D96EDA6A020ED926020C2950D9A3
:105991006EDA6A060ED926DF5012002950D96EDA66
:1059A1006A030ED926030C010EDF6E010C2FD0AE57
:1059B1000E0E6E590E0F6EEC0E106E420E116EED44
:1059C100EC11F02ED0AE0E0E6E590E0F6E5DEC1373
:1059D100F027D0392A070E396402D0010E396EF54D
:1059E100EC2AF043EC1AF004EC33F049EC16F01811
:1059F100D03906395002E1070E396EF5EC2AF04331
:105A0100EC1AF004EC33F049EC16F00AD0595001CD
:105A11000ACEE0030ADEE0010AEBE0070AD3E00167
:105A21000A5AA6CAD09F0EF66E7F0EF76E000EF8C8
:105A31006EF7EC32F0000E8CEC1AF0A00EF66E7FD1
:105A41000EF76E000EF86EF7EC32F0060E8CEC1AC3
:105A5100F0A10EF66E7F0EF76E000EF86EF7EC32C7
:105A6100F00C0E8CEC1AF097D0D20EF66E7F0EF77A
:105A71006E000EF86EF7EC32F0120E8CEC1AF0D3C9
:105A81000EF66E7F0EF76E000EF86EF7EC32F01820
:105A91000E8CEC1AF091D0F00EF66E7F0EF76E00C0
:105AA1000EF86EF7EC32F0120E8CEC1AF0F10EF6E5
:105AB1006E7F0EF76E000EF86EF7EC32F0180E8C5A
:105AC100EC1AF07AD086D8F7EC32F0120E8CEC1A80
:105AD100F079D8F7EC32F0180E8CEC1AF06DD0F9A1
:105AE1000EF66E7F0EF76E000EF86EF7EC32F012C6
:105AF1000E8CEC1AF0FA0EF66E7F0EF76E000EF8B1
:105B01006EF7EC32F0180E8CEC1AF056D0F60EF659
:105B11006E7F0EF76E000EF86EF7EC32F0120E8CFF
:105B2100EC1AF0F70EF66E7F0EF76E000EF86EF7B8
:105B3100EC32F0180E8CEC1AF03FD0C30EF66E7FEB
:105B41000EF76E000EF86EF7EC32F0120E8CEC1AB6
:105B5100F0C40EF66E7F0EF76E000EF86EF7EC32A3
:105B6100F0180E8CEC1AF028D0CF0EF66E7F0EF7DF
:105B71006E000EF86EF7EC32F0120E8CEC1AF0D0CB
:105B81000EF66E7F0EF76E000EF86EF7EC32F0181F
:105B91000E8CEC1AF011D03950010AE6E0030A012B
:105BA100E163D7010A01E177D7070A8CE0010A977F
:105BB100E0030AACE0010AC1E0A40E076E3FEC135A
:105BC100F05A861200E20EF66E7F0EF76E000EF8A6
:105BD1006E1200E10EF66E7F0EF76E000EF86E1279
:105BE100009BEC11F027C0B9F328C0BAF329C0BB60
:105BF100F32AC0BCF30B0E0FD9D89097359B6F9841
:105C0100359C6F99359D6F9A359E6F030E9F6FB9C5
:105C1100C3A0F3BAC3A1F3BBC3A2F3BCC3A3F39F55
:105C21006701D007D0A335A333A233A133A0339F9B
:105C31002FF6D703019B51A05D056E9C51A159061A
:105C41006E9D51A259076E9E51A359086E82C009DB
:105C5100F083C00AF014EC39F06CEC14F0030196F7
:105C61006701D004D0EAEC38F0962FF8D705C0A927
:105C7100F306C0AAF307C0ABF308C0ACF30C0ECB1C
:105C8100D8040E9B6FB9C39CF3BAC39DF3BBC39EEB
:105C9100F3BCC39FF39B6701D007D09F359F339E11
:105CA100339D339C339B2FF6D7030197519C5D05A0
:105CB1006E98519D59066E99519E59076E9A519F42
:105CC10059086E000184510301A06F000185510341
:105CD10001A16FA26BA36B040EA46FB9C3A5F3BAA4
:105CE100C3A6F3BBC3A7F3BCC3A8F3A46701D00742
:105CF100D0A835A833A733A633A533A42FF6D703ED
:105D010001A051A55D096EA151A6590A6EA251A724
:105D1100590B6EA351A8590C6E6CEC14F00301964B
:105D21006701D004D0EAEC38F0962FF8D705C0B55A
:105D3100F306C0B6F307C0B7F308C0B8F30E0E03FD
:105D410001966FB5C305F0B6C306F0B7C307F0B847
:105D5100C308F080C009F081C00AF014EC39F06C7E
:105D6100EC14F00301966701D004D0EAEC38F09608
:105D71002FF8D705C0ADF306C0AEF307C0AFF308E7
:105D8100C0B0F30301AD51A9250001606F0301AE5D
:105D910051AA210001616F0301AF51AB21000162E2
:105DA1006F0301B051AC210001636F60C005F06168
:105DB100C006F062C007F063C008F0050E096E0A64
:105DC1006A0B6A0C6A6CEC14F0800E0524030196D0
:105DD1006F000E0620976F000E0720986F000E08C7
:105DE10020996F97C396F398C397F399C398F39942
:105DF1006B98BF996996C3B1F397C3B2F398C3B3D4
:105E0100F399C3B4F3B1C32FF0B2C330F0B3C331CC
:105E1100F0B4C332F012000301966F000184510304
:105E210001976F000185510301986F996B9A6B126D
:105E3100000DD1A9EC0FF0520404E00001D751D8B4
:105E41001164E115D91EEC36F07BEC13F00C500017
:105E510001966F12D958EC36F022EC14F005C06CA3
:105E6100F006C06DF0050E0001966502D06C4B6D19
:105E71002B08D958EC36F022EC14F0055006101915
:105E8100E1010E15EC36F0030E76EC1BF06CC0113F
:105E9100F055C012F056C013F057C014F00D0E6D3E
:105EA100EC1CF0B00E116E0AEC36F0130E6DEC1C0A
:105EB100F0AAD0010E15EC36F0030E76EC1BF008BB
:105EC1006A0A0E076EDED822EC14F026EC2AF07B6B
:105ED100EC13F00C5002EC36F00B0E6DEC1CF06C78
:105EE100C00CF06DC00DF01EEC36F07BEC13F00C25
:105EF1005002EC36F0110E6DEC1CF0B00E116E0A72
:105F0100EC36F0170E6DEC1CF07ED0200E136E13E4
:105F1100501DEC14F0132A300E1364F9D7086A648B
:105F21000E076EAAD822EC14F026EC2AF07BEC13B3
:105F3100F043EC36F0A1D822EC14F026EC2AF07BE9
:105F4100EC13F05CEC36F093D81EEC36F07BEC13DE
:105F5100F02EEC36F037E0010E15EC36F0020E763D
:105F6100EC1BF03AEC36F002EC36F00B0E6DEC1C4B
:105F7100F011EC36F002EC36F0110E6DEC1CF093E2
:105F8100C111F00AEC36F0170E6DEC1CF06CD80262
:105F9100EC36F01A0E6DEC1CF095C111F0C0EC2B33
:105FA100F0200E8CEC1AF03D0E126EE10E116E40D7
:105FB1000EE82EFED7112EFCD7122EFAD7080E911D
:105FC100EC15F021D0010E15EC36F0020E76EC1B2B
:105FD100F011EC36F002EC36F00B0E6DEC1CF09388
:105FE100C111F00AEC36F0110E6DEC1CF03CD80238
:105FF100EC36F0140E6DEC1CF095C111F00AEC3684
:10600100F01A0E6DEC1CF022EC36F04BEC36F01A67
:10601100EC36F043EF1AF0050E596E0CEC17F096C2
:10602100EC25F000EC1AF044EC3CF000EC1AF04FD7
:106031005006E071EC31F066EC31F043EF1AF00EEE
:10604100D866EC31F043EC1AF0B5EF28F059500462
:106051000AE2E0010A01E1EDD6030A12008E0E0503
:106061006E600E066E120001019451D00F1200D71E
:10607100C00CF0D8C00DF01200D7C005F0D8C00692
:10608100F012006CC005F06DC006F012005A80DEFF
:10609100D04A500EEC33F0020E4A1803E12CEC3CCE
:1060A100F002D00001996B050E42640DD0070E423B
:1060B100600AD0D70E0B6EFA0E0C6EFB0E0D6EFC45
:1060C1000E0E6EF5EC22F00E0E426405D0100E425B
:1060D1006002D0030E596E270E4264C6D0290E42CB
:1060E10060C3D0505004E043B002D0020EA6D003EA
:1060F1000EA4D05A90240E95EC12F0500E95EC128D
:10610100F00D0E95EC12F00A0E95EC12F0EED8009F
:10611100EC1AF06E0E056E540EFBEC19F0320E09FE
:106121006E43EC1AF0F5EC2AF043EC1AF020EE4243
:10613100F010EE36F0060EDBCFE3FFE806FCE205D9
:106141000E596E5A96020E4A1801E08ED0C4D8C07C
:10615100EC2BF00D0E8CEC1AF087D00001996B5AE4
:10616100907CEC23F01EC0DDF01FC0DEF060EC2758
:10617100F01EC0DFF01FC0E0F0F1EC2DF02FC0DB0E
:10618100F030C0DCF061EC36F02FC0D9F030C0DA6D
:10619100F0020E4A1807E1170E116EC0EC2BF00D3C
:1061A1000E8CEC1AF00CEC17F050500CE09ED8005D
:1061B100EC1AF02A0E056E4A0E066E87D843EC1AC9
:1061C100F099D852D092D800EC1AF0E80E056E5230
:1061D1000E066E7BD843EC1AF0F3D75A904E501747
:1061E100E08DD807E1170E116EC0EC2BF00D0E8C6F
:1061F100EC1AF00CEC17F079D800EC1AF0320E051D
:106201006E5E0E066E62D843EC1AF074D815D04F4C
:106211005013E074D807E1170E116EC0EC2BF00D8E
:106221000E8CEC1AF00CEC17F060D800EC1AF05858
:10623100D84CD843EC1AF0E9D7050E596E15D005A4
:106241000E596E96EC25F000EC1AF00ED059500163
:106251000A01E14FD7030A81E0010ABFE0070AEF13
:10626100E0010A01E115D7030A5AA604D0A40E07DA
:106271006E3FEC13F04B5008E042A05AA405D05AEF
:106281009488EC10F0E8EC12F05A8600019851461F
:10629100181AE1050E096E435013EC11F00009D8EC
:1062A100A41200230E4218D8B45AA2120014D8C066
:1062B100EC2BF00D0E8CEC1AF03FEC3CF005EC13DE
:1062C100F0010E996F010C5A921200086A076A0ACE
:1062D1006A140E096E140C0001996B170E116E17DA
:1062E1000C400E056E690E066E12008E0E056E6074
:1062F1000E066E1200050E596E5A96050C00019994
:106301006B020E4A1812002DD0080E0E6E630E0F8E
:106311006EF80E106E4F0E116EEDEC11F02CD008D0
:106321000E0E6E630E0F6E5DEC13F025D03B2A0C42
:106331000E3B6402D0010E3B6EF5EC2AF043EC1AE1
:10634100F062D949EC16F017D03B063B5002E10C44
:106351000E3B6EF5EC2AF043EC1AF055D949EC16D8
:10636100F00AD05950010AD0E0030AE0E0010AEC3A
:10637100E0070AD5E0010A5AA633D1AB0EF66E7FCB
:106381000EF76E000EF86E32D9000E8CEC1AF0ACDE
:106391000EF66E7F0EF76E000EF86E28D9060E8C83
:1063A100EC1AF0AD0EF66E7F0EF76E000EF86E1E53
:1063B100D90C0E8CEC1AF0F4D0FC0EF66E7F0EF7B1
:1063C1006E000EF86E13D9120E8CEC1AF0FD0EF65B
:1063D1006E7F0EF76E000EF86E09D9180E8CEC1A4E
:1063E100F0FFD0F30EF66E7F0EF76E000EF86EFE24
:1063F100D8120E8CEC1AF0F40EF66E7F0EF76E00CA
:106401000EF86EF4D8180E8CEC1AF0EAD0D80EF60D
:106411006E7F0EF76E000EF86EE9D8120E8CEC1A34
:10642100F0D90EF66E7F0EF76E000EF86EDFD818FB
:106431000E8CEC1AF0D5D0CC0EF66E7F0EF76E00F6
:106441000EF86ED4D8120E8CEC1AF0CD0EF66E7FCB
:106451000EF76E000EF86ECAD8180E8CEC1AF0C04A
:10646100D0E40EF66E7F0EF76E000EF86EBFD812F6
:106471000E8CEC1AF0E50EF66E7F0EF76E000EF83C
:106481006EB5D8180E8CEC1AF0ABD0E70EF66E7F15
:106491000EF76E000EF86EAAD8120E8CEC1AF0E808
:1064A1000EF66E7F0EF76E000EF86EA0D8180E8CE9
:1064B100EC1AF096D0D50EF66E7F0EF76E000EF840
:1064C1006E95D8120E8CEC1AF0D60EF66E7F0EF782
:1064D1006E000EF86E8BD8180E8CEC1AF081D0EA93
:1064E100EC2DF084D8120E8CEC1AF0E3EC2DF07E3A
:1064F100D8180E8CEC1AF074D0DB0EF66E7F0EF706
:106501006E000EF86E73D8120E8CEC1AF0DC0EF6DB
:106511006E7F0EF76E000EF86E69D8180E8CEC1AAD
:10652100F05FD0C90EF66E7F0EF76E000EF86E5E4C
:10653100D8120E8CEC1AF0CA0EF66E7F0EF76E00B2
:106541000EF86E54D8180E8CEC1AF04AD0EA0EF6FA
:106551006E7F0EF76E000EF86E49D8120E8CEC1A93
:10656100F0EB0EF66E7F0EF76E000EF86E3FD81848
:106571000E8CEC1AF035D0DE0EF66E7F0EF76E0043
:106581000EF86E34D8120E8CEC1AF0DF0EF66E7F18
:106591000EF76E000EF86E2AD8180E8CEC1AF02049
:1065A100D03B50010A01E108D7030A01E11AD701E2
:1065B1000A01E12CD7070A01E13ED7010A01E150A6
:1065C100D7030A01E162D7010A01E174D70F0A87F3
:1065D100E0010A92E0030AA5E0010AB8E0070ACB4C
:1065E100E0A40E076E3FEC13F05A8612000800F586
:1065F100CF11F0290E126E790E136E000E146EA4D7
:106601000E156E166A1200050E596E3AC010F03B57
:10661100C011F03CC012F039501200336E16D10097
:1066210001996B346A6ED960EC12F013EC11F00031
:10663100090CE03450266E276A64D960EC12F0131D
:10664100EC11F016D9A40F62D903D034501DEC140B
:10665100F063D9445013EC11F00BD9AA0F57D95C50
:10666100D9056E435060EC12F013EC11F001D9B171
:106671000F4DD952D9435013EC11F0FAD8B70F4648
:10668100D9342A040E3464CED7346A46D9056E4211
:106691005060EC12F013EC11F0030D0BD9BD0F3665
:1066A100D93BD9425013EC11F0030D03D9C10F2E80
:1066B100D9342A020E3464E9D70001A96B800EAFE8
:1066C1006FB06FB66BBC6BC06B1200010E0001990D
:1066D1006F18D960EC12F013EC11F0406E2CD91345
:1066E100EC11F03F6E1FD960EC12F013EC11F03E8B
:1066F1006E1ED913EC11F03D6E405000019E190938
:10670100E13F509D1906E13E509C1903E13D509B2C
:10671100196EE03D509B1909E00AD913EC11F00202
:10672100EC36F0190E6DEC1CF007D001D913EC1109
:10673100F094D8190E8CEC1AF03E5000019C190B04
:10674100E0F1D860EC12F013EC11F002EC36F0132A
:106751000E6DEC1CF009D0E6D860EC12F013EC11D0
:10676100F07CD8130E8CEC1AF03F5000019D1909F2
:10677100E0E2D813EC11F002EC36F0070E6DEC1CE0
:10678100F007D0D9D813EC11F068D8070E8CEC1AA9
:10679100F0B8D860EC12F013EC11F0000919E040E8
:1067A1005000019E190BE0ADD860EC12F013EC1112
:1067B100F002EC36F0010E6DEC1CF010D0A2D860A6
:1067C100EC12F013EC11F049D8010E8CEC1AF00622
:1067D100D0116A0AEC36F0010E6DEC1CF040C09E3F
:1067E100F03FC09DF03EC09CF03DC09BF01200897F
:1067F100D860EC12F013EC11F000090AE082D860C5
:10680100EC12F013EC11F029D8010E8CEC1AF00601
:10681100D0116AC0EC2BF0010E8CEC1AF08CD8135D
:10682100EC11F01BD8070E8CEC1AF07CD860EC123E
:10683100F013EC11F012D8130E8CEC1AF078D81377
:10684100EC11F00BD8190E8CEF1AF03350010A013C
:10685100E1E6D6030A01E139D71200116E55C012E3
:10686100F056C013F057C014F0A40E156E166A123C
:1068710000050DF3CF28F0F4CF29F0285055242A34
:106881006E295056202B6E000E29BEFF0E57202C6C
:106891006E26502A242D6E27502B202E6E000E2C92
:1068A100202F6E2DC0F6FF2EC0F7FF2FC0F8FF344A
:1068B100501200F3CF28F0F4CF29F0030E28260060
:1068C1000E2922E60E2A6E780E2B6E000E2C6E28F3
:1068D100502A242D6E29502B202E6E000E2C202F95
:1068E1006E26502D24306E27502E20316E000E2F33
:1068F10020326E30C0F6FF31C0F7FF32C0F8FF34EE
:106901005012000A0E096E056E44501200D96EDA5B
:106911006A0800F5CFDFFF12003450266E276A0A9D
:106921000E096E0A0C0A0E096E056E435012000A1A
:106931000E096E435012000A0E096E44501200599E
:10694100D1A9EC0FF00001A05118E0020E6DD900A1
:106951000E76EC1BF0450E116E5CD9090E6DEC1C28
:10696100F0720E116E56D90F0E6DEC1CF0720E11F5
:106971006E50D9150E6DEC1CF023D1D52903E1D64B
:106981002901E107D1520403E0D551D61175E17512
:10699100D954D97BEC13F00C500001956F7ED98747
:1069A100D922EC14F005C06AF006C06BF0050E00A8
:1069B10001956502D06A4B6B2B75D979D922EC14FC
:1069C100F0055006102FE1020E2FD9030E76EC1BB5
:1069D100F000016A516B1116E058C011F01AD90D7F
:1069E1000E6DEC1CF035D929D97BEC13F00C500954
:1069F100D9130E6DEC1CF0B00E116E0BD9190E6D82
:106A0100EC1CF0DED025D919D97BEC13F00C50F930
:106A1100D80D0E6DEC1CF0B00E116EFBD8130E6D7F
:106A2100EC1CF0CED0020E00D9000E76EC1BF05813
:106A3100C011F0EFD8090E6DEC1CF0086A0A0E07C0
:106A41006E31D922EC14F026EC2AF07BEC13F00C19
:106A510050D8D80F0E6DEC1CF0FBD8EFD87BEC139F
:106A6100F00C50CFD8150E6DEC1CF0B00E116ED19C
:106A7100D81B0E6DEC1CF0A4D0200E286E28501DE2
:106A8100EC14F0282A300E2864F9D7086A640E073E
:106A91006E04D922EC14F026EC2AF07BEC13F0F210
:106AA100D8FCD822EC14F026EC2AF07BEC13F0038E
:106AB100D9E4D8C3D87BEC13F0D0D839E0020EB4B6
:106AC100D8030E76EC1BF058C011F0A3D80B0E6D55
:106AD100EC1CF0CFD896D8110E6DEC1CF0A1D8911A
:106AE100D8170E6DEC1CF093C111F093D81D0E6DEB
:106AF100EC1CF001019451D00F2EEC34F0200E8CDF
:106B0100EC1AF095C111F0C0EC2BF0260E8CEC1AAA
:106B1100F03D0E276EE10E266E400EE82EFED726C2
:106B21002EFCD7272EFAD70A0E91EC15F049D00288
:106B31000E7BD8010E76EC1BF058C011F06AD80B11
:106B41000E6DEC1CF06DD85DD8110E6DEC1CF09340
:106B5100C111F05FD8170E6DEC1CF034EC30F05120
:106B6100D81A0E6DEC1CF095C111F0C0EC2BF02081
:106B71000E8CEC1AF03D0E276EE10E266E400EE8EB
:106B81002EFED7262EFCD7272EFAD7080E91EC150C
:106B9100F017D0020E49D8000E76EC1BF02D0E1125
:106BA1006E38D8090E6DEC1CF02D0E116E32D80F17
:106BB1000E6DEC1CF02D0E116E2CD8150E6DEC1C0B
:106BC100F040D868D836D843EF1AF0050E596E0C4C
:106BD100EC17F0B5EC28F096EC25F000EC1AF03546
:106BE100EC3CF000EC1AF02FEC30F066EC31F043A5
:106BF100EF1AF05950040AE9E0010A01E1A1D603B4
:106C01000A1200116E55C012F056C013F057C0148D
:106C1100F01200290E126E790E136E000E146E1210
:106C21000001019251D00F12000C6EA40E0D6E0ED8
:106C31006A1200076E0A6A096A12000F6A0A0E0ECA
:106C41006E0A0C060E596EB20E056E1E0E066E12FF
:106C5100006AC00CF06BC00DF012000C50300F0137
:106C610001946F2E0E936FB00E956F966B300E914F
:106C710019120001019151D00F1200D5C00CF0D6AC
:106C8100C00DF012000C50300F0101916F086A0A1B
:106C91000E076E0A0C020E086E8A0CD5C005F0D6DE
:106CA100C006F012006AC005F06BC006F0120008C1
:106CB1006A0A0E076E0A0C0C50300F0101926F1216
:106CC1000087EC11F027C0A3F328C0A4F329C0A5C5
:106CD100F32AC0A6F360C096F361C097F362C0982F
:106CE100F363C099F303019935D1DA000E9625B308
:106CF1006F060E9721B46FFF0E9821B56FFF0E99A5
:106D010021B66F0B0E2BDA6CEC14F00301966701C0
:106D1100D003D05FDA962FF9D762DAA7C305F0A8BE
:106D2100C306F0A9C307F0AAC308F076C009F0773B
:106D3100C00AF079DA6CEC14F08EDA78C005F079DB
:106D4100C006F056DA6CEC14F0D8900534030196C5
:106D51006F0634976F0734986F0834996F9651AB6B
:106D6100279751AC239851AD239951AE2300017A55
:106D7100510301966F00017B510301976F986B9945
:106D81006B97C399F396C398F3976B966B020E9A20
:106D91006FABC39BF3ACC39CF3ADC39DF3AEC39E7A
:106DA100F39A6701D007D09E359E339D339C339B68
:106DB100339A2FF6D7030196519B25AB6F97519CC0
:106DC10021AC6F98519D21AD6F99519E21AE6F0DF0
:106DD1000EC5D96CEC14F00301966701D003D0F90C
:106DE100D9962FF9D7FCD9120E0301966F030E978E
:106DF1006F7CC005F07DC006F0000E08DA6CEC1463
:106E0100F005C098F306C099F307C09AF308C09B38
:106E1100F30301976701D007D09B359B339A3399D0
:106E2100339833972FF5D77EC005F07FC006F0E089
:106E3100D96CEC14F0CED90550030198259C6F064E
:106E41005099219D6F07509A219E6F08509B219F59
:106E51006F966701D007D09F359F339E339D339C3A
:106E610033962FF6D79CC3B3F39DC3B4F39EC3B53A
:106E7100F39FC3B6F30F0E0301966F000EB3250502
:106E81006E800EB421066E000EB521076E000EB69F
:106E910021086EF7C009F0F8C00AF00B6A0C6A6CA1
:106EA100EC14F00301966701D003D093D9962FF922
:106EB100D7DBD90301B351B411B511B61105E12FD7
:106EC1006A306A316A326A12000C0E966FABC39750
:106ED100F3ACC398F3ADC399F3AEC39AF3966701CC
:106EE100D004D09A35CED9962FF9D7A3C39BF3A45A
:106EF100C39CF3A5C39DF3A6C39EF303019B1F9CF3
:106F01001F9D1F9E1F9B2B000E9C239D239E23973D
:106F1100519B5D9F6F98519C59A06F99519D59A1AB
:106F21006F9A519E59A26F000E9F25056E000EA00B
:106F310021066E100EA121076E000EA221086E35EA
:106F41000E096E0C0E9AD96CEC14F005C0AFF30665
:106F5100C0B0F307C0B1F308C0B2F3800E0301B2B1
:106F61005D0EE2D890AF35116EB035126EB13513AA
:106F71006EB235146E67D951EC18F05BD915D0AFEC
:106F8100C311F0B0C312F0B1C313F0B2C314F05A7D
:106F9100D951EC18F0D89011340301AF6F1234B00D
:106FA1006F1334B16F1434B26FAFC396F3B0C3979C
:106FB100F3B1C398F3B2C399F3040E03D00301D81C
:106FC1009065D9E82EFBD796C305F097C306F098D4
:106FD100C307F099C308F0AFC39AF3B0C39BF3B1F1
:106FE100C39CF3B2C39DF3040E05D0D8909D339C8E
:106FF100339B339A33E82EF9D79AC309F09BC30A1E
:10700100F09CC30BF09DC30CF06CEC14F00E0E055C
:10701100D0D8900832073206320532E82EF9D7DF90
:10702100D80C0E0301966F70C005F071C006F00018
:107031000EEDD86CEC14F00301966701D003D0C9B2
:10704100D8962FF9D711D90D0E0301966FAFC397BB
:10705100F3B0C398F3B1C399F3B2C39AF3030E0229
:10706100D0D8900FD9E82EFCD797C305F098C30666
:10707100F099C307F09AC308F072C009F073C00A0F
:10708100F0D2D86CEC14F00301966701D003D0A1C3
:10709100D8962FF9D7E0D8040E0301966F74C097E4
:1070A100F375C098F3000E98BFFF0E996F9A6FB3F6
:1070B1005197259B6FB45198219C6FB55199219D92
:1070C1006FB6519A219E6FAB519B259F6FAC519C1E
:1070D10021A06FAD519D21A16FAE519E21A26F964E
:1070E1006701D007D0A235A233A133A0339F3396D5
:1070F1002FF6D70301AF519F25AF6FB051A021B03B
:107101006FB151A121B16FB251A221B26FAFC305CD
:10711100F0B0C306F0B1C307F0B2C308F0E80E093E
:107121006E030EABD86CEC14F005C011F006C01262
:10713100F007C013F008C014F0140E156E340E16CB
:107141006E176A186A51EC18F074D8AFC32FF0B0FB
:10715100C330F0B1C331F0B2C332F01200966F0206
:107161000E976FB3C398F3B4C399F3B5C39AF3B64B
:10717100C39BF3976701D007D09B359B339A339913
:10718100339833972FF6D798C305F099C306F09A31
:10719100C307F09BC308F0020E03019C6FB3C39DAC
:1071A100F3B4C39EF3B5C39FF3B6C3A0F39C6701C9
:1071B100D007D0A035A0339F339E339D339C2FF64B
:1071C100D79DC309F09EC30AF09FC30BF0A0C30C67
:1071D100F012000834083207320632053212000577
:1071E100C0A7F306C0A8F307C0A9F308C0AAF31209
:1071F10000000E06BEFF0E076E086EB3C309F0B4A1
:10720100C30AF0B5C30BF0B6C30CF0120006BEFF03
:107211000E076E086EA7C309F0A8C30AF0A9C30B35
:10722100F0AAC30CF01200000E0ABEFF0E0B6E0C8A
:107231006E120011C0AFF312C0B0F313C0B1F3145A
:10724100C0B2F31200B3C315F0B4C316F0B5C3173F
:10725100F0B6C318F0120005C0ABF306C0ACF307DB
:10726100C0ADF308C0AEF3120005C0B3F306C0B45D
:10727100F307C0B5F308C0B6F312000A6E0B6A0C2F
:107281006A12009A339933983397331200993398DD
:107291003397339633120024D04CEC11F00E6E006C
:1072A1000E9425D96EDA6A020EDA220EC0DFFF943F
:1072B1002B010E946515D0FF0E9425D96EDA6A0163
:1072C1000EDA220A0EDE180CE1FE0E9425D96EDAD2
:1072D1006A010EDA220D0EDE1803E1010E976F022C
:1072E100D04150DAE1415002E16EEC0FF00001971C
:1072F10051D8B41200240E0201001901E128D25A1A
:10730100D2BAEC14F057D2240E95EC12F04A0E9535
:10731100EC12F0106A1050490F38EC19F095EC128C
:10732100F0102A0B0E1064F6D70D0E95EC12F00A30
:107331000E95EC12F03FD2106A07D06FDAEF0E1003
:1073410024E16EE26A010E8BDA5FDAD9EC13F0FE0A
:107351000E4DDA01E22FD2F1D75AA01CD06ADA38E9
:107361006E6EDA376E72DA366E0001F9510CE03862
:107371005005E15ADA170E9AEC13F009D055DA38B4
:10738100049AEC13F004D050DA38509AEC13F02A36
:10739100EC10F010D21EEC10F00DD214DA0E040F26
:1073A1001005E010DA020E0E180F10F4E10251D0B0
:1073B1000F4A6E4AC005F0010ECBEC10F0A9EC0F9C
:1073C100F04A0403E10001996B01D045DA9F6BDFBC
:1073D100D7010E16DACBEC10F019EC16F022D00220
:1073E1000E0FDACBEC10F0F8D7030E0ADACBEC1063
:1073F100F0F3D7040E05DACBEC10F0EED7050E0052
:10740100DACBEC10F0E9D7DED90F500BE10E5001C9
:107411000ADFE0030AE4E0010AE7E0070AEAE00123
:107421000AEDE0D00E02010225D4D90FBE05D00F1E
:1074310050B1E1060E0E5CAEE2C5D90E500F10AA96
:10744100E0A6D7FDD9106E01DA116E08510A0DF3CD
:10745100500925F00F126EEDD949EC16F098D7B20C
:10746100D90E500F1004E0AED90E040F1093E102B3
:1074710051D00F4B6E0351D00F4C6E4BC005F00233
:107481000ECBEC10F04B5083E14CC005F0030ECB5A
:10749100EC10F0F2EC22F079EC10F079D793D90EE0
:1074A100500F1005E08FD90E040F1001E073D702C1
:1074B10051D00F4D6E4DC005F0040ECBEC10F067AE
:1074C100D781D90E500F1005E07DD90E040F1001A0
:1074D100E061D7D00E03257DD90E500F1007E0D003
:1074E1000E032577D90E040F1001E054D70251D0B5
:1074F1000F4E6E0351D00F4F6E4EC005F0050ECBEF
:10750100EC10F0CDD9CBEC10F042D75CD90E500F76
:107511001005E058D90E040F1001E03CD70251D0FC
:107521000F506EBAD9CBEC10F032D74CD90E500FA8
:107531001005E048D90E040F1001E02CD70251D0FC
:107541000F516EFAEC20F0CBEC10F021D73BD90EA5
:10755100040F1006E037D9020E0E180F1001E01AC1
:10756100D70251D00F526E52C005F0090ECBEC106C
:10757100F00ED728D90E040F1005E024D90E500FB4
:107581001001E008D70251D00F546E2BEC26F0CB3E
:10759100EC10F0FDD62AEC10F03D0E0F6EE10E0E50
:1075A1006E400EE82EFED70E2EFCD70F2EFAD73DD9
:1075B1000E0F6EE10E0E6E400EE82EFED70E2EFC63
:1075C100D70F2EFAD73D0E0F6EE10E0E6E400EE86C
:1075D1002EFED70E2EFCD70F2EFAD73D0E0F6EE1E1
:1075E1000E0E6E400EE82EFED70E2EFCD70F2EFA91
:1075F100D7FF00E0D0610E021913E1200E966F0152
:107601000E106E07D00AD9960E1024E16EE26A02BE
:107611000E26D9FAD8D9EC13F0FD0EE8D806E3F21C
:10762100D76F0E021902E15A92B2D62AEC10F04637
:10763100C098F05A820001996B26D900EC1AF01417
:10764100D900EC1AF09BEC25F000EC1AF012D900ED
:10765100EC1AF014D905EC13F02FEC30F066EC3194
:10766100F043EC1AF0B5EC28F0F6D8A4D0240E952E
:10767100EC12F0760E95EC12F0280E95EC12F0104B
:107681006A0FD010500E6E0F6A7C0E0E24F66E7FBC
:107691000E0F20F76EF86A000EFBD895EC12F01071
:1076A1002A7C0E056E7F0E066E000E076ED9EC1356
:1076B100F095D8E7E3290E95EC12F0200E95EC1227
:1076C100F0200E95EC12F0106A0FD010500E6E0FD4
:1076D1006A680E0E24F66E7F0E0F20F76EF86A00B0
:1076E1000ED7D895EC12F0102A680E056E7F0E06A3
:1076F1006E000E076ED9EC13F071D8E7E3200E95FA
:10770100EC12F0106A0FD010500E6E0F6A730E0E4D
:1077110024F66E7F0E0F20F76EF86A000EB9D89529
:10772100EC12F0102A730E056E7F0E066E000E0726
:107731006ED9EC13F053D8E7E30D0E95EC12F00A75
:107741000E95EC12F037D00251760A90E023D60163
:1077510051440A01E1D5D50E0A01E1D5D51A0A0134
:10776100E1EAD5030A01E146D7320A01E1A9D603CC
:107771000A01E175D6010A01E110D6070A01E161AA
:10778100D6010A01E1C2D6030A01E13DD6140ADBA2
:10779100E0010A01E183D6070A01E1DED5020A010F
:1077A100E1D5D6010A01E1C1D60E0A01E1E2D60313
:1077B1000A01E1F0D60201006B016B026B0001943A
:1077C1006B976B1200D00E02250E6E0F6AFF0E0F23
:1077D10022FF0C0E6E0F6AFF0E0F22FF0C10500ECF
:1077E1006E0F6A05500E5C06500F58120005240EEC
:1077F1006EFF0E06200F6E10500E5C000E0F581219
:1078010000496E49C005F0000C000E056E020E061F
:107811006E0510D8A4800E076E1200020E1024D936
:107821006EDA6A020EDA22120037C010F036C01189
:10783100F0120002510A0DF3500325F00F1200045B
:10784100510A0DF3500525F00F120006510A0DF3F0
:10785100500725F00F1200010E0001996F010CE293
:1078610022DFCFE7FF102A1200400E056E690E06D7
:107871006E1200E80E056E520E066E1200960E157F
:107881006E020E166E1200320E056E5E0E066E123E
:1078910000F8220800F550120050C005F0070C4F07
:1078A100C005F0060C0000000000000000087C4E3E
:1078B1004F4E7C08000426473F07060400203E7F08
:1078C1007F3F3E20007E121E00701000004C6C3085
:1078D100186C640000771166116600440041516B19
:1078E10045410000000000007C447C007C00745491
:1078F1005C54547C1C107C5C54747C547404047C73
:107901007C547C5C547C00010102020304040506E2
:107911000607070809090033CA2A722AFA277A2BAF
:10792100FDBFEF7FFBDFF7FE000000000045514582
:107931003E006B6F6B3E003E7C3E1C003C7E3C1863
:1079410000367F363000000000000000000000001B
:107951000000000000000000000000000000000026
:107961000000000000000000000000000000000016
:107971000000000000000000000000000000000006
