:0410000007EF08F0FE
:0A1008005982BEED17F01CEF21F035
:1019CE00040E576E040CF28EF28C1200959E8C9EB5
:0219DE001200F5
:1019E100001400001400017B6B010E7C6F010C449C
:1019F100EC0DF0C582120044EC0DF0C580120044DC
:101A0100EC0DF0C5841200736B746B010E756F01E0
:101A11000C706B716B010E726F010C0001A06B9F5A
:101A21006B3D6A1200FC6B140EFD6F010EFE6F011F
:101A31000CF96B140EFA6F010EFB6F010C066E446C
:101A4100EC0DF006C0C9FF1200170EBBEC0DF0093A
:101A51006E0950010B1200F294D76A160ED66E0170
:101A61000E0001A56F010C0001B32B950EB3659516
:101A71000CB36BCD9012008B94FF0EAEEC0FF00700
:101A81006E8B8407501200C7B4FED7C5CF05F01F77
:101A91000E0516F9E11F0C958695989492949495EC
:101AA1009A958C8B841200056A05500DEC11F00596
:101AB1002A1F0E0564F9D71F0CC70ED56EF28AD7FF
:101AC1006A160ED66E0001A66B1200010101020119
:101AD1000101010101010101597E002B05056EA6DD
:101AE100B2FED705C0A9FFA69EA69CA680A850124B
:101AF100003CEC0DF00A6E0ABC010C25EC0DF00067
:101B010009D8B4010C000C086E8B9408502009AE62
:101B1100EC0FF00750AEEC0FF08B8412000DC007F4
:101B2100F00EC008F00FC009F0050E0A6E2B0E85ED
:101B3100EF10F0D8EC10F00009D8A41200CC0EBCC4
:101B4100EC10F0440EBCEF10F0066E06C005F00F6D
:101B51000E051606380F0B0A0DF35005241200036B
:101B61000E9312280EC66EC76A770EC86EC584C55D
:101B7100A41200FDD7076E8B940750AEEC0FF00056
:101B81000EAEEC0FF0086E8B8408501200450E6A01
:101B9100EC10F0520E6AEC10F00D0E6AEC10F00A27
:101BA1000E6AEF10F04F0E6AEC10F04B0E6AEC105B
:101BB100F00D0E6AEC10F00A0E6AEF10F093EC0EC5
:101BC100F0E70E0001EB6FEB0E086E800EF2EC13E6
:101BD100F041EF17F0E47E003E7F00E57E00EF7EEE
:101BE10000227F00377F00F87E00297F00839C95CB
:101BF1009C040EE82EFED7838C958C180EE82EFEE1
:101C0100D783BC010C000C0CC007F00DC008F09C80
:101C1100C009F0610EEFEC0FF0400E076E070E8465
:101C2100EF0DF0CD90150ECF6EA00ECE6E9D80B152
:101C310092B180A082F00EB36E600EB26E600C089D
:101C41006E8C90096A08504FEC0EF007504FEC0E65
:101C5100F0092A030E0964F6D78C80030CC282C2F4
:101C6100B2FED7C450066E056AC350052400016C4C
:101C71006F000E06206D6F0000000012007E0E0541
:101C81006E1C0E066EFDEC17F0F80E0B6E1CEC1AB6
:101C9100F00BC062F00CC063F075EF1AF0056E0630
:101CA1006A05AE02D08C8401D08C948C8200008CA9
:101CB10092D8900536062A070E0664F2D7070C055E
:101CC1006E839C959C050405E1080EE82EFED783E2
:101CD1008C958CFC0E00D0E82EFDD7838C958C1250
:101CE1000007D82A0E85EC10F003D8300E85EF10CE
:101CF100F00DC007F00EC008F00FC009F0050E0A84
:101D01006E050C0EC076F00FC077F0010E786F9D56
:101D1100EC13F002D840EF18F0086A076A0A6A016A
:101D21000E096E010CFE0EA3EC23F0FEEC0EF00486
:101D31000E0C6E0C0E0B6E340EE82EFED70B2EFC25
:101D4100D70C2EFAD71200066EA6B2FED706C0A98E
:101D5100FF05C0A8FFA69EA69CA684F29E550EA7CD
:101D61006EAA0EA76EA682F28EAA0C066E44EC0D28
:101D7100F0C58644EC0DF0C9CF07F044EC0DF00638
:101D81005002E1C58A01D0C59AC5880750120016D4
:101D91006E16C0EBF013EC1AF0020E18EC1AF041BB
:101DA100EC17F00001EC51146EEB51126E14C013DC
:101DB100F012007B7F00307F000A7F00617F0045C9
:101DC1007F004C7F00757F005A7F00127F00687F83
:101DD10000DB7E00537F001F1D1F1E1F1E1F1F1EC5
:101DE1001F1E1FFDBFEF7FFBDFF7FE3139322E31A2
:101DF10036382E342E310000000000FCEC0CF008C7
:101E0100501FEC0DF00A6A07D007500A247BEC172B
:101E1100F01FEC0DF00A2A09500A5CF6E300EF0D01
:101E2100F00A6E080E0B6E0C6AD8900A340C340C52
:101E31006ED8900A3609500C5C02E309500C5E0B17
:101E41002EF3D70C5012000F6E0A0E096E0F5011AF
:101E5100EC0FF00D6E0F0E0D160A0E056E0F5050A1
:101E6100EC10F00E6E0E38F00B0D1012003D50FE0E
:101E7100E0000E00019F25B7EC10F0DF50056E9FCA
:101E81002B950E9F6501D09F6B9D9A3D069D8A05FE
:101E91005012000A6E05C008F0010E096E082A02F0
:101EA100D0D8900936082EFCD70A500624D96E00E6
:101EB1000E0720DA6E0950DF121200948C948EAC5A
:101EC10098AC8AAB88AB8EAC84B886B06A670EAF2B
:101ED1006E0001A26B100EA16FA06B9F6B3D6A9DFE
:101EE1008A1200F70EC9EC19F012C02BF013C02CA6
:101EF100F014C02DF015C02EF02BC027F02CC028F7
:101F0100F02DC029F02EC02AF01200FA0EC9EC19EA
:101F1100F012C02BF013C02CF014C02DF015C02E00
:101F2100F02BC027F02CC028F02DC029F02EC02A9C
:101F3100F01200D8EC10F00009D8A41200CC0EBCAD
:101F4100EC10F04E0EBCEC10F0000EBCEC10F000EA
:101F51000EBCEC10F07F0EBCEF10F0056E066A05AA
:101F6100AE02D08C8801D08C98D89005368C8A012D
:101F71000E83A6000E05128C9A062A070E0664EF40
:101F8100D7055012000B6E05C008F0010E096E084E
:101F91002A02D0D8900936082EFCD7091C0A6E0BEC
:101FA100500624D96E000E0720DA6E0A50DF161291
:101FB100000E0E0001EB6FEC6B0AD8FEEC0EF00F79
:101FC1000E0001EB6F080EEC6F02D8FEEF0EF0EB86
:101FD1000E076ED00E086E020E096E020C0A6E8B91
:101FE100940A50AEEC0FF00B6A0BD00B500724D9BA
:101FF1006E000E0820DA6E000EAEEC0FF0DF6E0BF5
:102001002A09500B5CF2E38B8412008C80010E07CD
:102011006E0C0E20EC0EF0076A090E20EC0EF00794
:102021000E076E0B0E20EC0EF0020E076E0A0E204C
:10203100EC0EF0076A0F0E20EF0EF00EC005F00F48
:10204100C006F0FDEC17F010C005F011C006F00855
:102051006A076A0A6A140E096E40EC18F0C3EC2A8A
:10206100F040EC18F065EC11F054EF0DF08B94E2B8
:102071000EAEEC0FF08B84700E076E070E84EC0D24
:10208100F08B920B0E076E000E84EC0DF08B82E745
:102091000E00D000D0E82EFCD700D00000120006C0
:1020A1006E086A055014E0010E076E03D0D8900542
:1020B10036072A05AEFBD7D89008360550065C03D3
:1020C100E30550065E0880D8900532072EF4D70844
:1020D100501200056E0001A151FDE09DB805D09E92
:1020E100A8FED705C0ADFF12009D98000EA225D90C
:1020F1006EDA6A020EDA2205C0DFFFA22B0F0EA2F2
:102101006501D0A26BA10712000B6E8B940B50AE30
:10211100EC0FF00C6A0FD007C0F6FF08C0F7FF09FB
:10212100C0F8FF0800F550AEEC0FF0072A000E08CA
:102131002209220C2A0A500C5CEEE38B841200ABBC
:10214100A202D0AB98AB88000E0001A0250FD8AE3B
:10215100CFDFFFA02B950EA06501D0A06B3D2A3DDE
:1021610004016E950E0164950C3D6A1200D96EDA78
:102171006A040EDA221200086E0A6A0AC006F00822
:10218100C007F0062A02D0D8900732062EFCD707E6
:1021910050096E010E0916095060EC0EF00A2A076B
:1021A1000E0A64EBD7FC0E00D0E82EFDD712008397
:1021B1009C959C080E056ECA0EE82EFED7052EFCD6
:1021C100D7838C958CF00E00D0E82EFDD7000E83BE
:1021D100BC010E066E070E056E9A0EE82EFED7059F
:1021E1002EFCD700D00650120000017C5101E10005
:1021F1000C7BC00BF07B511F080C6E0B500DD80CE3
:10220100500BD8BA0E076E2FEC11F000017B2B0F8B
:102211000E7B65010C7C6B000CBA0FD96EDA6ADF9C
:102221006A1200580E00016C5D020E6D5902E30541
:102231000E06D06D5103E13A0E6C5D05E3030E0706
:102241006E0A0E20EF0EF06D5108E1330E6C5DD871
:10225100B01200076A0A0E20EC0EF012000A6A8C16
:1022610090096A0950F80D0750F3240A24D96EDA4F
:102271006A180ED926DF50086E0A284FEC0EF008B6
:10228100504FEC0EF0092A030E0964EBD78C800A3B
:102291002A070E0A64E4D7070C0EC005F00FC0062A
:1022A100F0FDEC17F029EC24F040EC18F01DEC27C0
:1022B100F0FDEC17F009D854EC0DF0470401E108EA
:1022C100D0010E0001AC6F010C050E576E5896053A
:1022D1000C0001AC6B12000A6A086A17D00850059D
:1022E10024D96E000E0620DA6EDF500A1A096A0A36
:1022F100AE05D00A500A24310A0A6E02D0D8900ADB
:1023010036092A070E0964F3D7082A0750085CE644
:10231100E30A5012000E500F1017E0010E106E0468
:10232100D0D8900E360F36102A0FAEFAD70E500CB9
:102331005C0F500D5804E30E500C5E0F500D5AD82F
:10234100900F320E32102EF2D70CC00CF00DC00DD2
:10235100F01200126E0001EB6B115024EC0FF07AB9
:10236100EC14F0FEEC0EF0010E0001EB6F105024A6
:10237100EC0FF07AEC14F0FEEC0EF0020E0001EB23
:102381006F125024EC0FF03F0B7AEC14F0FEEF0EBD
:10239100F0076A086AF7EC0DF000090CE008C005C7
:1023A100F0010E066E052A02D0D8900636052EFCE5
:1023B100D706500712CD0E00D000D0E82EFCD70072
:1023C100D000D00000082A070E0864E4D707501295
:1023D100000001FE5101E1000C0B6A0B50BB0FD94B
:1023E1006EDA6A0B503DEC15F00B2A1E0E0B64F5EC
:1023F100D7D96BBA0E076E2FEC11F00001FC2B023E
:102401000EFD6501D0FD5F1F0EFC65010CFE6B002A
:102411000C0001FB5101E1000C1F0E0B6E0B50B9BA
:102421000FD96EDA6A0B503DEC15F00B060B50F626
:10243100E1BA6BBA0E076E2FEC11F00001F92B0215
:102441000EFA6501D0FA5F1F0EF965010CFB6B00F6
:102451000C13C018F014C019F018C0D9FF19C0DA54
:10246100FF184A192A15C0F6FF16C0F7FF17C0F367
:10247100FF152A000E16221722F350E8BE04D0F8E9
:102481006E0800F55002D022EC13F0DF6EDF50E44D
:10249100E1120041C0C8F242C0C9F243C0CAF245CC
:1024A10050640DF3CF2EF0F4CF2FF044502E2402C0
:1024B10001C66F000E2F20C76F2CC023F02DC02442
:1024C100F0C8C225F0C9C226F0CAC227F0C6C22888
:1024D100F0C7C229F0D4EF27F00A6A0B6A07500847
:1024E100101BE0010E096E04D0D89007360836099A
:1024F1002A08AEFAD7D8900A360B360750055C0881
:1025010050065805E30750055E0850065A0A80D860
:102511009008320732092EEED70AC005F00BC0062B
:10252100F012000001725103E1000C702B716B205D
:102531000E706103D016D8DF50F8E01F0E706502EF
:10254100D0726B000C0ED8D890DF36BA0E076E2F02
:10255100EC11F00001712B070E7165010C716B70AC
:102561002B010C7051BA0FD96EDA6A120019D0E33F
:102571000E056E010E066ED5EC18F019D06E0E0E1A
:102581006E250E0F6E080E106E4D0E116E1EEC10A4
:10259100F00ED06E0E0E6E250E0F6E4DEC11F00783
:1025A100D05750010AEBE0050AF4E0010AE0E0BA75
:1025B1000E076E2FEF11F00D6A0E6A0F6A106A0591
:1025C100A008D009500D260A500E220B500F220CE4
:1025D100501022D89009360A360B360C36D890089E
:1025E100320732063205320550061007100810E78F
:1025F100E10DC005F00EC006F00FC007F010C008D5
:10260100F0120005C008F006C009F007C00AF00486
:10261100D0052A000E0622072205C0F6FF06C0F7E4
:10262100FF0750E8BE04D0F86E0800F55001D0094C
:10263100D80009EEE10850055C056E095006580600
:102641006E1200F6CFE1FFF7CFE2FFE7501200076D
:10265100C00CF008C00DF009C00EF005C010F00666
:10266100C011F015D00CC0F6FF0DC0F7FF0EC0F879
:10267100FF0800F5CF0FF00C2A000E0D220E2210DC
:10268100C0D9FF11C0DAFF0FC0DFFF104A112A0ABB
:1026910006D8A00B060A28E6E10B28E4E112009A0D
:1026A100EC0DF07E0E056E1C0E066E086AAA0E0772
:1026B1006E170E0A6E700E096E40EC18F023EC23B3
:1026C100F01EC068F01FC069F0E9EC25F01EC06A79
:1026D100F01FC06BF0E3EC2FF0F3C166F0F4C167BB
:1026E100F0E3EC35F0F3C164F0F4C165F0120000E1
:1026F10001785101E1120076C005F077C006F0D5EE
:10270100EC18F000090CE0BA0E076E2FEC11F01472
:10271100D8086A0D0E076E33EC24F040EF18F078FC
:102721006B29EC24F040EC18F0F00E056E260E0635
:102731006EFDEC17F048EF29F0F00E056E260E063F
:102741006E12008B6A380E946E8A6ADF0E936EF1F8
:102751009E6D968C6A956A896A010E926E966A845C
:102761006A8D6A070EB46EC30EC216C150F00B0E0D
:1027710009C16ECF0EC116C050F80B0609C06EC05C
:1027810050C70B1009C06EC08EC280F298F096F04F
:1027910088F092838C12000001EB6BEB0E086ED077
:1027A1000E20D841EC17F0145015EC16F0A5EC0DE5
:1027B100F0DF6E010E0BEC16F041EC17F013501523
:1027C100EC16F0A5EC0DF0DF6E020E0BEC16F041ED
:1027D100EC17F0125015EC16F03F0BA5EC0DF0DFE5
:1027E1006E1200096E010E0A6E0B6E010C0C6E0E5C
:1027F1006A25D00F6A0F50BB0FD96EDA6A0F503DB0
:10280100EC15F00F2A1E0E0F64F5D70E50DA0FD912
:102811006EDA6ADF500001D96FBA0E076E2FEC1124
:10282100F00D6A100E0B6E940EE82EFED70B2EFCE7
:10283100D700D00D2A310E0D64F4D70E2A0E500C9C
:102841005CD8E2120023D0590E536E7E0E546E00F6
:102851000E556E1200270E536E7E0E546E000E55ED
:102861006E1200F50E536E7D0E546E000E556E12F3
:1028710000C30E536E7D0E546E000E556E12009104
:102881000E536E7D0E546E000E556E1200465001B1
:102891000ADAE0030ADFE0010AE4E0070AE9E001FD
:1028A1000AEEE01200136E030E0001EB6F135024C9
:1028B100EC0FF01FD8FEEC0EF0040E0001EB6F10D0
:1028C1005024EC0FF016D8FEEC0EF0050E0001EBD3
:1028D1006F115024EC0FF03F0B0CD8FEEC0EF006FC
:1028E1000E0001EB6F125024EC0FF03F0B02D8FEEB
:1028F100EF0EF00001EC6FEB0E076ED00E086E02CA
:102901000E096E020C81BC02D0010E0BD081BE02F9
:10291100D0020E07D081B602D0030E03D081B803D6
:10292100D0040E056E01D0056A055013E02D0E008E
:1029310001795D010E7A5905E3010E7A6F180E795E
:102941006F0CD0794B7A2B0F0E79197A11D8A4120A
:102951000004D00001796B7A6B120005C057F001B9
:102961000E9E6F010C09500A100B100C1023E00190
:102971000E0D6E06D0D89009360A360B360C360D80
:102981002A0CAEF8D70950055C0A5006580B5007BF
:10299100580C50085808E30950055E0A50065A0BB6
:1029A10050075A0C50085AD8900C320B320A32098F
:1029B100320D2EE8D705C005F006C006F007C007A6
:1029C100F008C008F01200A4C0A3F00001A42B0479
:1029D1000EA46517D0A46B15D013EC0DF0010E0FEA
:1029E100D0F4EC0CF0050E0BD019EC0DF0020E0733
:1029F100D004EC0DF0040E03D009EC0DF0030EB67B
:102A01006F0AD0A351E9E0010AEBE0030AEDE0010E
:102A11000AEFE0070AF1E004D88DEC0EF040EF1860
:102A2100F0580E056E470E066E1200100E0E6E0F58
:102A31000E0F6E0C6AA60E0E2425D80E501DD80E50
:102A41002AA60E0F241FD80F5017D80F06BA0E074B
:102A51006E2FEC11F00D6A100E0B6E940EE82EFE27
:102A6100D70B2EFCD700D00D2A1D0E0D64F4D70C08
:102A71002A0F0E0C64DFD70F0CBA0FE16EE26ADF8A
:102A8100CFE7FF1200D96EDA6A020EDA22120021B4
:102A9100EEDBF010EE0CF0070EDBCFE3FFE806FCF7
:102AA100E20001755101E1000C156A7451732507AB
:102AB1000B146E14500C0FD96EDA6ADF500B6E15C1
:102AC10050BA0FD96EDA6A0B50DF16742B070E74E9
:102AD1006501D0746B152A1F0E1564E7D7BA0E076E
:102AE1006E2FEC11F00001732B070E7365010C754D
:102AF1006B000C126A0EAE06D00D6C0E1ED8B00E15
:102B01002A010E126E10AE04D00F6C101ED8B01038
:102B11002A0F50101017E0010E116E04D0D8900F3B
:102B2100361036112A10AEFAD70F500D5C10500E28
:102B31005804E30F500D5E10500E5AD89010320F0A
:102B410032112EF2D7125004E00D6C0E1ED8B00EC9
:102B51002A0DC00DF00EC00EF0120079EC0DF00040
:102B6100091EE0CA0E0C6E010E0D6E04EC0EF0375C
:102B7100EC10F00101CC51056ECB510001606F05E5
:102B8100C061F0CAC156F00101CE51056ECD5100B0
:102B9100016E6F05C06FF0816B826BB46B03D00067
:102BA10001814B822BD10E815D020E8259D8A01278
:102BB10000816B826B010EB46F02D826EF19F0050C
:102BC1000E106E7B0C060E26D841EC17F015502C1A
:102BD100D8A5EC0DF0DF6E050E1DD841EC17F014F1
:102BE1005023D81F0BA5EC0DF0DF6E040E13D84156
:102BF100EC17F0135019D83F0BA5EC0DF0DF6E0365
:102C01000E09D841EC17F012500FD8070BA5EC0DA7
:102C1100F0DF6E12000001EB6FEB0E086ED00E09B3
:102C21006E010E0A6E0B6E010CD96EDA6A0001EBB1
:102C31005112000001AC51D8B41200B22B080EB2EF
:102C4100191BE1B26B19D0360EC96FCA6F360C244D
:102C51000E24D0240EC96FCA6F240C240EC96FCA6A
:102C61006B1200C96BCA6B1200120EF8D7120EC993
:102C71006FCA6F120C120E11D0B251E5E0010AE7D2
:102C8100E0030AE7E0010AE9E0070AEBE0010AECE8
:102C9100E0030AECE0010AEEE01200C96F360ECA49
:102CA1006F360C196A1A6A1B6A1C6A1550161017BE
:102CB10010181029E0010E1D6E06D0D89015361699
:102CC10036173618361D2A18AEF8D7D89019361A85
:102CD100361B361C361550115C16501258175013FE
:102CE100581850145809E31550115E1650125A170E
:102CF10050135A1850145A1980D890183217321696
:102D01003215321D2EE2D719C011F01AC012F01B74
:102D1100C013F01CC014F012003EC0ADF0400E1202
:102D21006E3F0E136E3E0E146ECCEC13F0410E127C
:102D31006E420E136E430E146E440E156EE3EC15C7
:102D4100F00001AD513E1801E05884030E3E180217
:102D5100E1010EFF6F4E5007E03E0E1F6EF70E2091
:102D61006EB4EC2BF001D0F76B060E4064060C1824
:102D71000E4060180C3F50D8A412003E50D8A41247
:102D8100000001FF51D8B41200010EB56F010C0A09
:102D91006A08AE06D0076C081ED8B0082A010E0AD0
:102DA1006E06AE06D0056C061ED8B0062A010E0AC4
:102DB1001A0B6A0C6A075008101BE0010E096E0419
:102DC100D0D89007360836092A08AEFAD7D8900B22
:102DD100360C360750055C0850065805E3075005C8
:102DE1005E0850065A0B80D89008320732092EEE41
:102DF100D70A5004E00B6C0C1ED8B00C2A0BC0058E
:102E0100F00CC006F012009C0E2F6ED70EE82EFEBD
:102E1100D72F2EFCD7000037EC24F054EC0DF0F244
:102E21009E4A0E056E590E066E086A640EBEEC24AB
:102E3100F040EC18F05C0E056E2B0E066E086A96DB
:102E41000E076E0A6AC80E096E40EC18F0060E05F0
:102E51006E290E066E8DEC0EF040EC18F0A00E05FA
:102E61006E260E066E030E086EE80E076E270E0A1A
:102E71006E100E096E40EC18F0F28E9BEC22F0FD04
:102E8100D7FCEC0CF00B5009E009501FEC0DF008D9
:102E91005031D81FEC0DF0F8EC0CF0095001091F6E
:102EA100EC0DF0116A1DD0FF0E0A240C6E0D6AFFA5
:102EB1000E0D2211500E6E0F6A0C500E5C0F5080D9
:102EC1000A106E0D50800A105805E20FD8010EB697
:102ED100EC0EF004D00AD8000EB6EC0EF0DF6E1145
:102EE1002A0A50115CE0E300EF0DF008501124D9DB
:102EF1006EDA6A1200D96EDA6ADF50120000019EA2
:102F01005109E09B2B1E0E9B6102D08C8E03D09B3E
:102F11006B9E6B8C9E4A50D8B41200B551D8B41236
:102F210000FF6B99510AE19A2B140E9A6102D08C21
:102F31008E04D09A6B010E996F8C9E990503E10165
:102F410001854B862B2D0E0101855D010E865905EC
:102F5100E3856B866B020E0001996F020E000199E9
:102F610019D8A412009A2B140E9A6102D08C8E14D7
:102F71000C9A6B996BB56B8C9E12000600D9CF032E
:102F8100F0DACF04F0F2BAF2A403D02CEC0DF02E5B
:102F9100D0F0B8F0A20FD0F092010EF1A8000EFF10
:102FA1000A026E023AF1500218EF0B0218F16E1A82
:102FB100EC16F01CD09DB09EA008D09E90150ECFAF
:102FC1006EA00ECE6E34EC0DF011D0A0B2A1A2080D
:102FD100D0A192F00EB36E600EB26E7FEC17F006C8
:102FE100D0F2BC9DAA03D09EBAA0EC10F004C0DAC6
:102FF100FF03C0D9FF599211000B6A3CD00B500B53
:10300100EC23F00550DE1835E10650DE1832E1F20E
:103011009E0B50076E086AFF0EA625096E0A6AFF0D
:103021000E0A220750091803E108500A181FE0A6EA
:1030310051076E086AD89007360836D890073608C7
:1030410036D89007360836F80E0724D96E000E08D8
:1030510020DA6E0B50080D000EF324E16E010EF420
:1030610020E26E070EDBCFE3FFE806FCE2A607F2E3
:103071008E12000B2A0001A6510B5CC0E312000561
:1030810050061001E112000D6A1AD00D500BEC230D
:10309100F00550DE1813E10650DE1810E1F29E0D26
:1030A1005003EC23F030D80D501BEC23F027D80D42
:1030B1005013EC23F0DE6ADD6AF28E12000D2A0055
:1030C10001A6510D5CE2E30F0EA6610F0CF29EA664
:1030D100510BEC23F005C0DEFF06C0DDFFA6510356
:1030E100EC23F011D8A6511BEC23F008D8A65113FC
:1030F100EC23F0DE6ADD6AA62BF28E120009C0DE37
:10310100FF0AC0DDFF120007C0DEFF08C0DDFF12AD
:1031110000226E010E216E246A236A2450176E1854
:103121006A1150050DF3CF19F0F4CF1AF0195012AE
:10313100241B6E1A5013201C6E000E14201D6E17D6
:10314100501B241E6E18501C201F6E000E1D2020C7
:103151006E1EC0F6FF1FC0F7FF20C0F8FF0800F584
:103161005021140BE023C005F015C006F016C0076E
:10317100F0225024244AEC0FF00AD023C005F015A8
:10318100C006F016C007F022502424C3EC0FF0D87B
:10319100902136232A070E2364C0D7010E216E2405
:1031A1002A040E2464B9D7040C146A1450BB0FD935
:1031B1006EDA6A14503DEC15F0142A1E0E1464F5F3
:1031C100D7040E0001B8650DD038D807E1B82B1F20
:1031D1000EB865010CB96BB86B000CD96BB86BB943
:1031E1002B010CB851076E086A28D8050DF3CF09D9
:1031F100F0F4CF0AF0910E0B6E780E0C6E000E0DEE
:103201006E09500B240E6E0A500C200F6E000E0D2D
:1032110020106E07500E24116E08500F20126E0000
:103221000E1020136E11C0F6FF12C0F7FF13C0F885
:10323100FF0800F5CFD9F0B82B010CB9510524D9FD
:103241006E000E0620DA6EDF501200116E8B848B39
:103251009210C09CF0A50E0D6E7E0E0E6E000E0F2C
:103261006E71EC0EF0A00E0D6E7E0E0E6E000E0F46
:103271006E8FEC0DF011C007F0050E84EC0DF00718
:103281006A110E84EC0DF010C007F0120E84EC0DE3
:10329100F0076A130E84EC0DF0076A140E84EC0D2E
:1032A100F0076A150E84EC0DF0076A160E84EC0D1A
:1032B100F0260E076E060E84EC0DF0080E076E0068
:1032C1000E84EC0DF0030E076E010E84EC0DF0037D
:1032D1000E076E020E84EC0DF00768040E84EC0DEF
:1032E100F0076A1C0E84EC0DF037EF10F01D6E0133
:1032F1000E1C6E1F6A1E6A1F500F6E106A0C50085A
:103301000DF3CF11F0F4CF12F0160E136E780E14E8
:103311006E000E156E11501324166E1250142017E4
:103321006E000E1520186E0F501624196E105017CE
:10333100201A6E000E18201B6E19C0F6FF1AC0F776
:10334100FF1BC0F8FF0800F5501C140BE01EC00560
:10335100F00DC006F00EC007F01D501F244AEC0FFF
:10336100F00AD01EC005F00DC006F00EC007F01D1A
:10337100501F24C3EC0FF0D8901C361E2A070E1ED6
:1033810064BAD7010E1C6E1F2A060E1F64B3D7063E
:103391000C266E26C0EBF046D8030E49D841EC1737
:1033A100F0ECC016F0176A186A196A18C019F017FC
:1033B100C018F016C017F0166AEBC01AF01B6A1C91
:1033C1006A1D6A1BC01DF01AC01CF01B6A1A6A161E
:1033D100501A241E6E17501B201F6E18501C2020DF
:1033E1006E19501D20216E0001ED511E24226E0028
:1033F1000E1F20236E000E2020246E000E2120259A
:103401006E050E05D0D8902532243223322232E8BF
:103411002EF9D722C012F023C013F024C014F025D6
:10342100C015F01200EB0E086EEC0E096EEC0C0AE2
:103431006E010E0B6E010CD8EC10F0CC0EBCEC1032
:10344100F0BE0EBCEC10F0116A780E1124D96EDAC0
:103451006A010EDA22C9EC11F0DF6E112A010E1198
:1034610064F3D7010179510D6E7851126E0DC013BD
:10347100F013AE09D0126C131ED8B0132A0B50D919
:103481006EDA6A2D0EDF6E12500F0B106E10500D9A
:103491006E0E6A770E0D24F66E780E0E20F76EF81A
:1034A1006A000EF8220800F5CF10F012C00DF013DB
:1034B100C00EF0040E0F6ED8900E320D320F2EFB9F
:1034C100D70DC012F00EC013F012500A0DF3CF1237
:1034D100F0F4CF13F010501226000E1320136E12C9
:1034E100C00BF013C00CF012000001A76B0F6A5063
:1034F100D8D96EDA6AB90EA725E16EE26A010EE249
:1035010022DFCFE7FFA72B3DD843D8E16EE26AE681
:10351100CF0BF0E5CF0CF00CC00BF00C6A0B50DFB9
:103521006EA72B0F2A070E0F64E2D72BD856C0DFE8
:10353100FFA72BB90E056E010E066EA7C007F06C32
:10354100EC11F00D6E240E6AEC10F0440E6AEC10D2
:10355100F00E6A0AD0B90E0E24D96EDA6A010EDABB
:1035610022DF506AEC10F00E2A0001A7510E5CF226
:10357100E30D506AEC10F00D0E6AEC10F00A0E6AC1
:10358100EF10F0B90EA725D96EDA6A010EDA221210
:10359100000F50020DF350600F1200226E246A25B5
:1035A1006A2550BA0F2224D96EDA6A245007081509
:1035B1006E2550166E176A1150050DF3CF18F0F4F1
:1035C100CF19F0185012241A6E195013201B6E00D7
:1035D1000E14201C6E16501A241D6E17501B201E2F
:1035E1006E000E1C201F6E1DC0F6FF1EC0F7FF1FD0
:1035F100C0F8FF0800F5CF20F0152A02D0D890209E
:1036010032152EFCD72550BA0F2224E16EE26AE76B
:1036110050216ED89021342010DF6E252A040E250A
:1036210064BFD7236A100E156E940EE82EFED715CF
:103631002EFCD700D0232A220E2364F4D7BA0E071A
:103641006E2FEC11F0242A070E2464A9D7070C1B56
:103651006E13500E08056E000ED8A0E82A00080669
:103661006E086A0C0E076EC8EC16F005501D6E1D33
:1036710050145C1E6E1D500C0DF3501324FE0F1CD4
:103681006E010E086E900E076E1EC005F0066AC828
:10369100EC16F01E501BC015F0166A1526000E160A
:1036A100221E40E8423F0B1526000E16220550153A
:1036B10024176E06501620186E086A0C0E076E1C31
:1036C100501F0DF3CF05F0F4CF06F0C8EC16F0054E
:1036D100501724196E065018201A6E640E056E1EBE
:1036E1005050EC10F0195E000E1A5A580E19240DA4
:1036F1006E1B0E1A200E6E106A070E0F6E7AEC15F5
:10370100F00D501200180E226E1550161023E122F2
:1037110050D96EDA6A300EDF6E222A22D02250D9B9
:103721006EDA6A15C00DF016C00EF0106A0A0E0F9F
:103731006E7AEC15F00D50300FDF6E222A15C005A0
:10374100F016C006F080EC26F0C8EC16F005C015A6
:10375100F006C016F016BE04D01650E0E11504DEE6
:10376100E22250D96EDA6ADF6A180E176E175022FC
:103771005C1E6E1F6A1EBE1F06206A216A10D020C1
:103781005018081E24D96EDA6AD90613C0E1FF1455
:10379100C0E2FFDFCFE7FF134A142A204A212A1E85
:1037A10050205C2150800A176E1F50800A1758E77D
:1037B100E313C0D9FF14C0DAFFDF6A1200276AA63B
:1037C1000E272443EC15F0DF6A272A200E2764F721
:1037D100D7040E0C6EA60E0D6E020E0E6E030E7742
:1037E100EC19F047D840D86DEC12F037EC29F08B8A
:1037F100EC11F02CD80B0E89EC18F0086A640E332A
:10380100D86DEC12F037EC29F08BEC11F01FD811C8
:103811000E89EC18F0086A0A0E26D86DEC12F03702
:10382100EC29F08BEC11F012D8170E89EC18F02E60
:103831000E116E910E126E780E136E000E146EA69E
:103841000E156E020E166E1D0E89EF18F00C50113A
:103851006E53C012F054C013F055C014F0A60E15EB
:103861006E020E166E1200076E25C005F026C00608
:10387100F01200030E086EE80C1E6E206A216A2108
:1038810050BA0F1E24D96EDA6A205007080E6E2135
:10389100500F6E106A0D50030DF3CF11F0F4CF12DB
:1038A100F0560E136E780E146E000E156E11501335
:1038B10024166E12501420176E000E1520186E0F6C
:1038C100501624196E105017201A6E000E18201B66
:1038D1006E19C0F6FF1AC0F7FF1BC0F8FF0800F50C
:1038E100CF1CF00E2A02D0D8901C320E2EFCD7210C
:1038F10050BA0F1E24E16EE26AE7501D6ED8901D8A
:10390100341C10DF6E212A020E2164B9D71F6A1000
:103911000E0E6E940EE82EFED70E2EFCD700D01F91
:103921002A220E1F64F4D7BA0E076E2FEC11F02075
:103931002A070E2064A3D7070C880EC8EC0EF012DC
:10394100C097F013C098F08A0EC8EC0EF012C09523
:10395100F013C096F08C0EC8EC0EF012C093F01369
:10396100C094F08E0EC8EC0EF012C0F5F013C0F644
:10397100F0900EC8EC0EF012C091F013C092F092CC
:103981000EC8EC0EF012C08FF013C090F0940EC868
:10399100EC0EF012C08DF013C08EF0960EC8EC0E36
:1039A100F012C08BF013C08CF0980EC8EC0EF01220
:1039B100C089F013C08AF09A0EC8EC0EF012C087CD
:1039C100F013C088F09C0EC8EC0EF012C085F01305
:1039D100C086F09E0EC8EC0EF012C083F013C084B6
:1039E100F0F50EEB6FCC0E0FD80AD8FEEC0EF0F40A
:1039F1000E0001EB6FB70E07D802D8FEEF0EF008EC
:103A01006E020E096E020CEC6FEB0E076EEC0C6889
:103A1100D00001645165112EE064C025F065C02617
:103A2100F0DFEC1BF016EC15F0200E286E28500D7F
:103A3100EC11F0282A300E2864F9D764C00CF06527
:103A4100C00DF0A0EC35F08BEC11F00C50ACEC3368
:103A5100F0200E89EC18F03D0E276EE10E266E4027
:103A61000EE82EFED7262EFCD7272EFAD7080EF702
:103A7100EC13F01DD054EC0DF0040E90EC35F00376
:103A81000E77EC19F0450E116E85EC35F00B0ECE6C
:103A9100EC1AF0520E116E85EC35F0110ECEEC1AC7
:103AA100F0520E116E85EC35F0170ECEEC1AF0A423
:103AB100EC35F045EC29F095EC35F040EF18F09934
:103AC100EC35F0FDEC17F0E5EC3BF0FDEC17F051B7
:103AD1005004E0040EB76FE4EF14F0B76BE4EF1499
:103AE100F05750040AECE0010A93E0030A120025A2
:103AF100D0F00E0E6E3A0E0F6ED00E106E3B0E1100
:103B01006E1EEC10F024D0F00E0E6E3A0E0F6E4DBC
:103B1100EC11F01DD04B50010ED8A4000E4B6EC31A
:103B2100EC2AF040EC18F0050E576E4BC005F0A4DE
:103B3100EC0EF00DD0020E576E0AD05750010AD884
:103B4100E0030AE8E0010AF6E0070ADDE0010A58AD
:103B5100A638D0B90EF66E7F0EF76E000EF86E78AD
:103B6100EC32F0000E89EC18F0BA0EF66E7F0EF70B
:103B71006E000EF86E78EC32F0060E89EC18F0BB90
:103B81000EF66E7F0EF76E000EF86E78EC32F00CCA
:103B91000E89EC18F04B5008E02B0E116E8EEC2BB9
:103BA100F0120E89EC18F007D02D0E116E8EEC2B51
:103BB100F0120E89EC18F0116A8EEC2BF0180E89B8
:103BC100EC18F0BA0E076E2FEC11F0588612002592
:103BD100D0D00E0E6E3B0E0F6EB00E106E3C0E115D
:103BE1006E1EEC10F024D0D00E0E6E3B0E0F6E4DFB
:103BF100EC11F01DD04C50010ED8A4000E4C6EC338
:103C0100EC2AF040EC18F0050E576E05EC3CF0A4E0
:103C1100EC0EF00DD0020E576E0AD05750010AD8A3
:103C2100E0030AE8E0010AF6E0070ADDE0010A58CC
:103C3100A638D0BD0EF66E7F0EF76E000EF86E78C8
:103C4100EC32F0000E89EC18F0BE0EF66E7F0EF726
:103C51006E000EF86E78EC32F0060E89EC18F0BFAB
:103C61000EF66E7F0EF76E000EF86E78EC32F00CE9
:103C71000E89EC18F04C5008E02B0E116E8EEC2BD7
:103C8100F0120E89EC18F007D02D0E116E8EEC2B70
:103C9100F0120E89EC18F0116A8EEC2BF0180E89D7
:103CA100EC18F0BA0E076E2FEC11F05886120025B1
:103CB100D0B00E0E6E3C0E0F6E7A0E106E3E0E11CF
:103CC1006E1EEC10F024D0B00E0E6E3C0E0F6E4D39
:103CD100EC11F01DD04D50010ED8A4000E4D6EC355
:103CE100EC2AF040EC18F0050E576E02EC3CF0A403
:103CF100EC0EF00DD0020E576E0AD05750010AD8C3
:103D0100E0030AE8E0010AF6E0070ADDE0010A58EB
:103D1100A638D0B50EF66E7F0EF76E000EF86E78EF
:103D2100EC32F0000E89EC18F0B60EF66E7F0EF74D
:103D31006E000EF86E78EC32F0060E89EC18F0B7D2
:103D41000EF66E7F0EF76E000EF86E78EC32F00C08
:103D51000E89EC18F04D5008E02B0E116E8EEC2BF5
:103D6100F0120E89EC18F007D02D0E116E8EEC2B8F
:103D7100F0120E89EC18F0116A8EEC2BF0180E89F6
:103D8100EC18F0BA0E076E2FEC11F0588612002CC9
:103D9100D0900E0E6E3D0E0F6EF00E106E3A0E119B
:103DA1006E1EEC10F02BD0900E0E6E3D0E0F6E4D70
:103DB100EC11F024D04A2A010E4A6401D04A6AC3A8
:103DC100EC2AF040EC18F053D8A4EC0EF017D04ACE
:103DD100064A2802E1010E4A6EC3EC2AF040EC18B3
:103DE100F046D8A4EC0EF00AD05750010AD1E003F6
:103DF1000AE1E0010AECE0070AD6E0010A58A6311F
:103E0100D0950EF66E7F0EF76E000EF86E78EC32DE
:103E1100F0000E89EC18F0960EF66E7F0EF76E002C
:103E21000EF86E78EC32F0060E89EC18F0970EF66B
:103E31006E7F0EF76E000EF86E78EC32F00C0E8984
:103E4100EC18F00A0E096E4A5011EC0FF0ACEC338D
:103E5100F0120E89EC18F0116A8EEC2BF0180E8915
:103E6100EC18F0BA0E076E2FEC11F058861200050F
:103E71000E576E4AC005F0040C25D07A0E0E6E3E28
:103E81000E0F6E2C0E106E430E116E1EEC10F024F0
:103E9100D07A0E0E6E3E0E0F6E4DEC11F01DD04E0F
:103EA10050010ED8A4000E4E6EC3EC2AF040EC185F
:103EB100F0050E576E08EC3CF0A4EC0EF00DD002AC
:103EC1000E576E0AD05750010AD8E0030AE8E00104
:103ED1000AF6E0070ADDE0010A58A63DD0900EF689
:103EE1006E7F0EF76E000EF86E78EC32F0000E89E0
:103EF100EC18F0910EF66E7F0EF76E000EF86E78EC
:103F0100EC32F0060E89EC18F0920EF66E7F0EF789
:103F11006E000EF86E78EC32F00C0E89EC18F0930E
:103F21000EF66E7F0EF76E000EF86E78EC32F01220
:103F31000E89EC18F04E5008E02B0E116E8EEC2B12
:103F4100F0180E89EC18F007D02D0E116E8EEC2BA7
:103F5100F0180E89EC18F0BA0E076E2FEC11F0581C
:103F61008612002DD0640E0E6E3F0E0F6EA20E1043
:103F71006E4A0E116E1EEC10F02CD0640E0E6E3FC8
:103F81000E0F6E4DEC11F025D0472A020E47640248
:103F9100D0010E476EC3EC2AF040EC18F053D8A4C0
:103FA100EC0EF017D04706475002E1020E476EC3F0
:103FB100EC2AF040EC18F046D8A4EC0EF00AD057E9
:103FC10050010AD0E0030AE0E0010AECE0070AD55B
:103FD100E0010A58A631D0A10EF66E7F0EF76E00F1
:103FE1000EF86E78EC32F0000E89EC18F0A20EF6A5
:103FF1006E7F0EF76E000EF86E78EC32F0060E89C9
:10400100EC18F0A30EF66E7F0EF76E000EF86E78C8
:10401100EC32F00C0E89EC18F00A0E096E475011C3
:10402100EC0FF0ACEC33F0120E89EC18F0116A8E43
:10403100EC2BF0180E89EC18F0BA0E076E2FEC116C
:10404100F058861200050E576E47C005F0010C2886
:10405100D085EC32F053EC14F0500E0E6E400E0F82
:104061006E160E106E620E116E1EEC10F023D05003
:104071000E0E6E400E0F6E4DEC11F01CD0362A6301
:104081000E366401D0366AC3EC2AF040EC18F00514
:104091000E576E10D036063628F6E1630E366EF3F3
:1040A100D75750010AD5E0030AE9E0010AF3E00716
:1040B1000ADEE0010A58A63FD0990EF66E7F0EF790
:1040C1006E000EF86E78EC32F0000E89EC18F000FC
:1040D10001BF6B360EC06FC16FC26B0A0E096E0550
:1040E1006E375050EC10F011EC0FF0ACEC33F009DE
:1040F1000E89EC18F00A0E096E375011EC0FF0AC76
:10410100EC33F00F0E89EC18F00A0E096E056E36CD
:104111005050EC10F011EC0FF0ACEC33F0150E89AF
:10412100EC18F00A0E096E365011EC0FF0ACEC33BE
:10413100F01B0E89EC18F0BA0E076E2FEC11F05837
:1041410086120033D0440E0E6E410E0F6E640E10B7
:104151006E3F0E116E1EEC10F032D0440E0E6E4109
:104161000E0F6E4DEC11F02BD0462A050E4664025F
:10417100D0010E466EC3EC2AF040EC18F0050E5744
:104181006E57D8A4EC0EF023EC14F019D046064675
:104191005002E1050E466EC3EC2AF040EC18F00522
:1041A1000E576E46D8A4EC0EF0EED75750010ACA4E
:1041B100E0030ADAE0010AEAE0070ACFE0010A585F
:1041C100A631D0A50EF66E7F0EF76E000EF86E7852
:1041D100EC32F0000E89EC18F0A60EF66E7F0EF7A9
:1041E1006E000EF86E78EC32F0060E89EC18F0A72E
:1041F1000EF66E7F0EF76E000EF86E78EC32F00C54
:104201000E89EC18F00A0E096E465011EC0FF0AC55
:10421100EC33F0120E89EC18F0116A8EEC2BF018C9
:104221000E89EC18F0BA0E076E2FEC11F0588612B9
:104231000046C005F0000CB40EF66E1D0EF76E00C0
:104241000EF86E03EE94F010EE24F00900F5CFEEB7
:10425100FFE550E150FAE1D60EF66E1B0EF76E0047
:104261000EF86E02EEE7F010EE18F00900F5CFEE51
:10427100FFE550E150FAE1D80EF66E1D0EF76E0023
:104281000EF86E01EECFF010EE24F00900F5CFEE3E
:10429100FFE550E150FAE1E10EF66E190EF76E00FE
:1042A1000EF86E00EEF9F010EE07F00900F5CFEE12
:1042B100FFE550E150FAE1CC0EF66E1A0EF76E00F2
:1042C1000EF86E00EE46F010EE12F00900F5CFEE9A
:1042D100FFE550E150FAE104EE00F0960EEE6AE8D7
:1042E10006FDE103EE00F0940EEE6AE806FDE10240
:1042F100EE00F0C60EEE6AE806FDE101EE00F0CF39
:104301000EEE6AE806FDE100EE60F0990EEE6AE855
:1043110006FDE1586A00EE30F0160EEE6AE806FD81
:10432100E159905992000104EF17F02DD02C0E0E97
:104331006E430E0F6E860E106E490E116E1EEC103E
:10434100F02CD02C0E0E6E430E0F6E4DEC11F0259D
:10435100D04F2A030E4F1802E1010E4F6EC3EC2A13
:10436100F040EC18F05CD8A4EC0EF017D04F064FDB
:104371005002E1020E4F6EC3EC2AF040EC18F04FF0
:10438100D8A4EC0EF00AD05750010AD0E0030AE09D
:10439100E0010AECE0070AD5E0010A58A63AD0810B
:1043A1000EF66E7F0EF76E000EF86E78EC32F000AE
:1043B1000E89EC18F0820EF66E7F0EF76E000EF885
:1043C1006E78EC32F0060E89EC18F0830EF66E7FF3
:1043D1000EF76E000EF86E78EC32F00C0E89EC18C8
:1043E100F0840EF66E7F0EF76E000EF86E78EC32EA
:1043F100F0120E89EC18F04FC011F053C012F054B6
:10440100C013F055C014F0BA0E156E166A180E8955
:10441100EC18F0BA0E076E2FEC11F0588612000559
:104421000E576E4FC005F0090C2ED02A0E0E6E44A9
:104431000E78D81EEC10F031D02A0E0E6E440E0FFD
:104441006E4DEC11F02AD0492A070E496401D0497A
:104451006AC3EC2AF040EC18F05FD8A4EC0EF067C8
:10446100D820EC0EF01AD04906492802E1070E497E
:104471006EC3EC2AF040EC18F04FD8A4EC0EF057C4
:10448100D820EC0EF00AD05750010ACFE0030ADB26
:10449100E0010AE9E0070AD0E0010A58A622D03576
:1044A100D878EC32F0000E89EC18F028D878EC328C
:1044B100F0060E89EC18F01BD878EC32F00C0E895E
:1044C100EC18F00A0E096E495011EC0FF0ACEC3308
:1044D100F0120E89EC18F0116A8EEC2BF0180E898F
:1044E100EC18F0BA0E076E2FEC11F058861200B3DB
:1044F1000EF66E7F0EF76E000EF86E1200B20EF61B
:104501006E7F0EF76E000EF86E1200B10EF66E7F22
:104511000EF76E000EF86E1200050E576E49C005BB
:10452100F0030C0F6E900E106E3D0E116E120049CD
:10453100C007F00A0C0001A5511AE0A56B0101F5B5
:104541006B11D0F5515FD8DE50DE1006E1F5516AEE
:10455100D8010EDE6EDD6A05D0F55154D8DE0600B5
:104561000EDD5AF52B0001A6510101F55DEAE301CB
:1045710001F66B42D0F65156D8DE04DE103BE1F66F
:104581005149D8DECFF3F1DDCFF4F1F65153D8DE46
:1045910050DE1009E1F6513ED8DECF05F0DDCF0641
:1045A100F0FDEC17F01BD0F6513DD8DE6ADD6AF65E
:1045B1005129D8DE50DE1012E1F6513CD8DECF2B66
:1045C100F0DDCF2CF0FF0E2B242D6EFF0E2C202EB4
:1045D1006EF65118D82DC0DEFF2EC0DDFF01D80ABE
:1045E100D00500FA6E0101F351FD6EF451FE6EFF2C
:1045F1006AFA5012000101F62B0001A6510101F6E1
:104601005DB9E31200080D020EF324D96E010EF418
:1046110020DA6E1200080D000EF324D96E010EF49B
:1046210020DA6E1200080D060EF324D96E010EF485
:1046310020DA6E1200080D040EF324D96E010EF477
:1046410020DA6E1200F50E7ED8FEEC0EF0020E217D
:104651006ED40E206E850EE82EFED7202EFCD721BB
:104661002EFAD70000EB0E6DEC26F041EC17F000AE
:1046710001EB51206EEC51236E20C024F02328055C
:10468100E1242803E11E681F68120023C005F024FD
:10469100C006F0076A086AD40E096E300EC1EC3804
:1046A100F0DCEC12F005C026F006C027F007C028A8
:1046B100F008C029F028C026F029C027F0286A296F
:1046C1006AA80E2626FD0E2722FF0E282229222661
:1046D100C011F027C012F028C013F029C014F074E3
:1046E100EC26F052EC16F01150226E26C005F02790
:1046F100C006F028C007F029C008F07AEC26F0B314
:10470100EC14F00550256E050E252465EC26F0C845
:10471100EC16F005500A0DF3CF25F02250640DF38D
:10472100CF20F0F4CF21F025502024056E000E217A
:1047310020066E80EC26F0C8EC16F005C01EF006CF
:10474100C01FF012000001EB6FEB0E076E800E0828
:104751006E010E096E010C106A050E116E1CD0E976
:10476100EC11F0106EFDC011F027D0F5EC10F01037
:104771006E060E0FD009EC12F0106EFAC011F01C8B
:10478100D048EC15F0106E140E04D092EC12F0101B
:104791006E010E116E11D00001B6510E6E0F6A0F2F
:1047A100500BE10E50010ADBE0030AE4E0010AEDDF
:1047B100E0070AE6E0010AD9E0105008E011EC1523
:1047C100F011C007F0086A4ED840EF18F0B66BF44C
:1047D100EC3BF0FDEC17F022D0100E056E3A0E30D6
:1047E100D840EC18F02AD01C0E056E510E29D84085
:1047F100EC18F023D0880E056E5D0E22D840EC181F
:10480100F01CD04A0E056E680E1BD840EC18F0154E
:10481100D01FD840EC18F048EC29F00FD0B7510E5A
:104821006E0F6A0F50F5E10E50010AD6E0030AE25D
:10483100E0010AE7E0070AD7E0EBD70001B76B1206
:1048410000066E086A320E076E0A6A140E096E14AB
:104851000C4A0E056E590E066E086A076A0A6A143A
:104861000E096E140C0A6A010E096E010CA2EC13FA
:10487100F00C0E6FEC0DF0506E50B002D08D900127
:10488100D08D80070E186E170E176E6A0EE82EFE79
:10489100D7172EFCD7182EFAD700D0B0EC0DF006A2
:1048A100EC10F012EC0EF0EAEC0CF0D9EC0FF09AEF
:1048B100EC0FF05DEC0DF05EEC0FF09DEC1CF0DF09
:1048C100EC0DF0000E6FEC0DF0466E010E6FEC0D6D
:1048D100F0476E470403E10001AC6B02D0ADEC2D53
:1048E100F0020E6FEC0DF0486E030E6FEC0DF04907
:1048F1006E98EC22F020EC0EF023EC14F0EDEC0CB1
:10490100F04CEC0DF0E0EC15F026EC19F09E0E05E4
:104911006E710E066E086A280E30D840EC18F01A37
:104921000E056E2D0E066E086A500E27D840EC1843
:10493100F0040E6FEC0DF04A6E050E6FEC0DF04BAE
:104941006E060E6FEC0DF04C6E070E6FEC0DF04D18
:104951006E080E6FEC0DF04E6E090E6FEC0DF04F00
:104961006E0D0E6FEC0DF0456E0E0E6FEC0DF052EC
:104971006E0A0E6FEC0DF0516E1200076E0A6A148A
:104981000E096E140C3BD0860E0E6E490E0F6E6E24
:104991000E106E250E116E1EEC10F01DEC27F0FDB1
:1049A100EC17F050500FE1E30E056E010E066EC3D9
:1049B1000E076E7E0E086E000E096E0B6A100E0A4F
:1049C1006E28EC13F0B96BB86B23D0860E0E6E49CE
:1049D1000E0F6E4DEC11F01CD05150010ED8A400F9
:1049E1000E516EC3EC2AF040EC18F0050E576E55CF
:1049F100D8A4EC0EF00DD0020E576E0AD05750011C
:104A01000AC2E0030AE9E0010AF6E0070ADEE00172
:104A11000A58A63DD08B0EF66E7F0EF76E000EF88B
:104A21006E78EC32F0000E89EC18F08C0EF66E7F89
:104A31000EF76E000EF86E78EC32F0060E89EC1867
:104A4100F08D0EF66E7F0EF76E000EF86E78EC327A
:104A5100F00C0E89EC18F08E0EF66E7F0EF76E00DC
:104A61000EF86E78EC32F0120E89EC18F051500805
:104A7100E02B0E116E8EEC2BF0180E89EC18F0075E
:104A8100D02D0E116E8EEC2BF0180E89EC18F0BAA9
:104A91000E076E2FEC11F05886120051C005F00A76
:104AA1000C32D0485006E090D892EC22F01EEC1067
:104AB100F034D08AD80F6E2A0E106E440E116E1E7D
:104AC100EC10F0030E6FEC0DF0496E98EC22F02023
:104AD100EC0EF023D0A20E0E6E4A0E0F6E4DEC11AD
:104AE100F01CD067D8C3EC2AF040EC18F068D8A4C9
:104AF100EC0EF013D05ED8C3EC2AF040EC18F05F56
:104B0100D8A4EC0EF00AD05750010ACBE0030AE911
:104B1100E0010AF0E0070ADEE0010A58A644D08667
:104B2100EC22F078EC32F0000E89EC18F07FEC22E8
:104B3100F078EC32F0060E89EC18F078EC22F0787F
:104B4100EC32F00C0E89EC18F0485017E0C40EF668
:104B51006E7F0EF76E000EF86E78EC32F0120E8951
:104B6100EC18F0C50EF66E7F0EF76E000EF86E783B
:104B7100EC32F0180E89EC18F016D0EB0EF66E7FC1
:104B81000EF76E000EF86E78EC32F0120E89EC180A
:104B9100F0EC0EF66E7F0EF76E000EF86E78EC32CA
:104BA100F0180E89EC18F0BA0E076E2FEC11F058C0
:104BB1008612004850010ED8A4000E486E1200055E
:104BC1000E576E48C005F0020CA20E0E6E4A0E1270
:104BD10000F30EA3EC23F0FEEC0EF0020E216ED4D6
:104BE1000E206E850EE82EFED7202EFCD7212EFA40
:104BF100D70000EB0E71D841EC17F00001EB51200A
:104C01006EEC51236E20C024F0232805E1242803F3
:104C1100E11E681F68120023C005F024C006F007DA
:104C21006A086AA40E096E440EC1EC38F0DCEC127D
:104C3100F005C026F006C027F007C028F008C029FB
:104C4100F028C026F029C027F0286A296AB30E2669
:104C510026ED0E2722FF0E2822292226C011F02739
:104C6100C012F028C013F029C014F03DD852EC1640
:104C7100F01150226E26C005F027C006F028C007AB
:104C8100F029C008F036D8B3EC14F00550256E05B4
:104C91000E25241AD8C8EC16F005500A0DF3CF25BD
:104CA100F02250640DF3CF20F0F4CF21F0255020F5
:104CB10024056E000E2120066E22D8C8EC16F005E0
:104CC100C01EF006C01FF01200056E066A000E0637
:104CD10022086A0A0E076E0A0C086E800E096E031E
:104CE1000E0A6E0B6A030C640E156E166A176A18AB
:104CF1006A640C640E096E0A6A0B6A0C6A640C0819
:104D01006A0A0E076E0A0C49D0080E0E6E4D0E0F80
:104D11006E4A0E106E590E116E1EEC10F08DD8FDFC
:104D2100EC17F045D0080E0E6E4D0E0F6E4DEC11C6
:104D3100F03ED0030E576E3BD05050010ED8A40068
:104D41000E506EC3EC2AF040EC18F0050E576E5071
:104D5100C005F00C0EA4EC0EF050501DE0AB9E947B
:104D61009C949E829E829C9C0E256ED70EE82EFE00
:104D7100D7252EFCD700008D80070E266E170E2535
:104D81006E6A0EE82EFED7252EFCD7262EFAD70006
:104D9100D05EEC0FF00CD08D900AD05750010AB4C0
:104DA100E0030AC7E0010AC8E0070ABCE0010A58AB
:104DB100A63DD0860EF66E7F0EF76E000EF86E7869
:104DC100EC32F0000E89EC18F0870EF66E7F0EF7CC
:104DD1006E000EF86E78EC32F0060E89EC18F08851
:104DE1000EF66E7F0EF76E000EF86E78EC32F00C58
:104DF1000E89EC18F0890EF66E7F0EF76E000EF834
:104E01006E78EC32F0120E89EC18F0505008E02B5D
:104E11000E116E8EEC2BF0180E89EC18F007D02DC8
:104E21000E116E8EEC2BF0180E89EC18F0BA0E07ED
:104E31006E2FEC11F058861200CE0E056E190E067B
:104E41006E12005BD085EC32F053EC14F0440E0E80
:104E51006E4E0E0F6E620E106E5B0E116E1EEC101A
:104E6100F056D0440E0E6E4E0E0F6E4DEC11F04FFB
:104E7100D0342A94D81EE08BD83450DE5C18E3027B
:104E81000E35181BE13450256E266A81D8DF502774
:104E91006EFF0E2724286E296AFF0E29222550282D
:104EA1005C2950800A2A6E2650800A2A5806E2019F
:104EB1000E1FD06DD83450DE5CFAE3C3EC2AF0400B
:104EC100EC18F0050E576E23D0340668D813E03481
:104ED1005006E1020E351803E05AD8DF5009D0021E
:104EE1000E3518EBE13450E9E152D8DF50256E253B
:104EF10004346EE3D73450F0E0E0D75750010AA2F2
:104F0100E0030AB6E0010AE0E0070AABE0010A5853
:104F1100A638D0AD0EF66E7F0EF76E000EF86E78E5
:104F2100EC32F0000E89EC18F0AE0EF66E7F0EF743
:104F31006E000EF86E78EC32F0060E89EC18F0AFC8
:104F41000EF66E7F0EF76E000EF86E78EC32F00CF6
:104F51000E89EC18F00A0E096E056E345050EC10F3
:104F6100F011EC0FF0ACEC33F0120E89EC18F00AF2
:104F71000E096E345011EC0FF0ACEC33F0180E89C1
:104F8100EC18F0BA0E076E2FEC11F058861200CE15
:104F91000E3524D96EDA6A010EDA22120036C025E6
:104FA100F0030E2516030C23C0FCF124C0FDF19B78
:104FB100D80101FC4BFD2B25500FE0080E25600C9C
:104FC100D099D82550030DE70EF324D96E020EF4C3
:104FD1002096D829EC12F009D08DD8FD0E156E7FE0
:104FE1000E166E000E176E29EC12F069D802EC1342
:104FF100F070D82C0EDF6EFC4BFD2B75D8FC4BFDF1
:105001002BF90E136E010E146E26C015F0166A836D
:10501100EC1BF070D8F90E156E010E79D829EC123F
:10502100F04ED802EC13F055D8200EDF6EFC4BFD8C
:105031002B61D8FF0E27240D6E0E6AFF0E0E221073
:105041006A0C0E0F6E7AEC15F0030E0D02F3CF2AE7
:10505100F0F4CF2BF00E02F3502B26940E2A24D914
:105061006E030E2B204CD829EC12F029D802EC1338
:10507100F030D8200EDF6EFC4BFD2BF30E136E01CA
:105081000E146E28C015F029C016F083EC1BF03207
:10509100D8F30E156E010E3BD829EC12F010D80290
:1050A100EC13F005500101FC270650FD2323D86FB6
:1050B1000E156E7F0E166E000E176E29EF12F0FCA4
:1050C100C105F0FDC106F005500610D8A4800E07F9
:1050D1006E120005500101FC270650FD23FCC1D9C9
:1050E100FFFDC1DAFF1200FCC1D9FFFDC1DAFF20CB
:1050F1000EDF6E200CFCC113F0FDC114F01200DABA
:105101006EDECF15F0DECF16F0DDCF17F0120016F0
:105111006E1510D8A4800E176E1200A0D000016881
:10512100291EE169291CE1050E90EC35F0010E778D
:10513100EC19F0450E116E85EC35F0090ECEEC1A26
:10514100F0520E116E85EC35F00F0ECEEC1AF052C6
:105151000E116E85EC35F0150ECEEC1AF06DD0E81F
:105161000E685D030E695938E2050E90EC35F001C9
:105171000E77EC19F0086A640E81D86DEC12F076A6
:10518100D88BEC11F00C507DEC35F0090ECEEC1AF9
:10519100F0086A0A0E73D86DEC12F068D88BEC1126
:1051A100F00C507DEC35F00F0ECEEC1AF02E0E11F6
:1051B1006E85EC35F0150ECEEC1AF068C00CF06976
:1051C100C00DF0A0EC35F08BEC11F00C507DEC35FE
:1051D100F0180ECEEC1AF030D0050E90EC35F0023E
:1051E1000E77EC19F03AEC1CF049D86DEC12F03E58
:1051F100D88BEC11F00C507DEC35F00B0ECEEC1A87
:10520100F0086A640E3BD86DEC12F030D88BEC11CB
:10521100F00C507DEC35F0110ECEEC1AF0086A0A54
:105221000E2DD86DEC12F022D88BEC11F00C507DC4
:10523100EC35F0170ECEEC1AF0A4EC35F025D8952C
:10524100EC35F040EF18F099EC35F0FDEC17F0E09B
:10525100EC3BF0FDEC17F0B76BE4EF14F0575004A2
:105261000AF2E0010A01E15AD7030A120005C00C53
:10527100F006C00DF00F6A0A0E0E6E0A0C076E687A
:10528100C005F069C006F01200010E086E900C54C2
:10529100EC0DF0B5D002EC34F050EC10F011EC0F45
:1052A100F000090CE002EC34F050EC10F011EC0FBE
:1052B100F07DEC35F0000ECEEC1AF006D0116A85C7
:1052C100EC35F0000ECEEC1AF01CEC34F011EC0FC2
:1052D100F07DEC35F0060ECEEC1AF00DEC34F0500A
:1052E100EC10F011EC0FF07DEC35F00D0ECEEC1A58
:1052F100F018EC34F011EC0FF07DEC35F0130ECE1C
:10530100EC1AF08DEC16F00A0E096E056E3E505047
:10531100EC10F011EC0FF0276E27280D6E190E3DE1
:10532100EC1CF00A0E096E3E5011EC0FF0276E27AF
:10533100280D6E1D0E3DEC1CF069EF11F002EC34EE
:10534100F050EC10F011EC0FF000090CE002EC341D
:10535100F050EC10F011EC0FF07DEC35F0010ECEB9
:10536100EC1AF006D0116A85EC35F0010ECEEC1A7C
:10537100F01CEC34F011EC0FF07DEC35F0070ECEA3
:10538100EC1AF03A0E116E85EC35F00D0ECEEC1ADA
:10539100F08DEC16F00DEC34F050EC10F011EC0F38
:1053A100F07DEC35F0130ECEEC1AF018EC34F01160
:1053B100EC0FF07DEC35F0190ECEEC1AF0010E0079
:1053C10001AC6FB26B02EC34F050EC10F011EC0F49
:1053D100F00001B16F1CEC34F011EC0FF00001B0E2
:1053E1006F0DEC34F050EC10F011EC0FF00001AF48
:1053F1006F18EC34F011EC0FF00001AE6F120047A2
:1054010050010A01E147D7030A99E0120058B80296
:10541100D0588861D058985FD00E0E056E540E0694
:105421006EFDEC17F0AE0E056E550EA1EC2DF040A1
:10543100EC18F0A8D840EC18F0470413E1AED850AE
:10544100EC10F011EC0FF0ACEC33F00D0E89EC1810
:10545100F0A9D811EC0FF0ACEC33F0130E89EC1875
:10546100F014D00DEC34F050EC10F011EC0FF0AC66
:10547100EC33F0130E89EC18F018EC34F011EC0F4A
:10548100F0ACEC33F0190E89EC18F065EC11F02D4D
:10549100D00E0E0E6E540E0F6E4DEC11F026D03163
:1054A1002A3B0E316401D0316A6DD840EC18F09876
:1054B100EC2BF0AAEC11F0050E576E17D031063126
:1054C1002802E13B0E316E5ED840EC18F098EC2BCF
:1054D100F0AAEC11F0F0D75750010A9EE0030ADF61
:1054E100E0010AECE0070AD4E0010A58A645D058C9
:1054F100A828D0470413E151D850EC10F011EC0F5B
:10550100F0ACEC33F00D0E89EC18F04CD811EC0F27
:10551100F0ACEC33F0130E89EC18F02ED03ED850DD
:10552100EC10F011EC0FF0ACEC33F0130E89EC1829
:10553100F039D811EC0FF0ACEC33F0190E89EC18FE
:10554100F01BD047040DE1116A8EEC2BF00D0E8992
:10555100EC18F0116A8EEC2BF0130E89EC18F00C9C
:10556100D0116A8EEC2BF0130E89EC18F0116A8EB3
:10557100EC2BF0190E89EC18F0BA0E076E2FEC1116
:10558100F058861200CE0E056E190E066E070E0833
:105591006ED00E076E0A6A096AD00C0A0E096E05F2
:1055A1006E315012000A0E096E3150120058B802C5
:1055B100D0588846D0589844D0AE0E0E6E550E0F76
:1055C1006E500E106E400E116E1EEC10F043D0AEF8
:1055D1000E0E6E550E0F6E4DEC11F03CD0322A17A7
:1055E1000E326401D0326AC3EC2AF040EC18F0B2FA
:1055F100D80AE0325004E1AAD8AAEC11F02BD0A1CC
:10560100D8AAEC11F027D093D8AAEC11F023D0320C
:1056110006322802E1170E326EC3EC2AF040EC1874
:10562100F099D80AE0325004E191D8AAEC11F012B5
:10563100D088D8AAEC11F00ED07AD8AAEC11F00AD1
:10564100D05750010AB9E0030AC9E0010AE0E007B6
:105651000ABEE0010A58A65BD058A842D0470420F0
:10566100E16BD850EC10F011EC0FF000090BE06485
:10567100D850EC10F011EC0FF0ACEC33F0000E89C7
:10568100EC18F005D0116A49D8000E89EC18F067C2
:10569100D811EC0FF0ACEC33F0060E89EC18F037B2
:1056A100D04BD850EC10F011EC0FF000090BE04496
:1056B100D850EC10F011EC0FF0ACEC33F0010E8986
:1056C100EC18F005D0116A29D8010E89EC18F047C1
:1056D100D811EC0FF0ACEC33F0070E89EC18F01791
:1056E100D047040BE1116A19D8000E89EC18F011AA
:1056F1006A14D8060E89EC18F00AD0116A0ED80186
:105701000E89EC18F0116A09D8070E89EC18F0BA65
:105711000E076E2FEC11F058861200910E126E7862
:105721000E136E000E146EBA0E156E166A1200314B
:10573100C010F0116A325012000A0E096E056E3265
:1057410050120031C010F0116A3204120031C01041
:10575100F0116A170C050E576E0001F75112000A7D
:105761000E096E32501200030E136EDED8146E1F36
:105771000E28EC1BF0216E21501F08256E0A0E1316
:105781006ED3D8146E1F0E28EC1BF0216E21501F12
:1057910008266EA2D8030EDF6404D09ED8090EDF5E
:1057A1006434D09AD8030EDE1804E19CD8DE50256B
:1057B1005C2CE392D8030EDE1808E194D82550DE64
:1057C1001804E1ACD8030EDF6020D086D80A0EDEC3
:1057D1001804E188D82650DE5C18E37ED80A0EDE74
:1057E1001808E180D82650DE1804E198D8010EDFB0
:1057F100640CD072D80A0EDE180EE174D82650DE81
:10580100180AE18CD8170EDE1806E12050D96EDA9D
:105811006A010EDF6E04D02050D96EDA6ADF6A2089
:1058210050D96EDA6ADF50D8B4120078D8170EDE7C
:105831001848E174D8DF6A7FD8DF2A7DD8080EDEE8
:105841001803E179D8010EDF6E6FD8216E030E21A6
:105851001620E042D852D808E03FD8020EDE1816D2
:10586100E141D81C0EDE1812E137D80C0EDE180803
:10587100E11F50D96E3DD836D8010EDF6E2DD861AB
:10588100D031D8010EDF6E28D8DF2A050C2BD8DFE6
:105891002A040C22D832D812E11FD80C0EDE1808C7
:1058A100E11F50D96E25D81ED8010EDF6E15D849DB
:1058B100D019D8010EDF6E10D8DF2A050C13D8DFFE
:1058C1002A040C2CD81F50E16EE26A020EE126E791
:1058D10050216E2128DF6E12001F50D96EDA6A0541
:1058E1000ED926050C1F50D96EDA6A040ED926048A
:1058F1000CDA6A060ED926DF2A060CDF50216E2249
:105901006ACE0E2124D96E010E2220DA6E1F50E1DB
:105911006EE26A040EE126DE50E61812001F50D92D
:105921006EDA6A020ED926020C1F50D96EDA6A06A7
:105931000ED926DF5012001F50D96EDA6A030ED934
:1059410026030C010EDF6E010C5880A2D047508D4A
:10595100EC32F0020E471802E1FFD802D00001AC90
:105961006B0E0E3E6405D0100E3E6002D0030E5742
:105971006E270E3E649BD0290E3E6098D04D500498
:10598100E03FB002D0020E01D0030E576E8FD05807
:1059910090240E6AEC10F0500E6AEC10F00D0E6AB5
:1059A100EC10F00A0E6AEC10F0D2D8FDEC17F00EF4
:1059B1000E056E540EC5D840EC18F0C3EC2AF04029
:1059C100EC18F020EE3EF010EE30F0070EDBCFE3E6
:1059D100FFE806FCE2050E576E5896020E47186660
:1059E100E10001AC6B170E116E8EEC2BF00D0E89E0
:1059F100EC18F05CD04D5002E1515058E00001AC80
:105A01006B5890020E471807E1170E116E8EEC2BA2
:105A1100F00D0E89EC18F09BD8FDEC17F0050E5730
:105A21006E58964D50010ED8B4040EB76FE4EC14C5
:105A3100F03DD04B5002E14C5039E00001AC6B58C5
:105A41009086D8FDEC17F0050E576E58964B500C0A
:105A5100E0020E471807E1170E116E8EEC2BF00DC8
:105A61000E89EC18F0020E0DD04C50E0E0020E470A
:105A71001807E1170E116E8EEC2BF00D0E89EC1844
:105A8100F0030E0001D2D799EC35F0FDEC17F00EC2
:105A9100D05750010A01E17BD7030AACE0010AC9E2
:105AA100E0070AF1E0010A01E151D7030A58A6040F
:105AB100D0BA0E076E2FEC11F0030E096E3F501194
:105AC100EC0FF0000916E1070E3E1813E1525011D8
:105AD100E0640E2C6E030E2D6E4AEC12F00001AC48
:105AE1006B36D8FDEC17F0640E0E6E030E0F6E824E
:105AF100EC0EF0485008E03EA058A405D058942F71
:105B0100EC0EF012EC11F058860001AB5142181660
:105B1100E1050E096E3F5011EC0FF00009D8A412F7
:105B210000230E3E18D8B458A212000001AC6B0F2E
:105B3100D8FDEC17F0EFEC3BF082EF0EF05892122B
:105B410000066E086A076A0A6A320E096E320C4A4A
:105B51000E056E590E066E1200010E0001AC6F01AA
:105B61000C28D085EC32F053EC14F0620E0E6E5B13
:105B71000E0F6E440E106E410E116E1EEC10F023CE
:105B8100D0620E0E6E5B0E0F6E4DEC11F01CD03319
:105B91002A070E336402D0010E336EC3EC2AF040A3
:105BA100EC18F0050E576E0FD033063350F6E107AF
:105BB1000EF3D75750010AD5E0030AE9E0010AF4D0
:105BC100E0070ADEE0010A58A6CAD09D0EF66E7FF4
:105BD1000EF76E000EF86E78EC32F0000E89EC18BC
:105BE100F09E0EF66E7F0EF76E000EF86E78EC32B8
:105BF100F0060E89EC18F09F0EF66E7F0EF76E0020
:105C01000EF86E78EC32F00C0E89EC18F097D0D0CB
:105C11000EF66E7F0EF76E000EF86E78EC32F01213
:105C21000E89EC18F0D10EF66E7F0EF76E000EF8AD
:105C31006E78EC32F0180E89EC18F091D0EE0EF679
:105C41006E7F0EF76E000EF86E78EC32F0120E8950
:105C5100EC18F0EF0EF66E7F0EF76E000EF86E7810
:105C6100EC32F0180E89EC18F07AD086D878EC3244
:105C7100F0120E89EC18F079D878EC32F0180E8910
:105C8100EC18F06DD0F70EF66E7F0EF76E000EF881
:105C91006E78EC32F0120E89EC18F0F80EF66E7F89
:105CA1000EF76E000EF86E78EC32F0180E89EC18D3
:105CB100F056D0F40EF66E7F0EF76E000EF86E7889
:105CC100EC32F0120E89EC18F0F50EF66E7F0EF73D
:105CD1006E000EF86E78EC32F0180E89EC18F03F79
:105CE100D0C10EF66E7F0EF76E000EF86E78EC32B4
:105CF100F0120E89EC18F0C20EF66E7F0EF76E00F0
:105D01000EF86E78EC32F0180E89EC18F028D0CD30
:105D11000EF66E7F0EF76E000EF86E78EC32F01212
:105D21000E89EC18F0CE0EF66E7F0EF76E000EF8AF
:105D31006E78EC32F0180E89EC18F011D033500166
:105D41000AE6E0030A01E163D7010A01E177D70717
:105D51000A8CE0010A97E0030AACE0010AC1E0BA4B
:105D61000E076E2FEC11F058861200E00EF66E7FD2
:105D71000EF76E000EF86E1200DF0EF66E7F0EF754
:105D81006E000EF86E120003D154EC0DF04F0404B6
:105D9100E000016251631164E106D9A0EC35F08B9A
:105DA100EC11F00C500001A96F03D9DAEC35F06D5C
:105DB100EC12F005C07FF006C080F0050E0001A9CD
:105DC1006502D07F4B802BF9D8DAEC35F06DEC12FF
:105DD100F00550061019E1010E90EC35F0030E7735
:105DE100EC19F07FC011F053C012F054C013F055FC
:105DF100C014F00D0ECEEC1AF0B00E116E85EC351C
:105E0100F0130ECEEC1AF0AAD0010E90EC35F0038F
:105E11000E77EC19F0086A0A0E076ECFD86DEC12F6
:105E2100F037EC29F08BEC11F00C507DEC35F00BD8
:105E31000ECEEC1AF07FC00CF080C00DF0A0EC3556
:105E4100F08BEC11F00C507DEC35F0110ECEEC1A0C
:105E5100F0B00E116E85EC35F0170ECEEC1AF07E17
:105E6100D0200E136E13500DEC11F0132A300E13C7
:105E710064F9D7086A640E076E9BD86DEC12F0378F
:105E8100EC29F08BEC11F0C5EC35F092D86DEC12E9
:105E9100F037EC29F08BEC11F0DEEC35F084D8A072
:105EA100EC35F08BEC11F0B0EC35F037E0010E90F1
:105EB100EC35F0020E77EC19F0BCEC35F07DEC35E9
:105EC100F00B0ECEEC1AF08CEC35F07DEC35F011C8
:105ED1000ECEEC1AF089C111F085EC35F0170ECE1B
:105EE100EC1AF05DD87DEC35F01A0ECEEC1AF08B81
:105EF100C111F08EEC2BF0200E89EC18F03D0E1242
:105F01006EE10E116E400EE82EFED7112EFCD71257
:105F11002EFAD7080EF7EC13F021D0010E90EC35D4
:105F2100F0020E77EC19F08CEC35F07DEC35F00BCE
:105F31000ECEEC1AF089C111F085EC35F0110ECEC0
:105F4100EC1AF02DD87DEC35F0140ECEEC1AF08B56
:105F5100C111F085EC35F01A0ECEEC1AF0A4EC3537
:105F6100F0CDEC35F095EC35F040EF18F099EC35CB
:105F7100F0FDEC17F0EAEC3BF0FDEC17F04C5004AF
:105F8100E0030EB76FE4EF14F0B76BE4EF14F057D2
:105F910050040AECE0010A01E1F7D6030A120001FC
:105FA100018A51D00F120062C00CF063C00DF012D3
:105FB1000062C005F063C006F012007FC005F080EA
:105FC100C006F0120086EC0FF027C0C8F328C0C944
:105FD100F329C0CAF32AC0CBF30B0E0FD9D890C74F
:105FE10035CB6FC835CC6FC935CD6FCA35CE6F0390
:105FF1000ECF6FC8C3D0F2C9C3D1F2CAC3D2F2CB9C
:10600100C3D3F2CF6701D007D0D335D333D233D145
:1060110033D033CF2FF6D70201CB51D05D056ECCF3
:1060210051D159066ECD51D259076ECE51D359086F
:106031006E95C009F096C00AF097EC38F0DCEC12CE
:10604100F00201C66701D004D06DEC38F0C62FF81C
:10605100D705C0B8F306C0B9F307C0BAF308C0BB8F
:10606100F30C0ECBD8040ECB6FC8C3CCF2C9C3CD91
:10607100F2CAC3CEF2CBC3CFF2CB6701D007D0CFE8
:1060810035CF33CE33CD33CC33CB2FF6D70201C747
:1060910051CC5D056EC851CD59066EC951CE590717
:1060A1006ECA51CF59086E000197510201D06F009D
:1060B1000198510201D16FD26BD36B040ED46FC81A
:1060C100C3D5F2C9C3D6F2CAC3D7F2CBC3D8F2D46F
:1060D1006701D007D0D835D833D733D633D533D4A9
:1060E1002FF6D70201D051D55D096ED151D6590A8B
:1060F1006ED251D7590B6ED351D8590C6EDCEC12BC
:10610100F00201C66701D004D06DEC38F0C62FF85B
:10611100D705C0C4F306C0C5F307C0C6F308C0C79E
:10612100F30E0E0201C66FC4C305F0C5C306F0C667
:10613100C307F0C7C308F093C009F094C00AF097F1
:10614100EC38F0DCEC12F00201C66701D004D06D2E
:10615100EC38F0C62FF8D705C0BCF306C0BDF30775
:10616100C0BEF308C0BFF30301BC51B825010181D2
:106171006F0301BD51B9210101826F0301BE51BA03
:10618100210101836F0301BF51BB210101846F8193
:10619100C105F082C106F083C107F084C108F00592
:1061A1000E096E0A6A0B6A0C6ADCEC12F0800E05AD
:1061B100240201C66F000E0620C76F000E0720C81B
:1061C1006F000E0820C96FC7C2C6F2C8C2C7F2C9A4
:1061D100C2C8F2C96BC8BFC969C6C2C0F3C7C2C1D0
:1061E100F3C8C2C2F3C9C2C3F3C0C3F3F1C1C3F45C
:1061F100F1C2C3F5F1C3C3F6F112000201C66F008B
:106201000197510201C76F000198510201C86FC97E
:106211006BCA6B120027D078D953EC14F0160E0E0E
:106221006E620E0F6E440E106E4E0E116E1EEC104D
:10623100F023D0160E0E6E620E0F6E4DEC11F01C97
:10624100D0352A0C0E356402D0010E356EC3EC2A0E
:10625100F040EC18F0050E576E0FD035063550F6AC
:10626100E10C0EF3D75750010AD6E0030AE9E00129
:106271000AF4E0070ADEE0010A58A633D1A90EF6B6
:106281006E7F0EF76E000EF86E32D9000E89EC1893
:10629100F0AA0EF66E7F0EF76E000EF86E28D90684
:1062A1000E89EC18F0AB0EF66E7F0EF76E000EF84D
:1062B1006E1ED90C0E89EC18F0F4D0FA0EF66E7F32
:1062C1000EF76E000EF86E13D9120E89EC18F0FB62
:1062D1000EF66E7F0EF76E000EF86E09D9180E8954
:1062E100EC18F0FFD0F10EF66E7F0EF76E000EF88F
:1062F1006EFED8120E89EC18F0F20EF66E7F0EF7D4
:106301006E000EF86EF4D8180E89EC18F0EAD0D6AB
:106311000EF66E7F0EF76E000EF86EE9D8120E893A
:10632100EC18F0D70EF66E7F0EF76E000EF86EDFEA
:10633100D8180E89EC18F0D5D0CA0EF66E7F0EF77C
:106341006E000EF86ED4D8120E89EC18F0CB0EF652
:106351006E7F0EF76E000EF86ECAD8180E89EC1813
:10636100F0C0D0E20EF66E7F0EF76E000EF86EBF33
:10637100D8120E89EC18F0E30EF66E7F0EF76E0060
:106381000EF86EB5D8180E89EC18F0ABD0E50EF604
:106391006E7F0EF76E000EF86EAAD8120E89EC18F9
:1063A100F0E60EF66E7F0EF76E000EF86EA0D818AE
:1063B1000E89EC18F096D0D30EF66E7F0EF76E00B4
:1063C1000EF86E95D8120E89EC18F0D40EF66E7F89
:1063D1000EF76E000EF86E8BD8180E89EC18F0814E
:1063E100D0BDEC2EF084D8120E89EC18F0B6EC2E4C
:1063F100F07ED8180E89EC18F074D0D90EF66E7FA5
:106401000EF76E000EF86E73D8120E89EC18F0DAE2
:106411000EF66E7F0EF76E000EF86E69D8180E89B3
:10642100EC18F05FD0C70EF66E7F0EF76E000EF817
:106431006E5ED8120E89EC18F0C80EF66E7F0EF75C
:106441006E000EF86E54D8180E89EC18F04AD0E898
:106451000EF66E7F0EF76E000EF86E49D8120E8999
:10646100EC18F0E90EF66E7F0EF76E000EF86E3F37
:10647100D8180E89EC18F035D0DC0EF66E7F0EF7C9
:106481006E000EF86E34D8120E89EC18F0DD0EF69F
:106491006E7F0EF76E000EF86E2AD8180E89EC1872
:1064A100F020D03550010A01E108D7030A01E11AB1
:1064B100D7010A01E12CD7070A01E13ED7010A0100
:1064C100E150D7030A01E162D7010A01E174D70F54
:1064D1000A87E0010A92E0030AA5E0010AB8E00791
:1064E1000ACBE0BA0E076E2FEC11F05886120008A5
:1064F10000F5CF11F0910E126E780E136E000E148E
:106501006EBA0E156E166A120034C010F035C01145
:10651100F036C012F033501200266E15D10001ACD6
:106521006B276A6FD950EC10F011EC0FF000090ADB
:10653100E086D967D950EC10F011EC0FF017D9BAF9
:106541000F65D903D027500DEC11F079D974D91109
:10655100EC0FF00CD9C00F5AD92750F36FF46B5CD4
:10656100D950EC10F011EC0FF001D9C70F4FD959E8
:10657100D93F5011EC0FF0FAD8CD0F48D9272A0492
:106581000E2764CFD7276A4DD9056E3E5050EC10C7
:10659100F011EC0FF0030D0CD9D30F38D942D93ECD
:1065A1005011EC0FF0030D04D9D70F30D9272A026F
:1065B1000E2764E9D70001BF6B800EC56FC66FCC93
:1065C1006BD26BD66B1200010E0001AC6F1AD95061
:1065D100EC10F011EC0FF03C6E2ED911EC0FF03BEA
:1065E1006E1BD950EC10F011EC0FF03A6E20D9115E
:1065F100EC0FF0396E3C500001B11909E13B50B08C
:106601001906E13A50AF1903E13950AE196EE0397C
:1066110050AE1909E00CD911EC0FF07DEC35F019F1
:106621000ECEEC1AF007D003D911EC0FF094D81963
:106631000E89EC18F03A500001AF190BE0EDD8507B
:10664100EC10F011EC0FF07DEC35F0130ECEEC1ADE
:10665100F009D0E2D850EC10F011EC0FF07CD81317
:106661000E89EC18F03B500001B01909E0E4D81193
:10667100EC0FF07DEC35F0070ECEEC1AF007D0DB15
:10668100D811EC0FF068D8070E89EC18F0BAD85081
:10669100EC10F011EC0FF0000919E03C500001B1D1
:1066A100190BE0AFD850EC10F011EC0FF07DEC3588
:1066B100F0010ECEEC1AF010D0A4D850EC10F0116D
:1066C100EC0FF049D8010E89EC18F006D0116A855B
:1066D100EC35F0010ECEEC1AF03CC0B1F03BC0B08D
:1066E100F03AC0AFF039C0AEF012008BD850EC10C8
:1066F100F011EC0FF000090AE084D850EC10F01111
:10670100EC0FF029D8010E89EC18F006D0116A8E31
:10671100EC2BF0010E89EC18F08ED811EC0FF01B68
:10672100D8070E89EC18F078D850EC10F011EC0F66
:10673100F012D8130E89EC18F07AD811EC0FF00B87
:10674100D8190E89EF18F02650010A01E1E7D603A6
:106751000A01E139D71200116E53C012F054C0136F
:10676100F055C014F0BA0E156E166A1200050DF33D
:10677100CFF5F1F4CFF6F10101F5515324F76FF69E
:10678100515420F86F000EF6BFFF0E5520F96FF33C
:1067910051F725FA6FF451F821FB6F000EF921FC36
:1067A1006FFAC1F6FFFBC1F7FFFCC1F8FF275012DA
:1067B10000F3CFF5F1F4CFF6F1030E0101F5270057
:1067C1000EF623560EF76F780EF86F000EF96FF57F
:1067D10051F725FA6FF651F821FB6F000EF921FCF4
:1067E1006FF351FA25FD6FF451FB21FE6F000EFC92
:1067F10021FF6FFDC1F6FFFEC1F7FFFFC1F8FF27C3
:106801005012000A0E096E056E40501200D96EDA60
:106811006A0800F5CFDFFF12000A0E096E056E3F10
:106821005012002750F36FF46B0A0E096E0A0C0A1E
:106831000E096E3F5012000A0E096E4050120027D9
:10684100500101F36FF46B12004FD154EC0DF000C5
:1068510001B45118E0020E63D9000E77EC19F0452E
:106861000E116E52D9090ECEEC1AF0720E116E4C49
:10687100D90F0ECEEC1AF0720E116E46D9150ECE4E
:10688100EC1AF023D1602903E1612901E107D14F1D
:106891000403E06051611175E172D951D98BEC119A
:1068A100F00C500001A86F7BD984D96DEC12F00572
:1068B100C07DF006C07EF0050E0001A86502D07D06
:1068C1004B7E2B72D976D96DEC12F0055006102F44
:1068D100E1020E25D9030E77EC19F000017D517EFE
:1068E1001116E056C011F010D90D0ECEEC1AF0328F
:1068F100D926D98BEC11F00C50FFD8130ECEEC1A1F
:10690100F0B00E116E01D9190ECEEC1AF0DED022C4
:10691100D916D98BEC11F00C50EFD80D0ECEEC1A24
:10692100F0B00E116EF1D8130ECEEC1AF0CED002EB
:106931000EF6D8000E77EC19F056C011F0E5D80923
:106941000ECEEC1AF0086A0A0E076E2ED96DEC1203
:10695100F037EC29F08BEC11F00C50CED80F0ECEA5
:10696100EC1AF0F8D8ECD88BEC11F00C50C5D81516
:106971000ECEEC1AF0B00E116EC7D81B0ECEEC1A6B
:10698100F0A4D0200E286E28500DEC11F0282A30EA
:106991000E2864F9D7086A640E076E01D96DEC12EE
:1069A100F037EC29F08BEC11F0EFD8F9D86DEC123F
:1069B100F037EC29F08BEC11F000D9E1D8C0D88B7D
:1069C100EC11F0CDD839E0020EAAD8030E77EC19FC
:1069D100F056C011F099D80B0ECEEC1AF0CCD88C31
:1069E100D8110ECEEC1AF097D887D8170ECEEC1A24
:1069F100F089C111F089D81D0ECEEC1AF001018A7F
:106A010051D00FACEC33F0200E89EC18F08BC11192
:106A1100F08EEC2BF0260E89EC18F03D0E276EE17E
:106A21000E266E400EE82EFED7262EFCD7272EFA14
:106A3100D70A0EF7EC13F049D0020E71D8010E7788
:106A4100EC19F056C011F060D80B0ECEEC1AF063C1
:106A5100D853D8110ECEEC1AF089C111F055D817C0
:106A61000ECEEC1AF0D0EC2FF047D81A0ECEEC1A5D
:106A7100F08BC111F08EEC2BF0200E89EC18F03D5B
:106A81000E276EE10E266E400EE82EFED7262EFC56
:106A9100D7272EFAD7080EF7EC13F017D0020E3FC6
:106AA100D8000E77EC19F02D0E116E2ED8090ECEEE
:106AB100EC1AF02D0E116E28D80F0ECEEC1AF02D17
:106AC1000E116E22D8150ECEEC1AF03DD865D82CD9
:106AD100D840EF18F02DD8FDEC17F0F9EC3BF0FDA4
:106AE100EC17F0B76BE4EF14F05750040AF3E00130
:106AF1000A01E1ABD6030A1200116E53C012F05421
:106B0100C013F055C014F01200910E126E780E13DE
:106B11006E000E146E120001018851D00F12000C8C
:106B21006EBA0E0D6E0E6A1200076E0A6A096A12BB
:106B310000050E576ECE0E056E190E066E12000F71
:106B41006A0A0E0E6E0A0C060E576ECE0E056E19EF
:106B51000E066E12007DC00CF07EC00DF012000C0E
:106B610050300F01018A6F2E0E896FB00E8B6F8C22
:106B71006B300E8719120001018751D00F1200608E
:106B8100C00CF061C00DF012000C50300F010187F4
:106B91006F086A0A0E076E0A0C020E086E8A0C60F4
:106BA100C005F061C006F012007DC005F07EC00690
:106BB100F01200086A0A0E076E0A0C0C50300F0121
:106BC10001886F120072EC0FF027C0D3F228C0D4F5
:106BD100F229C0D5F22AC0D6F281C1C6F282C1C75C
:106BE100F283C1C8F284C1C9F20201C935D2DA0007
:106BF1000EC625E36F060EC721E46FFF0EC821E51F
:106C01006FFF0EC921E66F0B0E2CDADCEC12F002DD
:106C110001C66701D003D060DAC62FF9D763DAD78E
:106C2100C205F0D8C206F0D9C207F0DAC208F0896D
:106C3100C009F08AC00AF07ADADCEC12F08FDA8B44
:106C4100C005F08CC006F057DADCEC12F0D89005E4
:106C5100340201C66F0634C76F0734C86F0834C9E0
:106C61006FC651DB27C751DC23C851DD23C951DE73
:106C71002300018D510201C66F00018E510201C72F
:106C81006FC86BC96BC7C2C9F2C6C2C8F2C76BC6AF
:106C91006B020ECA6FDBC2CBF2DCC2CCF2DDC2CD1D
:106CA100F2DEC2CEF2CA6701D007D0CE35CE33CDE7
:106CB10033CC33CB33CA2FF6D70201C651CB25DBF8
:106CC1006FC751CC21DC6FC851CD21DD6FC951CEC9
:106CD10021DE6F0D0EC6D9DCEC12F00201C6670190
:106CE100D003D0FAD9C62FF9D7FDD9120E0201C6A9
:106CF1006F030EC76F8FC005F090C006F0000E093C
:106D0100DADCEC12F005C0C8F206C0C9F207C0CA4D
:106D1100F208C0CBF20201C76701D007D0CB35CB57
:106D210033CA33C933C833C72FF5D791C005F092A1
:106D3100C006F0E1D9DCEC12F0CFD905500201C850
:106D410025CC6F0650C921CD6F0750CA21CE6F08DF
:106D510050CB21CF6FC66701D007D0CF35CF33CE0F
:106D610033CD33CC33C62FF6D7CCC2E3F2CDC2E458
:106D7100F2CEC2E5F2CFC2E6F20F0E0201C66F00FB
:106D81000EE325056E800EE421066E000EE5210757
:106D91006E000EE621086EF5C009F0F6C00AF00B90
:106DA1006A0C6ADCEC12F00201C66701D003D094D0
:106DB100D9C62FF9D7DCD90201E351E411E511E677
:106DC1001106E10101F36BF46BF56BF66B12000C2C
:106DD1000EC66FDBC2C7F2DCC2C8F2DDC2C9F2DE89
:106DE100C2CAF2C66701D004D0CA35CED9C62FF9BE
:106DF100D7D3C2CBF2D4C2CCF2D5C2CDF2D6C2CE59
:106E0100F20201CB1FCC1FCD1FCE1FCB2B000ECC0E
:106E110023CD23CE23C751CB5DCF6FC851CC59D0E1
:106E21006FC951CD59D16FCA51CE59D26F000ECF12
:106E310025056E000ED021066E100ED121076E00C1
:106E41000ED221086E350E096E0C0E9AD9DCEC12A9
:106E5100F005C0DFF206C0E0F207C0E1F208C0E2CF
:106E6100F2800E0201E25D0EE2D890DF35116EE094
:106E710035126EE135136EE235146E67D952EC1698
:106E8100F05BD915D0DFC211F0E0C212F0E1C213FC
:106E9100F0E2C214F05AD952EC16F0D89011340233
:106EA10001DF6F1234E06F1334E16F1434E26FDFEE
:106EB100C2C6F2E0C2C7F2E1C2C8F2E2C2C9F2043C
:106EC1000E03D00201D89065D9E82EFBD7C6C205C2
:106ED100F0C7C206F0C8C207F0C9C208F0DFC2CAD3
:106EE100F2E0C2CBF2E1C2CCF2E2C2CDF2040E0575
:106EF100D0D890CD33CC33CB33CA33E82EF9D7CAAF
:106F0100C209F0CBC20AF0CCC20BF0CDC20CF0DC4E
:106F1100EC12F00E0E05D0D8900832073206320579
:106F210032E82EF9D7DFD80C0E0201C66F83C005F7
:106F3100F084C006F0000EEDD8DCEC12F00201C6C0
:106F41006701D003D0C9D8C62FF9D711D90D0E02C8
:106F510001C66FDFC2C7F2E0C2C8F2E1C2C9F2E204
:106F6100C2CAF2030E02D0D8900FD9E82EFCD7C7BF
:106F7100C205F0C8C206F0C9C207F0CAC208F0854E
:106F8100C009F086C00AF0D2D8DCEC12F00201C6CA
:106F91006701D003D0A1D8C62FF9D7E0D8040E02DB
:106FA10001C66F87C0C7F288C0C8F2000EC8BFFF14
:106FB1000EC96FCA6FE351C725CB6FE451C821CC0D
:106FC1006FE551C921CD6FE651CA21CE6FDB51CB9F
:106FD10025CF6FDC51CC21D06FDD51CD21D16FDEBA
:106FE10051CE21D26FC66701D007D0D235D233D16D
:106FF10033D033CF33C62FF6D70201DF51CF25DF90
:107001006FE051D021E06FE151D121E16FE251D226
:1070110021E26FDFC205F0E0C206F0E1C207F0E253
:10702100C208F0E80E096E030EABD8DCEC12F005D5
:10703100C011F006C012F007C013F008C014F0141C
:107041000E156E340E166E176A186A52EC16F0742D
:10705100D8DFC2F3F1E0C2F4F1E1C2F5F1E2C2F628
:10706100F11200C66F020EC76FE3C2C8F2E4C2C9D3
:10707100F2E5C2CAF2E6C2CBF2C76701D007D0CBB4
:1070810035CB33CA33C933C833C72FF6D7C8C20586
:10709100F0C9C206F0CAC207F0CBC208F0020E0264
:1070A10001CC6FE3C2CDF2E4C2CEF2E5C2CFF2E68B
:1070B100C2D0F2CC6701D007D0D035D033CF33CE98
:1070C10033CD33CC2FF6D7CDC209F0CEC20AF0CFE3
:1070D100C20BF0D0C20CF01200083408320732069D
:1070E100320532120005C0D7F206C0D8F207C0D966
:1070F100F208C0DAF21200000E06BEFF0E076E089B
:107101006EE3C209F0E4C20AF0E5C20BF0E6C20C7C
:10711100F0120006BEFF0E076E086ED7C209F0D846
:10712100C20AF0D9C20BF0DAC20CF01200000E0A4A
:10713100BEFF0E0B6E0C6E120011C0DFF212C0E02A
:10714100F213C0E1F214C0E2F21200E3C215F0E45E
:10715100C216F0E5C217F0E6C218F0120005C0DB56
:10716100F206C0DCF207C0DDF208C0DEF212000553
:10717100C0E3F206C0E4F207C0E5F208C0E6F2128D
:10718100000A6E0B6A0C6A1200CA33C933C833C7CE
:10719100331200C933C833C733C633120028D0377E
:1071A100EC0FF00C6E100E3824D96EDA6A020EDA8A
:1071B100220CC0DFFF382A010E386415D00F0E38BB
:1071C10024D96EDA6A020EDA220A0EDE180CE10EFA
:1071D1000E3824D96EDA6A020EDA220D0EDE180399
:1071E100E1010EAA6F06D0950E386401D0386A3DD0
:1071F10050D6E13D5002E10EEC0DF00001AA51D84C
:10720100B41200240E0201101901E14DD282D2758F
:10721100EC1AF07FD2240E6AEC10F04A0E6AEC10E0
:10722100F00E6A0E50460F7BEC17F06AEC10F00E70
:107231002A0C0E0E64F6D70D0E6AEC10F00A0E6AD7
:10724100EC10F067D20E6A07D097DAE30E0E24E154
:107251006EE26A010EAFDA87DA02EC13F0FE0E7508
:10726100DA01E257D2F1D758A01CD092DA326E96E9
:10727100DA316E9ADA306E0001F7510CE0325005C6
:10728100E182DA170EAAEC11F009D07DDA3204AAF4
:10729100EC11F004D078DA3250AAEC11F0D3EC0DF5
:1072A100F038D2C7EC0DF035D23CDA0C040D1004E5
:1072B100E038DA0C500D10F5E11251D00F526E5238
:1072C100C005F00E0EA4EC0EF0E9D72BDA0C040D7C
:1072D1001005E027DA020E0C180D10E3E11251D06F
:1072E1000F476E47C005F0010EA4EC0EF054EC0DF3
:1072F100F0470403E10001AC6B02D0ADEC2DF0B21C
:107301006BCDD7010E2CDAA4EC0EF023EC14F02295
:10731100D0020E25DAA4EC0EF0F8D7030E20DAA481
:10732100EC0EF0F3D7040E1BDAA4EC0EF0EED70549
:107331000E16DAA4EC0EF0E9D7F4D90D500BE10CDE
:1073410050010ADFE0030AE4E0010AE7E0070AEA84
:10735100E0010AEDE0D00E02011225EAD90DBE06C8
:10736100D00D509FE1060E0C5CD8B09BD7DAD90C3A
:10737100500D1097E093D712DA106E16DA116E1ACB
:10738100510A0DF3501B25F00F126E02DA53EC1463
:10739100F0020118510A0DF3501925F00F456E4501
:1073A100C005F00D0EA4EC0EF079D7BBD90C500D31
:1073B1001005E0B7D90C040D1001E073D71251D0BC
:1073C1000F486E1351D00F496E48C005F0020EA44C
:1073D100EC0EF0485001E062D749C005F0030EA45D
:1073E100EC0EF098EC22F020EC0EF058D79AD90C64
:1073F100500D1005E096D90C040D1001E052D71282
:1074010051D00F4A6E4AC005F0040EA4EC0EF046AE
:10741100D788D90C500D1005E084D90C040D10014A
:10742100E040D7D00E132584D90C500D1007E0D0C1
:107431000E13257ED90C040D1001E033D71251D063
:107441000F4B6E1351D00F4C6E4BC005F0050EA4BF
:10745100EC0EF0DAD9A4EC0EF021D763D90C500D63
:107461001005E05FD90C040D1001E01BD71251D0BB
:107471000F4D6EC7D9A4EC0EF011D753D90C500D96
:107481001005E04FD90C040D1001E00BD71251D0BB
:107491000F4E6EBDD9A4EC0EF001D743D90C040DEB
